{
  "_format": "hh-sol-artifact-1",
  "contractName": "ProductNFT",
  "sourceName": "contracts/ProductNFT.sol",
  "abi": [
    {
      "inputs": [],
      "stateMutability": "nonpayable",
      "type": "constructor"
    },
    {
      "anonymous": false,
      "inputs": [
        {
          "indexed": true,
          "internalType": "address",
          "name": "owner",
          "type": "address"
        },
        {
          "indexed": true,
          "internalType": "address",
          "name": "approved",
          "type": "address"
        },
        {
          "indexed": true,
          "internalType": "uint256",
          "name": "tokenId",
          "type": "uint256"
        }
      ],
      "name": "Approval",
      "type": "event"
    },
    {
      "anonymous": false,
      "inputs": [
        {
          "indexed": true,
          "internalType": "address",
          "name": "owner",
          "type": "address"
        },
        {
          "indexed": true,
          "internalType": "address",
          "name": "operator",
          "type": "address"
        },
        {
          "indexed": false,
          "internalType": "bool",
          "name": "approved",
          "type": "bool"
        }
      ],
      "name": "ApprovalForAll",
      "type": "event"
    },
    {
      "anonymous": false,
      "inputs": [
        {
          "indexed": false,
          "internalType": "uint256",
          "name": "_fromTokenId",
          "type": "uint256"
        },
        {
          "indexed": false,
          "internalType": "uint256",
          "name": "_toTokenId",
          "type": "uint256"
        }
      ],
      "name": "BatchMetadataUpdate",
      "type": "event"
    },
    {
      "anonymous": false,
      "inputs": [
        {
          "indexed": false,
          "internalType": "uint256",
          "name": "_tokenId",
          "type": "uint256"
        }
      ],
      "name": "MetadataUpdate",
      "type": "event"
    },
    {
      "anonymous": false,
      "inputs": [
        {
          "indexed": true,
          "internalType": "address",
          "name": "previousOwner",
          "type": "address"
        },
        {
          "indexed": true,
          "internalType": "address",
          "name": "newOwner",
          "type": "address"
        }
      ],
      "name": "OwnershipTransferred",
      "type": "event"
    },
    {
      "anonymous": false,
      "inputs": [
        {
          "indexed": true,
          "internalType": "uint256",
          "name": "tokenId",
          "type": "uint256"
        },
        {
          "indexed": false,
          "internalType": "string",
          "name": "name",
          "type": "string"
        },
        {
          "indexed": false,
          "internalType": "address",
          "name": "seller",
          "type": "address"
        }
      ],
      "name": "ProductCreated",
      "type": "event"
    },
    {
      "anonymous": false,
      "inputs": [
        {
          "indexed": true,
          "internalType": "uint256",
          "name": "tokenId",
          "type": "uint256"
        },
        {
          "indexed": false,
          "internalType": "string",
          "name": "newStatus",
          "type": "string"
        }
      ],
      "name": "ProductStatusUpdated",
      "type": "event"
    },
    {
      "anonymous": false,
      "inputs": [
        {
          "indexed": true,
          "internalType": "uint256",
          "name": "tokenId",
          "type": "uint256"
        },
        {
          "indexed": false,
          "internalType": "address",
          "name": "from",
          "type": "address"
        },
        {
          "indexed": false,
          "internalType": "address",
          "name": "to",
          "type": "address"
        }
      ],
      "name": "ProductTransferred",
      "type": "event"
    },
    {
      "anonymous": false,
      "inputs": [
        {
          "indexed": true,
          "internalType": "address",
          "name": "from",
          "type": "address"
        },
        {
          "indexed": true,
          "internalType": "address",
          "name": "to",
          "type": "address"
        },
        {
          "indexed": true,
          "internalType": "uint256",
          "name": "tokenId",
          "type": "uint256"
        }
      ],
      "name": "Transfer",
      "type": "event"
    },
    {
      "inputs": [
        {
          "internalType": "address",
          "name": "to",
          "type": "address"
        },
        {
          "internalType": "uint256",
          "name": "tokenId",
          "type": "uint256"
        }
      ],
      "name": "approve",
      "outputs": [],
      "stateMutability": "nonpayable",
      "type": "function"
    },
    {
      "inputs": [
        {
          "internalType": "address",
          "name": "owner",
          "type": "address"
        }
      ],
      "name": "balanceOf",
      "outputs": [
        {
          "internalType": "uint256",
          "name": "",
          "type": "uint256"
        }
      ],
      "stateMutability": "view",
      "type": "function"
    },
    {
      "inputs": [
        {
          "internalType": "address",
          "name": "recipient",
          "type": "address"
        },
        {
          "internalType": "string",
          "name": "name",
          "type": "string"
        },
        {
          "internalType": "string",
          "name": "seller",
          "type": "string"
        },
        {
          "internalType": "string",
          "name": "tokenURI",
          "type": "string"
        }
      ],
      "name": "createProduct",
      "outputs": [
        {
          "internalType": "uint256",
          "name": "",
          "type": "uint256"
        }
      ],
      "stateMutability": "nonpayable",
      "type": "function"
    },
    {
      "inputs": [
        {
          "internalType": "uint256",
          "name": "tokenId",
          "type": "uint256"
        }
      ],
      "name": "getApproved",
      "outputs": [
        {
          "internalType": "address",
          "name": "",
          "type": "address"
        }
      ],
      "stateMutability": "view",
      "type": "function"
    },
    {
      "inputs": [],
      "name": "getCurrentTokenId",
      "outputs": [
        {
          "internalType": "uint256",
          "name": "",
          "type": "uint256"
        }
      ],
      "stateMutability": "view",
      "type": "function"
    },
    {
      "inputs": [
        {
          "internalType": "uint256",
          "name": "tokenId",
          "type": "uint256"
        }
      ],
      "name": "getProduct",
      "outputs": [
        {
          "internalType": "string",
          "name": "name",
          "type": "string"
        },
        {
          "internalType": "string",
          "name": "seller",
          "type": "string"
        },
        {
          "internalType": "uint256",
          "name": "creationDate",
          "type": "uint256"
        },
        {
          "internalType": "string",
          "name": "status",
          "type": "string"
        },
        {
          "internalType": "address",
          "name": "currentOwner",
          "type": "address"
        }
      ],
      "stateMutability": "view",
      "type": "function"
    },
    {
      "inputs": [
        {
          "internalType": "address",
          "name": "owner",
          "type": "address"
        },
        {
          "internalType": "address",
          "name": "operator",
          "type": "address"
        }
      ],
      "name": "isApprovedForAll",
      "outputs": [
        {
          "internalType": "bool",
          "name": "",
          "type": "bool"
        }
      ],
      "stateMutability": "view",
      "type": "function"
    },
    {
      "inputs": [],
      "name": "name",
      "outputs": [
        {
          "internalType": "string",
          "name": "",
          "type": "string"
        }
      ],
      "stateMutability": "view",
      "type": "function"
    },
    {
      "inputs": [],
      "name": "owner",
      "outputs": [
        {
          "internalType": "address",
          "name": "",
          "type": "address"
        }
      ],
      "stateMutability": "view",
      "type": "function"
    },
    {
      "inputs": [
        {
          "internalType": "uint256",
          "name": "tokenId",
          "type": "uint256"
        }
      ],
      "name": "ownerOf",
      "outputs": [
        {
          "internalType": "address",
          "name": "",
          "type": "address"
        }
      ],
      "stateMutability": "view",
      "type": "function"
    },
    {
      "inputs": [],
      "name": "renounceOwnership",
      "outputs": [],
      "stateMutability": "nonpayable",
      "type": "function"
    },
    {
      "inputs": [
        {
          "internalType": "address",
          "name": "from",
          "type": "address"
        },
        {
          "internalType": "address",
          "name": "to",
          "type": "address"
        },
        {
          "internalType": "uint256",
          "name": "tokenId",
          "type": "uint256"
        }
      ],
      "name": "safeTransferFrom",
      "outputs": [],
      "stateMutability": "nonpayable",
      "type": "function"
    },
    {
      "inputs": [
        {
          "internalType": "address",
          "name": "from",
          "type": "address"
        },
        {
          "internalType": "address",
          "name": "to",
          "type": "address"
        },
        {
          "internalType": "uint256",
          "name": "tokenId",
          "type": "uint256"
        },
        {
          "internalType": "bytes",
          "name": "data",
          "type": "bytes"
        }
      ],
      "name": "safeTransferFrom",
      "outputs": [],
      "stateMutability": "nonpayable",
      "type": "function"
    },
    {
      "inputs": [
        {
          "internalType": "address",
          "name": "operator",
          "type": "address"
        },
        {
          "internalType": "bool",
          "name": "approved",
          "type": "bool"
        }
      ],
      "name": "setApprovalForAll",
      "outputs": [],
      "stateMutability": "nonpayable",
      "type": "function"
    },
    {
      "inputs": [
        {
          "internalType": "bytes4",
          "name": "interfaceId",
          "type": "bytes4"
        }
      ],
      "name": "supportsInterface",
      "outputs": [
        {
          "internalType": "bool",
          "name": "",
          "type": "bool"
        }
      ],
      "stateMutability": "view",
      "type": "function"
    },
    {
      "inputs": [],
      "name": "symbol",
      "outputs": [
        {
          "internalType": "string",
          "name": "",
          "type": "string"
        }
      ],
      "stateMutability": "view",
      "type": "function"
    },
    {
      "inputs": [
        {
          "internalType": "uint256",
          "name": "tokenId",
          "type": "uint256"
        }
      ],
      "name": "tokenURI",
      "outputs": [
        {
          "internalType": "string",
          "name": "",
          "type": "string"
        }
      ],
      "stateMutability": "view",
      "type": "function"
    },
    {
      "inputs": [
        {
          "internalType": "address",
          "name": "from",
          "type": "address"
        },
        {
          "internalType": "address",
          "name": "to",
          "type": "address"
        },
        {
          "internalType": "uint256",
          "name": "tokenId",
          "type": "uint256"
        }
      ],
      "name": "transferFrom",
      "outputs": [],
      "stateMutability": "nonpayable",
      "type": "function"
    },
    {
      "inputs": [
        {
          "internalType": "address",
          "name": "newOwner",
          "type": "address"
        }
      ],
      "name": "transferOwnership",
      "outputs": [],
      "stateMutability": "nonpayable",
      "type": "function"
    },
    {
      "inputs": [
        {
          "internalType": "uint256",
          "name": "tokenId",
          "type": "uint256"
        },
        {
          "internalType": "string",
          "name": "newStatus",
          "type": "string"
        }
      ],
      "name": "updateProductStatus",
      "outputs": [],
      "stateMutability": "nonpayable",
      "type": "function"
    }
  ],
  "bytecode": "0x60806040523480156200001157600080fd5b506040518060400160405280600b81526020016a141c9bd91d58dd0813919560aa1b815250604051806040016040528060048152602001631413919560e21b815250816000908162000064919062000191565b50600162000073828262000191565b505050620000906200008a6200009660201b60201c565b6200009a565b6200025d565b3390565b600780546001600160a01b038381166001600160a01b0319831681179093556040519116919082907f8be0079c531659141344cd1fd0a4f28419497f9722a3daafe3b4186f6b6457e090600090a35050565b634e487b7160e01b600052604160045260246000fd5b600181811c908216806200011757607f821691505b6020821081036200013857634e487b7160e01b600052602260045260246000fd5b50919050565b601f8211156200018c57600081815260208120601f850160051c81016020861015620001675750805b601f850160051c820191505b81811015620001885782815560010162000173565b5050505b505050565b81516001600160401b03811115620001ad57620001ad620000ec565b620001c581620001be845462000102565b846200013e565b602080601f831160018114620001fd5760008415620001e45750858301515b600019600386901b1c1916600185901b17855562000188565b600085815260208120601f198616915b828110156200022e578886015182559484019460019091019084016200020d565b50858210156200024d5787850151600019600388901b60f8161c191681555b5050505050600190811b01905550565b611e35806200026d6000396000f3fe608060405234801561001057600080fd5b506004361061012c5760003560e01c8063715018a6116100ad578063b9db15b411610071578063b9db15b41461026a578063ba4295781461028e578063c87b56dd146102a1578063e985e9c5146102b4578063f2fde38b146102f057600080fd5b8063715018a6146102235780638da5cb5b1461022b57806395d89b411461023c578063a22cb46514610244578063b88d4fde1461025757600080fd5b806323b872dd116100f457806323b872dd146101cf57806342842e0e146101e257806356189236146101f55780636352211e146101fd57806370a082311461021057600080fd5b806301ffc9a71461013157806306fdde0314610159578063081812fc1461016e578063095ea7b3146101995780631e7054b3146101ae575b600080fd5b61014461013f366004611725565b610303565b60405190151581526020015b60405180910390f35b61016161032e565b6040516101509190611792565b61018161017c3660046117a5565b6103c0565b6040516001600160a01b039091168152602001610150565b6101ac6101a73660046117da565b6103e7565b005b6101c16101bc3660046118b0565b610501565b604051908152602001610150565b6101ac6101dd366004611949565b610643565b6101ac6101f0366004611949565b610674565b6101c161068f565b61018161020b3660046117a5565b61069f565b6101c161021e366004611985565b6106ff565b6101ac610785565b6007546001600160a01b0316610181565b610161610799565b6101ac6102523660046119a0565b6107a8565b6101ac6102653660046119dc565b6107b7565b61027d6102783660046117a5565b6107ef565b604051610150959493929190611a4c565b6101ac61029c366004611aa6565b610a5a565b6101616102af3660046117a5565b610b51565b6101446102c2366004611aed565b6001600160a01b03918216600090815260056020908152604080832093909416825291909152205460ff1690565b6101ac6102fe366004611985565b610c59565b60006001600160e01b03198216632483248360e11b1480610328575061032882610cd2565b92915050565b60606000805461033d90611b20565b80601f016020809104026020016040519081016040528092919081815260200182805461036990611b20565b80156103b65780601f1061038b576101008083540402835291602001916103b6565b820191906000526020600020905b81548152906001019060200180831161039957829003601f168201915b5050505050905090565b60006103cb82610d22565b506000908152600460205260409020546001600160a01b031690565b60006103f28261069f565b9050806001600160a01b0316836001600160a01b0316036104645760405162461bcd60e51b815260206004820152602160248201527f4552433732313a20617070726f76616c20746f2063757272656e74206f776e656044820152603960f91b60648201526084015b60405180910390fd5b336001600160a01b0382161480610480575061048081336102c2565b6104f25760405162461bcd60e51b815260206004820152603d60248201527f4552433732313a20617070726f76652063616c6c6572206973206e6f7420746f60448201527f6b656e206f776e6572206f7220617070726f76656420666f7220616c6c000000606482015260840161045b565b6104fc8383610d72565b505050565b600061050b610de0565b610519600880546001019055565b600061052460085490565b90506105308682610e3a565b61053a8184610fa7565b6040805160a0810182528681526020808201879052428284015282518084018452600781526610dc99585d195960ca1b8183015260608301526001600160a01b038916608083015260008481526009909152919091208151819061059e9082611ba8565b50602082015160018201906105b39082611ba8565b5060408201516002820155606082015160038201906105d29082611ba8565b5060809190910151600490910180546001600160a01b0319166001600160a01b0390921691909117905560405181907faf6ffb6277511513e7d579327cc1fc57f0266df2fb11a60b13487b8c9cd2c388906106309088908a90611c68565b60405180910390a290505b949350505050565b61064d3382611063565b6106695760405162461bcd60e51b815260040161045b90611c92565b6104fc8383836110e1565b6104fc838383604051806020016040528060008152506107b7565b600061069a60085490565b905090565b6000818152600260205260408120546001600160a01b0316806103285760405162461bcd60e51b8152602060048201526018602482015277115490cdcc8c4e881a5b9d985b1a59081d1bdad95b88125160421b604482015260640161045b565b60006001600160a01b0382166107695760405162461bcd60e51b815260206004820152602960248201527f4552433732313a2061646472657373207a65726f206973206e6f7420612076616044820152683634b21037bbb732b960b91b606482015260840161045b565b506001600160a01b031660009081526003602052604090205490565b61078d610de0565b610797600061115e565b565b60606001805461033d90611b20565b6107b33383836111b0565b5050565b6107c13383611063565b6107dd5760405162461bcd60e51b815260040161045b90611c92565b6107e98484848461127e565b50505050565b606080600060606000610801866112b1565b6108465760405162461bcd60e51b8152602060048201526016602482015275141c9bd91d58dd08191bd95cc81b9bdd08195e1a5cdd60521b604482015260640161045b565b600086815260096020526040808220815160a0810190925280548290829061086d90611b20565b80601f016020809104026020016040519081016040528092919081815260200182805461089990611b20565b80156108e65780601f106108bb576101008083540402835291602001916108e6565b820191906000526020600020905b8154815290600101906020018083116108c957829003601f168201915b505050505081526020016001820180546108ff90611b20565b80601f016020809104026020016040519081016040528092919081815260200182805461092b90611b20565b80156109785780601f1061094d57610100808354040283529160200191610978565b820191906000526020600020905b81548152906001019060200180831161095b57829003601f168201915b505050505081526020016002820154815260200160038201805461099b90611b20565b80601f01602080910402602001604051908101604052809291908181526020018280546109c790611b20565b8015610a145780601f106109e957610100808354040283529160200191610a14565b820191906000526020600020905b8154815290600101906020018083116109f757829003601f168201915b5050509183525050600491909101546001600160a01b031660209182015281519082015160408301516060840151608090940151929b919a509850919650945092505050565b610a63826112b1565b610aa85760405162461bcd60e51b8152602060048201526016602482015275141c9bd91d58dd08191bd95cc81b9bdd08195e1a5cdd60521b604482015260640161045b565b33610ab28361069f565b6001600160a01b031614610af95760405162461bcd60e51b815260206004820152600e60248201526d139bdd08185d5d1a1bdc9a5e995960921b604482015260640161045b565b6000828152600960205260409020600301610b148282611ba8565b50817fa36cb1ddda60c305ec3ccef5b0c79c077f1daa8c91329aca59b487bd5992de6982604051610b459190611792565b60405180910390a25050565b6060610b5c82610d22565b60008281526006602052604081208054610b7590611b20565b80601f0160208091040260200160405190810160405280929190818152602001828054610ba190611b20565b8015610bee5780601f10610bc357610100808354040283529160200191610bee565b820191906000526020600020905b815481529060010190602001808311610bd157829003601f168201915b505050505090506000610c0c60408051602081019091526000815290565b90508051600003610c1e575092915050565b815115610c50578082604051602001610c38929190611cdf565b60405160208183030381529060405292505050919050565b61063b846112ce565b610c61610de0565b6001600160a01b038116610cc65760405162461bcd60e51b815260206004820152602660248201527f4f776e61626c653a206e6577206f776e657220697320746865207a65726f206160448201526564647265737360d01b606482015260840161045b565b610ccf8161115e565b50565b60006001600160e01b031982166380ac58cd60e01b1480610d0357506001600160e01b03198216635b5e139f60e01b145b8061032857506301ffc9a760e01b6001600160e01b0319831614610328565b610d2b816112b1565b610ccf5760405162461bcd60e51b8152602060048201526018602482015277115490cdcc8c4e881a5b9d985b1a59081d1bdad95b88125160421b604482015260640161045b565b600081815260046020526040902080546001600160a01b0319166001600160a01b0384169081179091558190610da78261069f565b6001600160a01b03167f8c5be1e5ebec7d5bd14f71427d1e84f3dd0314c0f7b2291e5b200ac8c7c3b92560405160405180910390a45050565b6007546001600160a01b031633146107975760405162461bcd60e51b815260206004820181905260248201527f4f776e61626c653a2063616c6c6572206973206e6f7420746865206f776e6572604482015260640161045b565b6001600160a01b038216610e905760405162461bcd60e51b815260206004820181905260248201527f4552433732313a206d696e7420746f20746865207a65726f2061646472657373604482015260640161045b565b610e99816112b1565b15610ee65760405162461bcd60e51b815260206004820152601c60248201527f4552433732313a20746f6b656e20616c7265616479206d696e74656400000000604482015260640161045b565b610eef816112b1565b15610f3c5760405162461bcd60e51b815260206004820152601c60248201527f4552433732313a20746f6b656e20616c7265616479206d696e74656400000000604482015260640161045b565b6001600160a01b038216600081815260036020908152604080832080546001019055848352600290915280822080546001600160a01b0319168417905551839291907fddf252ad1be2c89b69c2b068fc378daa952ba7f163c4a11628f55a4df523b3ef908290a45050565b610fb0826112b1565b6110135760405162461bcd60e51b815260206004820152602e60248201527f45524337323155524953746f726167653a2055524920736574206f66206e6f6e60448201526d32bc34b9ba32b73a103a37b5b2b760911b606482015260840161045b565b600082815260066020526040902061102b8282611ba8565b506040518281527ff8e1a15aba9398e019f0b49df1a4fde98ee17ae345cb5f6b5e2c27f5033e8ce79060200160405180910390a15050565b60008061106f8361069f565b9050806001600160a01b0316846001600160a01b031614806110b657506001600160a01b0380821660009081526005602090815260408083209388168352929052205460ff165b8061063b5750836001600160a01b03166110cf846103c0565b6001600160a01b031614949350505050565b6110ec838383611342565b60008181526009602090815260409182902060040180546001600160a01b0319166001600160a01b03868116918217909255835191871682529181019190915282917fcef86d37ba3dc1d682967cde44d8050488734bf53166725b220b4d2e515e9e93910160405180910390a2505050565b600780546001600160a01b038381166001600160a01b0319831681179093556040519116919082907f8be0079c531659141344cd1fd0a4f28419497f9722a3daafe3b4186f6b6457e090600090a35050565b816001600160a01b0316836001600160a01b0316036112115760405162461bcd60e51b815260206004820152601960248201527f4552433732313a20617070726f766520746f2063616c6c657200000000000000604482015260640161045b565b6001600160a01b03838116600081815260056020908152604080832094871680845294825291829020805460ff191686151590811790915591519182527f17307eab39ab6107e8899845ad3d59bd9653f200f220920489ca2b5937696c31910160405180910390a3505050565b6112898484846110e1565b611295848484846114a6565b6107e95760405162461bcd60e51b815260040161045b90611d0e565b6000908152600260205260409020546001600160a01b0316151590565b60606112d982610d22565b60006112f060408051602081019091526000815290565b90506000815111611310576040518060200160405280600081525061133b565b8061131a846115a4565b60405160200161132b929190611cdf565b6040516020818303038152906040525b9392505050565b826001600160a01b03166113558261069f565b6001600160a01b03161461137b5760405162461bcd60e51b815260040161045b90611d60565b6001600160a01b0382166113dd5760405162461bcd60e51b8152602060048201526024808201527f4552433732313a207472616e7366657220746f20746865207a65726f206164646044820152637265737360e01b606482015260840161045b565b826001600160a01b03166113f08261069f565b6001600160a01b0316146114165760405162461bcd60e51b815260040161045b90611d60565b600081815260046020908152604080832080546001600160a01b03199081169091556001600160a01b0387811680865260038552838620805460001901905590871680865283862080546001019055868652600290945282852080549092168417909155905184937fddf252ad1be2c89b69c2b068fc378daa952ba7f163c4a11628f55a4df523b3ef91a4505050565b60006001600160a01b0384163b1561159c57604051630a85bd0160e11b81526001600160a01b0385169063150b7a02906114ea903390899088908890600401611da5565b6020604051808303816000875af1925050508015611525575060408051601f3d908101601f1916820190925261152291810190611de2565b60015b611582573d808015611553576040519150601f19603f3d011682016040523d82523d6000602084013e611558565b606091505b50805160000361157a5760405162461bcd60e51b815260040161045b90611d0e565b805181602001fd5b6001600160e01b031916630a85bd0160e11b14905061063b565b50600161063b565b606060006115b183611637565b600101905060008167ffffffffffffffff8111156115d1576115d1611804565b6040519080825280601f01601f1916602001820160405280156115fb576020820181803683370190505b5090508181016020015b600019016f181899199a1a9b1b9c1cb0b131b232b360811b600a86061a8153600a850494508461160557509392505050565b60008072184f03e93ff9f4daa797ed6e38ed64bf6a1f0160401b83106116765772184f03e93ff9f4daa797ed6e38ed64bf6a1f0160401b830492506040015b6d04ee2d6d415b85acef810000000083106116a2576d04ee2d6d415b85acef8100000000830492506020015b662386f26fc1000083106116c057662386f26fc10000830492506010015b6305f5e10083106116d8576305f5e100830492506008015b61271083106116ec57612710830492506004015b606483106116fe576064830492506002015b600a83106103285760010192915050565b6001600160e01b031981168114610ccf57600080fd5b60006020828403121561173757600080fd5b813561133b8161170f565b60005b8381101561175d578181015183820152602001611745565b50506000910152565b6000815180845261177e816020860160208601611742565b601f01601f19169290920160200192915050565b60208152600061133b6020830184611766565b6000602082840312156117b757600080fd5b5035919050565b80356001600160a01b03811681146117d557600080fd5b919050565b600080604083850312156117ed57600080fd5b6117f6836117be565b946020939093013593505050565b634e487b7160e01b600052604160045260246000fd5b600067ffffffffffffffff8084111561183557611835611804565b604051601f8501601f19908116603f0116810190828211818310171561185d5761185d611804565b8160405280935085815286868601111561187657600080fd5b858560208301376000602087830101525050509392505050565b600082601f8301126118a157600080fd5b61133b8383356020850161181a565b600080600080608085870312156118c657600080fd5b6118cf856117be565b9350602085013567ffffffffffffffff808211156118ec57600080fd5b6118f888838901611890565b9450604087013591508082111561190e57600080fd5b61191a88838901611890565b9350606087013591508082111561193057600080fd5b5061193d87828801611890565b91505092959194509250565b60008060006060848603121561195e57600080fd5b611967846117be565b9250611975602085016117be565b9150604084013590509250925092565b60006020828403121561199757600080fd5b61133b826117be565b600080604083850312156119b357600080fd5b6119bc836117be565b9150602083013580151581146119d157600080fd5b809150509250929050565b600080600080608085870312156119f257600080fd5b6119fb856117be565b9350611a09602086016117be565b925060408501359150606085013567ffffffffffffffff811115611a2c57600080fd5b8501601f81018713611a3d57600080fd5b61193d8782356020840161181a565b60a081526000611a5f60a0830188611766565b8281036020840152611a718188611766565b90508560408401528281036060840152611a8b8186611766565b91505060018060a01b03831660808301529695505050505050565b60008060408385031215611ab957600080fd5b82359150602083013567ffffffffffffffff811115611ad757600080fd5b611ae385828601611890565b9150509250929050565b60008060408385031215611b0057600080fd5b611b09836117be565b9150611b17602084016117be565b90509250929050565b600181811c90821680611b3457607f821691505b602082108103611b5457634e487b7160e01b600052602260045260246000fd5b50919050565b601f8211156104fc57600081815260208120601f850160051c81016020861015611b815750805b601f850160051c820191505b81811015611ba057828155600101611b8d565b505050505050565b815167ffffffffffffffff811115611bc257611bc2611804565b611bd681611bd08454611b20565b84611b5a565b602080601f831160018114611c0b5760008415611bf35750858301515b600019600386901b1c1916600185901b178555611ba0565b600085815260208120601f198616915b82811015611c3a57888601518255948401946001909101908401611c1b565b5085821015611c585787850151600019600388901b60f8161c191681555b5050505050600190811b01905550565b604081526000611c7b6040830185611766565b905060018060a01b03831660208301529392505050565b6020808252602d908201527f4552433732313a2063616c6c6572206973206e6f7420746f6b656e206f776e6560408201526c1c881bdc88185c1c1c9bdd9959609a1b606082015260800190565b60008351611cf1818460208801611742565b835190830190611d05818360208801611742565b01949350505050565b60208082526032908201527f4552433732313a207472616e7366657220746f206e6f6e20455243373231526560408201527131b2b4bb32b91034b6b83632b6b2b73a32b960711b606082015260800190565b60208082526025908201527f4552433732313a207472616e736665722066726f6d20696e636f72726563742060408201526437bbb732b960d91b606082015260800190565b6001600160a01b0385811682528416602082015260408101839052608060608201819052600090611dd890830184611766565b9695505050505050565b600060208284031215611df457600080fd5b815161133b8161170f56fea26469706673582212203a773e63185232b5dfef0c3ce30ecfe3bc12f6e5d2065365ee2782dc0707daa664736f6c63430008130033",
  "linkReferences": {},
  "deployedLinkReferences": {}
}