{
  "_format": "hh-sol-artifact-1",
  "contractName": "ProductNFT",
  "sourceName": "contracts/ProductNFT.sol",
  "abi": [
    {
      "inputs": [],
      "stateMutability": "nonpayable",
      "type": "constructor"
    },
    {
      "anonymous": false,
      "inputs": [
        {
          "indexed": true,
          "internalType": "address",
          "name": "owner",
          "type": "address"
        },
        {
          "indexed": true,
          "internalType": "address",
          "name": "approved",
          "type": "address"
        },
        {
          "indexed": true,
          "internalType": "uint256",
          "name": "tokenId",
          "type": "uint256"
        }
      ],
      "name": "Approval",
      "type": "event"
    },
    {
      "anonymous": false,
      "inputs": [
        {
          "indexed": true,
          "internalType": "address",
          "name": "owner",
          "type": "address"
        },
        {
          "indexed": true,
          "internalType": "address",
          "name": "operator",
          "type": "address"
        },
        {
          "indexed": false,
          "internalType": "bool",
          "name": "approved",
          "type": "bool"
        }
      ],
      "name": "ApprovalForAll",
      "type": "event"
    },
    {
      "anonymous": false,
      "inputs": [
        {
          "indexed": false,
          "internalType": "uint256",
          "name": "_fromTokenId",
          "type": "uint256"
        },
        {
          "indexed": false,
          "internalType": "uint256",
          "name": "_toTokenId",
          "type": "uint256"
        }
      ],
      "name": "BatchMetadataUpdate",
      "type": "event"
    },
    {
      "anonymous": false,
      "inputs": [
        {
          "indexed": false,
          "internalType": "uint256",
          "name": "_tokenId",
          "type": "uint256"
        }
      ],
      "name": "MetadataUpdate",
      "type": "event"
    },
    {
      "anonymous": false,
      "inputs": [
        {
          "indexed": true,
          "internalType": "uint256",
          "name": "tokenId",
          "type": "uint256"
        },
        {
          "indexed": false,
          "internalType": "string",
          "name": "name",
          "type": "string"
        },
        {
          "indexed": false,
          "internalType": "address",
          "name": "manufacturer",
          "type": "address"
        }
      ],
      "name": "ProductCreated",
      "type": "event"
    },
    {
      "anonymous": false,
      "inputs": [
        {
          "indexed": true,
          "internalType": "uint256",
          "name": "tokenId",
          "type": "uint256"
        },
        {
          "indexed": false,
          "internalType": "string",
          "name": "newStatus",
          "type": "string"
        }
      ],
      "name": "ProductStatusUpdated",
      "type": "event"
    },
    {
      "anonymous": false,
      "inputs": [
        {
          "indexed": true,
          "internalType": "uint256",
          "name": "tokenId",
          "type": "uint256"
        },
        {
          "indexed": false,
          "internalType": "address",
          "name": "from",
          "type": "address"
        },
        {
          "indexed": false,
          "internalType": "address",
          "name": "to",
          "type": "address"
        }
      ],
      "name": "ProductTransferred",
      "type": "event"
    },
    {
      "anonymous": false,
      "inputs": [
        {
          "indexed": true,
          "internalType": "bytes32",
          "name": "role",
          "type": "bytes32"
        },
        {
          "indexed": true,
          "internalType": "bytes32",
          "name": "previousAdminRole",
          "type": "bytes32"
        },
        {
          "indexed": true,
          "internalType": "bytes32",
          "name": "newAdminRole",
          "type": "bytes32"
        }
      ],
      "name": "RoleAdminChanged",
      "type": "event"
    },
    {
      "anonymous": false,
      "inputs": [
        {
          "indexed": true,
          "internalType": "bytes32",
          "name": "role",
          "type": "bytes32"
        },
        {
          "indexed": true,
          "internalType": "address",
          "name": "account",
          "type": "address"
        },
        {
          "indexed": true,
          "internalType": "address",
          "name": "sender",
          "type": "address"
        }
      ],
      "name": "RoleGranted",
      "type": "event"
    },
    {
      "anonymous": false,
      "inputs": [
        {
          "indexed": true,
          "internalType": "bytes32",
          "name": "role",
          "type": "bytes32"
        },
        {
          "indexed": true,
          "internalType": "address",
          "name": "account",
          "type": "address"
        },
        {
          "indexed": true,
          "internalType": "address",
          "name": "sender",
          "type": "address"
        }
      ],
      "name": "RoleRevoked",
      "type": "event"
    },
    {
      "anonymous": false,
      "inputs": [
        {
          "indexed": true,
          "internalType": "address",
          "name": "from",
          "type": "address"
        },
        {
          "indexed": true,
          "internalType": "address",
          "name": "to",
          "type": "address"
        },
        {
          "indexed": true,
          "internalType": "uint256",
          "name": "tokenId",
          "type": "uint256"
        }
      ],
      "name": "Transfer",
      "type": "event"
    },
    {
      "inputs": [],
      "name": "DEFAULT_ADMIN_ROLE",
      "outputs": [
        {
          "internalType": "bytes32",
          "name": "",
          "type": "bytes32"
        }
      ],
      "stateMutability": "view",
      "type": "function"
    },
    {
      "inputs": [],
      "name": "MINTER_ROLE",
      "outputs": [
        {
          "internalType": "bytes32",
          "name": "",
          "type": "bytes32"
        }
      ],
      "stateMutability": "view",
      "type": "function"
    },
    {
      "inputs": [
        {
          "internalType": "address",
          "name": "to",
          "type": "address"
        },
        {
          "internalType": "uint256",
          "name": "tokenId",
          "type": "uint256"
        }
      ],
      "name": "approve",
      "outputs": [],
      "stateMutability": "nonpayable",
      "type": "function"
    },
    {
      "inputs": [
        {
          "internalType": "address",
          "name": "owner",
          "type": "address"
        }
      ],
      "name": "balanceOf",
      "outputs": [
        {
          "internalType": "uint256",
          "name": "",
          "type": "uint256"
        }
      ],
      "stateMutability": "view",
      "type": "function"
    },
    {
      "inputs": [
        {
          "internalType": "address",
          "name": "recipient",
          "type": "address"
        },
        {
          "internalType": "string",
          "name": "name",
          "type": "string"
        },
        {
          "internalType": "string",
          "name": "manufacturer",
          "type": "string"
        },
        {
          "internalType": "string",
          "name": "tokenURI",
          "type": "string"
        }
      ],
      "name": "createProduct",
      "outputs": [
        {
          "internalType": "uint256",
          "name": "",
          "type": "uint256"
        }
      ],
      "stateMutability": "nonpayable",
      "type": "function"
    },
    {
      "inputs": [
        {
          "internalType": "uint256",
          "name": "tokenId",
          "type": "uint256"
        }
      ],
      "name": "getApproved",
      "outputs": [
        {
          "internalType": "address",
          "name": "",
          "type": "address"
        }
      ],
      "stateMutability": "view",
      "type": "function"
    },
    {
      "inputs": [],
      "name": "getCurrentTokenId",
      "outputs": [
        {
          "internalType": "uint256",
          "name": "",
          "type": "uint256"
        }
      ],
      "stateMutability": "view",
      "type": "function"
    },
    {
      "inputs": [
        {
          "internalType": "uint256",
          "name": "tokenId",
          "type": "uint256"
        }
      ],
      "name": "getProduct",
      "outputs": [
        {
          "internalType": "string",
          "name": "name",
          "type": "string"
        },
        {
          "internalType": "string",
          "name": "manufacturer",
          "type": "string"
        },
        {
          "internalType": "uint256",
          "name": "manufactureDate",
          "type": "uint256"
        },
        {
          "internalType": "string",
          "name": "status",
          "type": "string"
        },
        {
          "internalType": "address",
          "name": "currentOwner",
          "type": "address"
        }
      ],
      "stateMutability": "view",
      "type": "function"
    },
    {
      "inputs": [
        {
          "internalType": "bytes32",
          "name": "role",
          "type": "bytes32"
        }
      ],
      "name": "getRoleAdmin",
      "outputs": [
        {
          "internalType": "bytes32",
          "name": "",
          "type": "bytes32"
        }
      ],
      "stateMutability": "view",
      "type": "function"
    },
    {
      "inputs": [
        {
          "internalType": "address",
          "name": "minter",
          "type": "address"
        }
      ],
      "name": "grantMinterRole",
      "outputs": [],
      "stateMutability": "nonpayable",
      "type": "function"
    },
    {
      "inputs": [
        {
          "internalType": "bytes32",
          "name": "role",
          "type": "bytes32"
        },
        {
          "internalType": "address",
          "name": "account",
          "type": "address"
        }
      ],
      "name": "grantRole",
      "outputs": [],
      "stateMutability": "nonpayable",
      "type": "function"
    },
    {
      "inputs": [
        {
          "internalType": "bytes32",
          "name": "role",
          "type": "bytes32"
        },
        {
          "internalType": "address",
          "name": "account",
          "type": "address"
        }
      ],
      "name": "hasRole",
      "outputs": [
        {
          "internalType": "bool",
          "name": "",
          "type": "bool"
        }
      ],
      "stateMutability": "view",
      "type": "function"
    },
    {
      "inputs": [
        {
          "internalType": "address",
          "name": "owner",
          "type": "address"
        },
        {
          "internalType": "address",
          "name": "operator",
          "type": "address"
        }
      ],
      "name": "isApprovedForAll",
      "outputs": [
        {
          "internalType": "bool",
          "name": "",
          "type": "bool"
        }
      ],
      "stateMutability": "view",
      "type": "function"
    },
    {
      "inputs": [],
      "name": "name",
      "outputs": [
        {
          "internalType": "string",
          "name": "",
          "type": "string"
        }
      ],
      "stateMutability": "view",
      "type": "function"
    },
    {
      "inputs": [
        {
          "internalType": "uint256",
          "name": "tokenId",
          "type": "uint256"
        }
      ],
      "name": "ownerOf",
      "outputs": [
        {
          "internalType": "address",
          "name": "",
          "type": "address"
        }
      ],
      "stateMutability": "view",
      "type": "function"
    },
    {
      "inputs": [
        {
          "internalType": "bytes32",
          "name": "role",
          "type": "bytes32"
        },
        {
          "internalType": "address",
          "name": "account",
          "type": "address"
        }
      ],
      "name": "renounceRole",
      "outputs": [],
      "stateMutability": "nonpayable",
      "type": "function"
    },
    {
      "inputs": [
        {
          "internalType": "bytes32",
          "name": "role",
          "type": "bytes32"
        },
        {
          "internalType": "address",
          "name": "account",
          "type": "address"
        }
      ],
      "name": "revokeRole",
      "outputs": [],
      "stateMutability": "nonpayable",
      "type": "function"
    },
    {
      "inputs": [
        {
          "internalType": "address",
          "name": "from",
          "type": "address"
        },
        {
          "internalType": "address",
          "name": "to",
          "type": "address"
        },
        {
          "internalType": "uint256",
          "name": "tokenId",
          "type": "uint256"
        }
      ],
      "name": "safeTransferFrom",
      "outputs": [],
      "stateMutability": "nonpayable",
      "type": "function"
    },
    {
      "inputs": [
        {
          "internalType": "address",
          "name": "from",
          "type": "address"
        },
        {
          "internalType": "address",
          "name": "to",
          "type": "address"
        },
        {
          "internalType": "uint256",
          "name": "tokenId",
          "type": "uint256"
        },
        {
          "internalType": "bytes",
          "name": "data",
          "type": "bytes"
        }
      ],
      "name": "safeTransferFrom",
      "outputs": [],
      "stateMutability": "nonpayable",
      "type": "function"
    },
    {
      "inputs": [
        {
          "internalType": "address",
          "name": "operator",
          "type": "address"
        },
        {
          "internalType": "bool",
          "name": "approved",
          "type": "bool"
        }
      ],
      "name": "setApprovalForAll",
      "outputs": [],
      "stateMutability": "nonpayable",
      "type": "function"
    },
    {
      "inputs": [
        {
          "internalType": "bytes4",
          "name": "interfaceId",
          "type": "bytes4"
        }
      ],
      "name": "supportsInterface",
      "outputs": [
        {
          "internalType": "bool",
          "name": "",
          "type": "bool"
        }
      ],
      "stateMutability": "view",
      "type": "function"
    },
    {
      "inputs": [],
      "name": "symbol",
      "outputs": [
        {
          "internalType": "string",
          "name": "",
          "type": "string"
        }
      ],
      "stateMutability": "view",
      "type": "function"
    },
    {
      "inputs": [
        {
          "internalType": "uint256",
          "name": "tokenId",
          "type": "uint256"
        }
      ],
      "name": "tokenURI",
      "outputs": [
        {
          "internalType": "string",
          "name": "",
          "type": "string"
        }
      ],
      "stateMutability": "view",
      "type": "function"
    },
    {
      "inputs": [
        {
          "internalType": "address",
          "name": "from",
          "type": "address"
        },
        {
          "internalType": "address",
          "name": "to",
          "type": "address"
        },
        {
          "internalType": "uint256",
          "name": "tokenId",
          "type": "uint256"
        }
      ],
      "name": "transferFrom",
      "outputs": [],
      "stateMutability": "nonpayable",
      "type": "function"
    },
    {
      "inputs": [
        {
          "internalType": "uint256",
          "name": "tokenId",
          "type": "uint256"
        },
        {
          "internalType": "string",
          "name": "newStatus",
          "type": "string"
        }
      ],
      "name": "updateProductStatus",
      "outputs": [],
      "stateMutability": "nonpayable",
      "type": "function"
    }
  ],
  "bytecode": "0x60806040523480156200001157600080fd5b506040518060400160405280600b81526020016a141c9bd91d58dd0813919560aa1b815250604051806040016040528060048152602001631413919560e21b815250816000908162000064919062000210565b50600162000073828262000210565b506200008591506000905033620000b7565b620000b17f9f2df0fed2c77648de5860a4cc508cd0818c85b8b8a1ab4ceeef8d981c8956a633620000b7565b620002dc565b620000c38282620000c7565b5050565b60008281526007602090815260408083206001600160a01b038516845290915290205460ff16620000c35760008281526007602090815260408083206001600160a01b03851684529091529020805460ff19166001179055620001273390565b6001600160a01b0316816001600160a01b0316837f2f8788117e7eff1d82e926ec794901d17c78024a50270940304540a733656f0d60405160405180910390a45050565b634e487b7160e01b600052604160045260246000fd5b600181811c908216806200019657607f821691505b602082108103620001b757634e487b7160e01b600052602260045260246000fd5b50919050565b601f8211156200020b57600081815260208120601f850160051c81016020861015620001e65750805b601f850160051c820191505b818110156200020757828155600101620001f2565b5050505b505050565b81516001600160401b038111156200022c576200022c6200016b565b62000244816200023d845462000181565b84620001bd565b602080601f8311600181146200027c5760008415620002635750858301515b600019600386901b1c1916600185901b17855562000207565b600085815260208120601f198616915b82811015620002ad578886015182559484019460019091019084016200028c565b5085821015620002cc5787850151600019600388901b60f8161c191681555b5050505050600190811b01905550565b61248e80620002ec6000396000f3fe608060405234801561001057600080fd5b50600436106101735760003560e01c80636352211e116100de578063b88d4fde11610097578063c87b56dd11610071578063c87b56dd14610346578063d539139314610359578063d547741f14610380578063e985e9c51461039357600080fd5b8063b88d4fde146102fc578063b9db15b41461030f578063ba4295781461033357600080fd5b80636352211e146102a057806370a08231146102b357806391d14854146102c657806395d89b41146102d9578063a217fddf146102e1578063a22cb465146102e957600080fd5b8063248a9ca311610130578063248a9ca3146102295780632f2ff15d1461024c57806336568abe1461025f5780633dd1eb611461027257806342842e0e14610285578063561892361461029857600080fd5b806301ffc9a71461017857806306fdde03146101a0578063081812fc146101b5578063095ea7b3146101e05780631e7054b3146101f557806323b872dd14610216575b600080fd5b61018b610186366004611c79565b6103cf565b60405190151581526020015b60405180910390f35b6101a86103e0565b6040516101979190611ce6565b6101c86101c3366004611cf9565b610472565b6040516001600160a01b039091168152602001610197565b6101f36101ee366004611d2e565b610499565b005b610208610203366004611e04565b6105b3565b604051908152602001610197565b6101f3610224366004611e9d565b610856565b610208610237366004611cf9565b60009081526007602052604090206001015490565b6101f361025a366004611ed9565b610887565b6101f361026d366004611ed9565b6108ac565b6101f3610280366004611f05565b61092a565b6101f3610293366004611e9d565b61095f565b61020861097a565b6101c86102ae366004611cf9565b61098a565b6102086102c1366004611f05565b6109ea565b61018b6102d4366004611ed9565b610a70565b6101a8610a9b565b610208600081565b6101f36102f7366004611f20565b610aaa565b6101f361030a366004611f5c565b610ab5565b61032261031d366004611cf9565b610aed565b604051610197959493929190611fcc565b6101f3610341366004612026565b610d58565b6101a8610354366004611cf9565b610e4f565b6102087f9f2df0fed2c77648de5860a4cc508cd0818c85b8b8a1ab4ceeef8d981c8956a681565b6101f361038e366004611ed9565b610f5f565b61018b6103a136600461206d565b6001600160a01b03918216600090815260056020908152604080832093909416825291909152205460ff1690565b60006103da82610f84565b92915050565b6060600080546103ef90612097565b80601f016020809104026020016040519081016040528092919081815260200182805461041b90612097565b80156104685780601f1061043d57610100808354040283529160200191610468565b820191906000526020600020905b81548152906001019060200180831161044b57829003601f168201915b5050505050905090565b600061047d82610fa9565b506000908152600460205260409020546001600160a01b031690565b60006104a48261098a565b9050806001600160a01b0316836001600160a01b0316036105165760405162461bcd60e51b815260206004820152602160248201527f4552433732313a20617070726f76616c20746f2063757272656e74206f776e656044820152603960f91b60648201526084015b60405180910390fd5b336001600160a01b0382161480610532575061053281336103a1565b6105a45760405162461bcd60e51b815260206004820152603d60248201527f4552433732313a20617070726f76652063616c6c6572206973206e6f7420746f60448201527f6b656e206f776e6572206f7220617070726f76656420666f7220616c6c000000606482015260840161050d565b6105ae8383610ffc565b505050565b60007f9f2df0fed2c77648de5860a4cc508cd0818c85b8b8a1ab4ceeef8d981c8956a66105df8161106a565b6001600160a01b0386166106355760405162461bcd60e51b815260206004820152601960248201527f496e76616c696420726563697069656e74206164647265737300000000000000604482015260640161050d565b600085511161067d5760405162461bcd60e51b81526020600482015260146024820152734e616d652063616e6e6f7420626520656d70747960601b604482015260640161050d565b60008451116106ce5760405162461bcd60e51b815260206004820152601c60248201527f4d616e7566616374757265722063616e6e6f7420626520656d70747900000000604482015260640161050d565b600083511161071f5760405162461bcd60e51b815260206004820152601860248201527f546f6b656e5552492063616e6e6f7420626520656d7074790000000000000000604482015260640161050d565b61072d600880546001019055565b600061073860085490565b90506107448782611074565b61074e81856111e1565b6040805160a0810182528781526020808201889052428284015282518084018452600781526610dc99585d195960ca1b8183015260608301526001600160a01b038a1660808301526000848152600990915291909120815181906107b2908261211f565b50602082015160018201906107c7908261211f565b5060408201516002820155606082015160038201906107e6908261211f565b5060809190910151600490910180546001600160a01b0319166001600160a01b0390921691909117905560405181907faf6ffb6277511513e7d579327cc1fc57f0266df2fb11a60b13487b8c9cd2c388906108449089908b906121df565b60405180910390a29695505050505050565b610860338261129d565b61087c5760405162461bcd60e51b815260040161050d90612209565b6105ae83838361131b565b6000828152600760205260409020600101546108a28161106a565b6105ae8383611398565b6001600160a01b038116331461091c5760405162461bcd60e51b815260206004820152602f60248201527f416363657373436f6e74726f6c3a2063616e206f6e6c792072656e6f756e636560448201526e103937b632b9903337b91039b2b63360891b606482015260840161050d565b610926828261141e565b5050565b60006109358161106a565b6109267f9f2df0fed2c77648de5860a4cc508cd0818c85b8b8a1ab4ceeef8d981c8956a683610887565b6105ae83838360405180602001604052806000815250610ab5565b600061098560085490565b905090565b6000818152600260205260408120546001600160a01b0316806103da5760405162461bcd60e51b8152602060048201526018602482015277115490cdcc8c4e881a5b9d985b1a59081d1bdad95b88125160421b604482015260640161050d565b60006001600160a01b038216610a545760405162461bcd60e51b815260206004820152602960248201527f4552433732313a2061646472657373207a65726f206973206e6f7420612076616044820152683634b21037bbb732b960b91b606482015260840161050d565b506001600160a01b031660009081526003602052604090205490565b60009182526007602090815260408084206001600160a01b0393909316845291905290205460ff1690565b6060600180546103ef90612097565b610926338383611485565b610abf338361129d565b610adb5760405162461bcd60e51b815260040161050d90612209565b610ae784848484611553565b50505050565b606080600060606000610aff86611586565b610b445760405162461bcd60e51b8152602060048201526016602482015275141c9bd91d58dd08191bd95cc81b9bdd08195e1a5cdd60521b604482015260640161050d565b600086815260096020526040808220815160a08101909252805482908290610b6b90612097565b80601f0160208091040260200160405190810160405280929190818152602001828054610b9790612097565b8015610be45780601f10610bb957610100808354040283529160200191610be4565b820191906000526020600020905b815481529060010190602001808311610bc757829003601f168201915b50505050508152602001600182018054610bfd90612097565b80601f0160208091040260200160405190810160405280929190818152602001828054610c2990612097565b8015610c765780601f10610c4b57610100808354040283529160200191610c76565b820191906000526020600020905b815481529060010190602001808311610c5957829003601f168201915b5050505050815260200160028201548152602001600382018054610c9990612097565b80601f0160208091040260200160405190810160405280929190818152602001828054610cc590612097565b8015610d125780601f10610ce757610100808354040283529160200191610d12565b820191906000526020600020905b815481529060010190602001808311610cf557829003601f168201915b5050509183525050600491909101546001600160a01b031660209182015281519082015160408301516060840151608090940151929b919a509850919650945092505050565b610d6182611586565b610da65760405162461bcd60e51b8152602060048201526016602482015275141c9bd91d58dd08191bd95cc81b9bdd08195e1a5cdd60521b604482015260640161050d565b33610db08361098a565b6001600160a01b031614610df75760405162461bcd60e51b815260206004820152600e60248201526d139bdd08185d5d1a1bdc9a5e995960921b604482015260640161050d565b6000828152600960205260409020600301610e12828261211f565b50817fa36cb1ddda60c305ec3ccef5b0c79c077f1daa8c91329aca59b487bd5992de6982604051610e439190611ce6565b60405180910390a25050565b6060610e5a82610fa9565b60008281526006602052604081208054610e7390612097565b80601f0160208091040260200160405190810160405280929190818152602001828054610e9f90612097565b8015610eec5780601f10610ec157610100808354040283529160200191610eec565b820191906000526020600020905b815481529060010190602001808311610ecf57829003601f168201915b505050505090506000610f0a60408051602081019091526000815290565b90508051600003610f1c575092915050565b815115610f4e578082604051602001610f36929190612256565b60405160208183030381529060405292505050919050565b610f57846115a3565b949350505050565b600082815260076020526040902060010154610f7a8161106a565b6105ae838361141e565b60006001600160e01b03198216637965db0b60e01b14806103da57506103da82611617565b610fb281611586565b610ff95760405162461bcd60e51b8152602060048201526018602482015277115490cdcc8c4e881a5b9d985b1a59081d1bdad95b88125160421b604482015260640161050d565b50565b600081815260046020526040902080546001600160a01b0319166001600160a01b03841690811790915581906110318261098a565b6001600160a01b03167f8c5be1e5ebec7d5bd14f71427d1e84f3dd0314c0f7b2291e5b200ac8c7c3b92560405160405180910390a45050565b610ff9813361163c565b6001600160a01b0382166110ca5760405162461bcd60e51b815260206004820181905260248201527f4552433732313a206d696e7420746f20746865207a65726f2061646472657373604482015260640161050d565b6110d381611586565b156111205760405162461bcd60e51b815260206004820152601c60248201527f4552433732313a20746f6b656e20616c7265616479206d696e74656400000000604482015260640161050d565b61112981611586565b156111765760405162461bcd60e51b815260206004820152601c60248201527f4552433732313a20746f6b656e20616c7265616479206d696e74656400000000604482015260640161050d565b6001600160a01b038216600081815260036020908152604080832080546001019055848352600290915280822080546001600160a01b0319168417905551839291907fddf252ad1be2c89b69c2b068fc378daa952ba7f163c4a11628f55a4df523b3ef908290a45050565b6111ea82611586565b61124d5760405162461bcd60e51b815260206004820152602e60248201527f45524337323155524953746f726167653a2055524920736574206f66206e6f6e60448201526d32bc34b9ba32b73a103a37b5b2b760911b606482015260840161050d565b6000828152600660205260409020611265828261211f565b506040518281527ff8e1a15aba9398e019f0b49df1a4fde98ee17ae345cb5f6b5e2c27f5033e8ce79060200160405180910390a15050565b6000806112a98361098a565b9050806001600160a01b0316846001600160a01b031614806112f057506001600160a01b0380821660009081526005602090815260408083209388168352929052205460ff165b80610f575750836001600160a01b031661130984610472565b6001600160a01b031614949350505050565b611326838383611695565b60008181526009602090815260409182902060040180546001600160a01b0319166001600160a01b03868116918217909255835191871682529181019190915282917fcef86d37ba3dc1d682967cde44d8050488734bf53166725b220b4d2e515e9e93910160405180910390a2505050565b6113a28282610a70565b6109265760008281526007602090815260408083206001600160a01b03851684529091529020805460ff191660011790556113da3390565b6001600160a01b0316816001600160a01b0316837f2f8788117e7eff1d82e926ec794901d17c78024a50270940304540a733656f0d60405160405180910390a45050565b6114288282610a70565b156109265760008281526007602090815260408083206001600160a01b0385168085529252808320805460ff1916905551339285917ff6391f5c32d9c69d2a47ea670b442974b53935d1edc7fd64eb21e047a839171b9190a45050565b816001600160a01b0316836001600160a01b0316036114e65760405162461bcd60e51b815260206004820152601960248201527f4552433732313a20617070726f766520746f2063616c6c657200000000000000604482015260640161050d565b6001600160a01b03838116600081815260056020908152604080832094871680845294825291829020805460ff191686151590811790915591519182527f17307eab39ab6107e8899845ad3d59bd9653f200f220920489ca2b5937696c31910160405180910390a3505050565b61155e84848461131b565b61156a848484846117f9565b610ae75760405162461bcd60e51b815260040161050d90612285565b6000908152600260205260409020546001600160a01b0316151590565b60606115ae82610fa9565b60006115c560408051602081019091526000815290565b905060008151116115e55760405180602001604052806000815250611610565b806115ef846118fa565b604051602001611600929190612256565b6040516020818303038152906040525b9392505050565b60006001600160e01b03198216632483248360e11b14806103da57506103da8261198d565b6116468282610a70565b61092657611653816119dd565b61165e8360206119ef565b60405160200161166f9291906122d7565b60408051601f198184030181529082905262461bcd60e51b825261050d91600401611ce6565b826001600160a01b03166116a88261098a565b6001600160a01b0316146116ce5760405162461bcd60e51b815260040161050d9061234c565b6001600160a01b0382166117305760405162461bcd60e51b8152602060048201526024808201527f4552433732313a207472616e7366657220746f20746865207a65726f206164646044820152637265737360e01b606482015260840161050d565b826001600160a01b03166117438261098a565b6001600160a01b0316146117695760405162461bcd60e51b815260040161050d9061234c565b600081815260046020908152604080832080546001600160a01b03199081169091556001600160a01b0387811680865260038552838620805460001901905590871680865283862080546001019055868652600290945282852080549092168417909155905184937fddf252ad1be2c89b69c2b068fc378daa952ba7f163c4a11628f55a4df523b3ef91a4505050565b60006001600160a01b0384163b156118ef57604051630a85bd0160e11b81526001600160a01b0385169063150b7a029061183d903390899088908890600401612391565b6020604051808303816000875af1925050508015611878575060408051601f3d908101601f19168201909252611875918101906123ce565b60015b6118d5573d8080156118a6576040519150601f19603f3d011682016040523d82523d6000602084013e6118ab565b606091505b5080516000036118cd5760405162461bcd60e51b815260040161050d90612285565b805181602001fd5b6001600160e01b031916630a85bd0160e11b149050610f57565b506001949350505050565b6060600061190783611b8b565b600101905060008167ffffffffffffffff81111561192757611927611d58565b6040519080825280601f01601f191660200182016040528015611951576020820181803683370190505b5090508181016020015b600019016f181899199a1a9b1b9c1cb0b131b232b360811b600a86061a8153600a850494508461195b57509392505050565b60006001600160e01b031982166380ac58cd60e01b14806119be57506001600160e01b03198216635b5e139f60e01b145b806103da57506301ffc9a760e01b6001600160e01b03198316146103da565b60606103da6001600160a01b03831660145b606060006119fe836002612401565b611a09906002612418565b67ffffffffffffffff811115611a2157611a21611d58565b6040519080825280601f01601f191660200182016040528015611a4b576020820181803683370190505b509050600360fc1b81600081518110611a6657611a6661242b565b60200101906001600160f81b031916908160001a905350600f60fb1b81600181518110611a9557611a9561242b565b60200101906001600160f81b031916908160001a9053506000611ab9846002612401565b611ac4906001612418565b90505b6001811115611b3c576f181899199a1a9b1b9c1cb0b131b232b360811b85600f1660108110611af857611af861242b565b1a60f81b828281518110611b0e57611b0e61242b565b60200101906001600160f81b031916908160001a90535060049490941c93611b3581612441565b9050611ac7565b5083156116105760405162461bcd60e51b815260206004820181905260248201527f537472696e67733a20686578206c656e67746820696e73756666696369656e74604482015260640161050d565b60008072184f03e93ff9f4daa797ed6e38ed64bf6a1f0160401b8310611bca5772184f03e93ff9f4daa797ed6e38ed64bf6a1f0160401b830492506040015b6d04ee2d6d415b85acef81000000008310611bf6576d04ee2d6d415b85acef8100000000830492506020015b662386f26fc100008310611c1457662386f26fc10000830492506010015b6305f5e1008310611c2c576305f5e100830492506008015b6127108310611c4057612710830492506004015b60648310611c52576064830492506002015b600a83106103da5760010192915050565b6001600160e01b031981168114610ff957600080fd5b600060208284031215611c8b57600080fd5b813561161081611c63565b60005b83811015611cb1578181015183820152602001611c99565b50506000910152565b60008151808452611cd2816020860160208601611c96565b601f01601f19169290920160200192915050565b6020815260006116106020830184611cba565b600060208284031215611d0b57600080fd5b5035919050565b80356001600160a01b0381168114611d2957600080fd5b919050565b60008060408385031215611d4157600080fd5b611d4a83611d12565b946020939093013593505050565b634e487b7160e01b600052604160045260246000fd5b600067ffffffffffffffff80841115611d8957611d89611d58565b604051601f8501601f19908116603f01168101908282118183101715611db157611db1611d58565b81604052809350858152868686011115611dca57600080fd5b858560208301376000602087830101525050509392505050565b600082601f830112611df557600080fd5b61161083833560208501611d6e565b60008060008060808587031215611e1a57600080fd5b611e2385611d12565b9350602085013567ffffffffffffffff80821115611e4057600080fd5b611e4c88838901611de4565b94506040870135915080821115611e6257600080fd5b611e6e88838901611de4565b93506060870135915080821115611e8457600080fd5b50611e9187828801611de4565b91505092959194509250565b600080600060608486031215611eb257600080fd5b611ebb84611d12565b9250611ec960208501611d12565b9150604084013590509250925092565b60008060408385031215611eec57600080fd5b82359150611efc60208401611d12565b90509250929050565b600060208284031215611f1757600080fd5b61161082611d12565b60008060408385031215611f3357600080fd5b611f3c83611d12565b915060208301358015158114611f5157600080fd5b809150509250929050565b60008060008060808587031215611f7257600080fd5b611f7b85611d12565b9350611f8960208601611d12565b925060408501359150606085013567ffffffffffffffff811115611fac57600080fd5b8501601f81018713611fbd57600080fd5b611e9187823560208401611d6e565b60a081526000611fdf60a0830188611cba565b8281036020840152611ff18188611cba565b9050856040840152828103606084015261200b8186611cba565b91505060018060a01b03831660808301529695505050505050565b6000806040838503121561203957600080fd5b82359150602083013567ffffffffffffffff81111561205757600080fd5b61206385828601611de4565b9150509250929050565b6000806040838503121561208057600080fd5b61208983611d12565b9150611efc60208401611d12565b600181811c908216806120ab57607f821691505b6020821081036120cb57634e487b7160e01b600052602260045260246000fd5b50919050565b601f8211156105ae57600081815260208120601f850160051c810160208610156120f85750805b601f850160051c820191505b8181101561211757828155600101612104565b505050505050565b815167ffffffffffffffff81111561213957612139611d58565b61214d816121478454612097565b846120d1565b602080601f831160018114612182576000841561216a5750858301515b600019600386901b1c1916600185901b178555612117565b600085815260208120601f198616915b828110156121b157888601518255948401946001909101908401612192565b50858210156121cf5787850151600019600388901b60f8161c191681555b5050505050600190811b01905550565b6040815260006121f26040830185611cba565b905060018060a01b03831660208301529392505050565b6020808252602d908201527f4552433732313a2063616c6c6572206973206e6f7420746f6b656e206f776e6560408201526c1c881bdc88185c1c1c9bdd9959609a1b606082015260800190565b60008351612268818460208801611c96565b83519083019061227c818360208801611c96565b01949350505050565b60208082526032908201527f4552433732313a207472616e7366657220746f206e6f6e20455243373231526560408201527131b2b4bb32b91034b6b83632b6b2b73a32b960711b606082015260800190565b7f416363657373436f6e74726f6c3a206163636f756e742000000000000000000081526000835161230f816017850160208801611c96565b7001034b99036b4b9b9b4b733903937b6329607d1b6017918401918201528351612340816028840160208801611c96565b01602801949350505050565b60208082526025908201527f4552433732313a207472616e736665722066726f6d20696e636f72726563742060408201526437bbb732b960d91b606082015260800190565b6001600160a01b03858116825284166020820152604081018390526080606082018190526000906123c490830184611cba565b9695505050505050565b6000602082840312156123e057600080fd5b815161161081611c63565b634e487b7160e01b600052601160045260246000fd5b80820281158282048414176103da576103da6123eb565b808201808211156103da576103da6123eb565b634e487b7160e01b600052603260045260246000fd5b600081612450576124506123eb565b50600019019056fea264697066735822122061539dc392eda16506e748d9370fd282aca454c95e15705eae9060392e4d2faa64736f6c63430008130033",
  "linkReferences": {},
  "deployedLinkReferences": {}
}