{
  "_format": "hh-sol-artifact-1",
  "contractName": "ProductNFT",
  "sourceName": "contracts/ProductNFT.sol",
  "abi": [
    {
      "inputs": [],
      "stateMutability": "nonpayable",
      "type": "constructor"
    },
    {
      "anonymous": false,
      "inputs": [
        {
          "indexed": true,
          "internalType": "address",
          "name": "owner",
          "type": "address"
        },
        {
          "indexed": true,
          "internalType": "address",
          "name": "approved",
          "type": "address"
        },
        {
          "indexed": true,
          "internalType": "uint256",
          "name": "tokenId",
          "type": "uint256"
        }
      ],
      "name": "Approval",
      "type": "event"
    },
    {
      "anonymous": false,
      "inputs": [
        {
          "indexed": true,
          "internalType": "address",
          "name": "owner",
          "type": "address"
        },
        {
          "indexed": true,
          "internalType": "address",
          "name": "operator",
          "type": "address"
        },
        {
          "indexed": false,
          "internalType": "bool",
          "name": "approved",
          "type": "bool"
        }
      ],
      "name": "ApprovalForAll",
      "type": "event"
    },
    {
      "anonymous": false,
      "inputs": [
        {
          "indexed": false,
          "internalType": "uint256",
          "name": "_fromTokenId",
          "type": "uint256"
        },
        {
          "indexed": false,
          "internalType": "uint256",
          "name": "_toTokenId",
          "type": "uint256"
        }
      ],
      "name": "BatchMetadataUpdate",
      "type": "event"
    },
    {
      "anonymous": false,
      "inputs": [
        {
          "indexed": false,
          "internalType": "uint256",
          "name": "_tokenId",
          "type": "uint256"
        }
      ],
      "name": "MetadataUpdate",
      "type": "event"
    },
    {
      "anonymous": false,
      "inputs": [
        {
          "indexed": true,
          "internalType": "address",
          "name": "previousOwner",
          "type": "address"
        },
        {
          "indexed": true,
          "internalType": "address",
          "name": "newOwner",
          "type": "address"
        }
      ],
      "name": "OwnershipTransferred",
      "type": "event"
    },
    {
      "anonymous": false,
      "inputs": [
        {
          "indexed": true,
          "internalType": "uint256",
          "name": "tokenId",
          "type": "uint256"
        },
        {
          "indexed": false,
          "internalType": "string",
          "name": "name",
          "type": "string"
        },
        {
          "indexed": false,
          "internalType": "address",
          "name": "manufacturer",
          "type": "address"
        }
      ],
      "name": "ProductCreated",
      "type": "event"
    },
    {
      "anonymous": false,
      "inputs": [
        {
          "indexed": true,
          "internalType": "uint256",
          "name": "tokenId",
          "type": "uint256"
        },
        {
          "indexed": false,
          "internalType": "string",
          "name": "newStatus",
          "type": "string"
        }
      ],
      "name": "ProductStatusUpdated",
      "type": "event"
    },
    {
      "anonymous": false,
      "inputs": [
        {
          "indexed": true,
          "internalType": "uint256",
          "name": "tokenId",
          "type": "uint256"
        },
        {
          "indexed": false,
          "internalType": "address",
          "name": "from",
          "type": "address"
        },
        {
          "indexed": false,
          "internalType": "address",
          "name": "to",
          "type": "address"
        }
      ],
      "name": "ProductTransferred",
      "type": "event"
    },
    {
      "anonymous": false,
      "inputs": [
        {
          "indexed": true,
          "internalType": "address",
          "name": "from",
          "type": "address"
        },
        {
          "indexed": true,
          "internalType": "address",
          "name": "to",
          "type": "address"
        },
        {
          "indexed": true,
          "internalType": "uint256",
          "name": "tokenId",
          "type": "uint256"
        }
      ],
      "name": "Transfer",
      "type": "event"
    },
    {
      "inputs": [
        {
          "internalType": "address",
          "name": "to",
          "type": "address"
        },
        {
          "internalType": "uint256",
          "name": "tokenId",
          "type": "uint256"
        }
      ],
      "name": "approve",
      "outputs": [],
      "stateMutability": "nonpayable",
      "type": "function"
    },
    {
      "inputs": [
        {
          "internalType": "address",
          "name": "owner",
          "type": "address"
        }
      ],
      "name": "balanceOf",
      "outputs": [
        {
          "internalType": "uint256",
          "name": "",
          "type": "uint256"
        }
      ],
      "stateMutability": "view",
      "type": "function"
    },
    {
      "inputs": [
        {
          "internalType": "address",
          "name": "recipient",
          "type": "address"
        },
        {
          "internalType": "string",
          "name": "name",
          "type": "string"
        },
        {
          "internalType": "string",
          "name": "manufacturer",
          "type": "string"
        },
        {
          "internalType": "string",
          "name": "tokenURI",
          "type": "string"
        }
      ],
      "name": "createProduct",
      "outputs": [
        {
          "internalType": "uint256",
          "name": "",
          "type": "uint256"
        }
      ],
      "stateMutability": "nonpayable",
      "type": "function"
    },
    {
      "inputs": [
        {
          "internalType": "uint256",
          "name": "tokenId",
          "type": "uint256"
        }
      ],
      "name": "getApproved",
      "outputs": [
        {
          "internalType": "address",
          "name": "",
          "type": "address"
        }
      ],
      "stateMutability": "view",
      "type": "function"
    },
    {
      "inputs": [
        {
          "internalType": "uint256",
          "name": "tokenId",
          "type": "uint256"
        }
      ],
      "name": "getProduct",
      "outputs": [
        {
          "internalType": "string",
          "name": "name",
          "type": "string"
        },
        {
          "internalType": "string",
          "name": "manufacturer",
          "type": "string"
        },
        {
          "internalType": "uint256",
          "name": "manufactureDate",
          "type": "uint256"
        },
        {
          "internalType": "string",
          "name": "status",
          "type": "string"
        },
        {
          "internalType": "address",
          "name": "currentOwner",
          "type": "address"
        }
      ],
      "stateMutability": "view",
      "type": "function"
    },
    {
      "inputs": [
        {
          "internalType": "address",
          "name": "owner",
          "type": "address"
        },
        {
          "internalType": "address",
          "name": "operator",
          "type": "address"
        }
      ],
      "name": "isApprovedForAll",
      "outputs": [
        {
          "internalType": "bool",
          "name": "",
          "type": "bool"
        }
      ],
      "stateMutability": "view",
      "type": "function"
    },
    {
      "inputs": [],
      "name": "name",
      "outputs": [
        {
          "internalType": "string",
          "name": "",
          "type": "string"
        }
      ],
      "stateMutability": "view",
      "type": "function"
    },
    {
      "inputs": [],
      "name": "owner",
      "outputs": [
        {
          "internalType": "address",
          "name": "",
          "type": "address"
        }
      ],
      "stateMutability": "view",
      "type": "function"
    },
    {
      "inputs": [
        {
          "internalType": "uint256",
          "name": "tokenId",
          "type": "uint256"
        }
      ],
      "name": "ownerOf",
      "outputs": [
        {
          "internalType": "address",
          "name": "",
          "type": "address"
        }
      ],
      "stateMutability": "view",
      "type": "function"
    },
    {
      "inputs": [],
      "name": "renounceOwnership",
      "outputs": [],
      "stateMutability": "nonpayable",
      "type": "function"
    },
    {
      "inputs": [
        {
          "internalType": "address",
          "name": "from",
          "type": "address"
        },
        {
          "internalType": "address",
          "name": "to",
          "type": "address"
        },
        {
          "internalType": "uint256",
          "name": "tokenId",
          "type": "uint256"
        }
      ],
      "name": "safeTransferFrom",
      "outputs": [],
      "stateMutability": "nonpayable",
      "type": "function"
    },
    {
      "inputs": [
        {
          "internalType": "address",
          "name": "from",
          "type": "address"
        },
        {
          "internalType": "address",
          "name": "to",
          "type": "address"
        },
        {
          "internalType": "uint256",
          "name": "tokenId",
          "type": "uint256"
        },
        {
          "internalType": "bytes",
          "name": "data",
          "type": "bytes"
        }
      ],
      "name": "safeTransferFrom",
      "outputs": [],
      "stateMutability": "nonpayable",
      "type": "function"
    },
    {
      "inputs": [
        {
          "internalType": "address",
          "name": "operator",
          "type": "address"
        },
        {
          "internalType": "bool",
          "name": "approved",
          "type": "bool"
        }
      ],
      "name": "setApprovalForAll",
      "outputs": [],
      "stateMutability": "nonpayable",
      "type": "function"
    },
    {
      "inputs": [
        {
          "internalType": "bytes4",
          "name": "interfaceId",
          "type": "bytes4"
        }
      ],
      "name": "supportsInterface",
      "outputs": [
        {
          "internalType": "bool",
          "name": "",
          "type": "bool"
        }
      ],
      "stateMutability": "view",
      "type": "function"
    },
    {
      "inputs": [],
      "name": "symbol",
      "outputs": [
        {
          "internalType": "string",
          "name": "",
          "type": "string"
        }
      ],
      "stateMutability": "view",
      "type": "function"
    },
    {
      "inputs": [
        {
          "internalType": "uint256",
          "name": "tokenId",
          "type": "uint256"
        }
      ],
      "name": "tokenURI",
      "outputs": [
        {
          "internalType": "string",
          "name": "",
          "type": "string"
        }
      ],
      "stateMutability": "view",
      "type": "function"
    },
    {
      "inputs": [
        {
          "internalType": "address",
          "name": "from",
          "type": "address"
        },
        {
          "internalType": "address",
          "name": "to",
          "type": "address"
        },
        {
          "internalType": "uint256",
          "name": "tokenId",
          "type": "uint256"
        }
      ],
      "name": "transferFrom",
      "outputs": [],
      "stateMutability": "nonpayable",
      "type": "function"
    },
    {
      "inputs": [
        {
          "internalType": "address",
          "name": "newOwner",
          "type": "address"
        }
      ],
      "name": "transferOwnership",
      "outputs": [],
      "stateMutability": "nonpayable",
      "type": "function"
    },
    {
      "inputs": [
        {
          "internalType": "uint256",
          "name": "tokenId",
          "type": "uint256"
        },
        {
          "internalType": "string",
          "name": "newStatus",
          "type": "string"
        }
      ],
      "name": "updateProductStatus",
      "outputs": [],
      "stateMutability": "nonpayable",
      "type": "function"
    }
  ],
  "bytecode": "0x60806040523480156200001157600080fd5b506040518060400160405280600b81526020016a141c9bd91d58dd0813919560aa1b815250604051806040016040528060048152602001631413919560e21b815250816000908162000064919062000191565b50600162000073828262000191565b505050620000906200008a6200009660201b60201c565b6200009a565b6200025d565b3390565b600780546001600160a01b038381166001600160a01b0319831681179093556040519116919082907f8be0079c531659141344cd1fd0a4f28419497f9722a3daafe3b4186f6b6457e090600090a35050565b634e487b7160e01b600052604160045260246000fd5b600181811c908216806200011757607f821691505b6020821081036200013857634e487b7160e01b600052602260045260246000fd5b50919050565b601f8211156200018c57600081815260208120601f850160051c81016020861015620001675750805b601f850160051c820191505b81811015620001885782815560010162000173565b5050505b505050565b81516001600160401b03811115620001ad57620001ad620000ec565b620001c581620001be845462000102565b846200013e565b602080601f831160018114620001fd5760008415620001e45750858301515b600019600386901b1c1916600185901b17855562000188565b600085815260208120601f198616915b828110156200022e578886015182559484019460019091019084016200020d565b50858210156200024d5787850151600019600388901b60f8161c191681555b5050505050600190811b01905550565b611e12806200026d6000396000f3fe608060405234801561001057600080fd5b50600436106101215760003560e01c8063715018a6116100ad578063b9db15b411610071578063b9db15b414610257578063ba4295781461027b578063c87b56dd1461028e578063e985e9c5146102a1578063f2fde38b146102dd57600080fd5b8063715018a6146102105780638da5cb5b1461021857806395d89b4114610229578063a22cb46514610231578063b88d4fde1461024457600080fd5b80631e7054b3116100f45780631e7054b3146101a357806323b872dd146101c457806342842e0e146101d75780636352211e146101ea57806370a08231146101fd57600080fd5b806301ffc9a71461012657806306fdde031461014e578063081812fc14610163578063095ea7b31461018e575b600080fd5b610139610134366004611702565b6102f0565b60405190151581526020015b60405180910390f35b61015661031b565b604051610145919061176f565b610176610171366004611782565b6103ad565b6040516001600160a01b039091168152602001610145565b6101a161019c3660046117b7565b6103d4565b005b6101b66101b136600461188d565b6104ee565b604051908152602001610145565b6101a16101d2366004611926565b610630565b6101a16101e5366004611926565b610661565b6101766101f8366004611782565b61067c565b6101b661020b366004611962565b6106dc565b6101a1610762565b6007546001600160a01b0316610176565b610156610776565b6101a161023f36600461197d565b610785565b6101a16102523660046119b9565b610794565b61026a610265366004611782565b6107cc565b604051610145959493929190611a29565b6101a1610289366004611a83565b610a37565b61015661029c366004611782565b610b2e565b6101396102af366004611aca565b6001600160a01b03918216600090815260056020908152604080832093909416825291909152205460ff1690565b6101a16102eb366004611962565b610c36565b60006001600160e01b03198216632483248360e11b1480610315575061031582610caf565b92915050565b60606000805461032a90611afd565b80601f016020809104026020016040519081016040528092919081815260200182805461035690611afd565b80156103a35780601f10610378576101008083540402835291602001916103a3565b820191906000526020600020905b81548152906001019060200180831161038657829003601f168201915b5050505050905090565b60006103b882610cff565b506000908152600460205260409020546001600160a01b031690565b60006103df8261067c565b9050806001600160a01b0316836001600160a01b0316036104515760405162461bcd60e51b815260206004820152602160248201527f4552433732313a20617070726f76616c20746f2063757272656e74206f776e656044820152603960f91b60648201526084015b60405180910390fd5b336001600160a01b038216148061046d575061046d81336102af565b6104df5760405162461bcd60e51b815260206004820152603d60248201527f4552433732313a20617070726f76652063616c6c6572206973206e6f7420746f60448201527f6b656e206f776e6572206f7220617070726f76656420666f7220616c6c0000006064820152608401610448565b6104e98383610d4f565b505050565b60006104f8610dbd565b610506600880546001019055565b600061051160085490565b905061051d8682610e17565b6105278184610f84565b6040805160a0810182528681526020808201879052428284015282518084018452600781526610dc99585d195960ca1b8183015260608301526001600160a01b038916608083015260008481526009909152919091208151819061058b9082611b85565b50602082015160018201906105a09082611b85565b5060408201516002820155606082015160038201906105bf9082611b85565b5060809190910151600490910180546001600160a01b0319166001600160a01b0390921691909117905560405181907faf6ffb6277511513e7d579327cc1fc57f0266df2fb11a60b13487b8c9cd2c3889061061d9088908a90611c45565b60405180910390a290505b949350505050565b61063a3382611040565b6106565760405162461bcd60e51b815260040161044890611c6f565b6104e98383836110be565b6104e983838360405180602001604052806000815250610794565b6000818152600260205260408120546001600160a01b0316806103155760405162461bcd60e51b8152602060048201526018602482015277115490cdcc8c4e881a5b9d985b1a59081d1bdad95b88125160421b6044820152606401610448565b60006001600160a01b0382166107465760405162461bcd60e51b815260206004820152602960248201527f4552433732313a2061646472657373207a65726f206973206e6f7420612076616044820152683634b21037bbb732b960b91b6064820152608401610448565b506001600160a01b031660009081526003602052604090205490565b61076a610dbd565b610774600061113b565b565b60606001805461032a90611afd565b61079033838361118d565b5050565b61079e3383611040565b6107ba5760405162461bcd60e51b815260040161044890611c6f565b6107c68484848461125b565b50505050565b6060806000606060006107de8661128e565b6108235760405162461bcd60e51b8152602060048201526016602482015275141c9bd91d58dd08191bd95cc81b9bdd08195e1a5cdd60521b6044820152606401610448565b600086815260096020526040808220815160a0810190925280548290829061084a90611afd565b80601f016020809104026020016040519081016040528092919081815260200182805461087690611afd565b80156108c35780601f10610898576101008083540402835291602001916108c3565b820191906000526020600020905b8154815290600101906020018083116108a657829003601f168201915b505050505081526020016001820180546108dc90611afd565b80601f016020809104026020016040519081016040528092919081815260200182805461090890611afd565b80156109555780601f1061092a57610100808354040283529160200191610955565b820191906000526020600020905b81548152906001019060200180831161093857829003601f168201915b505050505081526020016002820154815260200160038201805461097890611afd565b80601f01602080910402602001604051908101604052809291908181526020018280546109a490611afd565b80156109f15780601f106109c6576101008083540402835291602001916109f1565b820191906000526020600020905b8154815290600101906020018083116109d457829003601f168201915b5050509183525050600491909101546001600160a01b031660209182015281519082015160408301516060840151608090940151929b919a509850919650945092505050565b610a408261128e565b610a855760405162461bcd60e51b8152602060048201526016602482015275141c9bd91d58dd08191bd95cc81b9bdd08195e1a5cdd60521b6044820152606401610448565b33610a8f8361067c565b6001600160a01b031614610ad65760405162461bcd60e51b815260206004820152600e60248201526d139bdd08185d5d1a1bdc9a5e995960921b6044820152606401610448565b6000828152600960205260409020600301610af18282611b85565b50817fa36cb1ddda60c305ec3ccef5b0c79c077f1daa8c91329aca59b487bd5992de6982604051610b22919061176f565b60405180910390a25050565b6060610b3982610cff565b60008281526006602052604081208054610b5290611afd565b80601f0160208091040260200160405190810160405280929190818152602001828054610b7e90611afd565b8015610bcb5780601f10610ba057610100808354040283529160200191610bcb565b820191906000526020600020905b815481529060010190602001808311610bae57829003601f168201915b505050505090506000610be960408051602081019091526000815290565b90508051600003610bfb575092915050565b815115610c2d578082604051602001610c15929190611cbc565b60405160208183030381529060405292505050919050565b610628846112ab565b610c3e610dbd565b6001600160a01b038116610ca35760405162461bcd60e51b815260206004820152602660248201527f4f776e61626c653a206e6577206f776e657220697320746865207a65726f206160448201526564647265737360d01b6064820152608401610448565b610cac8161113b565b50565b60006001600160e01b031982166380ac58cd60e01b1480610ce057506001600160e01b03198216635b5e139f60e01b145b8061031557506301ffc9a760e01b6001600160e01b0319831614610315565b610d088161128e565b610cac5760405162461bcd60e51b8152602060048201526018602482015277115490cdcc8c4e881a5b9d985b1a59081d1bdad95b88125160421b6044820152606401610448565b600081815260046020526040902080546001600160a01b0319166001600160a01b0384169081179091558190610d848261067c565b6001600160a01b03167f8c5be1e5ebec7d5bd14f71427d1e84f3dd0314c0f7b2291e5b200ac8c7c3b92560405160405180910390a45050565b6007546001600160a01b031633146107745760405162461bcd60e51b815260206004820181905260248201527f4f776e61626c653a2063616c6c6572206973206e6f7420746865206f776e65726044820152606401610448565b6001600160a01b038216610e6d5760405162461bcd60e51b815260206004820181905260248201527f4552433732313a206d696e7420746f20746865207a65726f20616464726573736044820152606401610448565b610e768161128e565b15610ec35760405162461bcd60e51b815260206004820152601c60248201527f4552433732313a20746f6b656e20616c7265616479206d696e746564000000006044820152606401610448565b610ecc8161128e565b15610f195760405162461bcd60e51b815260206004820152601c60248201527f4552433732313a20746f6b656e20616c7265616479206d696e746564000000006044820152606401610448565b6001600160a01b038216600081815260036020908152604080832080546001019055848352600290915280822080546001600160a01b0319168417905551839291907fddf252ad1be2c89b69c2b068fc378daa952ba7f163c4a11628f55a4df523b3ef908290a45050565b610f8d8261128e565b610ff05760405162461bcd60e51b815260206004820152602e60248201527f45524337323155524953746f726167653a2055524920736574206f66206e6f6e60448201526d32bc34b9ba32b73a103a37b5b2b760911b6064820152608401610448565b60008281526006602052604090206110088282611b85565b506040518281527ff8e1a15aba9398e019f0b49df1a4fde98ee17ae345cb5f6b5e2c27f5033e8ce79060200160405180910390a15050565b60008061104c8361067c565b9050806001600160a01b0316846001600160a01b0316148061109357506001600160a01b0380821660009081526005602090815260408083209388168352929052205460ff165b806106285750836001600160a01b03166110ac846103ad565b6001600160a01b031614949350505050565b6110c983838361131f565b60008181526009602090815260409182902060040180546001600160a01b0319166001600160a01b03868116918217909255835191871682529181019190915282917fcef86d37ba3dc1d682967cde44d8050488734bf53166725b220b4d2e515e9e93910160405180910390a2505050565b600780546001600160a01b038381166001600160a01b0319831681179093556040519116919082907f8be0079c531659141344cd1fd0a4f28419497f9722a3daafe3b4186f6b6457e090600090a35050565b816001600160a01b0316836001600160a01b0316036111ee5760405162461bcd60e51b815260206004820152601960248201527f4552433732313a20617070726f766520746f2063616c6c6572000000000000006044820152606401610448565b6001600160a01b03838116600081815260056020908152604080832094871680845294825291829020805460ff191686151590811790915591519182527f17307eab39ab6107e8899845ad3d59bd9653f200f220920489ca2b5937696c31910160405180910390a3505050565b6112668484846110be565b61127284848484611483565b6107c65760405162461bcd60e51b815260040161044890611ceb565b6000908152600260205260409020546001600160a01b0316151590565b60606112b682610cff565b60006112cd60408051602081019091526000815290565b905060008151116112ed5760405180602001604052806000815250611318565b806112f784611581565b604051602001611308929190611cbc565b6040516020818303038152906040525b9392505050565b826001600160a01b03166113328261067c565b6001600160a01b0316146113585760405162461bcd60e51b815260040161044890611d3d565b6001600160a01b0382166113ba5760405162461bcd60e51b8152602060048201526024808201527f4552433732313a207472616e7366657220746f20746865207a65726f206164646044820152637265737360e01b6064820152608401610448565b826001600160a01b03166113cd8261067c565b6001600160a01b0316146113f35760405162461bcd60e51b815260040161044890611d3d565b600081815260046020908152604080832080546001600160a01b03199081169091556001600160a01b0387811680865260038552838620805460001901905590871680865283862080546001019055868652600290945282852080549092168417909155905184937fddf252ad1be2c89b69c2b068fc378daa952ba7f163c4a11628f55a4df523b3ef91a4505050565b60006001600160a01b0384163b1561157957604051630a85bd0160e11b81526001600160a01b0385169063150b7a02906114c7903390899088908890600401611d82565b6020604051808303816000875af1925050508015611502575060408051601f3d908101601f191682019092526114ff91810190611dbf565b60015b61155f573d808015611530576040519150601f19603f3d011682016040523d82523d6000602084013e611535565b606091505b5080516000036115575760405162461bcd60e51b815260040161044890611ceb565b805181602001fd5b6001600160e01b031916630a85bd0160e11b149050610628565b506001610628565b6060600061158e83611614565b600101905060008167ffffffffffffffff8111156115ae576115ae6117e1565b6040519080825280601f01601f1916602001820160405280156115d8576020820181803683370190505b5090508181016020015b600019016f181899199a1a9b1b9c1cb0b131b232b360811b600a86061a8153600a85049450846115e257509392505050565b60008072184f03e93ff9f4daa797ed6e38ed64bf6a1f0160401b83106116535772184f03e93ff9f4daa797ed6e38ed64bf6a1f0160401b830492506040015b6d04ee2d6d415b85acef8100000000831061167f576d04ee2d6d415b85acef8100000000830492506020015b662386f26fc10000831061169d57662386f26fc10000830492506010015b6305f5e10083106116b5576305f5e100830492506008015b61271083106116c957612710830492506004015b606483106116db576064830492506002015b600a83106103155760010192915050565b6001600160e01b031981168114610cac57600080fd5b60006020828403121561171457600080fd5b8135611318816116ec565b60005b8381101561173a578181015183820152602001611722565b50506000910152565b6000815180845261175b81602086016020860161171f565b601f01601f19169290920160200192915050565b6020815260006113186020830184611743565b60006020828403121561179457600080fd5b5035919050565b80356001600160a01b03811681146117b257600080fd5b919050565b600080604083850312156117ca57600080fd5b6117d38361179b565b946020939093013593505050565b634e487b7160e01b600052604160045260246000fd5b600067ffffffffffffffff80841115611812576118126117e1565b604051601f8501601f19908116603f0116810190828211818310171561183a5761183a6117e1565b8160405280935085815286868601111561185357600080fd5b858560208301376000602087830101525050509392505050565b600082601f83011261187e57600080fd5b611318838335602085016117f7565b600080600080608085870312156118a357600080fd5b6118ac8561179b565b9350602085013567ffffffffffffffff808211156118c957600080fd5b6118d58883890161186d565b945060408701359150808211156118eb57600080fd5b6118f78883890161186d565b9350606087013591508082111561190d57600080fd5b5061191a8782880161186d565b91505092959194509250565b60008060006060848603121561193b57600080fd5b6119448461179b565b92506119526020850161179b565b9150604084013590509250925092565b60006020828403121561197457600080fd5b6113188261179b565b6000806040838503121561199057600080fd5b6119998361179b565b9150602083013580151581146119ae57600080fd5b809150509250929050565b600080600080608085870312156119cf57600080fd5b6119d88561179b565b93506119e66020860161179b565b925060408501359150606085013567ffffffffffffffff811115611a0957600080fd5b8501601f81018713611a1a57600080fd5b61191a878235602084016117f7565b60a081526000611a3c60a0830188611743565b8281036020840152611a4e8188611743565b90508560408401528281036060840152611a688186611743565b91505060018060a01b03831660808301529695505050505050565b60008060408385031215611a9657600080fd5b82359150602083013567ffffffffffffffff811115611ab457600080fd5b611ac08582860161186d565b9150509250929050565b60008060408385031215611add57600080fd5b611ae68361179b565b9150611af46020840161179b565b90509250929050565b600181811c90821680611b1157607f821691505b602082108103611b3157634e487b7160e01b600052602260045260246000fd5b50919050565b601f8211156104e957600081815260208120601f850160051c81016020861015611b5e5750805b601f850160051c820191505b81811015611b7d57828155600101611b6a565b505050505050565b815167ffffffffffffffff811115611b9f57611b9f6117e1565b611bb381611bad8454611afd565b84611b37565b602080601f831160018114611be85760008415611bd05750858301515b600019600386901b1c1916600185901b178555611b7d565b600085815260208120601f198616915b82811015611c1757888601518255948401946001909101908401611bf8565b5085821015611c355787850151600019600388901b60f8161c191681555b5050505050600190811b01905550565b604081526000611c586040830185611743565b905060018060a01b03831660208301529392505050565b6020808252602d908201527f4552433732313a2063616c6c6572206973206e6f7420746f6b656e206f776e6560408201526c1c881bdc88185c1c1c9bdd9959609a1b606082015260800190565b60008351611cce81846020880161171f565b835190830190611ce281836020880161171f565b01949350505050565b60208082526032908201527f4552433732313a207472616e7366657220746f206e6f6e20455243373231526560408201527131b2b4bb32b91034b6b83632b6b2b73a32b960711b606082015260800190565b60208082526025908201527f4552433732313a207472616e736665722066726f6d20696e636f72726563742060408201526437bbb732b960d91b606082015260800190565b6001600160a01b0385811682528416602082015260408101839052608060608201819052600090611db590830184611743565b9695505050505050565b600060208284031215611dd157600080fd5b8151611318816116ec56fea26469706673582212206009e3589f9c0f4046f98733877fda3f8415b6849a6799826eb30302b5ef1e6064736f6c63430008130033",
  "linkReferences": {},
  "deployedLinkReferences": {}
}