{
  "_format": "hh-sol-artifact-1",
  "contractName": "SupplyChain",
  "sourceName": "contracts/SupplyChain.sol",
  "abi": [
    {
      "inputs": [
        {
          "internalType": "address",
          "name": "productNFTAddress",
          "type": "address"
        }
      ],
      "stateMutability": "nonpayable",
      "type": "constructor"
    },
    {
      "anonymous": false,
      "inputs": [
        {
          "indexed": true,
          "internalType": "uint256",
          "name": "productId",
          "type": "uint256"
        },
        {
          "indexed": false,
          "internalType": "string",
          "name": "newLocation",
          "type": "string"
        }
      ],
      "name": "LocationUpdated",
      "type": "event"
    },
    {
      "anonymous": false,
      "inputs": [
        {
          "indexed": false,
          "internalType": "address",
          "name": "account",
          "type": "address"
        }
      ],
      "name": "Paused",
      "type": "event"
    },
    {
      "anonymous": false,
      "inputs": [
        {
          "indexed": true,
          "internalType": "uint256",
          "name": "productId",
          "type": "uint256"
        },
        {
          "indexed": true,
          "internalType": "address",
          "name": "manufacturer",
          "type": "address"
        },
        {
          "indexed": false,
          "internalType": "string",
          "name": "name",
          "type": "string"
        }
      ],
      "name": "ProductCreated",
      "type": "event"
    },
    {
      "anonymous": false,
      "inputs": [
        {
          "indexed": true,
          "internalType": "bytes32",
          "name": "role",
          "type": "bytes32"
        },
        {
          "indexed": true,
          "internalType": "bytes32",
          "name": "previousAdminRole",
          "type": "bytes32"
        },
        {
          "indexed": true,
          "internalType": "bytes32",
          "name": "newAdminRole",
          "type": "bytes32"
        }
      ],
      "name": "RoleAdminChanged",
      "type": "event"
    },
    {
      "anonymous": false,
      "inputs": [
        {
          "indexed": true,
          "internalType": "bytes32",
          "name": "role",
          "type": "bytes32"
        },
        {
          "indexed": true,
          "internalType": "address",
          "name": "account",
          "type": "address"
        },
        {
          "indexed": true,
          "internalType": "address",
          "name": "sender",
          "type": "address"
        }
      ],
      "name": "RoleGranted",
      "type": "event"
    },
    {
      "anonymous": false,
      "inputs": [
        {
          "indexed": true,
          "internalType": "bytes32",
          "name": "role",
          "type": "bytes32"
        },
        {
          "indexed": true,
          "internalType": "address",
          "name": "account",
          "type": "address"
        },
        {
          "indexed": true,
          "internalType": "address",
          "name": "sender",
          "type": "address"
        }
      ],
      "name": "RoleRevoked",
      "type": "event"
    },
    {
      "anonymous": false,
      "inputs": [
        {
          "indexed": true,
          "internalType": "uint256",
          "name": "productId",
          "type": "uint256"
        },
        {
          "indexed": true,
          "internalType": "address",
          "name": "sender",
          "type": "address"
        },
        {
          "indexed": true,
          "internalType": "address",
          "name": "receiver",
          "type": "address"
        }
      ],
      "name": "ShipmentCreated",
      "type": "event"
    },
    {
      "anonymous": false,
      "inputs": [
        {
          "indexed": true,
          "internalType": "uint256",
          "name": "productId",
          "type": "uint256"
        },
        {
          "indexed": false,
          "internalType": "enum SupplyChain.Stage",
          "name": "newStage",
          "type": "uint8"
        }
      ],
      "name": "StageUpdated",
      "type": "event"
    },
    {
      "anonymous": false,
      "inputs": [
        {
          "indexed": false,
          "internalType": "address",
          "name": "account",
          "type": "address"
        }
      ],
      "name": "Unpaused",
      "type": "event"
    },
    {
      "inputs": [],
      "name": "DEFAULT_ADMIN_ROLE",
      "outputs": [
        {
          "internalType": "bytes32",
          "name": "",
          "type": "bytes32"
        }
      ],
      "stateMutability": "view",
      "type": "function"
    },
    {
      "inputs": [],
      "name": "DISTRIBUTOR_ROLE",
      "outputs": [
        {
          "internalType": "bytes32",
          "name": "",
          "type": "bytes32"
        }
      ],
      "stateMutability": "view",
      "type": "function"
    },
    {
      "inputs": [],
      "name": "MANUFACTURER_ROLE",
      "outputs": [
        {
          "internalType": "bytes32",
          "name": "",
          "type": "bytes32"
        }
      ],
      "stateMutability": "view",
      "type": "function"
    },
    {
      "inputs": [],
      "name": "RETAILER_ROLE",
      "outputs": [
        {
          "internalType": "bytes32",
          "name": "",
          "type": "bytes32"
        }
      ],
      "stateMutability": "view",
      "type": "function"
    },
    {
      "inputs": [
        {
          "internalType": "string",
          "name": "name",
          "type": "string"
        },
        {
          "internalType": "string",
          "name": "manufacturer",
          "type": "string"
        },
        {
          "internalType": "uint256",
          "name": "price",
          "type": "uint256"
        },
        {
          "internalType": "string",
          "name": "tokenURI",
          "type": "string"
        }
      ],
      "name": "createProduct",
      "outputs": [
        {
          "internalType": "uint256",
          "name": "",
          "type": "uint256"
        }
      ],
      "stateMutability": "nonpayable",
      "type": "function"
    },
    {
      "inputs": [
        {
          "internalType": "uint256",
          "name": "productId",
          "type": "uint256"
        },
        {
          "internalType": "address",
          "name": "receiver",
          "type": "address"
        },
        {
          "internalType": "string",
          "name": "location",
          "type": "string"
        }
      ],
      "name": "createShipment",
      "outputs": [],
      "stateMutability": "nonpayable",
      "type": "function"
    },
    {
      "inputs": [
        {
          "internalType": "uint256",
          "name": "productId",
          "type": "uint256"
        }
      ],
      "name": "getCurrentShipment",
      "outputs": [
        {
          "internalType": "address",
          "name": "sender",
          "type": "address"
        },
        {
          "internalType": "address",
          "name": "receiver",
          "type": "address"
        },
        {
          "internalType": "enum SupplyChain.Stage",
          "name": "stage",
          "type": "uint8"
        },
        {
          "internalType": "uint256",
          "name": "timestamp",
          "type": "uint256"
        },
        {
          "internalType": "string",
          "name": "location",
          "type": "string"
        }
      ],
      "stateMutability": "view",
      "type": "function"
    },
    {
      "inputs": [
        {
          "internalType": "bytes32",
          "name": "role",
          "type": "bytes32"
        }
      ],
      "name": "getRoleAdmin",
      "outputs": [
        {
          "internalType": "bytes32",
          "name": "",
          "type": "bytes32"
        }
      ],
      "stateMutability": "view",
      "type": "function"
    },
    {
      "inputs": [
        {
          "internalType": "uint256",
          "name": "productId",
          "type": "uint256"
        }
      ],
      "name": "getShipmentHistory",
      "outputs": [
        {
          "components": [
            {
              "internalType": "uint256",
              "name": "productId",
              "type": "uint256"
            },
            {
              "internalType": "address",
              "name": "sender",
              "type": "address"
            },
            {
              "internalType": "address",
              "name": "receiver",
              "type": "address"
            },
            {
              "internalType": "enum SupplyChain.Stage",
              "name": "currentStage",
              "type": "uint8"
            },
            {
              "internalType": "uint256",
              "name": "timestamp",
              "type": "uint256"
            },
            {
              "internalType": "string",
              "name": "location",
              "type": "string"
            }
          ],
          "internalType": "struct SupplyChain.Shipment[]",
          "name": "",
          "type": "tuple[]"
        }
      ],
      "stateMutability": "view",
      "type": "function"
    },
    {
      "inputs": [
        {
          "internalType": "address",
          "name": "account",
          "type": "address"
        }
      ],
      "name": "grantDistributorRole",
      "outputs": [],
      "stateMutability": "nonpayable",
      "type": "function"
    },
    {
      "inputs": [
        {
          "internalType": "address",
          "name": "account",
          "type": "address"
        }
      ],
      "name": "grantManufacturerRole",
      "outputs": [],
      "stateMutability": "nonpayable",
      "type": "function"
    },
    {
      "inputs": [
        {
          "internalType": "address",
          "name": "account",
          "type": "address"
        }
      ],
      "name": "grantRetailerRole",
      "outputs": [],
      "stateMutability": "nonpayable",
      "type": "function"
    },
    {
      "inputs": [
        {
          "internalType": "bytes32",
          "name": "role",
          "type": "bytes32"
        },
        {
          "internalType": "address",
          "name": "account",
          "type": "address"
        }
      ],
      "name": "grantRole",
      "outputs": [],
      "stateMutability": "nonpayable",
      "type": "function"
    },
    {
      "inputs": [
        {
          "internalType": "bytes32",
          "name": "role",
          "type": "bytes32"
        },
        {
          "internalType": "address",
          "name": "account",
          "type": "address"
        }
      ],
      "name": "hasRole",
      "outputs": [
        {
          "internalType": "bool",
          "name": "",
          "type": "bool"
        }
      ],
      "stateMutability": "view",
      "type": "function"
    },
    {
      "inputs": [
        {
          "internalType": "address",
          "name": "account",
          "type": "address"
        }
      ],
      "name": "isDistributor",
      "outputs": [
        {
          "internalType": "bool",
          "name": "",
          "type": "bool"
        }
      ],
      "stateMutability": "view",
      "type": "function"
    },
    {
      "inputs": [
        {
          "internalType": "address",
          "name": "account",
          "type": "address"
        }
      ],
      "name": "isManufacturer",
      "outputs": [
        {
          "internalType": "bool",
          "name": "",
          "type": "bool"
        }
      ],
      "stateMutability": "view",
      "type": "function"
    },
    {
      "inputs": [
        {
          "internalType": "address",
          "name": "account",
          "type": "address"
        }
      ],
      "name": "isRetailer",
      "outputs": [
        {
          "internalType": "bool",
          "name": "",
          "type": "bool"
        }
      ],
      "stateMutability": "view",
      "type": "function"
    },
    {
      "inputs": [],
      "name": "pause",
      "outputs": [],
      "stateMutability": "nonpayable",
      "type": "function"
    },
    {
      "inputs": [],
      "name": "paused",
      "outputs": [
        {
          "internalType": "bool",
          "name": "",
          "type": "bool"
        }
      ],
      "stateMutability": "view",
      "type": "function"
    },
    {
      "inputs": [
        {
          "internalType": "bytes32",
          "name": "role",
          "type": "bytes32"
        },
        {
          "internalType": "address",
          "name": "account",
          "type": "address"
        }
      ],
      "name": "renounceRole",
      "outputs": [],
      "stateMutability": "nonpayable",
      "type": "function"
    },
    {
      "inputs": [
        {
          "internalType": "bytes32",
          "name": "role",
          "type": "bytes32"
        },
        {
          "internalType": "address",
          "name": "account",
          "type": "address"
        }
      ],
      "name": "revokeRole",
      "outputs": [],
      "stateMutability": "nonpayable",
      "type": "function"
    },
    {
      "inputs": [
        {
          "internalType": "bytes4",
          "name": "interfaceId",
          "type": "bytes4"
        }
      ],
      "name": "supportsInterface",
      "outputs": [
        {
          "internalType": "bool",
          "name": "",
          "type": "bool"
        }
      ],
      "stateMutability": "view",
      "type": "function"
    },
    {
      "inputs": [],
      "name": "unpause",
      "outputs": [],
      "stateMutability": "nonpayable",
      "type": "function"
    },
    {
      "inputs": [
        {
          "internalType": "uint256",
          "name": "productId",
          "type": "uint256"
        },
        {
          "internalType": "string",
          "name": "newLocation",
          "type": "string"
        }
      ],
      "name": "updateLocation",
      "outputs": [],
      "stateMutability": "nonpayable",
      "type": "function"
    },
    {
      "inputs": [
        {
          "internalType": "uint256",
          "name": "productId",
          "type": "uint256"
        },
        {
          "internalType": "enum SupplyChain.Stage",
          "name": "newStage",
          "type": "uint8"
        }
      ],
      "name": "updateStage",
      "outputs": [],
      "stateMutability": "nonpayable",
      "type": "function"
    }
  ],
  "bytecode": "0x60806040523480156200001157600080fd5b5060405162001c7e38038062001c7e833981016040819052620000349162000117565b600180546001600160a81b0319166101006001600160a01b038416021790556200006060003362000067565b5062000149565b62000073828262000077565b5050565b6000828152602081815260408083206001600160a01b038516845290915290205460ff1662000073576000828152602081815260408083206001600160a01b03851684529091529020805460ff19166001179055620000d33390565b6001600160a01b0316816001600160a01b0316837f2f8788117e7eff1d82e926ec794901d17c78024a50270940304540a733656f0d60405160405180910390a45050565b6000602082840312156200012a57600080fd5b81516001600160a01b03811681146200014257600080fd5b9392505050565b611b2580620001596000396000f3fe608060405234801561001057600080fd5b50600436106101735760003560e01c8063631c6ffe116100de578063a217fddf11610097578063d547741f11610071578063d547741f14610335578063f0bd87cc14610348578063f405c96b1461035d578063f9f806e11461037057600080fd5b8063a217fddf146102f6578063c4811a4d146102fe578063ce90ceff1461032257600080fd5b8063631c6ffe146102805780638456cb59146102a05780638bba2a0a146102a85780638f0c86fa146102bb57806391d14854146102ce578063965288b0146102e157600080fd5b806336568abe1161013057806336568abe146102215780633f4ba83a146102345780634ec0c9e91461023c57806355c4281e1461024f5780635c975abb146102625780635da09b881461026d57600080fd5b806301ffc9a71461017857806312c89196146101a057806317d4a491146101c15780632115e7bf146101d4578063248a9ca3146101e95780632f2ff15d1461020c575b600080fd5b61018b610186366004611370565b610383565b60405190151581526020015b60405180910390f35b6101b36101ae36600461143d565b6103ba565b604051908152602001610197565b61018b6101cf3660046114eb565b610669565b6101b3600080516020611ad083398151915281565b6101b36101f7366004611506565b60009081526020819052604090206001015490565b61021f61021a36600461151f565b610683565b005b61021f61022f36600461151f565b6106ad565b61021f61072b565b61021f61024a36600461154b565b610741565b61021f61025d3660046114eb565b61088e565b60015460ff1661018b565b61018b61027b3660046114eb565b6108b1565b61029361028e366004611506565b6108cb565b604051610197919061161a565b61021f610a3b565b61021f6102b63660046114eb565b610a4e565b61018b6102c93660046114eb565b610a71565b61018b6102dc36600461151f565b610a87565b6101b3600080516020611a9083398151915281565b6101b3600081565b61031161030c366004611506565b610ab0565b6040516101979594939291906116d0565b61021f610330366004611718565b610bf3565b61021f61034336600461151f565b610daf565b6101b3600080516020611ab083398151915281565b61021f61036b36600461176f565b610dd4565b61021f61037e3660046114eb565b610f2e565b60006001600160e01b03198216637965db0b60e01b14806103b457506301ffc9a760e01b6001600160e01b03198316145b92915050565b60006103c4610f51565b6103dc600080516020611a9083398151915233610a87565b806103fa57506103fa600080516020611ad083398151915233610a87565b61045b5760405162461bcd60e51b815260206004820152602760248201527f43616c6c6572206d757374206265206d616e756661637475726572206f72207260448201526632ba30b4b632b960c91b60648201526084015b60405180910390fd5b600154604051631e7054b360e01b815260009161010090046001600160a01b031690631e7054b3906104979033908a908a9089906004016117a3565b6020604051808303816000875af11580156104b6573d6000803e3d6000fd5b505050506040513d601f19601f820116820180604052508101906104da91906117ed565b6040805160c0810182528281523360208083018281528385019283526000606085018181524260808701528651808801885260168152754d616e75666163747572696e6720466163696c69747960501b8186015260a08701528782526002808552968220805460018082018355918452949092208651600590950201938455915190830180546001600160a01b039283166001600160a01b0319918216179091559351958301805496909116938616841781559051959650929485949193909290916001600160a81b03191617600160a01b8360068111156105be576105be611592565b02179055506080820151600382015560a082015160048201906105e1908261188e565b505050336001600160a01b0316827f91bfc064380de20e1c90ea2ed78d0358b4ab45d446c0b93b0b07bc86f95897da8960405161061e919061194e565b60405180910390a3817fe07678ebda9ff268c2c8531bb0ebfc488d9fa7067d919572337a14a72c3aa0b760006040516106579190611961565b60405180910390a25095945050505050565b60006103b4600080516020611a9083398151915283610a87565b60008281526020819052604090206001015461069e81610f99565b6106a88383610fa3565b505050565b6001600160a01b038116331461071d5760405162461bcd60e51b815260206004820152602f60248201527f416363657373436f6e74726f6c3a2063616e206f6e6c792072656e6f756e636560448201526e103937b632b9903337b91039b2b63360891b6064820152608401610452565b6107278282611027565b5050565b600061073681610f99565b61073e61108c565b50565b610749610f51565b610761600080516020611a9083398151915233610a87565b8061077f575061077f600080516020611ab083398151915233610a87565b8061079d575061079d600080516020611ad083398151915233610a87565b6107d85760405162461bcd60e51b815260206004820152600c60248201526b155b985d5d1a1bdc9a5e995960a21b6044820152606401610452565b6000828152600260205260409020546108035760405162461bcd60e51b81526004016104529061196f565b6000828152600260205260409020805482908290610823906001906119b0565b81548110610833576108336119c3565b90600052602060002090600502016004019081610850919061188e565b50827f65edc79681b60dda53ce45315418e2d9637c424299784fc6aaf815fa304dda2b83604051610881919061194e565b60405180910390a2505050565b600061089981610f99565b610727600080516020611a9083398151915283610683565b60006103b4600080516020611ad083398151915283610a87565b606060026000838152602001908152602001600020805480602002602001604051908101604052809291908181526020016000905b82821015610a305760008481526020908190206040805160c081018252600586029092018054835260018101546001600160a01b039081169484019490945260028101549384169183019190915290916060830190600160a01b900460ff16600681111561097057610970611592565b600681111561098157610981611592565b81526020016003820154815260200160048201805461099f90611806565b80601f01602080910402602001604051908101604052809291908181526020018280546109cb90611806565b8015610a185780601f106109ed57610100808354040283529160200191610a18565b820191906000526020600020905b8154815290600101906020018083116109fb57829003601f168201915b50505050508152505081526020019060010190610900565b505050509050919050565b6000610a4681610f99565b61073e6110de565b6000610a5981610f99565b610727600080516020611ab083398151915283610683565b60006103b4600080516020611ab0833981519152835b6000918252602082815260408084206001600160a01b0393909316845291905290205460ff1690565b600081815260026020526040812054819081908190606090610ae45760405162461bcd60e51b81526004016104529061196f565b60008681526002602052604081208054610b00906001906119b0565b81548110610b1057610b106119c3565b600091825260209091206005909102016001810154600282015460038301546004840180549495506001600160a01b039384169493831693600160a01b90930460ff16928190610b5f90611806565b80601f0160208091040260200160405190810160405280929190818152602001828054610b8b90611806565b8015610bd85780601f10610bad57610100808354040283529160200191610bd8565b820191906000526020600020905b815481529060010190602001808311610bbb57829003601f168201915b50505050509050955095509550955095505091939590929450565b610bfb610f51565b610c13600080516020611a9083398151915233610a87565b80610c315750610c31600080516020611ab083398151915233610a87565b610c905760405162461bcd60e51b815260206004820152602a60248201527f43616c6c6572206d757374206265206d616e756661637475726572206f72206460448201526934b9ba3934b13aba37b960b11b6064820152608401610452565b6040805160c0810182528481523360208083019182526001600160a01b0386811684860190815260036060860190815242608087015260a0860188905260008a81526002808652978120805460018082018355918352959091208751600590960201948555945194840180549584166001600160a01b0319968716179055905195830180549690921693861684178255519394859492936001600160a81b031990911617600160a01b836006811115610d4b57610d4b611592565b02179055506080820151600382015560a08201516004820190610d6e908261188e565b50506040516001600160a01b0385169150339086907ffe0fd664b79935c18377297309c92f6abe60ccaa6d43bd30327c508c7fda080e90600090a450505050565b600082815260208190526040902060010154610dca81610f99565b6106a88383611027565b610ddc610f51565b610df4600080516020611a9083398151915233610a87565b80610e125750610e12600080516020611ab083398151915233610a87565b80610e305750610e30600080516020611ad083398151915233610a87565b610e6b5760405162461bcd60e51b815260206004820152600c60248201526b155b985d5d1a1bdc9a5e995960a21b6044820152606401610452565b600082815260026020526040902054610e965760405162461bcd60e51b81526004016104529061196f565b6000828152600260205260409020805482908290610eb6906001906119b0565b81548110610ec657610ec66119c3565b60009182526020909120600260059092020101805460ff60a01b1916600160a01b836006811115610ef957610ef9611592565b0217905550827fe07678ebda9ff268c2c8531bb0ebfc488d9fa7067d919572337a14a72c3aa0b7836040516108819190611961565b6000610f3981610f99565b610727600080516020611ad083398151915283610683565b60015460ff1615610f975760405162461bcd60e51b815260206004820152601060248201526f14185d5cd8589b194e881c185d5cd95960821b6044820152606401610452565b565b61073e8133611119565b610fad8282610a87565b610727576000828152602081815260408083206001600160a01b03851684529091529020805460ff19166001179055610fe33390565b6001600160a01b0316816001600160a01b0316837f2f8788117e7eff1d82e926ec794901d17c78024a50270940304540a733656f0d60405160405180910390a45050565b6110318282610a87565b15610727576000828152602081815260408083206001600160a01b0385168085529252808320805460ff1916905551339285917ff6391f5c32d9c69d2a47ea670b442974b53935d1edc7fd64eb21e047a839171b9190a45050565b611094611172565b6001805460ff191690557f5db9ee0a495bf2e6ff9c91a7834c1ba4fdd244a5e8aa4e537bd38aeae4b073aa335b6040516001600160a01b03909116815260200160405180910390a1565b6110e6610f51565b6001805460ff1916811790557f62e78cea01bee320cd4e420270b5ea74000d11b0c9f74754ebdbfc544b05a258336110c1565b6111238282610a87565b61072757611130816111bb565b61113b8360206111cd565b60405160200161114c9291906119d9565b60408051601f198184030181529082905262461bcd60e51b82526104529160040161194e565b60015460ff16610f975760405162461bcd60e51b815260206004820152601460248201527314185d5cd8589b194e881b9bdd081c185d5cd95960621b6044820152606401610452565b60606103b46001600160a01b03831660145b606060006111dc836002611a4e565b6111e7906002611a65565b67ffffffffffffffff8111156111ff576111ff61139a565b6040519080825280601f01601f191660200182016040528015611229576020820181803683370190505b509050600360fc1b81600081518110611244576112446119c3565b60200101906001600160f81b031916908160001a905350600f60fb1b81600181518110611273576112736119c3565b60200101906001600160f81b031916908160001a9053506000611297846002611a4e565b6112a2906001611a65565b90505b600181111561131a576f181899199a1a9b1b9c1cb0b131b232b360811b85600f16601081106112d6576112d66119c3565b1a60f81b8282815181106112ec576112ec6119c3565b60200101906001600160f81b031916908160001a90535060049490941c9361131381611a78565b90506112a5565b5083156113695760405162461bcd60e51b815260206004820181905260248201527f537472696e67733a20686578206c656e67746820696e73756666696369656e746044820152606401610452565b9392505050565b60006020828403121561138257600080fd5b81356001600160e01b03198116811461136957600080fd5b634e487b7160e01b600052604160045260246000fd5b600082601f8301126113c157600080fd5b813567ffffffffffffffff808211156113dc576113dc61139a565b604051601f8301601f19908116603f011681019082821181831017156114045761140461139a565b8160405283815286602085880101111561141d57600080fd5b836020870160208301376000602085830101528094505050505092915050565b6000806000806080858703121561145357600080fd5b843567ffffffffffffffff8082111561146b57600080fd5b611477888389016113b0565b9550602087013591508082111561148d57600080fd5b611499888389016113b0565b94506040870135935060608701359150808211156114b657600080fd5b506114c3878288016113b0565b91505092959194509250565b80356001600160a01b03811681146114e657600080fd5b919050565b6000602082840312156114fd57600080fd5b611369826114cf565b60006020828403121561151857600080fd5b5035919050565b6000806040838503121561153257600080fd5b82359150611542602084016114cf565b90509250929050565b6000806040838503121561155e57600080fd5b82359150602083013567ffffffffffffffff81111561157c57600080fd5b611588858286016113b0565b9150509250929050565b634e487b7160e01b600052602160045260246000fd5b600781106115c657634e487b7160e01b600052602160045260246000fd5b9052565b60005b838110156115e55781810151838201526020016115cd565b50506000910152565b600081518084526116068160208601602086016115ca565b601f01601f19169290920160200192915050565b60006020808301818452808551808352604092508286019150828160051b87010184880160005b838110156116c257888303603f19018552815180518452878101516001600160a01b039081168986015287820151168785015260608082015160c0919061168a828801826115a8565b50506080828101519086015260a0918201519185018190526116ae818601836115ee565b968901969450505090860190600101611641565b509098975050505050505050565b6001600160a01b0386811682528516602082015260006116f360408301866115a8565b83606083015260a0608083015261170d60a08301846115ee565b979650505050505050565b60008060006060848603121561172d57600080fd5b8335925061173d602085016114cf565b9150604084013567ffffffffffffffff81111561175957600080fd5b611765868287016113b0565b9150509250925092565b6000806040838503121561178257600080fd5b8235915060208301356007811061179857600080fd5b809150509250929050565b6001600160a01b03851681526080602082018190526000906117c7908301866115ee565b82810360408401526117d981866115ee565b9050828103606084015261170d81856115ee565b6000602082840312156117ff57600080fd5b5051919050565b600181811c9082168061181a57607f821691505b60208210810361183a57634e487b7160e01b600052602260045260246000fd5b50919050565b601f8211156106a857600081815260208120601f850160051c810160208610156118675750805b601f850160051c820191505b8181101561188657828155600101611873565b505050505050565b815167ffffffffffffffff8111156118a8576118a861139a565b6118bc816118b68454611806565b84611840565b602080601f8311600181146118f157600084156118d95750858301515b600019600386901b1c1916600185901b178555611886565b600085815260208120601f198616915b8281101561192057888601518255948401946001909101908401611901565b508582101561193e5787850151600019600388901b60f8161c191681555b5050505050600190811b01905550565b60208152600061136960208301846115ee565b602081016103b482846115a8565b602080825260119082015270139bc81cda1a5c1b595b9d08199bdd5b99607a1b604082015260600190565b634e487b7160e01b600052601160045260246000fd5b818103818111156103b4576103b461199a565b634e487b7160e01b600052603260045260246000fd5b7f416363657373436f6e74726f6c3a206163636f756e7420000000000000000000815260008351611a118160178501602088016115ca565b7001034b99036b4b9b9b4b733903937b6329607d1b6017918401918201528351611a428160288401602088016115ca565b01602801949350505050565b80820281158282048414176103b4576103b461199a565b808201808211156103b4576103b461199a565b600081611a8757611a8761199a565b50600019019056feeefb95e842a3287179d933b4460be539a1d5af11aa8b325bb45c5c8dc92de4edfbd454f36a7e1a388bd6fc3ab10d434aa4578f811acbbcf33afb1c697486313c2a5f906c256a5d799494fcd066e1f6c077689de1cdb65052a1624de4bace99bfa264697066735822122054c240aba51c4b17bb773cc3a9d1bf93a0a275d660be6592f6c9a71f9d32862064736f6c63430008130033",
  "linkReferences": {},
  "deployedLinkReferences": {}
}