{
  "_format": "hh-sol-artifact-1",
  "contractName": "SupplyChain",
  "sourceName": "contracts/SupplyChain.sol",
  "abi": [
    {
      "inputs": [
        {
          "internalType": "address",
          "name": "productNFTAddress",
          "type": "address"
        }
      ],
      "stateMutability": "nonpayable",
      "type": "constructor"
    },
    {
      "anonymous": false,
      "inputs": [
        {
          "indexed": true,
          "internalType": "uint256",
          "name": "productId",
          "type": "uint256"
        },
        {
          "indexed": false,
          "internalType": "string",
          "name": "newLocation",
          "type": "string"
        }
      ],
      "name": "LocationUpdated",
      "type": "event"
    },
    {
      "anonymous": false,
      "inputs": [
        {
          "indexed": false,
          "internalType": "address",
          "name": "account",
          "type": "address"
        }
      ],
      "name": "Paused",
      "type": "event"
    },
    {
      "anonymous": false,
      "inputs": [
        {
          "indexed": true,
          "internalType": "uint256",
          "name": "tokenId",
          "type": "uint256"
        },
        {
          "indexed": false,
          "internalType": "string",
          "name": "name",
          "type": "string"
        },
        {
          "indexed": false,
          "internalType": "address",
          "name": "manufacturer",
          "type": "address"
        }
      ],
      "name": "ProductCreated",
      "type": "event"
    },
    {
      "anonymous": false,
      "inputs": [
        {
          "indexed": true,
          "internalType": "bytes32",
          "name": "role",
          "type": "bytes32"
        },
        {
          "indexed": true,
          "internalType": "bytes32",
          "name": "previousAdminRole",
          "type": "bytes32"
        },
        {
          "indexed": true,
          "internalType": "bytes32",
          "name": "newAdminRole",
          "type": "bytes32"
        }
      ],
      "name": "RoleAdminChanged",
      "type": "event"
    },
    {
      "anonymous": false,
      "inputs": [
        {
          "indexed": true,
          "internalType": "bytes32",
          "name": "role",
          "type": "bytes32"
        },
        {
          "indexed": true,
          "internalType": "address",
          "name": "account",
          "type": "address"
        },
        {
          "indexed": true,
          "internalType": "address",
          "name": "sender",
          "type": "address"
        }
      ],
      "name": "RoleGranted",
      "type": "event"
    },
    {
      "anonymous": false,
      "inputs": [
        {
          "indexed": true,
          "internalType": "bytes32",
          "name": "role",
          "type": "bytes32"
        },
        {
          "indexed": true,
          "internalType": "address",
          "name": "account",
          "type": "address"
        },
        {
          "indexed": true,
          "internalType": "address",
          "name": "sender",
          "type": "address"
        }
      ],
      "name": "RoleRevoked",
      "type": "event"
    },
    {
      "anonymous": false,
      "inputs": [
        {
          "indexed": true,
          "internalType": "uint256",
          "name": "productId",
          "type": "uint256"
        },
        {
          "indexed": true,
          "internalType": "address",
          "name": "sender",
          "type": "address"
        },
        {
          "indexed": true,
          "internalType": "address",
          "name": "receiver",
          "type": "address"
        }
      ],
      "name": "ShipmentCreated",
      "type": "event"
    },
    {
      "anonymous": false,
      "inputs": [
        {
          "indexed": true,
          "internalType": "uint256",
          "name": "productId",
          "type": "uint256"
        },
        {
          "indexed": false,
          "internalType": "enum SupplyChain.Stage",
          "name": "newStage",
          "type": "uint8"
        }
      ],
      "name": "StageUpdated",
      "type": "event"
    },
    {
      "anonymous": false,
      "inputs": [
        {
          "indexed": false,
          "internalType": "address",
          "name": "account",
          "type": "address"
        }
      ],
      "name": "Unpaused",
      "type": "event"
    },
    {
      "inputs": [],
      "name": "DEFAULT_ADMIN_ROLE",
      "outputs": [
        {
          "internalType": "bytes32",
          "name": "",
          "type": "bytes32"
        }
      ],
      "stateMutability": "view",
      "type": "function"
    },
    {
      "inputs": [],
      "name": "SELLER_ROLE",
      "outputs": [
        {
          "internalType": "bytes32",
          "name": "",
          "type": "bytes32"
        }
      ],
      "stateMutability": "view",
      "type": "function"
    },
    {
      "inputs": [],
      "name": "checkMinterRole",
      "outputs": [
        {
          "internalType": "bool",
          "name": "",
          "type": "bool"
        }
      ],
      "stateMutability": "view",
      "type": "function"
    },
    {
      "inputs": [
        {
          "internalType": "string",
          "name": "name",
          "type": "string"
        },
        {
          "internalType": "string",
          "name": "manufacturer",
          "type": "string"
        },
        {
          "internalType": "uint256",
          "name": "price",
          "type": "uint256"
        },
        {
          "internalType": "string",
          "name": "tokenURI",
          "type": "string"
        }
      ],
      "name": "createProduct",
      "outputs": [
        {
          "internalType": "uint256",
          "name": "",
          "type": "uint256"
        }
      ],
      "stateMutability": "nonpayable",
      "type": "function"
    },
    {
      "inputs": [
        {
          "internalType": "uint256",
          "name": "productId",
          "type": "uint256"
        },
        {
          "internalType": "address",
          "name": "receiver",
          "type": "address"
        },
        {
          "internalType": "string",
          "name": "location",
          "type": "string"
        }
      ],
      "name": "createShipment",
      "outputs": [],
      "stateMutability": "nonpayable",
      "type": "function"
    },
    {
      "inputs": [
        {
          "internalType": "uint256",
          "name": "productId",
          "type": "uint256"
        }
      ],
      "name": "getCurrentShipment",
      "outputs": [
        {
          "internalType": "address",
          "name": "sender",
          "type": "address"
        },
        {
          "internalType": "address",
          "name": "receiver",
          "type": "address"
        },
        {
          "internalType": "enum SupplyChain.Stage",
          "name": "stage",
          "type": "uint8"
        },
        {
          "internalType": "uint256",
          "name": "timestamp",
          "type": "uint256"
        },
        {
          "internalType": "string",
          "name": "location",
          "type": "string"
        }
      ],
      "stateMutability": "view",
      "type": "function"
    },
    {
      "inputs": [
        {
          "internalType": "bytes32",
          "name": "role",
          "type": "bytes32"
        }
      ],
      "name": "getRoleAdmin",
      "outputs": [
        {
          "internalType": "bytes32",
          "name": "",
          "type": "bytes32"
        }
      ],
      "stateMutability": "view",
      "type": "function"
    },
    {
      "inputs": [
        {
          "internalType": "uint256",
          "name": "productId",
          "type": "uint256"
        }
      ],
      "name": "getShipmentHistory",
      "outputs": [
        {
          "components": [
            {
              "internalType": "uint256",
              "name": "productId",
              "type": "uint256"
            },
            {
              "internalType": "address",
              "name": "sender",
              "type": "address"
            },
            {
              "internalType": "address",
              "name": "receiver",
              "type": "address"
            },
            {
              "internalType": "enum SupplyChain.Stage",
              "name": "currentStage",
              "type": "uint8"
            },
            {
              "internalType": "uint256",
              "name": "timestamp",
              "type": "uint256"
            },
            {
              "internalType": "string",
              "name": "location",
              "type": "string"
            }
          ],
          "internalType": "struct SupplyChain.Shipment[]",
          "name": "",
          "type": "tuple[]"
        }
      ],
      "stateMutability": "view",
      "type": "function"
    },
    {
      "inputs": [
        {
          "internalType": "bytes32",
          "name": "role",
          "type": "bytes32"
        },
        {
          "internalType": "address",
          "name": "account",
          "type": "address"
        }
      ],
      "name": "grantRole",
      "outputs": [],
      "stateMutability": "nonpayable",
      "type": "function"
    },
    {
      "inputs": [
        {
          "internalType": "address",
          "name": "account",
          "type": "address"
        }
      ],
      "name": "grantSellerRole",
      "outputs": [],
      "stateMutability": "nonpayable",
      "type": "function"
    },
    {
      "inputs": [
        {
          "internalType": "bytes32",
          "name": "role",
          "type": "bytes32"
        },
        {
          "internalType": "address",
          "name": "account",
          "type": "address"
        }
      ],
      "name": "hasRole",
      "outputs": [
        {
          "internalType": "bool",
          "name": "",
          "type": "bool"
        }
      ],
      "stateMutability": "view",
      "type": "function"
    },
    {
      "inputs": [],
      "name": "initializeMinterRole",
      "outputs": [],
      "stateMutability": "nonpayable",
      "type": "function"
    },
    {
      "inputs": [
        {
          "internalType": "address",
          "name": "account",
          "type": "address"
        }
      ],
      "name": "isSeller",
      "outputs": [
        {
          "internalType": "bool",
          "name": "",
          "type": "bool"
        }
      ],
      "stateMutability": "view",
      "type": "function"
    },
    {
      "inputs": [],
      "name": "pause",
      "outputs": [],
      "stateMutability": "nonpayable",
      "type": "function"
    },
    {
      "inputs": [],
      "name": "paused",
      "outputs": [
        {
          "internalType": "bool",
          "name": "",
          "type": "bool"
        }
      ],
      "stateMutability": "view",
      "type": "function"
    },
    {
      "inputs": [
        {
          "internalType": "bytes32",
          "name": "role",
          "type": "bytes32"
        },
        {
          "internalType": "address",
          "name": "account",
          "type": "address"
        }
      ],
      "name": "renounceRole",
      "outputs": [],
      "stateMutability": "nonpayable",
      "type": "function"
    },
    {
      "inputs": [
        {
          "internalType": "bytes32",
          "name": "role",
          "type": "bytes32"
        },
        {
          "internalType": "address",
          "name": "account",
          "type": "address"
        }
      ],
      "name": "revokeRole",
      "outputs": [],
      "stateMutability": "nonpayable",
      "type": "function"
    },
    {
      "inputs": [
        {
          "internalType": "bytes4",
          "name": "interfaceId",
          "type": "bytes4"
        }
      ],
      "name": "supportsInterface",
      "outputs": [
        {
          "internalType": "bool",
          "name": "",
          "type": "bool"
        }
      ],
      "stateMutability": "view",
      "type": "function"
    },
    {
      "inputs": [],
      "name": "unpause",
      "outputs": [],
      "stateMutability": "nonpayable",
      "type": "function"
    },
    {
      "inputs": [
        {
          "internalType": "uint256",
          "name": "productId",
          "type": "uint256"
        },
        {
          "internalType": "string",
          "name": "newLocation",
          "type": "string"
        }
      ],
      "name": "updateLocation",
      "outputs": [],
      "stateMutability": "nonpayable",
      "type": "function"
    },
    {
      "inputs": [
        {
          "internalType": "uint256",
          "name": "productId",
          "type": "uint256"
        },
        {
          "internalType": "enum SupplyChain.Stage",
          "name": "newStage",
          "type": "uint8"
        }
      ],
      "name": "updateStage",
      "outputs": [],
      "stateMutability": "nonpayable",
      "type": "function"
    }
  ],
  "bytecode": "0x60806040523480156200001157600080fd5b506040516200230638038062002306833981016040819052620000349162000117565b600180546001600160a81b0319166101006001600160a01b038416021790556200006060003362000067565b5062000149565b62000073828262000077565b5050565b6000828152602081815260408083206001600160a01b038516845290915290205460ff1662000073576000828152602081815260408083206001600160a01b03851684529091529020805460ff19166001179055620000d33390565b6001600160a01b0316816001600160a01b0316837f2f8788117e7eff1d82e926ec794901d17c78024a50270940304540a733656f0d60405160405180910390a45050565b6000602082840312156200012a57600080fd5b81516001600160a01b03811681146200014257600080fd5b9392505050565b6121ad80620001596000396000f3fe608060405234801561001057600080fd5b50600436106101375760003560e01c806379d65580116100b8578063ce90ceff1161007c578063ce90ceff1461026d578063d547741f14610280578063dbe4613d14610293578063ee95feaf146102a8578063f06e1e7b146102bb578063f405c96b146102ce57600080fd5b806379d655801461021e5780638456cb591461022657806391d148541461022e578063a217fddf14610241578063c4811a4d1461024957600080fd5b80633f4ba83a116100ff5780633f4ba83a146101d05780634b22c9ab146101d85780634ec0c9e9146101e05780635c975abb146101f3578063631c6ffe146101fe57600080fd5b806301ffc9a71461013c57806312c8919614610164578063248a9ca3146101855780632f2ff15d146101a857806336568abe146101bd575b600080fd5b61014f61014a36600461177f565b6102e1565b60405190151581526020015b60405180910390f35b610177610172366004611860565b610318565b60405190815260200161015b565b6101776101933660046118f2565b60009081526020819052604090206001015490565b6101bb6101b6366004611927565b610820565b005b6101bb6101cb366004611927565b61084a565b6101bb6108c8565b61014f6108de565b6101bb6101ee366004611953565b6109c4565b60015460ff1661014f565b61021161020c3660046118f2565b610ad5565b60405161015b9190611a22565b6101bb610c45565b6101bb610d11565b61014f61023c366004611927565b610d24565b610177600081565b61025c6102573660046118f2565b610d4d565b60405161015b959493929190611ad8565b6101bb61027b366004611b20565b610e90565b6101bb61028e366004611927565b61101b565b61017760008051602061215883398151915281565b61014f6102b6366004611b77565b611040565b6101bb6102c9366004611b77565b61105a565b6101bb6102dc366004611b92565b61107d565b60006001600160e01b03198216637965db0b60e01b148061031257506301ffc9a760e01b6001600160e01b03198316145b92915050565b600061032261119b565b600061033c60008051602061215883398151915233610d24565b90508081610367576040518060400160405280600581526020016466616c736560d81b815250610385565b604051806040016040528060048152602001637472756560e01b8152505b6040516020016103959190611bc6565b604051602081830303815290604052906103cb5760405162461bcd60e51b81526004016103c29190611c1c565b60405180910390fd5b506001546040805163d539139360e01b8152905160009261010090046001600160a01b0316916391d1485491839163d53913939160048083019260209291908290030181865afa158015610423573d6000803e3d6000fd5b505050506040513d601f19601f820116820180604052508101906104479190611c2f565b6040516001600160e01b031960e084901b1681526004810191909152306024820152604401602060405180830381865afa158015610489573d6000803e3d6000fd5b505050506040513d601f19601f820116820180604052508101906104ad9190611c48565b905080816104d8576040518060400160405280600581526020016466616c736560d81b8152506104f6565b604051806040016040528060048152602001637472756560e01b8152505b6040516020016105069190611c6a565b604051602081830303815290604052906105335760405162461bcd60e51b81526004016103c29190611c1c565b50600154604051631e7054b360e01b815260009161010090046001600160a01b031690631e7054b3906105709033908c908c908b90600401611cd5565b6020604051808303816000875af19250505080156105ab575060408051601f3d908101601f191682019092526105a891810190611c2f565b60015b610662576105b7611d1f565b806308c379a00361061757506105cb611d3b565b806105d65750610619565b806105e0336111e3565b6040516020016105f1929190611dc5565b60408051601f198184030181529082905262461bcd60e51b82526103c291600401611c1c565b505b3d808015610643576040519150601f19603f3d011682016040523d82523d6000602084013e610648565b606091505b50610652336111e3565b6040516020016105f19190611e33565b80915060006040518060c00160405280848152602001336001600160a01b03168152602001336001600160a01b03168152602001600060068111156106a9576106a961199a565b81524260208083019190915260408051808201825260168152754d616e75666163747572696e6720466163696c69747960501b8184015292810192909252600086815260028083528382208054600180820183559184529284902086516005909402019283559285015192820180546001600160a01b03199081166001600160a01b03958616179091559385015190820180549485169190931690811783556060850151949550859491939192916001600160a81b03191617600160a01b8360068111156107795761077961199a565b02179055506080820151600382015560a0820151600482019061079c9082611f26565b505050827faf6ffb6277511513e7d579327cc1fc57f0266df2fb11a60b13487b8c9cd2c3888b336040516107d1929190611fe6565b60405180910390a2827fe07678ebda9ff268c2c8531bb0ebfc488d9fa7067d919572337a14a72c3aa0b7600060405161080a9190612010565b60405180910390a2509098975050505050505050565b60008281526020819052604090206001015461083b816113ce565b61084583836113d8565b505050565b6001600160a01b03811633146108ba5760405162461bcd60e51b815260206004820152602f60248201527f416363657373436f6e74726f6c3a2063616e206f6e6c792072656e6f756e636560448201526e103937b632b9903337b91039b2b63360891b60648201526084016103c2565b6108c4828261145c565b5050565b60006108d3816113ce565b6108db6114c1565b50565b6001546040805163d539139360e01b8152905160009261010090046001600160a01b0316916391d1485491839163d53913939160048083019260209291908290030181865afa158015610935573d6000803e3d6000fd5b505050506040513d601f19601f820116820180604052508101906109599190611c2f565b6040516001600160e01b031960e084901b1681526004810191909152306024820152604401602060405180830381865afa15801561099b573d6000803e3d6000fd5b505050506040513d601f19601f820116820180604052508101906109bf9190611c48565b905090565b6109cc61119b565b6109e460008051602061215883398151915233610d24565b610a1f5760405162461bcd60e51b815260206004820152600c60248201526b155b985d5d1a1bdc9a5e995960a21b60448201526064016103c2565b600082815260026020526040902054610a4a5760405162461bcd60e51b81526004016103c29061201e565b6000828152600260205260409020805482908290610a6a9060019061205f565b81548110610a7a57610a7a612072565b90600052602060002090600502016004019081610a979190611f26565b50827f65edc79681b60dda53ce45315418e2d9637c424299784fc6aaf815fa304dda2b83604051610ac89190611c1c565b60405180910390a2505050565b606060026000838152602001908152602001600020805480602002602001604051908101604052809291908181526020016000905b82821015610c3a5760008481526020908190206040805160c081018252600586029092018054835260018101546001600160a01b039081169484019490945260028101549384169183019190915290916060830190600160a01b900460ff166006811115610b7a57610b7a61199a565b6006811115610b8b57610b8b61199a565b815260200160038201548152602001600482018054610ba990611e9e565b80601f0160208091040260200160405190810160405280929190818152602001828054610bd590611e9e565b8015610c225780601f10610bf757610100808354040283529160200191610c22565b820191906000526020600020905b815481529060010190602001808311610c0557829003601f168201915b50505050508152505081526020019060010190610b0a565b505050509050919050565b6000610c50816113ce565b60015461010090046001600160a01b0316610cad5760405162461bcd60e51b815260206004820152601a60248201527f50726f647563744e4654206e6f7420696e697469616c697a656400000000000060448201526064016103c2565b600154604051633dd1eb6160e01b81523060048201526101009091046001600160a01b031690633dd1eb6190602401600060405180830381600087803b158015610cf657600080fd5b505af1158015610d0a573d6000803e3d6000fd5b5050505050565b6000610d1c816113ce565b6108db611513565b6000918252602082815260408084206001600160a01b0393909316845291905290205460ff1690565b600081815260026020526040812054819081908190606090610d815760405162461bcd60e51b81526004016103c29061201e565b60008681526002602052604081208054610d9d9060019061205f565b81548110610dad57610dad612072565b600091825260209091206005909102016001810154600282015460038301546004840180549495506001600160a01b039384169493831693600160a01b90930460ff16928190610dfc90611e9e565b80601f0160208091040260200160405190810160405280929190818152602001828054610e2890611e9e565b8015610e755780601f10610e4a57610100808354040283529160200191610e75565b820191906000526020600020905b815481529060010190602001808311610e5857829003601f168201915b50505050509050955095509550955095505091939590929450565b610e9861119b565b610eb060008051602061215883398151915233610d24565b610efc5760405162461bcd60e51b815260206004820152601760248201527f43616c6c6572206d75737420626520612073656c6c657200000000000000000060448201526064016103c2565b6040805160c0810182528481523360208083019182526001600160a01b0386811684860190815260036060860190815242608087015260a0860188905260008a81526002808652978120805460018082018355918352959091208751600590960201948555945194840180549584166001600160a01b0319968716179055905195830180549690921693861684178255519394859492936001600160a81b031990911617600160a01b836006811115610fb757610fb761199a565b02179055506080820151600382015560a08201516004820190610fda9082611f26565b50506040516001600160a01b0385169150339086907ffe0fd664b79935c18377297309c92f6abe60ccaa6d43bd30327c508c7fda080e90600090a450505050565b600082815260208190526040902060010154611036816113ce565b610845838361145c565b600061031260008051602061215883398151915283610d24565b6000611065816113ce565b6108c460008051602061215883398151915283610820565b61108561119b565b61109d60008051602061215883398151915233610d24565b6110d85760405162461bcd60e51b815260206004820152600c60248201526b155b985d5d1a1bdc9a5e995960a21b60448201526064016103c2565b6000828152600260205260409020546111035760405162461bcd60e51b81526004016103c29061201e565b60008281526002602052604090208054829082906111239060019061205f565b8154811061113357611133612072565b60009182526020909120600260059092020101805460ff60a01b1916600160a01b8360068111156111665761116661199a565b0217905550827fe07678ebda9ff268c2c8531bb0ebfc488d9fa7067d919572337a14a72c3aa0b783604051610ac89190612010565b60015460ff16156111e15760405162461bcd60e51b815260206004820152601060248201526f14185d5cd8589b194e881c185d5cd95960821b60448201526064016103c2565b565b604080518082018252601081526f181899199a1a9b1b9c1cb0b131b232b360811b60208201528151602a80825260608281019094526001600160a01b0385169291600091602082018180368337019050509050600360fc1b8160008151811061124e5761124e612072565b60200101906001600160f81b031916908160001a905350600f60fb1b8160018151811061127d5761127d612072565b60200101906001600160f81b031916908160001a90535060005b60148110156113c557826004856112af84600c612088565b602081106112bf576112bf612072565b1a60f81b6001600160f81b031916901c60f81c60ff16815181106112e5576112e5612072565b01602001516001600160f81b0319168261130083600261209b565b61130b906002612088565b8151811061131b5761131b612072565b60200101906001600160f81b031916908160001a905350828461133f83600c612088565b6020811061134f5761134f612072565b825191901a600f1690811061136657611366612072565b01602001516001600160f81b0319168261138183600261209b565b61138c906003612088565b8151811061139c5761139c612072565b60200101906001600160f81b031916908160001a905350806113bd816120b2565b915050611297565b50949350505050565b6108db813361154e565b6113e28282610d24565b6108c4576000828152602081815260408083206001600160a01b03851684529091529020805460ff191660011790556114183390565b6001600160a01b0316816001600160a01b0316837f2f8788117e7eff1d82e926ec794901d17c78024a50270940304540a733656f0d60405160405180910390a45050565b6114668282610d24565b156108c4576000828152602081815260408083206001600160a01b0385168085529252808320805460ff1916905551339285917ff6391f5c32d9c69d2a47ea670b442974b53935d1edc7fd64eb21e047a839171b9190a45050565b6114c9611581565b6001805460ff191690557f5db9ee0a495bf2e6ff9c91a7834c1ba4fdd244a5e8aa4e537bd38aeae4b073aa335b6040516001600160a01b03909116815260200160405180910390a1565b61151b61119b565b6001805460ff1916811790557f62e78cea01bee320cd4e420270b5ea74000d11b0c9f74754ebdbfc544b05a258336114f6565b6115588282610d24565b6108c457611565816115ca565b6115708360206115dc565b6040516020016105f19291906120cb565b60015460ff166111e15760405162461bcd60e51b815260206004820152601460248201527314185d5cd8589b194e881b9bdd081c185d5cd95960621b60448201526064016103c2565b60606103126001600160a01b03831660145b606060006115eb83600261209b565b6115f6906002612088565b67ffffffffffffffff81111561160e5761160e6117a9565b6040519080825280601f01601f191660200182016040528015611638576020820181803683370190505b509050600360fc1b8160008151811061165357611653612072565b60200101906001600160f81b031916908160001a905350600f60fb1b8160018151811061168257611682612072565b60200101906001600160f81b031916908160001a90535060006116a684600261209b565b6116b1906001612088565b90505b6001811115611729576f181899199a1a9b1b9c1cb0b131b232b360811b85600f16601081106116e5576116e5612072565b1a60f81b8282815181106116fb576116fb612072565b60200101906001600160f81b031916908160001a90535060049490941c9361172281612140565b90506116b4565b5083156117785760405162461bcd60e51b815260206004820181905260248201527f537472696e67733a20686578206c656e67746820696e73756666696369656e7460448201526064016103c2565b9392505050565b60006020828403121561179157600080fd5b81356001600160e01b03198116811461177857600080fd5b634e487b7160e01b600052604160045260246000fd5b601f8201601f1916810167ffffffffffffffff811182821017156117e5576117e56117a9565b6040525050565b600082601f8301126117fd57600080fd5b813567ffffffffffffffff811115611817576118176117a9565b60405161182e601f8301601f1916602001826117bf565b81815284602083860101111561184357600080fd5b816020850160208301376000918101602001919091529392505050565b6000806000806080858703121561187657600080fd5b843567ffffffffffffffff8082111561188e57600080fd5b61189a888389016117ec565b955060208701359150808211156118b057600080fd5b6118bc888389016117ec565b94506040870135935060608701359150808211156118d957600080fd5b506118e6878288016117ec565b91505092959194509250565b60006020828403121561190457600080fd5b5035919050565b80356001600160a01b038116811461192257600080fd5b919050565b6000806040838503121561193a57600080fd5b8235915061194a6020840161190b565b90509250929050565b6000806040838503121561196657600080fd5b82359150602083013567ffffffffffffffff81111561198457600080fd5b611990858286016117ec565b9150509250929050565b634e487b7160e01b600052602160045260246000fd5b600781106119ce57634e487b7160e01b600052602160045260246000fd5b9052565b60005b838110156119ed5781810151838201526020016119d5565b50506000910152565b60008151808452611a0e8160208601602086016119d2565b601f01601f19169290920160200192915050565b60006020808301818452808551808352604092508286019150828160051b87010184880160005b83811015611aca57888303603f19018552815180518452878101516001600160a01b039081168986015287820151168785015260608082015160c09190611a92828801826119b0565b50506080828101519086015260a091820151918501819052611ab6818601836119f6565b968901969450505090860190600101611a49565b509098975050505050505050565b6001600160a01b038681168252851660208201526000611afb60408301866119b0565b83606083015260a06080830152611b1560a08301846119f6565b979650505050505050565b600080600060608486031215611b3557600080fd5b83359250611b456020850161190b565b9150604084013567ffffffffffffffff811115611b6157600080fd5b611b6d868287016117ec565b9150509250925092565b600060208284031215611b8957600080fd5b6117788261190b565b60008060408385031215611ba557600080fd5b82359150602083013560078110611bbb57600080fd5b809150509250929050565b7f43616c6c6572206d75737420626520612073656c6c65722e2053656c6c657220815267039ba30ba3ab99d160c51b602082015260008251611c0f8160288501602087016119d2565b9190910160280192915050565b60208152600061177860208301846119f6565b600060208284031215611c4157600080fd5b5051919050565b600060208284031215611c5a57600080fd5b8151801515811461177857600080fd5b7f537570706c79436861696e20636f6e7472616374206e65656473206d696e746981527f6e67207269676874732e2043757272656e74207374617475733a200000000000602082015260008251611cc881603b8501602087016119d2565b91909101603b0192915050565b6001600160a01b0385168152608060208201819052600090611cf9908301866119f6565b8281036040840152611d0b81866119f6565b90508281036060840152611b1581856119f6565b600060033d1115611d385760046000803e5060005160e01c5b90565b600060443d1015611d495790565b6040516003193d81016004833e81513d67ffffffffffffffff8160248401118184111715611d7957505050505090565b8285019150815181811115611d915750505050505090565b843d8701016020828501011115611dab5750505050505090565b611dba602082860101876117bf565b509095945050505050565b7f50726f647563744e4654206372656174696f6e206661696c65643a2000000000815260008351611dfd81601c8501602088016119d2565b690171021b0b63632b91d160b51b601c918401918201528351611e278160268401602088016119d2565b01602601949350505050565b7f50726f647563744e4654206372656174696f6e206661696c656420776974682081527f756e6b6e6f776e206572726f722e2043616c6c65723a20000000000000000000602082015260008251611e918160378501602087016119d2565b9190910160370192915050565b600181811c90821680611eb257607f821691505b602082108103611ed257634e487b7160e01b600052602260045260246000fd5b50919050565b601f82111561084557600081815260208120601f850160051c81016020861015611eff5750805b601f850160051c820191505b81811015611f1e57828155600101611f0b565b505050505050565b815167ffffffffffffffff811115611f4057611f406117a9565b611f5481611f4e8454611e9e565b84611ed8565b602080601f831160018114611f895760008415611f715750858301515b600019600386901b1c1916600185901b178555611f1e565b600085815260208120601f198616915b82811015611fb857888601518255948401946001909101908401611f99565b5085821015611fd65787850151600019600388901b60f8161c191681555b5050505050600190811b01905550565b604081526000611ff960408301856119f6565b905060018060a01b03831660208301529392505050565b6020810161031282846119b0565b602080825260119082015270139bc81cda1a5c1b595b9d08199bdd5b99607a1b604082015260600190565b634e487b7160e01b600052601160045260246000fd5b8181038181111561031257610312612049565b634e487b7160e01b600052603260045260246000fd5b8082018082111561031257610312612049565b808202811582820484141761031257610312612049565b6000600182016120c4576120c4612049565b5060010190565b7f416363657373436f6e74726f6c3a206163636f756e74200000000000000000008152600083516121038160178501602088016119d2565b7001034b99036b4b9b9b4b733903937b6329607d1b60179184019182015283516121348160288401602088016119d2565b01602801949350505050565b60008161214f5761214f612049565b50600019019056fe43f25613eb2f15fb17222a5d424ca2655743e71265d98e4b93c05e5fb589ecdea26469706673582212202af5f26eaff5969b1d3ae4b69e3662fb55cc57ef15d7a6c249b57c6c1e93ffde64736f6c63430008130033",
  "linkReferences": {},
  "deployedLinkReferences": {}
}