{
  "_format": "hh-sol-artifact-1",
  "contractName": "SupplyChain",
  "sourceName": "contracts/SupplyChain.sol",
  "abi": [
    {
      "inputs": [
        {
          "internalType": "address",
          "name": "productNFTAddress",
          "type": "address"
        }
      ],
      "stateMutability": "nonpayable",
      "type": "constructor"
    },
    {
      "anonymous": false,
      "inputs": [
        {
          "indexed": true,
          "internalType": "uint256",
          "name": "productId",
          "type": "uint256"
        },
        {
          "indexed": false,
          "internalType": "string",
          "name": "newLocation",
          "type": "string"
        }
      ],
      "name": "LocationUpdated",
      "type": "event"
    },
    {
      "anonymous": false,
      "inputs": [
        {
          "indexed": false,
          "internalType": "address",
          "name": "account",
          "type": "address"
        }
      ],
      "name": "Paused",
      "type": "event"
    },
    {
      "anonymous": false,
      "inputs": [
        {
          "indexed": true,
          "internalType": "uint256",
          "name": "productId",
          "type": "uint256"
        },
        {
          "indexed": true,
          "internalType": "address",
          "name": "manufacturer",
          "type": "address"
        },
        {
          "indexed": false,
          "internalType": "string",
          "name": "name",
          "type": "string"
        }
      ],
      "name": "ProductCreated",
      "type": "event"
    },
    {
      "anonymous": false,
      "inputs": [
        {
          "indexed": true,
          "internalType": "bytes32",
          "name": "role",
          "type": "bytes32"
        },
        {
          "indexed": true,
          "internalType": "bytes32",
          "name": "previousAdminRole",
          "type": "bytes32"
        },
        {
          "indexed": true,
          "internalType": "bytes32",
          "name": "newAdminRole",
          "type": "bytes32"
        }
      ],
      "name": "RoleAdminChanged",
      "type": "event"
    },
    {
      "anonymous": false,
      "inputs": [
        {
          "indexed": true,
          "internalType": "bytes32",
          "name": "role",
          "type": "bytes32"
        },
        {
          "indexed": true,
          "internalType": "address",
          "name": "account",
          "type": "address"
        },
        {
          "indexed": true,
          "internalType": "address",
          "name": "sender",
          "type": "address"
        }
      ],
      "name": "RoleGranted",
      "type": "event"
    },
    {
      "anonymous": false,
      "inputs": [
        {
          "indexed": true,
          "internalType": "bytes32",
          "name": "role",
          "type": "bytes32"
        },
        {
          "indexed": true,
          "internalType": "address",
          "name": "account",
          "type": "address"
        },
        {
          "indexed": true,
          "internalType": "address",
          "name": "sender",
          "type": "address"
        }
      ],
      "name": "RoleRevoked",
      "type": "event"
    },
    {
      "anonymous": false,
      "inputs": [
        {
          "indexed": true,
          "internalType": "uint256",
          "name": "productId",
          "type": "uint256"
        },
        {
          "indexed": true,
          "internalType": "address",
          "name": "sender",
          "type": "address"
        },
        {
          "indexed": true,
          "internalType": "address",
          "name": "receiver",
          "type": "address"
        }
      ],
      "name": "ShipmentCreated",
      "type": "event"
    },
    {
      "anonymous": false,
      "inputs": [
        {
          "indexed": true,
          "internalType": "uint256",
          "name": "productId",
          "type": "uint256"
        },
        {
          "indexed": false,
          "internalType": "enum SupplyChain.Stage",
          "name": "newStage",
          "type": "uint8"
        }
      ],
      "name": "StageUpdated",
      "type": "event"
    },
    {
      "anonymous": false,
      "inputs": [
        {
          "indexed": false,
          "internalType": "address",
          "name": "account",
          "type": "address"
        }
      ],
      "name": "Unpaused",
      "type": "event"
    },
    {
      "inputs": [],
      "name": "DEFAULT_ADMIN_ROLE",
      "outputs": [
        {
          "internalType": "bytes32",
          "name": "",
          "type": "bytes32"
        }
      ],
      "stateMutability": "view",
      "type": "function"
    },
    {
      "inputs": [],
      "name": "DISTRIBUTOR_ROLE",
      "outputs": [
        {
          "internalType": "bytes32",
          "name": "",
          "type": "bytes32"
        }
      ],
      "stateMutability": "view",
      "type": "function"
    },
    {
      "inputs": [],
      "name": "MANUFACTURER_ROLE",
      "outputs": [
        {
          "internalType": "bytes32",
          "name": "",
          "type": "bytes32"
        }
      ],
      "stateMutability": "view",
      "type": "function"
    },
    {
      "inputs": [],
      "name": "RETAILER_ROLE",
      "outputs": [
        {
          "internalType": "bytes32",
          "name": "",
          "type": "bytes32"
        }
      ],
      "stateMutability": "view",
      "type": "function"
    },
    {
      "inputs": [
        {
          "internalType": "string",
          "name": "name",
          "type": "string"
        },
        {
          "internalType": "string",
          "name": "manufacturer",
          "type": "string"
        },
        {
          "internalType": "uint256",
          "name": "price",
          "type": "uint256"
        },
        {
          "internalType": "string",
          "name": "tokenURI",
          "type": "string"
        }
      ],
      "name": "createProduct",
      "outputs": [
        {
          "internalType": "uint256",
          "name": "",
          "type": "uint256"
        }
      ],
      "stateMutability": "nonpayable",
      "type": "function"
    },
    {
      "inputs": [
        {
          "internalType": "uint256",
          "name": "productId",
          "type": "uint256"
        },
        {
          "internalType": "address",
          "name": "receiver",
          "type": "address"
        },
        {
          "internalType": "string",
          "name": "location",
          "type": "string"
        }
      ],
      "name": "createShipment",
      "outputs": [],
      "stateMutability": "nonpayable",
      "type": "function"
    },
    {
      "inputs": [
        {
          "internalType": "uint256",
          "name": "productId",
          "type": "uint256"
        }
      ],
      "name": "getCurrentShipment",
      "outputs": [
        {
          "internalType": "address",
          "name": "sender",
          "type": "address"
        },
        {
          "internalType": "address",
          "name": "receiver",
          "type": "address"
        },
        {
          "internalType": "enum SupplyChain.Stage",
          "name": "stage",
          "type": "uint8"
        },
        {
          "internalType": "uint256",
          "name": "timestamp",
          "type": "uint256"
        },
        {
          "internalType": "string",
          "name": "location",
          "type": "string"
        }
      ],
      "stateMutability": "view",
      "type": "function"
    },
    {
      "inputs": [
        {
          "internalType": "bytes32",
          "name": "role",
          "type": "bytes32"
        }
      ],
      "name": "getRoleAdmin",
      "outputs": [
        {
          "internalType": "bytes32",
          "name": "",
          "type": "bytes32"
        }
      ],
      "stateMutability": "view",
      "type": "function"
    },
    {
      "inputs": [
        {
          "internalType": "uint256",
          "name": "productId",
          "type": "uint256"
        }
      ],
      "name": "getShipmentHistory",
      "outputs": [
        {
          "components": [
            {
              "internalType": "uint256",
              "name": "productId",
              "type": "uint256"
            },
            {
              "internalType": "address",
              "name": "sender",
              "type": "address"
            },
            {
              "internalType": "address",
              "name": "receiver",
              "type": "address"
            },
            {
              "internalType": "enum SupplyChain.Stage",
              "name": "currentStage",
              "type": "uint8"
            },
            {
              "internalType": "uint256",
              "name": "timestamp",
              "type": "uint256"
            },
            {
              "internalType": "string",
              "name": "location",
              "type": "string"
            }
          ],
          "internalType": "struct SupplyChain.Shipment[]",
          "name": "",
          "type": "tuple[]"
        }
      ],
      "stateMutability": "view",
      "type": "function"
    },
    {
      "inputs": [
        {
          "internalType": "bytes32",
          "name": "role",
          "type": "bytes32"
        },
        {
          "internalType": "address",
          "name": "account",
          "type": "address"
        }
      ],
      "name": "grantRole",
      "outputs": [],
      "stateMutability": "nonpayable",
      "type": "function"
    },
    {
      "inputs": [
        {
          "internalType": "bytes32",
          "name": "role",
          "type": "bytes32"
        },
        {
          "internalType": "address",
          "name": "account",
          "type": "address"
        }
      ],
      "name": "hasRole",
      "outputs": [
        {
          "internalType": "bool",
          "name": "",
          "type": "bool"
        }
      ],
      "stateMutability": "view",
      "type": "function"
    },
    {
      "inputs": [],
      "name": "pause",
      "outputs": [],
      "stateMutability": "nonpayable",
      "type": "function"
    },
    {
      "inputs": [],
      "name": "paused",
      "outputs": [
        {
          "internalType": "bool",
          "name": "",
          "type": "bool"
        }
      ],
      "stateMutability": "view",
      "type": "function"
    },
    {
      "inputs": [
        {
          "internalType": "bytes32",
          "name": "role",
          "type": "bytes32"
        },
        {
          "internalType": "address",
          "name": "account",
          "type": "address"
        }
      ],
      "name": "renounceRole",
      "outputs": [],
      "stateMutability": "nonpayable",
      "type": "function"
    },
    {
      "inputs": [
        {
          "internalType": "bytes32",
          "name": "role",
          "type": "bytes32"
        },
        {
          "internalType": "address",
          "name": "account",
          "type": "address"
        }
      ],
      "name": "revokeRole",
      "outputs": [],
      "stateMutability": "nonpayable",
      "type": "function"
    },
    {
      "inputs": [
        {
          "internalType": "bytes4",
          "name": "interfaceId",
          "type": "bytes4"
        }
      ],
      "name": "supportsInterface",
      "outputs": [
        {
          "internalType": "bool",
          "name": "",
          "type": "bool"
        }
      ],
      "stateMutability": "view",
      "type": "function"
    },
    {
      "inputs": [],
      "name": "unpause",
      "outputs": [],
      "stateMutability": "nonpayable",
      "type": "function"
    },
    {
      "inputs": [
        {
          "internalType": "uint256",
          "name": "productId",
          "type": "uint256"
        },
        {
          "internalType": "string",
          "name": "newLocation",
          "type": "string"
        }
      ],
      "name": "updateLocation",
      "outputs": [],
      "stateMutability": "nonpayable",
      "type": "function"
    },
    {
      "inputs": [
        {
          "internalType": "uint256",
          "name": "productId",
          "type": "uint256"
        },
        {
          "internalType": "enum SupplyChain.Stage",
          "name": "newStage",
          "type": "uint8"
        }
      ],
      "name": "updateStage",
      "outputs": [],
      "stateMutability": "nonpayable",
      "type": "function"
    }
  ],
  "bytecode": "0x60806040523480156200001157600080fd5b5060405162001aec38038062001aec833981016040819052620000349162000117565b600180546001600160a81b0319166101006001600160a01b038416021790556200006060003362000067565b5062000149565b62000073828262000077565b5050565b6000828152602081815260408083206001600160a01b038516845290915290205460ff1662000073576000828152602081815260408083206001600160a01b03851684529091529020805460ff19166001179055620000d33390565b6001600160a01b0316816001600160a01b0316837f2f8788117e7eff1d82e926ec794901d17c78024a50270940304540a733656f0d60405160405180910390a45050565b6000602082840312156200012a57600080fd5b81516001600160a01b03811681146200014257600080fd5b9392505050565b61199380620001596000396000f3fe608060405234801561001057600080fd5b50600436106101215760003560e01c8063631c6ffe116100ad578063c4811a4d11610071578063c4811a4d1461024d578063ce90ceff14610271578063d547741f14610284578063f0bd87cc14610297578063f405c96b146102ac57600080fd5b8063631c6ffe146101f55780638456cb591461021557806391d148541461021d578063965288b014610230578063a217fddf1461024557600080fd5b80632f2ff15d116100f45780632f2ff15d146101a757806336568abe146101bc5780633f4ba83a146101cf5780634ec0c9e9146101d75780635c975abb146101ea57600080fd5b806301ffc9a71461012657806312c891961461014e5780632115e7bf1461016f578063248a9ca314610184575b600080fd5b6101396101343660046111f9565b6102bf565b60405190151581526020015b60405180910390f35b61016161015c3660046112c6565b6102f6565b604051908152602001610145565b61016160008051602061193e83398151915281565b610161610192366004611358565b60009081526020819052604090206001015490565b6101ba6101b536600461138d565b6105a5565b005b6101ba6101ca36600461138d565b6105cf565b6101ba61064d565b6101ba6101e53660046113b9565b610663565b60015460ff16610139565b610208610203366004611358565b6107b0565b6040516101459190611488565b6101ba610920565b61013961022b36600461138d565b610933565b6101616000805160206118fe83398151915281565b610161600081565b61026061025b366004611358565b61095c565b60405161014595949392919061153e565b6101ba61027f366004611586565b610a9f565b6101ba61029236600461138d565b610c5b565b61016160008051602061191e83398151915281565b6101ba6102ba3660046115dd565b610c80565b60006001600160e01b03198216637965db0b60e01b14806102f057506301ffc9a760e01b6001600160e01b03198316145b92915050565b6000610300610dda565b6103186000805160206118fe83398151915233610933565b80610336575061033660008051602061193e83398151915233610933565b6103975760405162461bcd60e51b815260206004820152602760248201527f43616c6c6572206d757374206265206d616e756661637475726572206f72207260448201526632ba30b4b632b960c91b60648201526084015b60405180910390fd5b600154604051631e7054b360e01b815260009161010090046001600160a01b031690631e7054b3906103d39033908a908a908990600401611611565b6020604051808303816000875af11580156103f2573d6000803e3d6000fd5b505050506040513d601f19601f82011682018060405250810190610416919061165b565b6040805160c0810182528281523360208083018281528385019283526000606085018181524260808701528651808801885260168152754d616e75666163747572696e6720466163696c69747960501b8186015260a08701528782526002808552968220805460018082018355918452949092208651600590950201938455915190830180546001600160a01b039283166001600160a01b0319918216179091559351958301805496909116938616841781559051959650929485949193909290916001600160a81b03191617600160a01b8360068111156104fa576104fa611400565b02179055506080820151600382015560a0820151600482019061051d90826116fc565b505050336001600160a01b0316827f91bfc064380de20e1c90ea2ed78d0358b4ab45d446c0b93b0b07bc86f95897da8960405161055a91906117bc565b60405180910390a3817fe07678ebda9ff268c2c8531bb0ebfc488d9fa7067d919572337a14a72c3aa0b7600060405161059391906117cf565b60405180910390a25095945050505050565b6000828152602081905260409020600101546105c081610e22565b6105ca8383610e2c565b505050565b6001600160a01b038116331461063f5760405162461bcd60e51b815260206004820152602f60248201527f416363657373436f6e74726f6c3a2063616e206f6e6c792072656e6f756e636560448201526e103937b632b9903337b91039b2b63360891b606482015260840161038e565b6106498282610eb0565b5050565b600061065881610e22565b610660610f15565b50565b61066b610dda565b6106836000805160206118fe83398151915233610933565b806106a157506106a160008051602061191e83398151915233610933565b806106bf57506106bf60008051602061193e83398151915233610933565b6106fa5760405162461bcd60e51b815260206004820152600c60248201526b155b985d5d1a1bdc9a5e995960a21b604482015260640161038e565b6000828152600260205260409020546107255760405162461bcd60e51b815260040161038e906117dd565b60008281526002602052604090208054829082906107459060019061181e565b8154811061075557610755611831565b9060005260206000209060050201600401908161077291906116fc565b50827f65edc79681b60dda53ce45315418e2d9637c424299784fc6aaf815fa304dda2b836040516107a391906117bc565b60405180910390a2505050565b606060026000838152602001908152602001600020805480602002602001604051908101604052809291908181526020016000905b828210156109155760008481526020908190206040805160c081018252600586029092018054835260018101546001600160a01b039081169484019490945260028101549384169183019190915290916060830190600160a01b900460ff16600681111561085557610855611400565b600681111561086657610866611400565b81526020016003820154815260200160048201805461088490611674565b80601f01602080910402602001604051908101604052809291908181526020018280546108b090611674565b80156108fd5780601f106108d2576101008083540402835291602001916108fd565b820191906000526020600020905b8154815290600101906020018083116108e057829003601f168201915b505050505081525050815260200190600101906107e5565b505050509050919050565b600061092b81610e22565b610660610f67565b6000918252602082815260408084206001600160a01b0393909316845291905290205460ff1690565b6000818152600260205260408120548190819081906060906109905760405162461bcd60e51b815260040161038e906117dd565b600086815260026020526040812080546109ac9060019061181e565b815481106109bc576109bc611831565b600091825260209091206005909102016001810154600282015460038301546004840180549495506001600160a01b039384169493831693600160a01b90930460ff16928190610a0b90611674565b80601f0160208091040260200160405190810160405280929190818152602001828054610a3790611674565b8015610a845780601f10610a5957610100808354040283529160200191610a84565b820191906000526020600020905b815481529060010190602001808311610a6757829003601f168201915b50505050509050955095509550955095505091939590929450565b610aa7610dda565b610abf6000805160206118fe83398151915233610933565b80610add5750610add60008051602061191e83398151915233610933565b610b3c5760405162461bcd60e51b815260206004820152602a60248201527f43616c6c6572206d757374206265206d616e756661637475726572206f72206460448201526934b9ba3934b13aba37b960b11b606482015260840161038e565b6040805160c0810182528481523360208083019182526001600160a01b0386811684860190815260036060860190815242608087015260a0860188905260008a81526002808652978120805460018082018355918352959091208751600590960201948555945194840180549584166001600160a01b0319968716179055905195830180549690921693861684178255519394859492936001600160a81b031990911617600160a01b836006811115610bf757610bf7611400565b02179055506080820151600382015560a08201516004820190610c1a90826116fc565b50506040516001600160a01b0385169150339086907ffe0fd664b79935c18377297309c92f6abe60ccaa6d43bd30327c508c7fda080e90600090a450505050565b600082815260208190526040902060010154610c7681610e22565b6105ca8383610eb0565b610c88610dda565b610ca06000805160206118fe83398151915233610933565b80610cbe5750610cbe60008051602061191e83398151915233610933565b80610cdc5750610cdc60008051602061193e83398151915233610933565b610d175760405162461bcd60e51b815260206004820152600c60248201526b155b985d5d1a1bdc9a5e995960a21b604482015260640161038e565b600082815260026020526040902054610d425760405162461bcd60e51b815260040161038e906117dd565b6000828152600260205260409020805482908290610d629060019061181e565b81548110610d7257610d72611831565b60009182526020909120600260059092020101805460ff60a01b1916600160a01b836006811115610da557610da5611400565b0217905550827fe07678ebda9ff268c2c8531bb0ebfc488d9fa7067d919572337a14a72c3aa0b7836040516107a391906117cf565b60015460ff1615610e205760405162461bcd60e51b815260206004820152601060248201526f14185d5cd8589b194e881c185d5cd95960821b604482015260640161038e565b565b6106608133610fa2565b610e368282610933565b610649576000828152602081815260408083206001600160a01b03851684529091529020805460ff19166001179055610e6c3390565b6001600160a01b0316816001600160a01b0316837f2f8788117e7eff1d82e926ec794901d17c78024a50270940304540a733656f0d60405160405180910390a45050565b610eba8282610933565b15610649576000828152602081815260408083206001600160a01b0385168085529252808320805460ff1916905551339285917ff6391f5c32d9c69d2a47ea670b442974b53935d1edc7fd64eb21e047a839171b9190a45050565b610f1d610ffb565b6001805460ff191690557f5db9ee0a495bf2e6ff9c91a7834c1ba4fdd244a5e8aa4e537bd38aeae4b073aa335b6040516001600160a01b03909116815260200160405180910390a1565b610f6f610dda565b6001805460ff1916811790557f62e78cea01bee320cd4e420270b5ea74000d11b0c9f74754ebdbfc544b05a25833610f4a565b610fac8282610933565b61064957610fb981611044565b610fc4836020611056565b604051602001610fd5929190611847565b60408051601f198184030181529082905262461bcd60e51b825261038e916004016117bc565b60015460ff16610e205760405162461bcd60e51b815260206004820152601460248201527314185d5cd8589b194e881b9bdd081c185d5cd95960621b604482015260640161038e565b60606102f06001600160a01b03831660145b606060006110658360026118bc565b6110709060026118d3565b67ffffffffffffffff81111561108857611088611223565b6040519080825280601f01601f1916602001820160405280156110b2576020820181803683370190505b509050600360fc1b816000815181106110cd576110cd611831565b60200101906001600160f81b031916908160001a905350600f60fb1b816001815181106110fc576110fc611831565b60200101906001600160f81b031916908160001a90535060006111208460026118bc565b61112b9060016118d3565b90505b60018111156111a3576f181899199a1a9b1b9c1cb0b131b232b360811b85600f166010811061115f5761115f611831565b1a60f81b82828151811061117557611175611831565b60200101906001600160f81b031916908160001a90535060049490941c9361119c816118e6565b905061112e565b5083156111f25760405162461bcd60e51b815260206004820181905260248201527f537472696e67733a20686578206c656e67746820696e73756666696369656e74604482015260640161038e565b9392505050565b60006020828403121561120b57600080fd5b81356001600160e01b0319811681146111f257600080fd5b634e487b7160e01b600052604160045260246000fd5b600082601f83011261124a57600080fd5b813567ffffffffffffffff8082111561126557611265611223565b604051601f8301601f19908116603f0116810190828211818310171561128d5761128d611223565b816040528381528660208588010111156112a657600080fd5b836020870160208301376000602085830101528094505050505092915050565b600080600080608085870312156112dc57600080fd5b843567ffffffffffffffff808211156112f457600080fd5b61130088838901611239565b9550602087013591508082111561131657600080fd5b61132288838901611239565b945060408701359350606087013591508082111561133f57600080fd5b5061134c87828801611239565b91505092959194509250565b60006020828403121561136a57600080fd5b5035919050565b80356001600160a01b038116811461138857600080fd5b919050565b600080604083850312156113a057600080fd5b823591506113b060208401611371565b90509250929050565b600080604083850312156113cc57600080fd5b82359150602083013567ffffffffffffffff8111156113ea57600080fd5b6113f685828601611239565b9150509250929050565b634e487b7160e01b600052602160045260246000fd5b6007811061143457634e487b7160e01b600052602160045260246000fd5b9052565b60005b8381101561145357818101518382015260200161143b565b50506000910152565b60008151808452611474816020860160208601611438565b601f01601f19169290920160200192915050565b60006020808301818452808551808352604092508286019150828160051b87010184880160005b8381101561153057888303603f19018552815180518452878101516001600160a01b039081168986015287820151168785015260608082015160c091906114f882880182611416565b50506080828101519086015260a09182015191850181905261151c8186018361145c565b9689019694505050908601906001016114af565b509098975050505050505050565b6001600160a01b0386811682528516602082015260006115616040830186611416565b83606083015260a0608083015261157b60a083018461145c565b979650505050505050565b60008060006060848603121561159b57600080fd5b833592506115ab60208501611371565b9150604084013567ffffffffffffffff8111156115c757600080fd5b6115d386828701611239565b9150509250925092565b600080604083850312156115f057600080fd5b8235915060208301356007811061160657600080fd5b809150509250929050565b6001600160a01b03851681526080602082018190526000906116359083018661145c565b8281036040840152611647818661145c565b9050828103606084015261157b818561145c565b60006020828403121561166d57600080fd5b5051919050565b600181811c9082168061168857607f821691505b6020821081036116a857634e487b7160e01b600052602260045260246000fd5b50919050565b601f8211156105ca57600081815260208120601f850160051c810160208610156116d55750805b601f850160051c820191505b818110156116f4578281556001016116e1565b505050505050565b815167ffffffffffffffff81111561171657611716611223565b61172a816117248454611674565b846116ae565b602080601f83116001811461175f57600084156117475750858301515b600019600386901b1c1916600185901b1785556116f4565b600085815260208120601f198616915b8281101561178e5788860151825594840194600190910190840161176f565b50858210156117ac5787850151600019600388901b60f8161c191681555b5050505050600190811b01905550565b6020815260006111f2602083018461145c565b602081016102f08284611416565b602080825260119082015270139bc81cda1a5c1b595b9d08199bdd5b99607a1b604082015260600190565b634e487b7160e01b600052601160045260246000fd5b818103818111156102f0576102f0611808565b634e487b7160e01b600052603260045260246000fd5b7f416363657373436f6e74726f6c3a206163636f756e742000000000000000000081526000835161187f816017850160208801611438565b7001034b99036b4b9b9b4b733903937b6329607d1b60179184019182015283516118b0816028840160208801611438565b01602801949350505050565b80820281158282048414176102f0576102f0611808565b808201808211156102f0576102f0611808565b6000816118f5576118f5611808565b50600019019056feeefb95e842a3287179d933b4460be539a1d5af11aa8b325bb45c5c8dc92de4edfbd454f36a7e1a388bd6fc3ab10d434aa4578f811acbbcf33afb1c697486313c2a5f906c256a5d799494fcd066e1f6c077689de1cdb65052a1624de4bace99bfa26469706673582212202e101b08f05c28f2077680ca293bce75dd68f9a9dddcb3153e79ce465e89dae464736f6c63430008130033",
  "linkReferences": {},
  "deployedLinkReferences": {}
}