{"contracts/SupplyChain.sol":{"SupplyChain":{"abi":[{"inputs":[{"internalType":"address","name":"productNFTAddress","type":"address"}],"stateMutability":"nonpayable","type":"constructor"},{"anonymous":false,"inputs":[{"indexed":true,"internalType":"uint256","name":"productId","type":"uint256"},{"indexed":false,"internalType":"string","name":"newLocation","type":"string"}],"name":"LocationUpdated","type":"event"},{"anonymous":false,"inputs":[{"indexed":false,"internalType":"address","name":"account","type":"address"}],"name":"Paused","type":"event"},{"anonymous":false,"inputs":[{"indexed":true,"internalType":"uint256","name":"productId","type":"uint256"},{"indexed":true,"internalType":"address","name":"seller","type":"address"},{"indexed":false,"internalType":"string","name":"name","type":"string"}],"name":"ProductCreated","type":"event"},{"anonymous":false,"inputs":[{"indexed":true,"internalType":"bytes32","name":"role","type":"bytes32"},{"indexed":true,"internalType":"bytes32","name":"previousAdminRole","type":"bytes32"},{"indexed":true,"internalType":"bytes32","name":"newAdminRole","type":"bytes32"}],"name":"RoleAdminChanged","type":"event"},{"anonymous":false,"inputs":[{"indexed":true,"internalType":"bytes32","name":"role","type":"bytes32"},{"indexed":true,"internalType":"address","name":"account","type":"address"},{"indexed":true,"internalType":"address","name":"sender","type":"address"}],"name":"RoleGranted","type":"event"},{"anonymous":false,"inputs":[{"indexed":true,"internalType":"bytes32","name":"role","type":"bytes32"},{"indexed":true,"internalType":"address","name":"account","type":"address"},{"indexed":true,"internalType":"address","name":"sender","type":"address"}],"name":"RoleRevoked","type":"event"},{"anonymous":false,"inputs":[{"indexed":true,"internalType":"uint256","name":"productId","type":"uint256"},{"indexed":true,"internalType":"address","name":"sender","type":"address"},{"indexed":true,"internalType":"address","name":"receiver","type":"address"}],"name":"ShipmentCreated","type":"event"},{"anonymous":false,"inputs":[{"indexed":true,"internalType":"uint256","name":"productId","type":"uint256"},{"indexed":false,"internalType":"enum SupplyChain.Stage","name":"newStage","type":"uint8"}],"name":"StageUpdated","type":"event"},{"anonymous":false,"inputs":[{"indexed":false,"internalType":"address","name":"account","type":"address"}],"name":"Unpaused","type":"event"},{"inputs":[],"name":"DEFAULT_ADMIN_ROLE","outputs":[{"internalType":"bytes32","name":"","type":"bytes32"}],"stateMutability":"view","type":"function"},{"inputs":[],"name":"SELLER_ROLE","outputs":[{"internalType":"bytes32","name":"","type":"bytes32"}],"stateMutability":"view","type":"function"},{"inputs":[{"internalType":"string","name":"name","type":"string"},{"internalType":"string","name":"seller","type":"string"},{"internalType":"uint256","name":"price","type":"uint256"},{"internalType":"string","name":"tokenURI","type":"string"}],"name":"createProduct","outputs":[{"internalType":"uint256","name":"","type":"uint256"}],"stateMutability":"nonpayable","type":"function"},{"inputs":[{"internalType":"uint256","name":"productId","type":"uint256"},{"internalType":"address","name":"receiver","type":"address"},{"internalType":"string","name":"location","type":"string"}],"name":"createShipment","outputs":[],"stateMutability":"nonpayable","type":"function"},{"inputs":[{"internalType":"uint256","name":"productId","type":"uint256"}],"name":"getCurrentShipment","outputs":[{"internalType":"address","name":"sender","type":"address"},{"internalType":"address","name":"receiver","type":"address"},{"internalType":"enum SupplyChain.Stage","name":"stage","type":"uint8"},{"internalType":"uint256","name":"timestamp","type":"uint256"},{"internalType":"string","name":"location","type":"string"}],"stateMutability":"view","type":"function"},{"inputs":[{"internalType":"bytes32","name":"role","type":"bytes32"}],"name":"getRoleAdmin","outputs":[{"internalType":"bytes32","name":"","type":"bytes32"}],"stateMutability":"view","type":"function"},{"inputs":[{"internalType":"uint256","name":"productId","type":"uint256"}],"name":"getShipmentHistory","outputs":[{"components":[{"internalType":"uint256","name":"productId","type":"uint256"},{"internalType":"address","name":"sender","type":"address"},{"internalType":"address","name":"receiver","type":"address"},{"internalType":"enum SupplyChain.Stage","name":"currentStage","type":"uint8"},{"internalType":"uint256","name":"timestamp","type":"uint256"},{"internalType":"string","name":"location","type":"string"}],"internalType":"struct SupplyChain.Shipment[]","name":"","type":"tuple[]"}],"stateMutability":"view","type":"function"},{"inputs":[{"internalType":"bytes32","name":"role","type":"bytes32"},{"internalType":"address","name":"account","type":"address"}],"name":"grantRole","outputs":[],"stateMutability":"nonpayable","type":"function"},{"inputs":[{"internalType":"address","name":"account","type":"address"}],"name":"grantSellerRole","outputs":[],"stateMutability":"nonpayable","type":"function"},{"inputs":[{"internalType":"bytes32","name":"role","type":"bytes32"},{"internalType":"address","name":"account","type":"address"}],"name":"hasRole","outputs":[{"internalType":"bool","name":"","type":"bool"}],"stateMutability":"view","type":"function"},{"inputs":[{"internalType":"address","name":"account","type":"address"}],"name":"isSeller","outputs":[{"internalType":"bool","name":"","type":"bool"}],"stateMutability":"view","type":"function"},{"inputs":[],"name":"pause","outputs":[],"stateMutability":"nonpayable","type":"function"},{"inputs":[],"name":"paused","outputs":[{"internalType":"bool","name":"","type":"bool"}],"stateMutability":"view","type":"function"},{"inputs":[{"internalType":"bytes32","name":"role","type":"bytes32"},{"internalType":"address","name":"account","type":"address"}],"name":"renounceRole","outputs":[],"stateMutability":"nonpayable","type":"function"},{"inputs":[{"internalType":"bytes32","name":"role","type":"bytes32"},{"internalType":"address","name":"account","type":"address"}],"name":"revokeRole","outputs":[],"stateMutability":"nonpayable","type":"function"},{"inputs":[{"internalType":"bytes4","name":"interfaceId","type":"bytes4"}],"name":"supportsInterface","outputs":[{"internalType":"bool","name":"","type":"bool"}],"stateMutability":"view","type":"function"},{"inputs":[],"name":"unpause","outputs":[],"stateMutability":"nonpayable","type":"function"},{"inputs":[{"internalType":"uint256","name":"productId","type":"uint256"},{"internalType":"string","name":"newLocation","type":"string"}],"name":"updateLocation","outputs":[],"stateMutability":"nonpayable","type":"function"},{"inputs":[{"internalType":"uint256","name":"productId","type":"uint256"},{"internalType":"enum SupplyChain.Stage","name":"newStage","type":"uint8"}],"name":"updateStage","outputs":[],"stateMutability":"nonpayable","type":"function"}],"evm":{"bytecode":{"linkReferences":{},"object":"60806040523480156200001157600080fd5b5060405162001aba38038062001aba833981016040819052620000349162000117565b600180546001600160a81b0319166101006001600160a01b038416021790556200006060003362000067565b5062000149565b62000073828262000077565b5050565b6000828152602081815260408083206001600160a01b038516845290915290205460ff1662000073576000828152602081815260408083206001600160a01b03851684529091529020805460ff19166001179055620000d33390565b6001600160a01b0316816001600160a01b0316837f2f8788117e7eff1d82e926ec794901d17c78024a50270940304540a733656f0d60405160405180910390a45050565b6000602082840312156200012a57600080fd5b81516001600160a01b03811681146200014257600080fd5b9392505050565b61196180620001596000396000f3fe608060405234801561001057600080fd5b50600436106101215760003560e01c80638456cb59116100ad578063d547741f11610071578063d547741f1461025a578063dbe4613d1461026d578063ee95feaf14610282578063f06e1e7b14610295578063f405c96b146102a857600080fd5b80638456cb591461020057806391d1485414610208578063a217fddf1461021b578063c4811a4d14610223578063ce90ceff1461024757600080fd5b806336568abe116100f457806336568abe146101a75780633f4ba83a146101ba5780634ec0c9e9146101c25780635c975abb146101d5578063631c6ffe146101e057600080fd5b806301ffc9a71461012657806312c891961461014e578063248a9ca31461016f5780632f2ff15d14610192575b600080fd5b6101396101343660046111ec565b6102bb565b60405190151581526020015b60405180910390f35b61016161015c3660046112b9565b6102f2565b604051908152602001610145565b61016161017d36600461134b565b60009081526020819052604090206001015490565b6101a56101a0366004611380565b610566565b005b6101a56101b5366004611380565b610590565b6101a561060e565b6101a56101d03660046113ac565b610624565b60015460ff16610139565b6101f36101ee36600461134b565b610787565b604051610145919061147b565b6101a56108f7565b610139610216366004611380565b61090a565b610161600081565b61023661023136600461134b565b610933565b604051610145959493929190611531565b6101a5610255366004611579565b610a76565b6101a5610268366004611380565b610bfb565b61016160008051602061190c83398151915281565b6101396102903660046115d0565b610c20565b6101a56102a33660046115d0565b610c3a565b6101a56102b63660046115eb565b610c5d565b60006001600160e01b03198216637965db0b60e01b14806102ec57506301ffc9a760e01b6001600160e01b03198316145b92915050565b60006102fc610dcd565b61031460008051602061190c8339815191523361090a565b61035f5760405162461bcd60e51b815260206004820152601760248201527621b0b63632b91036bab9ba10313290309039b2b63632b960491b60448201526064015b60405180910390fd5b600154604051631e7054b360e01b815260009161010090046001600160a01b031690631e7054b39061039b9033908a908a90899060040161161f565b6020604051808303816000875af11580156103ba573d6000803e3d6000fd5b505050506040513d601f19601f820116820180604052508101906103de9190611669565b6040805160c08101825282815233602080830182815283850192835260006060850181815242608087015286518088018852600f81526e29b2b63632b9102637b1b0ba34b7b760891b8186015260a08701528782526002808552968220805460018082018355918452949092208651600590950201938455915190830180546001600160a01b039283166001600160a01b0319918216179091559351958301805496909116938616841781559051959650929485949193909290916001600160a81b03191617600160a01b8360048111156104bb576104bb6113f3565b02179055506080820151600382015560a082015160048201906104de908261170a565b505050336001600160a01b0316827f91bfc064380de20e1c90ea2ed78d0358b4ab45d446c0b93b0b07bc86f95897da8960405161051b91906117ca565b60405180910390a3817fe07678ebda9ff268c2c8531bb0ebfc488d9fa7067d919572337a14a72c3aa0b7600060405161055491906117dd565b60405180910390a25095945050505050565b60008281526020819052604090206001015461058181610e15565b61058b8383610e1f565b505050565b6001600160a01b03811633146106005760405162461bcd60e51b815260206004820152602f60248201527f416363657373436f6e74726f6c3a2063616e206f6e6c792072656e6f756e636560448201526e103937b632b9903337b91039b2b63360891b6064820152608401610356565b61060a8282610ea3565b5050565b600061061981610e15565b610621610f08565b50565b61062c610dcd565b61064460008051602061190c8339815191523361090a565b8061069657506000828152600260205260409020805461066690600190611801565b8154811061067657610676611814565b60009182526020909120600590910201600201546001600160a01b031633145b6106d15760405162461bcd60e51b815260206004820152600c60248201526b155b985d5d1a1bdc9a5e995960a21b6044820152606401610356565b6000828152600260205260409020546106fc5760405162461bcd60e51b81526004016103569061182a565b600082815260026020526040902080548290829061071c90600190611801565b8154811061072c5761072c611814565b90600052602060002090600502016004019081610749919061170a565b50827f65edc79681b60dda53ce45315418e2d9637c424299784fc6aaf815fa304dda2b8360405161077a91906117ca565b60405180910390a2505050565b606060026000838152602001908152602001600020805480602002602001604051908101604052809291908181526020016000905b828210156108ec5760008481526020908190206040805160c081018252600586029092018054835260018101546001600160a01b039081169484019490945260028101549384169183019190915290916060830190600160a01b900460ff16600481111561082c5761082c6113f3565b600481111561083d5761083d6113f3565b81526020016003820154815260200160048201805461085b90611682565b80601f016020809104026020016040519081016040528092919081815260200182805461088790611682565b80156108d45780601f106108a9576101008083540402835291602001916108d4565b820191906000526020600020905b8154815290600101906020018083116108b757829003601f168201915b505050505081525050815260200190600101906107bc565b505050509050919050565b600061090281610e15565b610621610f5a565b6000918252602082815260408084206001600160a01b0393909316845291905290205460ff1690565b6000818152600260205260408120548190819081906060906109675760405162461bcd60e51b81526004016103569061182a565b6000868152600260205260408120805461098390600190611801565b8154811061099357610993611814565b600091825260209091206005909102016001810154600282015460038301546004840180549495506001600160a01b039384169493831693600160a01b90930460ff169281906109e290611682565b80601f0160208091040260200160405190810160405280929190818152602001828054610a0e90611682565b8015610a5b5780601f10610a3057610100808354040283529160200191610a5b565b820191906000526020600020905b815481529060010190602001808311610a3e57829003601f168201915b50505050509050955095509550955095505091939590929450565b610a7e610dcd565b610a9660008051602061190c8339815191523361090a565b610adc5760405162461bcd60e51b815260206004820152601760248201527621b0b63632b91036bab9ba10313290309039b2b63632b960491b6044820152606401610356565b6040805160c0810182528481523360208083019182526001600160a01b0386811684860190815260036060860190815242608087015260a0860188905260008a81526002808652978120805460018082018355918352959091208751600590960201948555945194840180549584166001600160a01b0319968716179055905195830180549690921693861684178255519394859492936001600160a81b031990911617600160a01b836004811115610b9757610b976113f3565b02179055506080820151600382015560a08201516004820190610bba908261170a565b50506040516001600160a01b0385169150339086907ffe0fd664b79935c18377297309c92f6abe60ccaa6d43bd30327c508c7fda080e90600090a450505050565b600082815260208190526040902060010154610c1681610e15565b61058b8383610ea3565b60006102ec60008051602061190c8339815191528361090a565b6000610c4581610e15565b61060a60008051602061190c83398151915283610566565b610c65610dcd565b610c7d60008051602061190c8339815191523361090a565b80610ccf575060008281526002602052604090208054610c9f90600190611801565b81548110610caf57610caf611814565b60009182526020909120600590910201600201546001600160a01b031633145b610d0a5760405162461bcd60e51b815260206004820152600c60248201526b155b985d5d1a1bdc9a5e995960a21b6044820152606401610356565b600082815260026020526040902054610d355760405162461bcd60e51b81526004016103569061182a565b6000828152600260205260409020805482908290610d5590600190611801565b81548110610d6557610d65611814565b60009182526020909120600260059092020101805460ff60a01b1916600160a01b836004811115610d9857610d986113f3565b0217905550827fe07678ebda9ff268c2c8531bb0ebfc488d9fa7067d919572337a14a72c3aa0b78360405161077a91906117dd565b60015460ff1615610e135760405162461bcd60e51b815260206004820152601060248201526f14185d5cd8589b194e881c185d5cd95960821b6044820152606401610356565b565b6106218133610f95565b610e29828261090a565b61060a576000828152602081815260408083206001600160a01b03851684529091529020805460ff19166001179055610e5f3390565b6001600160a01b0316816001600160a01b0316837f2f8788117e7eff1d82e926ec794901d17c78024a50270940304540a733656f0d60405160405180910390a45050565b610ead828261090a565b1561060a576000828152602081815260408083206001600160a01b0385168085529252808320805460ff1916905551339285917ff6391f5c32d9c69d2a47ea670b442974b53935d1edc7fd64eb21e047a839171b9190a45050565b610f10610fee565b6001805460ff191690557f5db9ee0a495bf2e6ff9c91a7834c1ba4fdd244a5e8aa4e537bd38aeae4b073aa335b6040516001600160a01b03909116815260200160405180910390a1565b610f62610dcd565b6001805460ff1916811790557f62e78cea01bee320cd4e420270b5ea74000d11b0c9f74754ebdbfc544b05a25833610f3d565b610f9f828261090a565b61060a57610fac81611037565b610fb7836020611049565b604051602001610fc8929190611855565b60408051601f198184030181529082905262461bcd60e51b8252610356916004016117ca565b60015460ff16610e135760405162461bcd60e51b815260206004820152601460248201527314185d5cd8589b194e881b9bdd081c185d5cd95960621b6044820152606401610356565b60606102ec6001600160a01b03831660145b606060006110588360026118ca565b6110639060026118e1565b67ffffffffffffffff81111561107b5761107b611216565b6040519080825280601f01601f1916602001820160405280156110a5576020820181803683370190505b509050600360fc1b816000815181106110c0576110c0611814565b60200101906001600160f81b031916908160001a905350600f60fb1b816001815181106110ef576110ef611814565b60200101906001600160f81b031916908160001a90535060006111138460026118ca565b61111e9060016118e1565b90505b6001811115611196576f181899199a1a9b1b9c1cb0b131b232b360811b85600f166010811061115257611152611814565b1a60f81b82828151811061116857611168611814565b60200101906001600160f81b031916908160001a90535060049490941c9361118f816118f4565b9050611121565b5083156111e55760405162461bcd60e51b815260206004820181905260248201527f537472696e67733a20686578206c656e67746820696e73756666696369656e746044820152606401610356565b9392505050565b6000602082840312156111fe57600080fd5b81356001600160e01b0319811681146111e557600080fd5b634e487b7160e01b600052604160045260246000fd5b600082601f83011261123d57600080fd5b813567ffffffffffffffff8082111561125857611258611216565b604051601f8301601f19908116603f0116810190828211818310171561128057611280611216565b8160405283815286602085880101111561129957600080fd5b836020870160208301376000602085830101528094505050505092915050565b600080600080608085870312156112cf57600080fd5b843567ffffffffffffffff808211156112e757600080fd5b6112f38883890161122c565b9550602087013591508082111561130957600080fd5b6113158883890161122c565b945060408701359350606087013591508082111561133257600080fd5b5061133f8782880161122c565b91505092959194509250565b60006020828403121561135d57600080fd5b5035919050565b80356001600160a01b038116811461137b57600080fd5b919050565b6000806040838503121561139357600080fd5b823591506113a360208401611364565b90509250929050565b600080604083850312156113bf57600080fd5b82359150602083013567ffffffffffffffff8111156113dd57600080fd5b6113e98582860161122c565b9150509250929050565b634e487b7160e01b600052602160045260246000fd5b6005811061142757634e487b7160e01b600052602160045260246000fd5b9052565b60005b8381101561144657818101518382015260200161142e565b50506000910152565b6000815180845261146781602086016020860161142b565b601f01601f19169290920160200192915050565b60006020808301818452808551808352604092508286019150828160051b87010184880160005b8381101561152357888303603f19018552815180518452878101516001600160a01b039081168986015287820151168785015260608082015160c091906114eb82880182611409565b50506080828101519086015260a09182015191850181905261150f8186018361144f565b9689019694505050908601906001016114a2565b509098975050505050505050565b6001600160a01b0386811682528516602082015260006115546040830186611409565b83606083015260a0608083015261156e60a083018461144f565b979650505050505050565b60008060006060848603121561158e57600080fd5b8335925061159e60208501611364565b9150604084013567ffffffffffffffff8111156115ba57600080fd5b6115c68682870161122c565b9150509250925092565b6000602082840312156115e257600080fd5b6111e582611364565b600080604083850312156115fe57600080fd5b8235915060208301356005811061161457600080fd5b809150509250929050565b6001600160a01b03851681526080602082018190526000906116439083018661144f565b8281036040840152611655818661144f565b9050828103606084015261156e818561144f565b60006020828403121561167b57600080fd5b5051919050565b600181811c9082168061169657607f821691505b6020821081036116b657634e487b7160e01b600052602260045260246000fd5b50919050565b601f82111561058b57600081815260208120601f850160051c810160208610156116e35750805b601f850160051c820191505b81811015611702578281556001016116ef565b505050505050565b815167ffffffffffffffff81111561172457611724611216565b611738816117328454611682565b846116bc565b602080601f83116001811461176d57600084156117555750858301515b600019600386901b1c1916600185901b178555611702565b600085815260208120601f198616915b8281101561179c5788860151825594840194600190910190840161177d565b50858210156117ba5787850151600019600388901b60f8161c191681555b5050505050600190811b01905550565b6020815260006111e5602083018461144f565b602081016102ec8284611409565b634e487b7160e01b600052601160045260246000fd5b818103818111156102ec576102ec6117eb565b634e487b7160e01b600052603260045260246000fd5b602080825260119082015270139bc81cda1a5c1b595b9d08199bdd5b99607a1b604082015260600190565b7f416363657373436f6e74726f6c3a206163636f756e742000000000000000000081526000835161188d81601785016020880161142b565b7001034b99036b4b9b9b4b733903937b6329607d1b60179184019182015283516118be81602884016020880161142b565b01602801949350505050565b80820281158282048414176102ec576102ec6117eb565b808201808211156102ec576102ec6117eb565b600081611903576119036117eb565b50600019019056fe43f25613eb2f15fb17222a5d424ca2655743e71265d98e4b93c05e5fb589ecdea2646970667358221220f21b727271617bddcb1254f5d16c9bd5cc4c6908feef877a18b07dd884b22b3264736f6c63430008130033","opcodes":"PUSH1 0x80 PUSH1 0x40 MSTORE CALLVALUE DUP1 ISZERO PUSH3 0x11 JUMPI PUSH1 0x0 DUP1 REVERT JUMPDEST POP PUSH1 0x40 MLOAD PUSH3 0x1ABA CODESIZE SUB DUP1 PUSH3 0x1ABA DUP4 CODECOPY DUP2 ADD PUSH1 0x40 DUP2 SWAP1 MSTORE PUSH3 0x34 SWAP2 PUSH3 0x117 JUMP JUMPDEST PUSH1 0x1 DUP1 SLOAD PUSH1 0x1 PUSH1 0x1 PUSH1 0xA8 SHL SUB NOT AND PUSH2 0x100 PUSH1 0x1 PUSH1 0x1 PUSH1 0xA0 SHL SUB DUP5 AND MUL OR SWAP1 SSTORE PUSH3 0x60 PUSH1 0x0 CALLER PUSH3 0x67 JUMP JUMPDEST POP PUSH3 0x149 JUMP JUMPDEST PUSH3 0x73 DUP3 DUP3 PUSH3 0x77 JUMP JUMPDEST POP POP JUMP JUMPDEST PUSH1 0x0 DUP3 DUP2 MSTORE PUSH1 0x20 DUP2 DUP2 MSTORE PUSH1 0x40 DUP1 DUP4 KECCAK256 PUSH1 0x1 PUSH1 0x1 PUSH1 0xA0 SHL SUB DUP6 AND DUP5 MSTORE SWAP1 SWAP2 MSTORE SWAP1 KECCAK256 SLOAD PUSH1 0xFF AND PUSH3 0x73 JUMPI PUSH1 0x0 DUP3 DUP2 MSTORE PUSH1 0x20 DUP2 DUP2 MSTORE PUSH1 0x40 DUP1 DUP4 KECCAK256 PUSH1 0x1 PUSH1 0x1 PUSH1 0xA0 SHL SUB DUP6 AND DUP5 MSTORE SWAP1 SWAP2 MSTORE SWAP1 KECCAK256 DUP1 SLOAD PUSH1 0xFF NOT AND PUSH1 0x1 OR SWAP1 SSTORE PUSH3 0xD3 CALLER SWAP1 JUMP JUMPDEST PUSH1 0x1 PUSH1 0x1 PUSH1 0xA0 SHL SUB AND DUP2 PUSH1 0x1 PUSH1 0x1 PUSH1 0xA0 SHL SUB AND DUP4 PUSH32 0x2F8788117E7EFF1D82E926EC794901D17C78024A50270940304540A733656F0D PUSH1 0x40 MLOAD PUSH1 0x40 MLOAD DUP1 SWAP2 SUB SWAP1 LOG4 POP POP JUMP JUMPDEST PUSH1 0x0 PUSH1 0x20 DUP3 DUP5 SUB SLT ISZERO PUSH3 0x12A JUMPI PUSH1 0x0 DUP1 REVERT JUMPDEST DUP2 MLOAD PUSH1 0x1 PUSH1 0x1 PUSH1 0xA0 SHL SUB DUP2 AND DUP2 EQ PUSH3 0x142 JUMPI PUSH1 0x0 DUP1 REVERT JUMPDEST SWAP4 SWAP3 POP POP POP JUMP JUMPDEST PUSH2 0x1961 DUP1 PUSH3 0x159 PUSH1 0x0 CODECOPY PUSH1 0x0 RETURN INVALID PUSH1 0x80 PUSH1 0x40 MSTORE CALLVALUE DUP1 ISZERO PUSH2 0x10 JUMPI PUSH1 0x0 DUP1 REVERT JUMPDEST POP PUSH1 0x4 CALLDATASIZE LT PUSH2 0x121 JUMPI PUSH1 0x0 CALLDATALOAD PUSH1 0xE0 SHR DUP1 PUSH4 0x8456CB59 GT PUSH2 0xAD JUMPI DUP1 PUSH4 0xD547741F GT PUSH2 0x71 JUMPI DUP1 PUSH4 0xD547741F EQ PUSH2 0x25A JUMPI DUP1 PUSH4 0xDBE4613D EQ PUSH2 0x26D JUMPI DUP1 PUSH4 0xEE95FEAF EQ PUSH2 0x282 JUMPI DUP1 PUSH4 0xF06E1E7B EQ PUSH2 0x295 JUMPI DUP1 PUSH4 0xF405C96B EQ PUSH2 0x2A8 JUMPI PUSH1 0x0 DUP1 REVERT JUMPDEST DUP1 PUSH4 0x8456CB59 EQ PUSH2 0x200 JUMPI DUP1 PUSH4 0x91D14854 EQ PUSH2 0x208 JUMPI DUP1 PUSH4 0xA217FDDF EQ PUSH2 0x21B JUMPI DUP1 PUSH4 0xC4811A4D EQ PUSH2 0x223 JUMPI DUP1 PUSH4 0xCE90CEFF EQ PUSH2 0x247 JUMPI PUSH1 0x0 DUP1 REVERT JUMPDEST DUP1 PUSH4 0x36568ABE GT PUSH2 0xF4 JUMPI DUP1 PUSH4 0x36568ABE EQ PUSH2 0x1A7 JUMPI DUP1 PUSH4 0x3F4BA83A EQ PUSH2 0x1BA JUMPI DUP1 PUSH4 0x4EC0C9E9 EQ PUSH2 0x1C2 JUMPI DUP1 PUSH4 0x5C975ABB EQ PUSH2 0x1D5 JUMPI DUP1 PUSH4 0x631C6FFE EQ PUSH2 0x1E0 JUMPI PUSH1 0x0 DUP1 REVERT JUMPDEST DUP1 PUSH4 0x1FFC9A7 EQ PUSH2 0x126 JUMPI DUP1 PUSH4 0x12C89196 EQ PUSH2 0x14E JUMPI DUP1 PUSH4 0x248A9CA3 EQ PUSH2 0x16F JUMPI DUP1 PUSH4 0x2F2FF15D EQ PUSH2 0x192 JUMPI JUMPDEST PUSH1 0x0 DUP1 REVERT JUMPDEST PUSH2 0x139 PUSH2 0x134 CALLDATASIZE PUSH1 0x4 PUSH2 0x11EC JUMP JUMPDEST PUSH2 0x2BB JUMP JUMPDEST PUSH1 0x40 MLOAD SWAP1 ISZERO ISZERO DUP2 MSTORE PUSH1 0x20 ADD JUMPDEST PUSH1 0x40 MLOAD DUP1 SWAP2 SUB SWAP1 RETURN JUMPDEST PUSH2 0x161 PUSH2 0x15C CALLDATASIZE PUSH1 0x4 PUSH2 0x12B9 JUMP JUMPDEST PUSH2 0x2F2 JUMP JUMPDEST PUSH1 0x40 MLOAD SWAP1 DUP2 MSTORE PUSH1 0x20 ADD PUSH2 0x145 JUMP JUMPDEST PUSH2 0x161 PUSH2 0x17D CALLDATASIZE PUSH1 0x4 PUSH2 0x134B JUMP JUMPDEST PUSH1 0x0 SWAP1 DUP2 MSTORE PUSH1 0x20 DUP2 SWAP1 MSTORE PUSH1 0x40 SWAP1 KECCAK256 PUSH1 0x1 ADD SLOAD SWAP1 JUMP JUMPDEST PUSH2 0x1A5 PUSH2 0x1A0 CALLDATASIZE PUSH1 0x4 PUSH2 0x1380 JUMP JUMPDEST PUSH2 0x566 JUMP JUMPDEST STOP JUMPDEST PUSH2 0x1A5 PUSH2 0x1B5 CALLDATASIZE PUSH1 0x4 PUSH2 0x1380 JUMP JUMPDEST PUSH2 0x590 JUMP JUMPDEST PUSH2 0x1A5 PUSH2 0x60E JUMP JUMPDEST PUSH2 0x1A5 PUSH2 0x1D0 CALLDATASIZE PUSH1 0x4 PUSH2 0x13AC JUMP JUMPDEST PUSH2 0x624 JUMP JUMPDEST PUSH1 0x1 SLOAD PUSH1 0xFF AND PUSH2 0x139 JUMP JUMPDEST PUSH2 0x1F3 PUSH2 0x1EE CALLDATASIZE PUSH1 0x4 PUSH2 0x134B JUMP JUMPDEST PUSH2 0x787 JUMP JUMPDEST PUSH1 0x40 MLOAD PUSH2 0x145 SWAP2 SWAP1 PUSH2 0x147B JUMP JUMPDEST PUSH2 0x1A5 PUSH2 0x8F7 JUMP JUMPDEST PUSH2 0x139 PUSH2 0x216 CALLDATASIZE PUSH1 0x4 PUSH2 0x1380 JUMP JUMPDEST PUSH2 0x90A JUMP JUMPDEST PUSH2 0x161 PUSH1 0x0 DUP2 JUMP JUMPDEST PUSH2 0x236 PUSH2 0x231 CALLDATASIZE PUSH1 0x4 PUSH2 0x134B JUMP JUMPDEST PUSH2 0x933 JUMP JUMPDEST PUSH1 0x40 MLOAD PUSH2 0x145 SWAP6 SWAP5 SWAP4 SWAP3 SWAP2 SWAP1 PUSH2 0x1531 JUMP JUMPDEST PUSH2 0x1A5 PUSH2 0x255 CALLDATASIZE PUSH1 0x4 PUSH2 0x1579 JUMP JUMPDEST PUSH2 0xA76 JUMP JUMPDEST PUSH2 0x1A5 PUSH2 0x268 CALLDATASIZE PUSH1 0x4 PUSH2 0x1380 JUMP JUMPDEST PUSH2 0xBFB JUMP JUMPDEST PUSH2 0x161 PUSH1 0x0 DUP1 MLOAD PUSH1 0x20 PUSH2 0x190C DUP4 CODECOPY DUP2 MLOAD SWAP2 MSTORE DUP2 JUMP JUMPDEST PUSH2 0x139 PUSH2 0x290 CALLDATASIZE PUSH1 0x4 PUSH2 0x15D0 JUMP JUMPDEST PUSH2 0xC20 JUMP JUMPDEST PUSH2 0x1A5 PUSH2 0x2A3 CALLDATASIZE PUSH1 0x4 PUSH2 0x15D0 JUMP JUMPDEST PUSH2 0xC3A JUMP JUMPDEST PUSH2 0x1A5 PUSH2 0x2B6 CALLDATASIZE PUSH1 0x4 PUSH2 0x15EB JUMP JUMPDEST PUSH2 0xC5D JUMP JUMPDEST PUSH1 0x0 PUSH1 0x1 PUSH1 0x1 PUSH1 0xE0 SHL SUB NOT DUP3 AND PUSH4 0x7965DB0B PUSH1 0xE0 SHL EQ DUP1 PUSH2 0x2EC JUMPI POP PUSH4 0x1FFC9A7 PUSH1 0xE0 SHL PUSH1 0x1 PUSH1 0x1 PUSH1 0xE0 SHL SUB NOT DUP4 AND EQ JUMPDEST SWAP3 SWAP2 POP POP JUMP JUMPDEST PUSH1 0x0 PUSH2 0x2FC PUSH2 0xDCD JUMP JUMPDEST PUSH2 0x314 PUSH1 0x0 DUP1 MLOAD PUSH1 0x20 PUSH2 0x190C DUP4 CODECOPY DUP2 MLOAD SWAP2 MSTORE CALLER PUSH2 0x90A JUMP JUMPDEST PUSH2 0x35F JUMPI PUSH1 0x40 MLOAD PUSH3 0x461BCD PUSH1 0xE5 SHL DUP2 MSTORE PUSH1 0x20 PUSH1 0x4 DUP3 ADD MSTORE PUSH1 0x17 PUSH1 0x24 DUP3 ADD MSTORE PUSH23 0x21B0B63632B91036BAB9BA10313290309039B2B63632B9 PUSH1 0x49 SHL PUSH1 0x44 DUP3 ADD MSTORE PUSH1 0x64 ADD JUMPDEST PUSH1 0x40 MLOAD DUP1 SWAP2 SUB SWAP1 REVERT JUMPDEST PUSH1 0x1 SLOAD PUSH1 0x40 MLOAD PUSH4 0x1E7054B3 PUSH1 0xE0 SHL DUP2 MSTORE PUSH1 0x0 SWAP2 PUSH2 0x100 SWAP1 DIV PUSH1 0x1 PUSH1 0x1 PUSH1 0xA0 SHL SUB AND SWAP1 PUSH4 0x1E7054B3 SWAP1 PUSH2 0x39B SWAP1 CALLER SWAP1 DUP11 SWAP1 DUP11 SWAP1 DUP10 SWAP1 PUSH1 0x4 ADD PUSH2 0x161F JUMP JUMPDEST PUSH1 0x20 PUSH1 0x40 MLOAD DUP1 DUP4 SUB DUP2 PUSH1 0x0 DUP8 GAS CALL ISZERO DUP1 ISZERO PUSH2 0x3BA JUMPI RETURNDATASIZE PUSH1 0x0 DUP1 RETURNDATACOPY RETURNDATASIZE PUSH1 0x0 REVERT JUMPDEST POP POP POP POP PUSH1 0x40 MLOAD RETURNDATASIZE PUSH1 0x1F NOT PUSH1 0x1F DUP3 ADD AND DUP3 ADD DUP1 PUSH1 0x40 MSTORE POP DUP2 ADD SWAP1 PUSH2 0x3DE SWAP2 SWAP1 PUSH2 0x1669 JUMP JUMPDEST PUSH1 0x40 DUP1 MLOAD PUSH1 0xC0 DUP2 ADD DUP3 MSTORE DUP3 DUP2 MSTORE CALLER PUSH1 0x20 DUP1 DUP4 ADD DUP3 DUP2 MSTORE DUP4 DUP6 ADD SWAP3 DUP4 MSTORE PUSH1 0x0 PUSH1 0x60 DUP6 ADD DUP2 DUP2 MSTORE TIMESTAMP PUSH1 0x80 DUP8 ADD MSTORE DUP7 MLOAD DUP1 DUP9 ADD DUP9 MSTORE PUSH1 0xF DUP2 MSTORE PUSH15 0x29B2B63632B9102637B1B0BA34B7B7 PUSH1 0x89 SHL DUP2 DUP7 ADD MSTORE PUSH1 0xA0 DUP8 ADD MSTORE DUP8 DUP3 MSTORE PUSH1 0x2 DUP1 DUP6 MSTORE SWAP7 DUP3 KECCAK256 DUP1 SLOAD PUSH1 0x1 DUP1 DUP3 ADD DUP4 SSTORE SWAP2 DUP5 MSTORE SWAP5 SWAP1 SWAP3 KECCAK256 DUP7 MLOAD PUSH1 0x5 SWAP1 SWAP6 MUL ADD SWAP4 DUP5 SSTORE SWAP2 MLOAD SWAP1 DUP4 ADD DUP1 SLOAD PUSH1 0x1 PUSH1 0x1 PUSH1 0xA0 SHL SUB SWAP3 DUP4 AND PUSH1 0x1 PUSH1 0x1 PUSH1 0xA0 SHL SUB NOT SWAP2 DUP3 AND OR SWAP1 SWAP2 SSTORE SWAP4 MLOAD SWAP6 DUP4 ADD DUP1 SLOAD SWAP7 SWAP1 SWAP2 AND SWAP4 DUP7 AND DUP5 OR DUP2 SSTORE SWAP1 MLOAD SWAP6 SWAP7 POP SWAP3 SWAP5 DUP6 SWAP5 SWAP2 SWAP4 SWAP1 SWAP3 SWAP1 SWAP2 PUSH1 0x1 PUSH1 0x1 PUSH1 0xA8 SHL SUB NOT AND OR PUSH1 0x1 PUSH1 0xA0 SHL DUP4 PUSH1 0x4 DUP2 GT ISZERO PUSH2 0x4BB JUMPI PUSH2 0x4BB PUSH2 0x13F3 JUMP JUMPDEST MUL OR SWAP1 SSTORE POP PUSH1 0x80 DUP3 ADD MLOAD PUSH1 0x3 DUP3 ADD SSTORE PUSH1 0xA0 DUP3 ADD MLOAD PUSH1 0x4 DUP3 ADD SWAP1 PUSH2 0x4DE SWAP1 DUP3 PUSH2 0x170A JUMP JUMPDEST POP POP POP CALLER PUSH1 0x1 PUSH1 0x1 PUSH1 0xA0 SHL SUB AND DUP3 PUSH32 0x91BFC064380DE20E1C90EA2ED78D0358B4AB45D446C0B93B0B07BC86F95897DA DUP10 PUSH1 0x40 MLOAD PUSH2 0x51B SWAP2 SWAP1 PUSH2 0x17CA JUMP JUMPDEST PUSH1 0x40 MLOAD DUP1 SWAP2 SUB SWAP1 LOG3 DUP2 PUSH32 0xE07678EBDA9FF268C2C8531BB0EBFC488D9FA7067D919572337A14A72C3AA0B7 PUSH1 0x0 PUSH1 0x40 MLOAD PUSH2 0x554 SWAP2 SWAP1 PUSH2 0x17DD JUMP JUMPDEST PUSH1 0x40 MLOAD DUP1 SWAP2 SUB SWAP1 LOG2 POP SWAP6 SWAP5 POP POP POP POP POP JUMP JUMPDEST PUSH1 0x0 DUP3 DUP2 MSTORE PUSH1 0x20 DUP2 SWAP1 MSTORE PUSH1 0x40 SWAP1 KECCAK256 PUSH1 0x1 ADD SLOAD PUSH2 0x581 DUP2 PUSH2 0xE15 JUMP JUMPDEST PUSH2 0x58B DUP4 DUP4 PUSH2 0xE1F JUMP JUMPDEST POP POP POP JUMP JUMPDEST PUSH1 0x1 PUSH1 0x1 PUSH1 0xA0 SHL SUB DUP2 AND CALLER EQ PUSH2 0x600 JUMPI PUSH1 0x40 MLOAD PUSH3 0x461BCD PUSH1 0xE5 SHL DUP2 MSTORE PUSH1 0x20 PUSH1 0x4 DUP3 ADD MSTORE PUSH1 0x2F PUSH1 0x24 DUP3 ADD MSTORE PUSH32 0x416363657373436F6E74726F6C3A2063616E206F6E6C792072656E6F756E6365 PUSH1 0x44 DUP3 ADD MSTORE PUSH15 0x103937B632B9903337B91039B2B633 PUSH1 0x89 SHL PUSH1 0x64 DUP3 ADD MSTORE PUSH1 0x84 ADD PUSH2 0x356 JUMP JUMPDEST PUSH2 0x60A DUP3 DUP3 PUSH2 0xEA3 JUMP JUMPDEST POP POP JUMP JUMPDEST PUSH1 0x0 PUSH2 0x619 DUP2 PUSH2 0xE15 JUMP JUMPDEST PUSH2 0x621 PUSH2 0xF08 JUMP JUMPDEST POP JUMP JUMPDEST PUSH2 0x62C PUSH2 0xDCD JUMP JUMPDEST PUSH2 0x644 PUSH1 0x0 DUP1 MLOAD PUSH1 0x20 PUSH2 0x190C DUP4 CODECOPY DUP2 MLOAD SWAP2 MSTORE CALLER PUSH2 0x90A JUMP JUMPDEST DUP1 PUSH2 0x696 JUMPI POP PUSH1 0x0 DUP3 DUP2 MSTORE PUSH1 0x2 PUSH1 0x20 MSTORE PUSH1 0x40 SWAP1 KECCAK256 DUP1 SLOAD PUSH2 0x666 SWAP1 PUSH1 0x1 SWAP1 PUSH2 0x1801 JUMP JUMPDEST DUP2 SLOAD DUP2 LT PUSH2 0x676 JUMPI PUSH2 0x676 PUSH2 0x1814 JUMP JUMPDEST PUSH1 0x0 SWAP2 DUP3 MSTORE PUSH1 0x20 SWAP1 SWAP2 KECCAK256 PUSH1 0x5 SWAP1 SWAP2 MUL ADD PUSH1 0x2 ADD SLOAD PUSH1 0x1 PUSH1 0x1 PUSH1 0xA0 SHL SUB AND CALLER EQ JUMPDEST PUSH2 0x6D1 JUMPI PUSH1 0x40 MLOAD PUSH3 0x461BCD PUSH1 0xE5 SHL DUP2 MSTORE PUSH1 0x20 PUSH1 0x4 DUP3 ADD MSTORE PUSH1 0xC PUSH1 0x24 DUP3 ADD MSTORE PUSH12 0x155B985D5D1A1BDC9A5E9959 PUSH1 0xA2 SHL PUSH1 0x44 DUP3 ADD MSTORE PUSH1 0x64 ADD PUSH2 0x356 JUMP JUMPDEST PUSH1 0x0 DUP3 DUP2 MSTORE PUSH1 0x2 PUSH1 0x20 MSTORE PUSH1 0x40 SWAP1 KECCAK256 SLOAD PUSH2 0x6FC JUMPI PUSH1 0x40 MLOAD PUSH3 0x461BCD PUSH1 0xE5 SHL DUP2 MSTORE PUSH1 0x4 ADD PUSH2 0x356 SWAP1 PUSH2 0x182A JUMP JUMPDEST PUSH1 0x0 DUP3 DUP2 MSTORE PUSH1 0x2 PUSH1 0x20 MSTORE PUSH1 0x40 SWAP1 KECCAK256 DUP1 SLOAD DUP3 SWAP1 DUP3 SWAP1 PUSH2 0x71C SWAP1 PUSH1 0x1 SWAP1 PUSH2 0x1801 JUMP JUMPDEST DUP2 SLOAD DUP2 LT PUSH2 0x72C JUMPI PUSH2 0x72C PUSH2 0x1814 JUMP JUMPDEST SWAP1 PUSH1 0x0 MSTORE PUSH1 0x20 PUSH1 0x0 KECCAK256 SWAP1 PUSH1 0x5 MUL ADD PUSH1 0x4 ADD SWAP1 DUP2 PUSH2 0x749 SWAP2 SWAP1 PUSH2 0x170A JUMP JUMPDEST POP DUP3 PUSH32 0x65EDC79681B60DDA53CE45315418E2D9637C424299784FC6AAF815FA304DDA2B DUP4 PUSH1 0x40 MLOAD PUSH2 0x77A SWAP2 SWAP1 PUSH2 0x17CA JUMP JUMPDEST PUSH1 0x40 MLOAD DUP1 SWAP2 SUB SWAP1 LOG2 POP POP POP JUMP JUMPDEST PUSH1 0x60 PUSH1 0x2 PUSH1 0x0 DUP4 DUP2 MSTORE PUSH1 0x20 ADD SWAP1 DUP2 MSTORE PUSH1 0x20 ADD PUSH1 0x0 KECCAK256 DUP1 SLOAD DUP1 PUSH1 0x20 MUL PUSH1 0x20 ADD PUSH1 0x40 MLOAD SWAP1 DUP2 ADD PUSH1 0x40 MSTORE DUP1 SWAP3 SWAP2 SWAP1 DUP2 DUP2 MSTORE PUSH1 0x20 ADD PUSH1 0x0 SWAP1 JUMPDEST DUP3 DUP3 LT ISZERO PUSH2 0x8EC JUMPI PUSH1 0x0 DUP5 DUP2 MSTORE PUSH1 0x20 SWAP1 DUP2 SWAP1 KECCAK256 PUSH1 0x40 DUP1 MLOAD PUSH1 0xC0 DUP2 ADD DUP3 MSTORE PUSH1 0x5 DUP7 MUL SWAP1 SWAP3 ADD DUP1 SLOAD DUP4 MSTORE PUSH1 0x1 DUP2 ADD SLOAD PUSH1 0x1 PUSH1 0x1 PUSH1 0xA0 SHL SUB SWAP1 DUP2 AND SWAP5 DUP5 ADD SWAP5 SWAP1 SWAP5 MSTORE PUSH1 0x2 DUP2 ADD SLOAD SWAP4 DUP5 AND SWAP2 DUP4 ADD SWAP2 SWAP1 SWAP2 MSTORE SWAP1 SWAP2 PUSH1 0x60 DUP4 ADD SWAP1 PUSH1 0x1 PUSH1 0xA0 SHL SWAP1 DIV PUSH1 0xFF AND PUSH1 0x4 DUP2 GT ISZERO PUSH2 0x82C JUMPI PUSH2 0x82C PUSH2 0x13F3 JUMP JUMPDEST PUSH1 0x4 DUP2 GT ISZERO PUSH2 0x83D JUMPI PUSH2 0x83D PUSH2 0x13F3 JUMP JUMPDEST DUP2 MSTORE PUSH1 0x20 ADD PUSH1 0x3 DUP3 ADD SLOAD DUP2 MSTORE PUSH1 0x20 ADD PUSH1 0x4 DUP3 ADD DUP1 SLOAD PUSH2 0x85B SWAP1 PUSH2 0x1682 JUMP JUMPDEST DUP1 PUSH1 0x1F ADD PUSH1 0x20 DUP1 SWAP2 DIV MUL PUSH1 0x20 ADD PUSH1 0x40 MLOAD SWAP1 DUP2 ADD PUSH1 0x40 MSTORE DUP1 SWAP3 SWAP2 SWAP1 DUP2 DUP2 MSTORE PUSH1 0x20 ADD DUP3 DUP1 SLOAD PUSH2 0x887 SWAP1 PUSH2 0x1682 JUMP JUMPDEST DUP1 ISZERO PUSH2 0x8D4 JUMPI DUP1 PUSH1 0x1F LT PUSH2 0x8A9 JUMPI PUSH2 0x100 DUP1 DUP4 SLOAD DIV MUL DUP4 MSTORE SWAP2 PUSH1 0x20 ADD SWAP2 PUSH2 0x8D4 JUMP JUMPDEST DUP3 ADD SWAP2 SWAP1 PUSH1 0x0 MSTORE PUSH1 0x20 PUSH1 0x0 KECCAK256 SWAP1 JUMPDEST DUP2 SLOAD DUP2 MSTORE SWAP1 PUSH1 0x1 ADD SWAP1 PUSH1 0x20 ADD DUP1 DUP4 GT PUSH2 0x8B7 JUMPI DUP3 SWAP1 SUB PUSH1 0x1F AND DUP3 ADD SWAP2 JUMPDEST POP POP POP POP POP DUP2 MSTORE POP POP DUP2 MSTORE PUSH1 0x20 ADD SWAP1 PUSH1 0x1 ADD SWAP1 PUSH2 0x7BC JUMP JUMPDEST POP POP POP POP SWAP1 POP SWAP2 SWAP1 POP JUMP JUMPDEST PUSH1 0x0 PUSH2 0x902 DUP2 PUSH2 0xE15 JUMP JUMPDEST PUSH2 0x621 PUSH2 0xF5A JUMP JUMPDEST PUSH1 0x0 SWAP2 DUP3 MSTORE PUSH1 0x20 DUP3 DUP2 MSTORE PUSH1 0x40 DUP1 DUP5 KECCAK256 PUSH1 0x1 PUSH1 0x1 PUSH1 0xA0 SHL SUB SWAP4 SWAP1 SWAP4 AND DUP5 MSTORE SWAP2 SWAP1 MSTORE SWAP1 KECCAK256 SLOAD PUSH1 0xFF AND SWAP1 JUMP JUMPDEST PUSH1 0x0 DUP2 DUP2 MSTORE PUSH1 0x2 PUSH1 0x20 MSTORE PUSH1 0x40 DUP2 KECCAK256 SLOAD DUP2 SWAP1 DUP2 SWAP1 DUP2 SWAP1 PUSH1 0x60 SWAP1 PUSH2 0x967 JUMPI PUSH1 0x40 MLOAD PUSH3 0x461BCD PUSH1 0xE5 SHL DUP2 MSTORE PUSH1 0x4 ADD PUSH2 0x356 SWAP1 PUSH2 0x182A JUMP JUMPDEST PUSH1 0x0 DUP7 DUP2 MSTORE PUSH1 0x2 PUSH1 0x20 MSTORE PUSH1 0x40 DUP2 KECCAK256 DUP1 SLOAD PUSH2 0x983 SWAP1 PUSH1 0x1 SWAP1 PUSH2 0x1801 JUMP JUMPDEST DUP2 SLOAD DUP2 LT PUSH2 0x993 JUMPI PUSH2 0x993 PUSH2 0x1814 JUMP JUMPDEST PUSH1 0x0 SWAP2 DUP3 MSTORE PUSH1 0x20 SWAP1 SWAP2 KECCAK256 PUSH1 0x5 SWAP1 SWAP2 MUL ADD PUSH1 0x1 DUP2 ADD SLOAD PUSH1 0x2 DUP3 ADD SLOAD PUSH1 0x3 DUP4 ADD SLOAD PUSH1 0x4 DUP5 ADD DUP1 SLOAD SWAP5 SWAP6 POP PUSH1 0x1 PUSH1 0x1 PUSH1 0xA0 SHL SUB SWAP4 DUP5 AND SWAP5 SWAP4 DUP4 AND SWAP4 PUSH1 0x1 PUSH1 0xA0 SHL SWAP1 SWAP4 DIV PUSH1 0xFF AND SWAP3 DUP2 SWAP1 PUSH2 0x9E2 SWAP1 PUSH2 0x1682 JUMP JUMPDEST DUP1 PUSH1 0x1F ADD PUSH1 0x20 DUP1 SWAP2 DIV MUL PUSH1 0x20 ADD PUSH1 0x40 MLOAD SWAP1 DUP2 ADD PUSH1 0x40 MSTORE DUP1 SWAP3 SWAP2 SWAP1 DUP2 DUP2 MSTORE PUSH1 0x20 ADD DUP3 DUP1 SLOAD PUSH2 0xA0E SWAP1 PUSH2 0x1682 JUMP JUMPDEST DUP1 ISZERO PUSH2 0xA5B JUMPI DUP1 PUSH1 0x1F LT PUSH2 0xA30 JUMPI PUSH2 0x100 DUP1 DUP4 SLOAD DIV MUL DUP4 MSTORE SWAP2 PUSH1 0x20 ADD SWAP2 PUSH2 0xA5B JUMP JUMPDEST DUP3 ADD SWAP2 SWAP1 PUSH1 0x0 MSTORE PUSH1 0x20 PUSH1 0x0 KECCAK256 SWAP1 JUMPDEST DUP2 SLOAD DUP2 MSTORE SWAP1 PUSH1 0x1 ADD SWAP1 PUSH1 0x20 ADD DUP1 DUP4 GT PUSH2 0xA3E JUMPI DUP3 SWAP1 SUB PUSH1 0x1F AND DUP3 ADD SWAP2 JUMPDEST POP POP POP POP POP SWAP1 POP SWAP6 POP SWAP6 POP SWAP6 POP SWAP6 POP SWAP6 POP POP SWAP2 SWAP4 SWAP6 SWAP1 SWAP3 SWAP5 POP JUMP JUMPDEST PUSH2 0xA7E PUSH2 0xDCD JUMP JUMPDEST PUSH2 0xA96 PUSH1 0x0 DUP1 MLOAD PUSH1 0x20 PUSH2 0x190C DUP4 CODECOPY DUP2 MLOAD SWAP2 MSTORE CALLER PUSH2 0x90A JUMP JUMPDEST PUSH2 0xADC JUMPI PUSH1 0x40 MLOAD PUSH3 0x461BCD PUSH1 0xE5 SHL DUP2 MSTORE PUSH1 0x20 PUSH1 0x4 DUP3 ADD MSTORE PUSH1 0x17 PUSH1 0x24 DUP3 ADD MSTORE PUSH23 0x21B0B63632B91036BAB9BA10313290309039B2B63632B9 PUSH1 0x49 SHL PUSH1 0x44 DUP3 ADD MSTORE PUSH1 0x64 ADD PUSH2 0x356 JUMP JUMPDEST PUSH1 0x40 DUP1 MLOAD PUSH1 0xC0 DUP2 ADD DUP3 MSTORE DUP5 DUP2 MSTORE CALLER PUSH1 0x20 DUP1 DUP4 ADD SWAP2 DUP3 MSTORE PUSH1 0x1 PUSH1 0x1 PUSH1 0xA0 SHL SUB DUP7 DUP2 AND DUP5 DUP7 ADD SWAP1 DUP2 MSTORE PUSH1 0x3 PUSH1 0x60 DUP7 ADD SWAP1 DUP2 MSTORE TIMESTAMP PUSH1 0x80 DUP8 ADD MSTORE PUSH1 0xA0 DUP7 ADD DUP9 SWAP1 MSTORE PUSH1 0x0 DUP11 DUP2 MSTORE PUSH1 0x2 DUP1 DUP7 MSTORE SWAP8 DUP2 KECCAK256 DUP1 SLOAD PUSH1 0x1 DUP1 DUP3 ADD DUP4 SSTORE SWAP2 DUP4 MSTORE SWAP6 SWAP1 SWAP2 KECCAK256 DUP8 MLOAD PUSH1 0x5 SWAP1 SWAP7 MUL ADD SWAP5 DUP6 SSTORE SWAP5 MLOAD SWAP5 DUP5 ADD DUP1 SLOAD SWAP6 DUP5 AND PUSH1 0x1 PUSH1 0x1 PUSH1 0xA0 SHL SUB NOT SWAP7 DUP8 AND OR SWAP1 SSTORE SWAP1 MLOAD SWAP6 DUP4 ADD DUP1 SLOAD SWAP7 SWAP1 SWAP3 AND SWAP4 DUP7 AND DUP5 OR DUP3 SSTORE MLOAD SWAP4 SWAP5 DUP6 SWAP5 SWAP3 SWAP4 PUSH1 0x1 PUSH1 0x1 PUSH1 0xA8 SHL SUB NOT SWAP1 SWAP2 AND OR PUSH1 0x1 PUSH1 0xA0 SHL DUP4 PUSH1 0x4 DUP2 GT ISZERO PUSH2 0xB97 JUMPI PUSH2 0xB97 PUSH2 0x13F3 JUMP JUMPDEST MUL OR SWAP1 SSTORE POP PUSH1 0x80 DUP3 ADD MLOAD PUSH1 0x3 DUP3 ADD SSTORE PUSH1 0xA0 DUP3 ADD MLOAD PUSH1 0x4 DUP3 ADD SWAP1 PUSH2 0xBBA SWAP1 DUP3 PUSH2 0x170A JUMP JUMPDEST POP POP PUSH1 0x40 MLOAD PUSH1 0x1 PUSH1 0x1 PUSH1 0xA0 SHL SUB DUP6 AND SWAP2 POP CALLER SWAP1 DUP7 SWAP1 PUSH32 0xFE0FD664B79935C18377297309C92F6ABE60CCAA6D43BD30327C508C7FDA080E SWAP1 PUSH1 0x0 SWAP1 LOG4 POP POP POP POP JUMP JUMPDEST PUSH1 0x0 DUP3 DUP2 MSTORE PUSH1 0x20 DUP2 SWAP1 MSTORE PUSH1 0x40 SWAP1 KECCAK256 PUSH1 0x1 ADD SLOAD PUSH2 0xC16 DUP2 PUSH2 0xE15 JUMP JUMPDEST PUSH2 0x58B DUP4 DUP4 PUSH2 0xEA3 JUMP JUMPDEST PUSH1 0x0 PUSH2 0x2EC PUSH1 0x0 DUP1 MLOAD PUSH1 0x20 PUSH2 0x190C DUP4 CODECOPY DUP2 MLOAD SWAP2 MSTORE DUP4 PUSH2 0x90A JUMP JUMPDEST PUSH1 0x0 PUSH2 0xC45 DUP2 PUSH2 0xE15 JUMP JUMPDEST PUSH2 0x60A PUSH1 0x0 DUP1 MLOAD PUSH1 0x20 PUSH2 0x190C DUP4 CODECOPY DUP2 MLOAD SWAP2 MSTORE DUP4 PUSH2 0x566 JUMP JUMPDEST PUSH2 0xC65 PUSH2 0xDCD JUMP JUMPDEST PUSH2 0xC7D PUSH1 0x0 DUP1 MLOAD PUSH1 0x20 PUSH2 0x190C DUP4 CODECOPY DUP2 MLOAD SWAP2 MSTORE CALLER PUSH2 0x90A JUMP JUMPDEST DUP1 PUSH2 0xCCF JUMPI POP PUSH1 0x0 DUP3 DUP2 MSTORE PUSH1 0x2 PUSH1 0x20 MSTORE PUSH1 0x40 SWAP1 KECCAK256 DUP1 SLOAD PUSH2 0xC9F SWAP1 PUSH1 0x1 SWAP1 PUSH2 0x1801 JUMP JUMPDEST DUP2 SLOAD DUP2 LT PUSH2 0xCAF JUMPI PUSH2 0xCAF PUSH2 0x1814 JUMP JUMPDEST PUSH1 0x0 SWAP2 DUP3 MSTORE PUSH1 0x20 SWAP1 SWAP2 KECCAK256 PUSH1 0x5 SWAP1 SWAP2 MUL ADD PUSH1 0x2 ADD SLOAD PUSH1 0x1 PUSH1 0x1 PUSH1 0xA0 SHL SUB AND CALLER EQ JUMPDEST PUSH2 0xD0A JUMPI PUSH1 0x40 MLOAD PUSH3 0x461BCD PUSH1 0xE5 SHL DUP2 MSTORE PUSH1 0x20 PUSH1 0x4 DUP3 ADD MSTORE PUSH1 0xC PUSH1 0x24 DUP3 ADD MSTORE PUSH12 0x155B985D5D1A1BDC9A5E9959 PUSH1 0xA2 SHL PUSH1 0x44 DUP3 ADD MSTORE PUSH1 0x64 ADD PUSH2 0x356 JUMP JUMPDEST PUSH1 0x0 DUP3 DUP2 MSTORE PUSH1 0x2 PUSH1 0x20 MSTORE PUSH1 0x40 SWAP1 KECCAK256 SLOAD PUSH2 0xD35 JUMPI PUSH1 0x40 MLOAD PUSH3 0x461BCD PUSH1 0xE5 SHL DUP2 MSTORE PUSH1 0x4 ADD PUSH2 0x356 SWAP1 PUSH2 0x182A JUMP JUMPDEST PUSH1 0x0 DUP3 DUP2 MSTORE PUSH1 0x2 PUSH1 0x20 MSTORE PUSH1 0x40 SWAP1 KECCAK256 DUP1 SLOAD DUP3 SWAP1 DUP3 SWAP1 PUSH2 0xD55 SWAP1 PUSH1 0x1 SWAP1 PUSH2 0x1801 JUMP JUMPDEST DUP2 SLOAD DUP2 LT PUSH2 0xD65 JUMPI PUSH2 0xD65 PUSH2 0x1814 JUMP JUMPDEST PUSH1 0x0 SWAP2 DUP3 MSTORE PUSH1 0x20 SWAP1 SWAP2 KECCAK256 PUSH1 0x2 PUSH1 0x5 SWAP1 SWAP3 MUL ADD ADD DUP1 SLOAD PUSH1 0xFF PUSH1 0xA0 SHL NOT AND PUSH1 0x1 PUSH1 0xA0 SHL DUP4 PUSH1 0x4 DUP2 GT ISZERO PUSH2 0xD98 JUMPI PUSH2 0xD98 PUSH2 0x13F3 JUMP JUMPDEST MUL OR SWAP1 SSTORE POP DUP3 PUSH32 0xE07678EBDA9FF268C2C8531BB0EBFC488D9FA7067D919572337A14A72C3AA0B7 DUP4 PUSH1 0x40 MLOAD PUSH2 0x77A SWAP2 SWAP1 PUSH2 0x17DD JUMP JUMPDEST PUSH1 0x1 SLOAD PUSH1 0xFF AND ISZERO PUSH2 0xE13 JUMPI PUSH1 0x40 MLOAD PUSH3 0x461BCD PUSH1 0xE5 SHL DUP2 MSTORE PUSH1 0x20 PUSH1 0x4 DUP3 ADD MSTORE PUSH1 0x10 PUSH1 0x24 DUP3 ADD MSTORE PUSH16 0x14185D5CD8589B194E881C185D5CD959 PUSH1 0x82 SHL PUSH1 0x44 DUP3 ADD MSTORE PUSH1 0x64 ADD PUSH2 0x356 JUMP JUMPDEST JUMP JUMPDEST PUSH2 0x621 DUP2 CALLER PUSH2 0xF95 JUMP JUMPDEST PUSH2 0xE29 DUP3 DUP3 PUSH2 0x90A JUMP JUMPDEST PUSH2 0x60A JUMPI PUSH1 0x0 DUP3 DUP2 MSTORE PUSH1 0x20 DUP2 DUP2 MSTORE PUSH1 0x40 DUP1 DUP4 KECCAK256 PUSH1 0x1 PUSH1 0x1 PUSH1 0xA0 SHL SUB DUP6 AND DUP5 MSTORE SWAP1 SWAP2 MSTORE SWAP1 KECCAK256 DUP1 SLOAD PUSH1 0xFF NOT AND PUSH1 0x1 OR SWAP1 SSTORE PUSH2 0xE5F CALLER SWAP1 JUMP JUMPDEST PUSH1 0x1 PUSH1 0x1 PUSH1 0xA0 SHL SUB AND DUP2 PUSH1 0x1 PUSH1 0x1 PUSH1 0xA0 SHL SUB AND DUP4 PUSH32 0x2F8788117E7EFF1D82E926EC794901D17C78024A50270940304540A733656F0D PUSH1 0x40 MLOAD PUSH1 0x40 MLOAD DUP1 SWAP2 SUB SWAP1 LOG4 POP POP JUMP JUMPDEST PUSH2 0xEAD DUP3 DUP3 PUSH2 0x90A JUMP JUMPDEST ISZERO PUSH2 0x60A JUMPI PUSH1 0x0 DUP3 DUP2 MSTORE PUSH1 0x20 DUP2 DUP2 MSTORE PUSH1 0x40 DUP1 DUP4 KECCAK256 PUSH1 0x1 PUSH1 0x1 PUSH1 0xA0 SHL SUB DUP6 AND DUP1 DUP6 MSTORE SWAP3 MSTORE DUP1 DUP4 KECCAK256 DUP1 SLOAD PUSH1 0xFF NOT AND SWAP1 SSTORE MLOAD CALLER SWAP3 DUP6 SWAP2 PUSH32 0xF6391F5C32D9C69D2A47EA670B442974B53935D1EDC7FD64EB21E047A839171B SWAP2 SWAP1 LOG4 POP POP JUMP JUMPDEST PUSH2 0xF10 PUSH2 0xFEE JUMP JUMPDEST PUSH1 0x1 DUP1 SLOAD PUSH1 0xFF NOT AND SWAP1 SSTORE PUSH32 0x5DB9EE0A495BF2E6FF9C91A7834C1BA4FDD244A5E8AA4E537BD38AEAE4B073AA CALLER JUMPDEST PUSH1 0x40 MLOAD PUSH1 0x1 PUSH1 0x1 PUSH1 0xA0 SHL SUB SWAP1 SWAP2 AND DUP2 MSTORE PUSH1 0x20 ADD PUSH1 0x40 MLOAD DUP1 SWAP2 SUB SWAP1 LOG1 JUMP JUMPDEST PUSH2 0xF62 PUSH2 0xDCD JUMP JUMPDEST PUSH1 0x1 DUP1 SLOAD PUSH1 0xFF NOT AND DUP2 OR SWAP1 SSTORE PUSH32 0x62E78CEA01BEE320CD4E420270B5EA74000D11B0C9F74754EBDBFC544B05A258 CALLER PUSH2 0xF3D JUMP JUMPDEST PUSH2 0xF9F DUP3 DUP3 PUSH2 0x90A JUMP JUMPDEST PUSH2 0x60A JUMPI PUSH2 0xFAC DUP2 PUSH2 0x1037 JUMP JUMPDEST PUSH2 0xFB7 DUP4 PUSH1 0x20 PUSH2 0x1049 JUMP JUMPDEST PUSH1 0x40 MLOAD PUSH1 0x20 ADD PUSH2 0xFC8 SWAP3 SWAP2 SWAP1 PUSH2 0x1855 JUMP JUMPDEST PUSH1 0x40 DUP1 MLOAD PUSH1 0x1F NOT DUP2 DUP5 SUB ADD DUP2 MSTORE SWAP1 DUP3 SWAP1 MSTORE PUSH3 0x461BCD PUSH1 0xE5 SHL DUP3 MSTORE PUSH2 0x356 SWAP2 PUSH1 0x4 ADD PUSH2 0x17CA JUMP JUMPDEST PUSH1 0x1 SLOAD PUSH1 0xFF AND PUSH2 0xE13 JUMPI PUSH1 0x40 MLOAD PUSH3 0x461BCD PUSH1 0xE5 SHL DUP2 MSTORE PUSH1 0x20 PUSH1 0x4 DUP3 ADD MSTORE PUSH1 0x14 PUSH1 0x24 DUP3 ADD MSTORE PUSH20 0x14185D5CD8589B194E881B9BDD081C185D5CD959 PUSH1 0x62 SHL PUSH1 0x44 DUP3 ADD MSTORE PUSH1 0x64 ADD PUSH2 0x356 JUMP JUMPDEST PUSH1 0x60 PUSH2 0x2EC PUSH1 0x1 PUSH1 0x1 PUSH1 0xA0 SHL SUB DUP4 AND PUSH1 0x14 JUMPDEST PUSH1 0x60 PUSH1 0x0 PUSH2 0x1058 DUP4 PUSH1 0x2 PUSH2 0x18CA JUMP JUMPDEST PUSH2 0x1063 SWAP1 PUSH1 0x2 PUSH2 0x18E1 JUMP JUMPDEST PUSH8 0xFFFFFFFFFFFFFFFF DUP2 GT ISZERO PUSH2 0x107B JUMPI PUSH2 0x107B PUSH2 0x1216 JUMP JUMPDEST PUSH1 0x40 MLOAD SWAP1 DUP1 DUP3 MSTORE DUP1 PUSH1 0x1F ADD PUSH1 0x1F NOT AND PUSH1 0x20 ADD DUP3 ADD PUSH1 0x40 MSTORE DUP1 ISZERO PUSH2 0x10A5 JUMPI PUSH1 0x20 DUP3 ADD DUP2 DUP1 CALLDATASIZE DUP4 CALLDATACOPY ADD SWAP1 POP JUMPDEST POP SWAP1 POP PUSH1 0x3 PUSH1 0xFC SHL DUP2 PUSH1 0x0 DUP2 MLOAD DUP2 LT PUSH2 0x10C0 JUMPI PUSH2 0x10C0 PUSH2 0x1814 JUMP JUMPDEST PUSH1 0x20 ADD ADD SWAP1 PUSH1 0x1 PUSH1 0x1 PUSH1 0xF8 SHL SUB NOT AND SWAP1 DUP2 PUSH1 0x0 BYTE SWAP1 MSTORE8 POP PUSH1 0xF PUSH1 0xFB SHL DUP2 PUSH1 0x1 DUP2 MLOAD DUP2 LT PUSH2 0x10EF JUMPI PUSH2 0x10EF PUSH2 0x1814 JUMP JUMPDEST PUSH1 0x20 ADD ADD SWAP1 PUSH1 0x1 PUSH1 0x1 PUSH1 0xF8 SHL SUB NOT AND SWAP1 DUP2 PUSH1 0x0 BYTE SWAP1 MSTORE8 POP PUSH1 0x0 PUSH2 0x1113 DUP5 PUSH1 0x2 PUSH2 0x18CA JUMP JUMPDEST PUSH2 0x111E SWAP1 PUSH1 0x1 PUSH2 0x18E1 JUMP JUMPDEST SWAP1 POP JUMPDEST PUSH1 0x1 DUP2 GT ISZERO PUSH2 0x1196 JUMPI PUSH16 0x181899199A1A9B1B9C1CB0B131B232B3 PUSH1 0x81 SHL DUP6 PUSH1 0xF AND PUSH1 0x10 DUP2 LT PUSH2 0x1152 JUMPI PUSH2 0x1152 PUSH2 0x1814 JUMP JUMPDEST BYTE PUSH1 0xF8 SHL DUP3 DUP3 DUP2 MLOAD DUP2 LT PUSH2 0x1168 JUMPI PUSH2 0x1168 PUSH2 0x1814 JUMP JUMPDEST PUSH1 0x20 ADD ADD SWAP1 PUSH1 0x1 PUSH1 0x1 PUSH1 0xF8 SHL SUB NOT AND SWAP1 DUP2 PUSH1 0x0 BYTE SWAP1 MSTORE8 POP PUSH1 0x4 SWAP5 SWAP1 SWAP5 SHR SWAP4 PUSH2 0x118F DUP2 PUSH2 0x18F4 JUMP JUMPDEST SWAP1 POP PUSH2 0x1121 JUMP JUMPDEST POP DUP4 ISZERO PUSH2 0x11E5 JUMPI PUSH1 0x40 MLOAD PUSH3 0x461BCD PUSH1 0xE5 SHL DUP2 MSTORE PUSH1 0x20 PUSH1 0x4 DUP3 ADD DUP2 SWAP1 MSTORE PUSH1 0x24 DUP3 ADD MSTORE PUSH32 0x537472696E67733A20686578206C656E67746820696E73756666696369656E74 PUSH1 0x44 DUP3 ADD MSTORE PUSH1 0x64 ADD PUSH2 0x356 JUMP JUMPDEST SWAP4 SWAP3 POP POP POP JUMP JUMPDEST PUSH1 0x0 PUSH1 0x20 DUP3 DUP5 SUB SLT ISZERO PUSH2 0x11FE JUMPI PUSH1 0x0 DUP1 REVERT JUMPDEST DUP2 CALLDATALOAD PUSH1 0x1 PUSH1 0x1 PUSH1 0xE0 SHL SUB NOT DUP2 AND DUP2 EQ PUSH2 0x11E5 JUMPI PUSH1 0x0 DUP1 REVERT JUMPDEST PUSH4 0x4E487B71 PUSH1 0xE0 SHL PUSH1 0x0 MSTORE PUSH1 0x41 PUSH1 0x4 MSTORE PUSH1 0x24 PUSH1 0x0 REVERT JUMPDEST PUSH1 0x0 DUP3 PUSH1 0x1F DUP4 ADD SLT PUSH2 0x123D JUMPI PUSH1 0x0 DUP1 REVERT JUMPDEST DUP2 CALLDATALOAD PUSH8 0xFFFFFFFFFFFFFFFF DUP1 DUP3 GT ISZERO PUSH2 0x1258 JUMPI PUSH2 0x1258 PUSH2 0x1216 JUMP JUMPDEST PUSH1 0x40 MLOAD PUSH1 0x1F DUP4 ADD PUSH1 0x1F NOT SWAP1 DUP2 AND PUSH1 0x3F ADD AND DUP2 ADD SWAP1 DUP3 DUP3 GT DUP2 DUP4 LT OR ISZERO PUSH2 0x1280 JUMPI PUSH2 0x1280 PUSH2 0x1216 JUMP JUMPDEST DUP2 PUSH1 0x40 MSTORE DUP4 DUP2 MSTORE DUP7 PUSH1 0x20 DUP6 DUP9 ADD ADD GT ISZERO PUSH2 0x1299 JUMPI PUSH1 0x0 DUP1 REVERT JUMPDEST DUP4 PUSH1 0x20 DUP8 ADD PUSH1 0x20 DUP4 ADD CALLDATACOPY PUSH1 0x0 PUSH1 0x20 DUP6 DUP4 ADD ADD MSTORE DUP1 SWAP5 POP POP POP POP POP SWAP3 SWAP2 POP POP JUMP JUMPDEST PUSH1 0x0 DUP1 PUSH1 0x0 DUP1 PUSH1 0x80 DUP6 DUP8 SUB SLT ISZERO PUSH2 0x12CF JUMPI PUSH1 0x0 DUP1 REVERT JUMPDEST DUP5 CALLDATALOAD PUSH8 0xFFFFFFFFFFFFFFFF DUP1 DUP3 GT ISZERO PUSH2 0x12E7 JUMPI PUSH1 0x0 DUP1 REVERT JUMPDEST PUSH2 0x12F3 DUP9 DUP4 DUP10 ADD PUSH2 0x122C JUMP JUMPDEST SWAP6 POP PUSH1 0x20 DUP8 ADD CALLDATALOAD SWAP2 POP DUP1 DUP3 GT ISZERO PUSH2 0x1309 JUMPI PUSH1 0x0 DUP1 REVERT JUMPDEST PUSH2 0x1315 DUP9 DUP4 DUP10 ADD PUSH2 0x122C JUMP JUMPDEST SWAP5 POP PUSH1 0x40 DUP8 ADD CALLDATALOAD SWAP4 POP PUSH1 0x60 DUP8 ADD CALLDATALOAD SWAP2 POP DUP1 DUP3 GT ISZERO PUSH2 0x1332 JUMPI PUSH1 0x0 DUP1 REVERT JUMPDEST POP PUSH2 0x133F DUP8 DUP3 DUP9 ADD PUSH2 0x122C JUMP JUMPDEST SWAP2 POP POP SWAP3 SWAP6 SWAP2 SWAP5 POP SWAP3 POP JUMP JUMPDEST PUSH1 0x0 PUSH1 0x20 DUP3 DUP5 SUB SLT ISZERO PUSH2 0x135D JUMPI PUSH1 0x0 DUP1 REVERT JUMPDEST POP CALLDATALOAD SWAP2 SWAP1 POP JUMP JUMPDEST DUP1 CALLDATALOAD PUSH1 0x1 PUSH1 0x1 PUSH1 0xA0 SHL SUB DUP2 AND DUP2 EQ PUSH2 0x137B JUMPI PUSH1 0x0 DUP1 REVERT JUMPDEST SWAP2 SWAP1 POP JUMP JUMPDEST PUSH1 0x0 DUP1 PUSH1 0x40 DUP4 DUP6 SUB SLT ISZERO PUSH2 0x1393 JUMPI PUSH1 0x0 DUP1 REVERT JUMPDEST DUP3 CALLDATALOAD SWAP2 POP PUSH2 0x13A3 PUSH1 0x20 DUP5 ADD PUSH2 0x1364 JUMP JUMPDEST SWAP1 POP SWAP3 POP SWAP3 SWAP1 POP JUMP JUMPDEST PUSH1 0x0 DUP1 PUSH1 0x40 DUP4 DUP6 SUB SLT ISZERO PUSH2 0x13BF JUMPI PUSH1 0x0 DUP1 REVERT JUMPDEST DUP3 CALLDATALOAD SWAP2 POP PUSH1 0x20 DUP4 ADD CALLDATALOAD PUSH8 0xFFFFFFFFFFFFFFFF DUP2 GT ISZERO PUSH2 0x13DD JUMPI PUSH1 0x0 DUP1 REVERT JUMPDEST PUSH2 0x13E9 DUP6 DUP3 DUP7 ADD PUSH2 0x122C JUMP JUMPDEST SWAP2 POP POP SWAP3 POP SWAP3 SWAP1 POP JUMP JUMPDEST PUSH4 0x4E487B71 PUSH1 0xE0 SHL PUSH1 0x0 MSTORE PUSH1 0x21 PUSH1 0x4 MSTORE PUSH1 0x24 PUSH1 0x0 REVERT JUMPDEST PUSH1 0x5 DUP2 LT PUSH2 0x1427 JUMPI PUSH4 0x4E487B71 PUSH1 0xE0 SHL PUSH1 0x0 MSTORE PUSH1 0x21 PUSH1 0x4 MSTORE PUSH1 0x24 PUSH1 0x0 REVERT JUMPDEST SWAP1 MSTORE JUMP JUMPDEST PUSH1 0x0 JUMPDEST DUP4 DUP2 LT ISZERO PUSH2 0x1446 JUMPI DUP2 DUP2 ADD MLOAD DUP4 DUP3 ADD MSTORE PUSH1 0x20 ADD PUSH2 0x142E JUMP JUMPDEST POP POP PUSH1 0x0 SWAP2 ADD MSTORE JUMP JUMPDEST PUSH1 0x0 DUP2 MLOAD DUP1 DUP5 MSTORE PUSH2 0x1467 DUP2 PUSH1 0x20 DUP7 ADD PUSH1 0x20 DUP7 ADD PUSH2 0x142B JUMP JUMPDEST PUSH1 0x1F ADD PUSH1 0x1F NOT AND SWAP3 SWAP1 SWAP3 ADD PUSH1 0x20 ADD SWAP3 SWAP2 POP POP JUMP JUMPDEST PUSH1 0x0 PUSH1 0x20 DUP1 DUP4 ADD DUP2 DUP5 MSTORE DUP1 DUP6 MLOAD DUP1 DUP4 MSTORE PUSH1 0x40 SWAP3 POP DUP3 DUP7 ADD SWAP2 POP DUP3 DUP2 PUSH1 0x5 SHL DUP8 ADD ADD DUP5 DUP9 ADD PUSH1 0x0 JUMPDEST DUP4 DUP2 LT ISZERO PUSH2 0x1523 JUMPI DUP9 DUP4 SUB PUSH1 0x3F NOT ADD DUP6 MSTORE DUP2 MLOAD DUP1 MLOAD DUP5 MSTORE DUP8 DUP2 ADD MLOAD PUSH1 0x1 PUSH1 0x1 PUSH1 0xA0 SHL SUB SWAP1 DUP2 AND DUP10 DUP7 ADD MSTORE DUP8 DUP3 ADD MLOAD AND DUP8 DUP6 ADD MSTORE PUSH1 0x60 DUP1 DUP3 ADD MLOAD PUSH1 0xC0 SWAP2 SWAP1 PUSH2 0x14EB DUP3 DUP9 ADD DUP3 PUSH2 0x1409 JUMP JUMPDEST POP POP PUSH1 0x80 DUP3 DUP2 ADD MLOAD SWAP1 DUP7 ADD MSTORE PUSH1 0xA0 SWAP2 DUP3 ADD MLOAD SWAP2 DUP6 ADD DUP2 SWAP1 MSTORE PUSH2 0x150F DUP2 DUP7 ADD DUP4 PUSH2 0x144F JUMP JUMPDEST SWAP7 DUP10 ADD SWAP7 SWAP5 POP POP POP SWAP1 DUP7 ADD SWAP1 PUSH1 0x1 ADD PUSH2 0x14A2 JUMP JUMPDEST POP SWAP1 SWAP9 SWAP8 POP POP POP POP POP POP POP POP JUMP JUMPDEST PUSH1 0x1 PUSH1 0x1 PUSH1 0xA0 SHL SUB DUP7 DUP2 AND DUP3 MSTORE DUP6 AND PUSH1 0x20 DUP3 ADD MSTORE PUSH1 0x0 PUSH2 0x1554 PUSH1 0x40 DUP4 ADD DUP7 PUSH2 0x1409 JUMP JUMPDEST DUP4 PUSH1 0x60 DUP4 ADD MSTORE PUSH1 0xA0 PUSH1 0x80 DUP4 ADD MSTORE PUSH2 0x156E PUSH1 0xA0 DUP4 ADD DUP5 PUSH2 0x144F JUMP JUMPDEST SWAP8 SWAP7 POP POP POP POP POP POP POP JUMP JUMPDEST PUSH1 0x0 DUP1 PUSH1 0x0 PUSH1 0x60 DUP5 DUP7 SUB SLT ISZERO PUSH2 0x158E JUMPI PUSH1 0x0 DUP1 REVERT JUMPDEST DUP4 CALLDATALOAD SWAP3 POP PUSH2 0x159E PUSH1 0x20 DUP6 ADD PUSH2 0x1364 JUMP JUMPDEST SWAP2 POP PUSH1 0x40 DUP5 ADD CALLDATALOAD PUSH8 0xFFFFFFFFFFFFFFFF DUP2 GT ISZERO PUSH2 0x15BA JUMPI PUSH1 0x0 DUP1 REVERT JUMPDEST PUSH2 0x15C6 DUP7 DUP3 DUP8 ADD PUSH2 0x122C JUMP JUMPDEST SWAP2 POP POP SWAP3 POP SWAP3 POP SWAP3 JUMP JUMPDEST PUSH1 0x0 PUSH1 0x20 DUP3 DUP5 SUB SLT ISZERO PUSH2 0x15E2 JUMPI PUSH1 0x0 DUP1 REVERT JUMPDEST PUSH2 0x11E5 DUP3 PUSH2 0x1364 JUMP JUMPDEST PUSH1 0x0 DUP1 PUSH1 0x40 DUP4 DUP6 SUB SLT ISZERO PUSH2 0x15FE JUMPI PUSH1 0x0 DUP1 REVERT JUMPDEST DUP3 CALLDATALOAD SWAP2 POP PUSH1 0x20 DUP4 ADD CALLDATALOAD PUSH1 0x5 DUP2 LT PUSH2 0x1614 JUMPI PUSH1 0x0 DUP1 REVERT JUMPDEST DUP1 SWAP2 POP POP SWAP3 POP SWAP3 SWAP1 POP JUMP JUMPDEST PUSH1 0x1 PUSH1 0x1 PUSH1 0xA0 SHL SUB DUP6 AND DUP2 MSTORE PUSH1 0x80 PUSH1 0x20 DUP3 ADD DUP2 SWAP1 MSTORE PUSH1 0x0 SWAP1 PUSH2 0x1643 SWAP1 DUP4 ADD DUP7 PUSH2 0x144F JUMP JUMPDEST DUP3 DUP2 SUB PUSH1 0x40 DUP5 ADD MSTORE PUSH2 0x1655 DUP2 DUP7 PUSH2 0x144F JUMP JUMPDEST SWAP1 POP DUP3 DUP2 SUB PUSH1 0x60 DUP5 ADD MSTORE PUSH2 0x156E DUP2 DUP6 PUSH2 0x144F JUMP JUMPDEST PUSH1 0x0 PUSH1 0x20 DUP3 DUP5 SUB SLT ISZERO PUSH2 0x167B JUMPI PUSH1 0x0 DUP1 REVERT JUMPDEST POP MLOAD SWAP2 SWAP1 POP JUMP JUMPDEST PUSH1 0x1 DUP2 DUP2 SHR SWAP1 DUP3 AND DUP1 PUSH2 0x1696 JUMPI PUSH1 0x7F DUP3 AND SWAP2 POP JUMPDEST PUSH1 0x20 DUP3 LT DUP2 SUB PUSH2 0x16B6 JUMPI PUSH4 0x4E487B71 PUSH1 0xE0 SHL PUSH1 0x0 MSTORE PUSH1 0x22 PUSH1 0x4 MSTORE PUSH1 0x24 PUSH1 0x0 REVERT JUMPDEST POP SWAP2 SWAP1 POP JUMP JUMPDEST PUSH1 0x1F DUP3 GT ISZERO PUSH2 0x58B JUMPI PUSH1 0x0 DUP2 DUP2 MSTORE PUSH1 0x20 DUP2 KECCAK256 PUSH1 0x1F DUP6 ADD PUSH1 0x5 SHR DUP2 ADD PUSH1 0x20 DUP7 LT ISZERO PUSH2 0x16E3 JUMPI POP DUP1 JUMPDEST PUSH1 0x1F DUP6 ADD PUSH1 0x5 SHR DUP3 ADD SWAP2 POP JUMPDEST DUP2 DUP2 LT ISZERO PUSH2 0x1702 JUMPI DUP3 DUP2 SSTORE PUSH1 0x1 ADD PUSH2 0x16EF JUMP JUMPDEST POP POP POP POP POP POP JUMP JUMPDEST DUP2 MLOAD PUSH8 0xFFFFFFFFFFFFFFFF DUP2 GT ISZERO PUSH2 0x1724 JUMPI PUSH2 0x1724 PUSH2 0x1216 JUMP JUMPDEST PUSH2 0x1738 DUP2 PUSH2 0x1732 DUP5 SLOAD PUSH2 0x1682 JUMP JUMPDEST DUP5 PUSH2 0x16BC JUMP JUMPDEST PUSH1 0x20 DUP1 PUSH1 0x1F DUP4 GT PUSH1 0x1 DUP2 EQ PUSH2 0x176D JUMPI PUSH1 0x0 DUP5 ISZERO PUSH2 0x1755 JUMPI POP DUP6 DUP4 ADD MLOAD JUMPDEST PUSH1 0x0 NOT PUSH1 0x3 DUP7 SWAP1 SHL SHR NOT AND PUSH1 0x1 DUP6 SWAP1 SHL OR DUP6 SSTORE PUSH2 0x1702 JUMP JUMPDEST PUSH1 0x0 DUP6 DUP2 MSTORE PUSH1 0x20 DUP2 KECCAK256 PUSH1 0x1F NOT DUP7 AND SWAP2 JUMPDEST DUP3 DUP2 LT ISZERO PUSH2 0x179C JUMPI DUP9 DUP7 ADD MLOAD DUP3 SSTORE SWAP5 DUP5 ADD SWAP5 PUSH1 0x1 SWAP1 SWAP2 ADD SWAP1 DUP5 ADD PUSH2 0x177D JUMP JUMPDEST POP DUP6 DUP3 LT ISZERO PUSH2 0x17BA JUMPI DUP8 DUP6 ADD MLOAD PUSH1 0x0 NOT PUSH1 0x3 DUP9 SWAP1 SHL PUSH1 0xF8 AND SHR NOT AND DUP2 SSTORE JUMPDEST POP POP POP POP POP PUSH1 0x1 SWAP1 DUP2 SHL ADD SWAP1 SSTORE POP JUMP JUMPDEST PUSH1 0x20 DUP2 MSTORE PUSH1 0x0 PUSH2 0x11E5 PUSH1 0x20 DUP4 ADD DUP5 PUSH2 0x144F JUMP JUMPDEST PUSH1 0x20 DUP2 ADD PUSH2 0x2EC DUP3 DUP5 PUSH2 0x1409 JUMP JUMPDEST PUSH4 0x4E487B71 PUSH1 0xE0 SHL PUSH1 0x0 MSTORE PUSH1 0x11 PUSH1 0x4 MSTORE PUSH1 0x24 PUSH1 0x0 REVERT JUMPDEST DUP2 DUP2 SUB DUP2 DUP2 GT ISZERO PUSH2 0x2EC JUMPI PUSH2 0x2EC PUSH2 0x17EB JUMP JUMPDEST PUSH4 0x4E487B71 PUSH1 0xE0 SHL PUSH1 0x0 MSTORE PUSH1 0x32 PUSH1 0x4 MSTORE PUSH1 0x24 PUSH1 0x0 REVERT JUMPDEST PUSH1 0x20 DUP1 DUP3 MSTORE PUSH1 0x11 SWAP1 DUP3 ADD MSTORE PUSH17 0x139BC81CDA1A5C1B595B9D08199BDD5B99 PUSH1 0x7A SHL PUSH1 0x40 DUP3 ADD MSTORE PUSH1 0x60 ADD SWAP1 JUMP JUMPDEST PUSH32 0x416363657373436F6E74726F6C3A206163636F756E7420000000000000000000 DUP2 MSTORE PUSH1 0x0 DUP4 MLOAD PUSH2 0x188D DUP2 PUSH1 0x17 DUP6 ADD PUSH1 0x20 DUP9 ADD PUSH2 0x142B JUMP JUMPDEST PUSH17 0x1034B99036B4B9B9B4B733903937B6329 PUSH1 0x7D SHL PUSH1 0x17 SWAP2 DUP5 ADD SWAP2 DUP3 ADD MSTORE DUP4 MLOAD PUSH2 0x18BE DUP2 PUSH1 0x28 DUP5 ADD PUSH1 0x20 DUP9 ADD PUSH2 0x142B JUMP JUMPDEST ADD PUSH1 0x28 ADD SWAP5 SWAP4 POP POP POP POP JUMP JUMPDEST DUP1 DUP3 MUL DUP2 ISZERO DUP3 DUP3 DIV DUP5 EQ OR PUSH2 0x2EC JUMPI PUSH2 0x2EC PUSH2 0x17EB JUMP JUMPDEST DUP1 DUP3 ADD DUP1 DUP3 GT ISZERO PUSH2 0x2EC JUMPI PUSH2 0x2EC PUSH2 0x17EB JUMP JUMPDEST PUSH1 0x0 DUP2 PUSH2 0x1903 JUMPI PUSH2 0x1903 PUSH2 0x17EB JUMP JUMPDEST POP PUSH1 0x0 NOT ADD SWAP1 JUMP INVALID NUMBER CALLCODE JUMP SGT 0xEB 0x2F ISZERO 0xFB OR 0x22 0x2A 0x5D TIMESTAMP 0x4C LOG2 PUSH6 0x5743E71265D9 DUP15 0x4B SWAP4 0xC0 0x5E 0x5F 0xB5 DUP10 0xEC 0xDE LOG2 PUSH5 0x6970667358 0x22 SLT KECCAK256 CALLCODE SHL PUSH19 0x7271617BDDCB1254F5D16C9BD5CC4C6908FEEF DUP8 PUSH27 0x18B07DD884B22B3264736F6C634300081300330000000000000000 "},"methodIdentifiers":{"DEFAULT_ADMIN_ROLE()":"a217fddf","SELLER_ROLE()":"dbe4613d","createProduct(string,string,uint256,string)":"12c89196","createShipment(uint256,address,string)":"ce90ceff","getCurrentShipment(uint256)":"c4811a4d","getRoleAdmin(bytes32)":"248a9ca3","getShipmentHistory(uint256)":"631c6ffe","grantRole(bytes32,address)":"2f2ff15d","grantSellerRole(address)":"f06e1e7b","hasRole(bytes32,address)":"91d14854","isSeller(address)":"ee95feaf","pause()":"8456cb59","paused()":"5c975abb","renounceRole(bytes32,address)":"36568abe","revokeRole(bytes32,address)":"d547741f","supportsInterface(bytes4)":"01ffc9a7","unpause()":"3f4ba83a","updateLocation(uint256,string)":"4ec0c9e9","updateStage(uint256,uint8)":"f405c96b"}}}}}