{"contracts/SupplyChain.sol":{"SupplyChain":{"abi":[{"inputs":[{"internalType":"address","name":"productNFTAddress","type":"address"}],"stateMutability":"nonpayable","type":"constructor"},{"anonymous":false,"inputs":[{"indexed":true,"internalType":"bytes32","name":"batchId","type":"bytes32"},{"indexed":false,"internalType":"uint256[]","name":"productIds","type":"uint256[]"}],"name":"BatchCreated","type":"event"},{"anonymous":false,"inputs":[{"indexed":true,"internalType":"bytes32","name":"batchId","type":"bytes32"},{"indexed":true,"internalType":"address","name":"sender","type":"address"},{"indexed":true,"internalType":"address","name":"receiver","type":"address"}],"name":"BatchShipmentCreated","type":"event"},{"anonymous":false,"inputs":[{"indexed":true,"internalType":"bytes32","name":"batchId","type":"bytes32"},{"indexed":false,"internalType":"enum SupplyChain.Stage","name":"newStage","type":"uint8"}],"name":"BatchStageUpdated","type":"event"},{"anonymous":false,"inputs":[{"indexed":true,"internalType":"uint256","name":"productId","type":"uint256"},{"indexed":true,"internalType":"address","name":"beneficiary","type":"address"},{"indexed":false,"internalType":"uint256","name":"amount","type":"uint256"}],"name":"EscrowClaimed","type":"event"},{"anonymous":false,"inputs":[{"indexed":true,"internalType":"uint256","name":"productId","type":"uint256"},{"indexed":false,"internalType":"string","name":"newLocation","type":"string"}],"name":"LocationUpdated","type":"event"},{"anonymous":false,"inputs":[{"indexed":false,"internalType":"address","name":"account","type":"address"}],"name":"Paused","type":"event"},{"anonymous":false,"inputs":[{"indexed":true,"internalType":"uint256","name":"productId","type":"uint256"},{"indexed":true,"internalType":"address","name":"payer","type":"address"},{"indexed":false,"internalType":"uint256","name":"amount","type":"uint256"}],"name":"PaymentReceived","type":"event"},{"anonymous":false,"inputs":[{"indexed":true,"internalType":"uint256","name":"productId","type":"uint256"},{"indexed":true,"internalType":"address","name":"receiver","type":"address"},{"indexed":false,"internalType":"uint256","name":"amount","type":"uint256"}],"name":"PaymentRefunded","type":"event"},{"anonymous":false,"inputs":[{"indexed":true,"internalType":"uint256","name":"productId","type":"uint256"},{"indexed":true,"internalType":"address","name":"beneficiary","type":"address"},{"indexed":false,"internalType":"uint256","name":"amount","type":"uint256"}],"name":"PaymentReleased","type":"event"},{"anonymous":false,"inputs":[{"indexed":true,"internalType":"uint256","name":"productId","type":"uint256"},{"indexed":true,"internalType":"address","name":"seller","type":"address"},{"indexed":false,"internalType":"string","name":"name","type":"string"},{"indexed":false,"internalType":"uint256","name":"price","type":"uint256"}],"name":"ProductCreated","type":"event"},{"anonymous":false,"inputs":[{"indexed":true,"internalType":"uint256","name":"productId","type":"uint256"},{"indexed":true,"internalType":"address","name":"recalledBy","type":"address"},{"indexed":false,"internalType":"string","name":"reason","type":"string"}],"name":"ProductRecalled","type":"event"},{"anonymous":false,"inputs":[{"indexed":true,"internalType":"uint256","name":"productId","type":"uint256"},{"indexed":true,"internalType":"address","name":"resolvedBy","type":"address"}],"name":"RecallResolved","type":"event"},{"anonymous":false,"inputs":[{"indexed":true,"internalType":"uint256","name":"productId","type":"uint256"},{"indexed":true,"internalType":"address","name":"approvedBy","type":"address"}],"name":"ReturnApproved","type":"event"},{"anonymous":false,"inputs":[{"indexed":true,"internalType":"uint256","name":"productId","type":"uint256"},{"indexed":true,"internalType":"address","name":"rejectedBy","type":"address"}],"name":"ReturnRejected","type":"event"},{"anonymous":false,"inputs":[{"indexed":true,"internalType":"uint256","name":"productId","type":"uint256"},{"indexed":true,"internalType":"address","name":"requestedBy","type":"address"},{"indexed":false,"internalType":"string","name":"reason","type":"string"}],"name":"ReturnRequested","type":"event"},{"anonymous":false,"inputs":[{"indexed":true,"internalType":"bytes32","name":"role","type":"bytes32"},{"indexed":true,"internalType":"bytes32","name":"previousAdminRole","type":"bytes32"},{"indexed":true,"internalType":"bytes32","name":"newAdminRole","type":"bytes32"}],"name":"RoleAdminChanged","type":"event"},{"anonymous":false,"inputs":[{"indexed":true,"internalType":"bytes32","name":"role","type":"bytes32"},{"indexed":true,"internalType":"address","name":"account","type":"address"},{"indexed":true,"internalType":"address","name":"sender","type":"address"}],"name":"RoleGranted","type":"event"},{"anonymous":false,"inputs":[{"indexed":true,"internalType":"bytes32","name":"role","type":"bytes32"},{"indexed":true,"internalType":"address","name":"account","type":"address"},{"indexed":true,"internalType":"address","name":"sender","type":"address"}],"name":"RoleRevoked","type":"event"},{"anonymous":false,"inputs":[{"indexed":true,"internalType":"uint256","name":"productId","type":"uint256"},{"indexed":true,"internalType":"address","name":"sender","type":"address"},{"indexed":true,"internalType":"address","name":"receiver","type":"address"}],"name":"ShipmentCreated","type":"event"},{"anonymous":false,"inputs":[{"indexed":true,"internalType":"uint256","name":"productId","type":"uint256"},{"indexed":false,"internalType":"enum SupplyChain.Stage","name":"newStage","type":"uint8"}],"name":"StageUpdated","type":"event"},{"anonymous":false,"inputs":[{"indexed":false,"internalType":"address","name":"account","type":"address"}],"name":"Unpaused","type":"event"},{"inputs":[],"name":"DEFAULT_ADMIN_ROLE","outputs":[{"internalType":"bytes32","name":"","type":"bytes32"}],"stateMutability":"view","type":"function"},{"inputs":[],"name":"RETAILER_ROLE","outputs":[{"internalType":"bytes32","name":"","type":"bytes32"}],"stateMutability":"view","type":"function"},{"inputs":[{"internalType":"uint256","name":"productId","type":"uint256"}],"name":"approveReturn","outputs":[],"stateMutability":"nonpayable","type":"function"},{"inputs":[{"internalType":"uint256","name":"productId","type":"uint256"}],"name":"claimPayment","outputs":[],"stateMutability":"nonpayable","type":"function"},{"inputs":[{"internalType":"bytes32","name":"batchId","type":"bytes32"},{"internalType":"address","name":"receiver","type":"address"},{"internalType":"string","name":"location","type":"string"}],"name":"createBatchShipment","outputs":[],"stateMutability":"nonpayable","type":"function"},{"inputs":[{"internalType":"string","name":"name","type":"string"},{"internalType":"string","name":"seller","type":"string"},{"internalType":"uint256","name":"","type":"uint256"},{"internalType":"string","name":"tokenURI","type":"string"},{"internalType":"uint256","name":"sellingPrice","type":"uint256"}],"name":"createProduct","outputs":[{"internalType":"uint256","name":"","type":"uint256"}],"stateMutability":"nonpayable","type":"function"},{"inputs":[{"internalType":"string[]","name":"names","type":"string[]"},{"internalType":"string","name":"seller","type":"string"},{"internalType":"uint256[]","name":"prices","type":"uint256[]"},{"internalType":"string[]","name":"tokenURIs","type":"string[]"},{"internalType":"uint256[]","name":"sellingPrices","type":"uint256[]"}],"name":"createProductBatch","outputs":[{"internalType":"bytes32","name":"","type":"bytes32"},{"internalType":"uint256[]","name":"","type":"uint256[]"}],"stateMutability":"nonpayable","type":"function"},{"inputs":[{"internalType":"uint256","name":"productId","type":"uint256"},{"internalType":"address","name":"receiver","type":"address"},{"internalType":"string","name":"location","type":"string"}],"name":"createShipment","outputs":[],"stateMutability":"nonpayable","type":"function"},{"inputs":[{"internalType":"uint256","name":"","type":"uint256"}],"name":"escrowBalances","outputs":[{"internalType":"uint256","name":"","type":"uint256"}],"stateMutability":"view","type":"function"},{"inputs":[{"internalType":"uint256","name":"","type":"uint256"}],"name":"escrowBeneficiary","outputs":[{"internalType":"address","name":"","type":"address"}],"stateMutability":"view","type":"function"},{"inputs":[],"name":"escrowTimeout","outputs":[{"internalType":"uint256","name":"","type":"uint256"}],"stateMutability":"view","type":"function"},{"inputs":[{"internalType":"bytes32","name":"batchId","type":"bytes32"}],"name":"getBatchProducts","outputs":[{"internalType":"uint256[]","name":"","type":"uint256[]"}],"stateMutability":"view","type":"function"},{"inputs":[{"internalType":"uint256","name":"productId","type":"uint256"}],"name":"getCurrentShipment","outputs":[{"internalType":"address","name":"sender","type":"address"},{"internalType":"address","name":"receiver","type":"address"},{"internalType":"enum SupplyChain.Stage","name":"stage","type":"uint8"},{"internalType":"uint256","name":"timestamp","type":"uint256"},{"internalType":"string","name":"location","type":"string"}],"stateMutability":"view","type":"function"},{"inputs":[{"internalType":"uint256","name":"productId","type":"uint256"}],"name":"getProductPrice","outputs":[{"internalType":"uint256","name":"","type":"uint256"}],"stateMutability":"view","type":"function"},{"inputs":[{"internalType":"uint256","name":"productId","type":"uint256"}],"name":"getReturnRequest","outputs":[{"components":[{"internalType":"address","name":"requestedBy","type":"address"},{"internalType":"string","name":"reason","type":"string"},{"internalType":"uint256","name":"timestamp","type":"uint256"},{"internalType":"bool","name":"approved","type":"bool"},{"internalType":"bool","name":"isRecall","type":"bool"}],"internalType":"struct SupplyChain.ReturnRequest","name":"","type":"tuple"}],"stateMutability":"view","type":"function"},{"inputs":[{"internalType":"bytes32","name":"role","type":"bytes32"}],"name":"getRoleAdmin","outputs":[{"internalType":"bytes32","name":"","type":"bytes32"}],"stateMutability":"view","type":"function"},{"inputs":[{"internalType":"uint256","name":"productId","type":"uint256"}],"name":"getShipmentHistory","outputs":[{"components":[{"internalType":"uint256","name":"productId","type":"uint256"},{"internalType":"address","name":"sender","type":"address"},{"internalType":"address","name":"receiver","type":"address"},{"internalType":"enum SupplyChain.Stage","name":"currentStage","type":"uint8"},{"internalType":"uint256","name":"timestamp","type":"uint256"},{"internalType":"string","name":"location","type":"string"}],"internalType":"struct SupplyChain.Shipment[]","name":"","type":"tuple[]"}],"stateMutability":"view","type":"function"},{"inputs":[{"internalType":"bytes32","name":"role","type":"bytes32"},{"internalType":"address","name":"account","type":"address"}],"name":"grantRole","outputs":[],"stateMutability":"nonpayable","type":"function"},{"inputs":[{"internalType":"bytes32","name":"role","type":"bytes32"},{"internalType":"address","name":"account","type":"address"}],"name":"hasRole","outputs":[{"internalType":"bool","name":"","type":"bool"}],"stateMutability":"view","type":"function"},{"inputs":[{"internalType":"address","name":"account","type":"address"}],"name":"isRetailer","outputs":[{"internalType":"bool","name":"","type":"bool"}],"stateMutability":"view","type":"function"},{"inputs":[],"name":"pause","outputs":[],"stateMutability":"nonpayable","type":"function"},{"inputs":[],"name":"paused","outputs":[{"internalType":"bool","name":"","type":"bool"}],"stateMutability":"view","type":"function"},{"inputs":[{"internalType":"uint256","name":"productId","type":"uint256"}],"name":"payForProduct","outputs":[],"stateMutability":"payable","type":"function"},{"inputs":[{"internalType":"uint256","name":"","type":"uint256"}],"name":"productPrices","outputs":[{"internalType":"uint256","name":"","type":"uint256"}],"stateMutability":"view","type":"function"},{"inputs":[{"internalType":"uint256[]","name":"productIds","type":"uint256[]"},{"internalType":"string","name":"reason","type":"string"}],"name":"recallProducts","outputs":[],"stateMutability":"nonpayable","type":"function"},{"inputs":[{"internalType":"uint256","name":"productId","type":"uint256"}],"name":"refundPayment","outputs":[],"stateMutability":"nonpayable","type":"function"},{"inputs":[{"internalType":"uint256","name":"productId","type":"uint256"}],"name":"rejectReturn","outputs":[],"stateMutability":"nonpayable","type":"function"},{"inputs":[{"internalType":"uint256","name":"productId","type":"uint256"}],"name":"releasePayment","outputs":[],"stateMutability":"nonpayable","type":"function"},{"inputs":[{"internalType":"bytes32","name":"role","type":"bytes32"},{"internalType":"address","name":"account","type":"address"}],"name":"renounceRole","outputs":[],"stateMutability":"nonpayable","type":"function"},{"inputs":[{"internalType":"uint256","name":"productId","type":"uint256"},{"internalType":"string","name":"reason","type":"string"}],"name":"requestReturn","outputs":[],"stateMutability":"nonpayable","type":"function"},{"inputs":[{"internalType":"uint256","name":"productId","type":"uint256"}],"name":"resolveRecall","outputs":[],"stateMutability":"nonpayable","type":"function"},{"inputs":[{"internalType":"uint256","name":"","type":"uint256"}],"name":"returnRequests","outputs":[{"internalType":"address","name":"requestedBy","type":"address"},{"internalType":"string","name":"reason","type":"string"},{"internalType":"uint256","name":"timestamp","type":"uint256"},{"internalType":"bool","name":"approved","type":"bool"},{"internalType":"bool","name":"isRecall","type":"bool"}],"stateMutability":"view","type":"function"},{"inputs":[{"internalType":"bytes32","name":"role","type":"bytes32"},{"internalType":"address","name":"account","type":"address"}],"name":"revokeRole","outputs":[],"stateMutability":"nonpayable","type":"function"},{"inputs":[{"internalType":"bytes4","name":"interfaceId","type":"bytes4"}],"name":"supportsInterface","outputs":[{"internalType":"bool","name":"","type":"bool"}],"stateMutability":"view","type":"function"},{"inputs":[],"name":"unpause","outputs":[],"stateMutability":"nonpayable","type":"function"},{"inputs":[{"internalType":"bytes32","name":"batchId","type":"bytes32"},{"internalType":"enum SupplyChain.Stage","name":"newStage","type":"uint8"}],"name":"updateBatchStage","outputs":[],"stateMutability":"nonpayable","type":"function"},{"inputs":[{"internalType":"uint256","name":"productId","type":"uint256"},{"internalType":"string","name":"newLocation","type":"string"}],"name":"updateLocation","outputs":[],"stateMutability":"nonpayable","type":"function"},{"inputs":[{"internalType":"uint256","name":"productId","type":"uint256"},{"internalType":"enum SupplyChain.Stage","name":"newStage","type":"uint8"}],"name":"updateStage","outputs":[],"stateMutability":"nonpayable","type":"function"},{"stateMutability":"payable","type":"receive"}],"evm":{"bytecode":{"linkReferences":{},"object":"608060405262093a806006553480156200001857600080fd5b5060405162003ef938038062003ef98339810160408190526200003b9162000127565b6001805460ff19168155600255600780546001600160a01b0319166001600160a01b0383161790556200007060003362000077565b5062000159565b62000083828262000087565b5050565b6000828152602081815260408083206001600160a01b038516845290915290205460ff1662000083576000828152602081815260408083206001600160a01b03851684529091529020805460ff19166001179055620000e33390565b6001600160a01b0316816001600160a01b0316837f2f8788117e7eff1d82e926ec794901d17c78024a50270940304540a733656f0d60405160405180910390a45050565b6000602082840312156200013a57600080fd5b81516001600160a01b03811681146200015257600080fd5b9392505050565b613d9080620001696000396000f3fe6080604052600436106102295760003560e01c806388685cd911610123578063c4811a4d116100ab578063e21dd3fc1161006f578063e21dd3fc14610736578063e7bf7dfc14610756578063f405c96b14610783578063f63813f4146107a3578063f8a904b1146107c357600080fd5b8063c4811a4d14610692578063c63fdcc7146106c3578063ce90ceff146106e3578063d420aa2714610703578063d547741f1461071657600080fd5b80639837d0da116100f25780639837d0da146105f0578063a217fddf1461061d578063ab6b81c614610632578063b22f875b14610652578063beed83111461067257600080fd5b806388685cd91461056257806391d148541461058257806391e98e8e146105a257806394719ea0146105c257600080fd5b80634a22f370116101b1578063605c6d6311610175578063605c6d63146104bd578063631c6ffe146104d357806368d2e1831461050057806381491e68146105205780638456cb591461054d57600080fd5b80634a22f370146103f75780634ec0c9e9146104455780635a3c88ea146104655780635c975abb146104855780635da09b881461049d57600080fd5b806336568abe116101f857806336568abe1461033757806338eb6a19146103575780633f4ba83a1461038457806343ebf45a1461039957806347788bbe146103c657600080fd5b806301ffc9a7146102805780632115e7bf146102b5578063248a9ca3146102e55780632f2ff15d1461031557600080fd5b3661027b5760405162461bcd60e51b815260206004820152601c60248201527f446972656374207061796d656e7473206e6f742061636365707465640000000060448201526064015b60405180910390fd5b600080fd5b34801561028c57600080fd5b506102a061029b36600461316a565b6107e3565b60405190151581526020015b60405180910390f35b3480156102c157600080fd5b506102d7600080516020613d3b83398151915281565b6040519081526020016102ac565b3480156102f157600080fd5b506102d7610300366004613194565b60009081526020819052604090206001015490565b34801561032157600080fd5b506103356103303660046131c2565b61081a565b005b34801561034357600080fd5b506103356103523660046131c2565b610844565b34801561036357600080fd5b506102d7610372366004613194565b60036020526000908152604090205481565b34801561039057600080fd5b506103356108c2565b3480156103a557600080fd5b506102d76103b4366004613194565b60046020526000908152604090205481565b3480156103d257600080fd5b506103e66103e1366004613194565b6108d8565b6040516102ac959493929190613242565b34801561040357600080fd5b5061042d610412366004613194565b6005602052600090815260409020546001600160a01b031681565b6040516001600160a01b0390911681526020016102ac565b34801561045157600080fd5b5061033561046036600461333c565b6109a0565b34801561047157600080fd5b50610335610480366004613194565b610ac2565b34801561049157600080fd5b5060015460ff166102a0565b3480156104a957600080fd5b506102a06104b8366004613383565b610cdd565b3480156104c957600080fd5b506102d760065481565b3480156104df57600080fd5b506104f36104ee366004613194565b610cf7565b6040516102ac91906133d8565b34801561050c57600080fd5b5061033561051b36600461333c565b610e67565b34801561052c57600080fd5b5061054061053b366004613194565b6110a0565b6040516102ac91906134c9565b34801561055957600080fd5b5061033561112e565b34801561056e57600080fd5b5061033561057d366004613194565b611141565b34801561058e57600080fd5b506102a061059d3660046131c2565b6113aa565b3480156105ae57600080fd5b506102d76105bd3660046134dc565b6113d3565b3480156105ce57600080fd5b506105e26105dd366004613685565b6116a1565b6040516102ac929190613757565b3480156105fc57600080fd5b5061061061060b366004613194565b6118a3565b6040516102ac9190613778565b34801561062957600080fd5b506102d7600081565b34801561063e57600080fd5b5061033561064d3660046137d4565b6119bd565b34801561065e57600080fd5b5061033561066d366004613841565b611ace565b34801561067e57600080fd5b5061033561068d36600461386d565b611bd0565b34801561069e57600080fd5b506106b26106ad366004613194565b611dac565b6040516102ac9594939291906138c7565b3480156106cf57600080fd5b506103356106de366004613194565b611eef565b3480156106ef57600080fd5b506103356106fe3660046137d4565b612152565b610335610711366004613194565b61236e565b34801561072257600080fd5b506103356107313660046131c2565b6125ae565b34801561074257600080fd5b50610335610751366004613194565b6125d3565b34801561076257600080fd5b506102d7610771366004613194565b60009081526003602052604090205490565b34801561078f57600080fd5b5061033561079e366004613841565b6126f1565b3480156107af57600080fd5b506103356107be366004613194565b612820565b3480156107cf57600080fd5b506103356107de366004613194565b612a48565b60006001600160e01b03198216637965db0b60e01b148061081457506301ffc9a760e01b6001600160e01b03198316145b92915050565b60008281526020819052604090206001015461083581612c5e565b61083f8383612c68565b505050565b6001600160a01b03811633146108b45760405162461bcd60e51b815260206004820152602f60248201527f416363657373436f6e74726f6c3a2063616e206f6e6c792072656e6f756e636560448201526e103937b632b9903337b91039b2b63360891b6064820152608401610272565b6108be8282612cec565b5050565b60006108cd81612c5e565b6108d5612d51565b50565b600860205260009081526040902080546001820180546001600160a01b0390921692916109049061390f565b80601f01602080910402602001604051908101604052809291908181526020018280546109309061390f565b801561097d5780601f106109525761010080835404028352916020019161097d565b820191906000526020600020905b81548152906001019060200180831161096057829003601f168201915b50505050600283015460039093015491929160ff80821692506101009091041685565b6109a8612da3565b6109b36000336113aa565b806109d157506109d1600080516020613d3b833981519152336113aa565b610a0c5760405162461bcd60e51b815260206004820152600c60248201526b155b985d5d1a1bdc9a5e995960a21b6044820152606401610272565b6000828152600a6020526040902054610a375760405162461bcd60e51b815260040161027290613949565b6000828152600a60205260409020805482908290610a579060019061398a565b81548110610a6757610a6761399d565b90600052602060002090600502016004019081610a849190613a01565b50827f65edc79681b60dda53ce45315418e2d9637c424299784fc6aaf815fa304dda2b83604051610ab59190613ac1565b60405180910390a2505050565b610aca612da3565b610ad56000336113aa565b80610af35750610af3600080516020613d3b833981519152336113aa565b610b525760405162461bcd60e51b815260206004820152602a60248201527f4f6e6c792061646d696e206f722072657461696c65722063616e20617070726f60448201526976652072657475726e7360b01b6064820152608401610272565b600081815260086020526040902060020154610ba65760405162461bcd60e51b8152602060048201526013602482015272139bc81c995d1d5c9b881c995c5d595cdd1959606a1b6044820152606401610272565b60008181526008602052604090206003015460ff1615610c025760405162461bcd60e51b815260206004820152601760248201527614995d1d5c9b88185b1c9958591e48185c1c1c9bdd9959604a1b6044820152606401610272565b600081815260086020526040902060030154610100900460ff1615610c695760405162461bcd60e51b815260206004820152601f60248201527f43616e6e6f7420617070726f766520726563616c6c2061732072657475726e006044820152606401610272565b6000818152600860205260409020600301805460ff19166001179055610c908160076126f1565b60008181526004602052604090205415610cad57610cad81612820565b604051339082907ff50d06d0dc1d2792c4f628e23688b3db80dc503ab9ae502ce15ee2aac3cc122090600090a350565b6000610814600080516020613d3b833981519152836113aa565b6060600a6000838152602001908152602001600020805480602002602001604051908101604052809291908181526020016000905b82821015610e5c5760008481526020908190206040805160c081018252600586029092018054835260018101546001600160a01b039081169484019490945260028101549384169183019190915290916060830190600160a01b900460ff166008811115610d9c57610d9c6133a0565b6008811115610dad57610dad6133a0565b815260200160038201548152602001600482018054610dcb9061390f565b80601f0160208091040260200160405190810160405280929190818152602001828054610df79061390f565b8015610e445780601f10610e1957610100808354040283529160200191610e44565b820191906000526020600020905b815481529060010190602001808311610e2757829003601f168201915b50505050508152505081526020019060010190610d2c565b505050509050919050565b610e6f612da3565b6007546040516331a9108f60e11b81526004810184905233916001600160a01b031690636352211e90602401602060405180830381865afa158015610eb8573d6000803e3d6000fd5b505050506040513d601f19601f82011682018060405250810190610edc9190613ad4565b6001600160a01b031614610f265760405162461bcd60e51b81526020600482015260116024820152702737ba10383937b23ab1ba1037bbb732b960791b6044820152606401610272565b60008281526008602052604090206002015415610f855760405162461bcd60e51b815260206004820152601860248201527f52657475726e20616c72656164792072657175657374656400000000000000006044820152606401610272565b600082815260086020526040902060030154610100900460ff1615610fbc5760405162461bcd60e51b815260040161027290613af1565b6040805160a08101825233815260208082018481524283850152600060608401819052608084018190528681526008909252929020815181546001600160a01b0319166001600160a01b03909116178155915190919060018201906110219082613a01565b50604082810151600283015560608301516003909201805460809094015115156101000261ff00199315159390931661ffff19909416939093179190911790915551339083907f5d761c0d0cda7585f3c7d01a6eaf194153f473909bf0cb8cf5c2138b296aa94d90611094908590613ac1565b60405180910390a35050565b6000818152600960205260409020546060906110ce5760405162461bcd60e51b815260040161027290613b28565b6000828152600960209081526040918290208054835181840281018401909452808452909183018282801561112257602002820191906000526020600020905b81548152602001906001019080831161110e575b50505050509050919050565b600061113981612c5e565b6108d5612deb565b611149612e26565b611151612da3565b6007546040516331a9108f60e11b8152600481018390526001600160a01b0390911690636352211e90602401602060405180830381865afa15801561119a573d6000803e3d6000fd5b505050506040513d601f19601f820116820180604052508101906111be9190613ad4565b6001600160a01b0316336001600160a01b03161461122d5760405162461bcd60e51b815260206004820152602660248201527f4f6e6c792070726f64756374206f776e65722063616e2072656c656173652070604482015265185e5b595b9d60d21b6064820152608401610272565b6000818152600460205260409020546112585760405162461bcd60e51b815260040161027290613b56565b600081815260086020526040902060030154610100900460ff161561128f5760405162461bcd60e51b815260040161027290613af1565b60008181526004602090815260408083208054600590935281842080549185905580546001600160a01b0319169055905191926001600160a01b0390911691829084908381818185875af1925050503d806000811461130a576040519150601f19603f3d011682016040523d82523d6000602084013e61130f565b606091505b50509050806113595760405162461bcd60e51b815260206004820152601660248201527514185e5b595b9d081c995b19585cd94819985a5b195960521b6044820152606401610272565b816001600160a01b0316847f21d71db5be59bb9fa133895586b7404307dd33fb93b16db09dc6f1d9d7d231b08560405161139591815260200190565b60405180910390a35050506108d56001600255565b6000918252602082815260408084206001600160a01b0393909316845291905290205460ff1690565b60006113dd612da3565b6113f5600080516020613d3b833981519152336113aa565b61143b5760405162461bcd60e51b815260206004820152601760248201527621b0b63632b91036bab9ba103132903932ba30b4b632b960491b6044820152606401610272565b6000821161148b5760405162461bcd60e51b815260206004820152601c60248201527f5072696365206d7573742062652067726561746572207468616e2030000000006044820152606401610272565b600754604051631e7054b360e01b81526000916001600160a01b031690631e7054b3906114c29033908b908b908a90600401613b84565b6020604051808303816000875af11580156114e1573d6000803e3d6000fd5b505050506040513d601f19601f820116820180604052508101906115059190613bce565b6040805160c0810182528281523360208083018281528385019283526000606085018181524260808701528651808801885260168152754d616e75666163747572696e6720466163696c69747960501b8186015260a0870152878252600384528682208b9055600a8452958120805460018082018355918352939091208551600590940201928355905190820180546001600160a01b039283166001600160a01b031991821617909155925160028301805491909216938116841782559451959650929485949193909290916001600160a81b03191617600160a01b8360088111156115f3576115f36133a0565b02179055506080820151600382015560a082015160048201906116169082613a01565b505050336001600160a01b0316827f5f25c590b5c7f62ed4186adca32d3118caef07e5020c6cc8268d4136df2cfef88a87604051611655929190613be7565b60405180910390a3817fe07678ebda9ff268c2c8531bb0ebfc488d9fa7067d919572337a14a72c3aa0b7600560405161168e9190613c09565b60405180910390a2509695505050505050565b600060606116ad612da3565b845187511480156116bf575083518551145b80156116cc575082518451145b6117185760405162461bcd60e51b815260206004820152601860248201527f4172726179206c656e67746873206d757374206d6174636800000000000000006044820152606401610272565b6000875167ffffffffffffffff81111561173457611734613285565b60405190808252806020026020018201604052801561175d578160200160208202803683370190505b50905060005b885181101561180c576117dd8982815181106117815761178161399d565b60200260200101518989848151811061179c5761179c61399d565b60200260200101518985815181106117b6576117b661399d565b60200260200101518986815181106117d0576117d061399d565b60200260200101516113d3565b8282815181106117ef576117ef61399d565b60209081029190910101528061180481613c17565b915050611763565b50600042338360405160200161182493929190613c30565b60408051601f19818403018152918152815160209283012060008181526009845291909120845191935061185d929091908501906130d4565b50807fb94dd5ec3e09f1c2092e97679ba8e9b03e4231443dae894a614aeecff4c2e1728360405161188e91906134c9565b60405180910390a29890975095505050505050565b6040805160a08101825260008082526060602083018190529282018190529181018290526080810191909152600082815260086020908152604091829020825160a0810190935280546001600160a01b03168352600181018054919284019161190b9061390f565b80601f01602080910402602001604051908101604052809291908181526020018280546119379061390f565b80156119845780601f1061195957610100808354040283529160200191611984565b820191906000526020600020905b81548152906001019060200180831161196757829003601f168201915b50505091835250506002820154602082015260039091015460ff8082161515604084015261010090910416151560609091015292915050565b6119c5612da3565b6000838152600960205260409020546119f05760405162461bcd60e51b815260040161027290613b28565b600083815260096020908152604080832080548251818502810185019093528083529192909190830182828015611a4657602002820191906000526020600020905b815481526020019060010190808311611a32575b5050505050905060005b8151811015611a8f57611a7d828281518110611a6e57611a6e61399d565b60200260200101518585612152565b80611a8781613c17565b915050611a50565b506040516001600160a01b03841690339086907f1b76c1632322ebca66be0f95368216a67b8dcfaa70055274f8d8600dae0b782790600090a450505050565b611ad6612da3565b600082815260096020526040902054611b015760405162461bcd60e51b815260040161027290613b28565b600082815260096020908152604080832080548251818502810185019093528083529192909190830182828015611b5757602002820191906000526020600020905b815481526020019060010190808311611b43575b5050505050905060005b8151811015611b9f57611b8d828281518110611b7f57611b7f61399d565b6020026020010151846126f1565b80611b9781613c17565b915050611b61565b50827fa2876b6dbb89e1f7f1b4763df4991e8a101b6a2a4b3dea2604a6892fef6a330f83604051610ab59190613c09565b611bd8612da3565b611bf0600080516020613d3b833981519152336113aa565b80611c015750611c016000336113aa565b611c605760405162461bcd60e51b815260206004820152602a60248201527f4f6e6c792061646d696e206f722072657461696c65722063616e20726563616c6044820152696c2070726f647563747360b01b6064820152608401610272565b60005b825181101561083f576000838281518110611c8057611c8061399d565b6020908102919091018101516040805160a0810182523381528084018781524282840152600160608301819052608083018190526000858152600890965292909420815181546001600160a01b0319166001600160a01b039091161781559351929450929190820190611cf39082613a01565b506040820151600282015560608201516003909101805460809093015115156101000261ff00199215159290921661ffff1990931692909217179055611d3a8160086126f1565b60008181526004602052604090205415611d5757611d5781612820565b336001600160a01b0316817fc836b58f1d2b092e3af919aae9a0607bb0c4fe552aa37d0d7ed26885488b739985604051611d919190613ac1565b60405180910390a35080611da481613c17565b915050611c63565b6000818152600a6020526040812054819081908190606090611de05760405162461bcd60e51b815260040161027290613949565b6000868152600a602052604081208054611dfc9060019061398a565b81548110611e0c57611e0c61399d565b600091825260209091206005909102016001810154600282015460038301546004840180549495506001600160a01b039384169493831693600160a01b90930460ff16928190611e5b9061390f565b80601f0160208091040260200160405190810160405280929190818152602001828054611e879061390f565b8015611ed45780601f10611ea957610100808354040283529160200191611ed4565b820191906000526020600020905b815481529060010190602001808311611eb757829003601f168201915b50505050509050955095509550955095505091939590929450565b611ef7612e26565b611eff612da3565b600081815260046020526040902054611f2a5760405162461bcd60e51b815260040161027290613b56565b6000818152600560205260409020546001600160a01b03163314611f865760405162461bcd60e51b81526020600482015260136024820152724e6f74207468652062656e656669636961727960681b6044820152606401610272565b600081815260086020526040902060030154610100900460ff1615611fbd5760405162461bcd60e51b815260040161027290613af1565b6000818152600a60205260409020805415801590612018575060065481548290611fe99060019061398a565b81548110611ff957611ff961399d565b9060005260206000209060050201600301546120159190613c84565b42115b6120645760405162461bcd60e51b815260206004820152601a60248201527f457363726f772074696d656f7574206e6f7420726561636865640000000000006044820152606401610272565b6000828152600460209081526040808320805490849055600590925280832080546001600160a01b031916905551909190339083908381818185875af1925050503d80600081146120d1576040519150601f19603f3d011682016040523d82523d6000602084013e6120d6565b606091505b505090508061211e5760405162461bcd60e51b815260206004820152601460248201527310db185a5b481c185e5b595b9d0819985a5b195960621b6044820152606401610272565b604051828152339085907f264b84d6bb26c82423cfcb91b4220efaba80e38b8ea7a87b58a80fcaf095691290602001611395565b61215a612da3565b612172600080516020613d3b833981519152336113aa565b6121b85760405162461bcd60e51b815260206004820152601760248201527621b0b63632b91036bab9ba103132903932ba30b4b632b960491b6044820152606401610272565b600083815260086020526040902060030154610100900460ff16156121ef5760405162461bcd60e51b815260040161027290613af1565b60008381526008602052604090206003015460ff16156122515760405162461bcd60e51b815260206004820152601a60248201527f50726f64756374206861732070656e64696e672072657475726e0000000000006044820152606401610272565b6040805160c0810182528481523360208083019182526001600160a01b0386811684860190815260036060860190815242608087015260a0860188905260008a8152600a8552968720805460018082018355918952949097208651600590950201938455935195830180549683166001600160a01b031997881617905551600283018054919092169581168617825592519394859492936001600160a81b03191617600160a01b83600881111561230a5761230a6133a0565b02179055506080820151600382015560a0820151600482019061232d9082613a01565b50506040516001600160a01b0385169150339086907ffe0fd664b79935c18377297309c92f6abe60ccaa6d43bd30327c508c7fda080e90600090a450505050565b612376612e26565b61237e612da3565b6000818152600360205260409020546123d05760405162461bcd60e51b815260206004820152601460248201527350726f64756374206e6f7420666f722073616c6560601b6044820152606401610272565b600081815260036020526040902054341461242d5760405162461bcd60e51b815260206004820152601860248201527f496e636f7272656374207061796d656e7420616d6f756e7400000000000000006044820152606401610272565b600081815260046020526040902054156124895760405162461bcd60e51b815260206004820152601960248201527f5061796d656e7420616c726561647920696e20657363726f77000000000000006044820152606401610272565b600081815260086020526040902060030154610100900460ff16156124c05760405162461bcd60e51b815260040161027290613af1565b60008181526004602081905260409182902034905560075491516331a9108f60e11b81529081018390526001600160a01b0390911690636352211e90602401602060405180830381865afa15801561251c573d6000803e3d6000fd5b505050506040513d601f19601f820116820180604052508101906125409190613ad4565b60008281526005602090815260409182902080546001600160a01b0319166001600160a01b03949094169390931790925551348152339183917f4d3f6d68b42e1e039d6e7323b2b8bdeaf223f453882ce17a5984f4d6aabbdb33910160405180910390a36108d56001600255565b6000828152602081905260409020600101546125c981612c5e565b61083f8383612cec565b6125db612da3565b60008181526008602052604090206002015461262c5760405162461bcd60e51b815260206004820152601060248201526f4e6f20726563616c6c2065786973747360801b6044820152606401610272565b600081815260086020526040902060030154610100900460ff166126815760405162461bcd60e51b815260206004820152600c60248201526b139bdd0818481c9958d85b1b60a21b6044820152606401610272565b600081815260086020526040812080546001600160a01b0319168155906126ab600183018261311f565b506000600282018190556003909101805461ffff19169055604051339183917f1458428970ee0c7c9ff91684136dccae5f5c6e35ebef6a18188d864876816d1f9190a350565b6126f9612da3565b6127046000336113aa565b806127225750612722600080516020613d3b833981519152336113aa565b61275d5760405162461bcd60e51b815260206004820152600c60248201526b155b985d5d1a1bdc9a5e995960a21b6044820152606401610272565b6000828152600a60205260409020546127885760405162461bcd60e51b815260040161027290613949565b6000828152600a602052604090208054829082906127a89060019061398a565b815481106127b8576127b861399d565b60009182526020909120600260059092020101805460ff60a01b1916600160a01b8360088111156127eb576127eb6133a0565b0217905550827fe07678ebda9ff268c2c8531bb0ebfc488d9fa7067d919572337a14a72c3aa0b783604051610ab59190613c09565b612828612e26565b612830612da3565b61283b6000336113aa565b8061285c57506000818152600560205260409020546001600160a01b031633145b6128a85760405162461bcd60e51b815260206004820152601860248201527f4e6f7420617574686f72697a656420746f20726566756e6400000000000000006044820152606401610272565b6000818152600460205260409020546128d35760405162461bcd60e51b815260040161027290613b56565b60008181526004602081905260408083205460075491516331a9108f60e11b815292830185905292916001600160a01b0390911690636352211e90602401602060405180830381865afa15801561292e573d6000803e3d6000fd5b505050506040513d601f19601f820116820180604052508101906129529190613ad4565b6000848152600460209081526040808320839055600590915280822080546001600160a01b031916905551919250906001600160a01b0383169084908381818185875af1925050503d80600081146129c6576040519150601f19603f3d011682016040523d82523d6000602084013e6129cb565b606091505b5050905080612a0c5760405162461bcd60e51b815260206004820152600d60248201526c1499599d5b990819985a5b1959609a1b6044820152606401610272565b816001600160a01b0316847fe89ec1881a76229445bcd179b8c4b24f9edc7ddd87d07fb3b19c67ae9c6e27cc8560405161139591815260200190565b612a50612da3565b612a5b6000336113aa565b80612a795750612a79600080516020613d3b833981519152336113aa565b612ad75760405162461bcd60e51b815260206004820152602960248201527f4f6e6c792061646d696e206f722072657461696c65722063616e2072656a6563604482015268742072657475726e7360b81b6064820152608401610272565b600081815260086020526040902060020154612b2b5760405162461bcd60e51b8152602060048201526013602482015272139bc81c995d1d5c9b881c995c5d595cdd1959606a1b6044820152606401610272565b60008181526008602052604090206003015460ff1615612b875760405162461bcd60e51b815260206004820152601760248201527614995d1d5c9b88185b1c9958591e48185c1c1c9bdd9959604a1b6044820152606401610272565b600081815260086020526040902060030154610100900460ff1615612bee5760405162461bcd60e51b815260206004820152601e60248201527f43616e6e6f742072656a65637420726563616c6c2061732072657475726e00006044820152606401610272565b600081815260086020526040812080546001600160a01b031916815590612c18600183018261311f565b506000600282018190556003909101805461ffff19169055604051339183917f791610e49233e39b9d3a534a749b0cac20d66c0e35e68fa0cbc907569a20d20c9190a350565b6108d58133612e7d565b612c7282826113aa565b6108be576000828152602081815260408083206001600160a01b03851684529091529020805460ff19166001179055612ca83390565b6001600160a01b0316816001600160a01b0316837f2f8788117e7eff1d82e926ec794901d17c78024a50270940304540a733656f0d60405160405180910390a45050565b612cf682826113aa565b156108be576000828152602081815260408083206001600160a01b0385168085529252808320805460ff1916905551339285917ff6391f5c32d9c69d2a47ea670b442974b53935d1edc7fd64eb21e047a839171b9190a45050565b612d59612ed6565b6001805460ff191690557f5db9ee0a495bf2e6ff9c91a7834c1ba4fdd244a5e8aa4e537bd38aeae4b073aa335b6040516001600160a01b03909116815260200160405180910390a1565b60015460ff1615612de95760405162461bcd60e51b815260206004820152601060248201526f14185d5cd8589b194e881c185d5cd95960821b6044820152606401610272565b565b612df3612da3565b6001805460ff1916811790557f62e78cea01bee320cd4e420270b5ea74000d11b0c9f74754ebdbfc544b05a25833612d86565b6002805403612e775760405162461bcd60e51b815260206004820152601f60248201527f5265656e7472616e637947756172643a207265656e7472616e742063616c6c006044820152606401610272565b60028055565b612e8782826113aa565b6108be57612e9481612f1f565b612e9f836020612f31565b604051602001612eb0929190613c97565b60408051601f198184030181529082905262461bcd60e51b825261027291600401613ac1565b60015460ff16612de95760405162461bcd60e51b815260206004820152601460248201527314185d5cd8589b194e881b9bdd081c185d5cd95960621b6044820152606401610272565b60606108146001600160a01b03831660145b60606000612f40836002613d0c565b612f4b906002613c84565b67ffffffffffffffff811115612f6357612f63613285565b6040519080825280601f01601f191660200182016040528015612f8d576020820181803683370190505b509050600360fc1b81600081518110612fa857612fa861399d565b60200101906001600160f81b031916908160001a905350600f60fb1b81600181518110612fd757612fd761399d565b60200101906001600160f81b031916908160001a9053506000612ffb846002613d0c565b613006906001613c84565b90505b600181111561307e576f181899199a1a9b1b9c1cb0b131b232b360811b85600f166010811061303a5761303a61399d565b1a60f81b8282815181106130505761305061399d565b60200101906001600160f81b031916908160001a90535060049490941c9361307781613d23565b9050613009565b5083156130cd5760405162461bcd60e51b815260206004820181905260248201527f537472696e67733a20686578206c656e67746820696e73756666696369656e746044820152606401610272565b9392505050565b82805482825590600052602060002090810192821561310f579160200282015b8281111561310f5782518255916020019190600101906130f4565b5061311b929150613155565b5090565b50805461312b9061390f565b6000825580601f1061313b575050565b601f0160209004906000526020600020908101906108d591905b5b8082111561311b5760008155600101613156565b60006020828403121561317c57600080fd5b81356001600160e01b0319811681146130cd57600080fd5b6000602082840312156131a657600080fd5b5035919050565b6001600160a01b03811681146108d557600080fd5b600080604083850312156131d557600080fd5b8235915060208301356131e7816131ad565b809150509250929050565b60005b8381101561320d5781810151838201526020016131f5565b50506000910152565b6000815180845261322e8160208601602086016131f2565b601f01601f19169290920160200192915050565b6001600160a01b038616815260a06020820181905260009061326690830187613216565b6040830195909552509115156060830152151560809091015292915050565b634e487b7160e01b600052604160045260246000fd5b604051601f8201601f1916810167ffffffffffffffff811182821017156132c4576132c4613285565b604052919050565b600082601f8301126132dd57600080fd5b813567ffffffffffffffff8111156132f7576132f7613285565b61330a601f8201601f191660200161329b565b81815284602083860101111561331f57600080fd5b816020850160208301376000918101602001919091529392505050565b6000806040838503121561334f57600080fd5b82359150602083013567ffffffffffffffff81111561336d57600080fd5b613379858286016132cc565b9150509250929050565b60006020828403121561339557600080fd5b81356130cd816131ad565b634e487b7160e01b600052602160045260246000fd5b600981106133d457634e487b7160e01b600052602160045260246000fd5b9052565b60006020808301818452808551808352604092508286019150828160051b87010184880160005b8381101561348057888303603f19018552815180518452878101516001600160a01b039081168986015287820151168785015260608082015160c09190613448828801826133b6565b50506080828101519086015260a09182015191850181905261346c81860183613216565b9689019694505050908601906001016133ff565b509098975050505050505050565b600081518084526020808501945080840160005b838110156134be578151875295820195908201906001016134a2565b509495945050505050565b6020815260006130cd602083018461348e565b600080600080600060a086880312156134f457600080fd5b853567ffffffffffffffff8082111561350c57600080fd5b61351889838a016132cc565b9650602088013591508082111561352e57600080fd5b61353a89838a016132cc565b955060408801359450606088013591508082111561355757600080fd5b50613564888289016132cc565b95989497509295608001359392505050565b600067ffffffffffffffff82111561359057613590613285565b5060051b60200190565b600082601f8301126135ab57600080fd5b813560206135c06135bb83613576565b61329b565b82815260059290921b840181019181810190868411156135df57600080fd5b8286015b8481101561361f57803567ffffffffffffffff8111156136035760008081fd5b6136118986838b01016132cc565b8452509183019183016135e3565b509695505050505050565b600082601f83011261363b57600080fd5b8135602061364b6135bb83613576565b82815260059290921b8401810191818101908684111561366a57600080fd5b8286015b8481101561361f578035835291830191830161366e565b600080600080600060a0868803121561369d57600080fd5b853567ffffffffffffffff808211156136b557600080fd5b6136c189838a0161359a565b965060208801359150808211156136d757600080fd5b6136e389838a016132cc565b955060408801359150808211156136f957600080fd5b61370589838a0161362a565b9450606088013591508082111561371b57600080fd5b61372789838a0161359a565b9350608088013591508082111561373d57600080fd5b5061374a8882890161362a565b9150509295509295909350565b828152604060208201526000613770604083018461348e565b949350505050565b602080825282516001600160a01b03168282015282015160a060408301526000906137a660c0840182613216565b9050604084015160608401526060840151151560808401526080840151151560a08401528091505092915050565b6000806000606084860312156137e957600080fd5b8335925060208401356137fb816131ad565b9150604084013567ffffffffffffffff81111561381757600080fd5b613823868287016132cc565b9150509250925092565b80356009811061383c57600080fd5b919050565b6000806040838503121561385457600080fd5b823591506138646020840161382d565b90509250929050565b6000806040838503121561388057600080fd5b823567ffffffffffffffff8082111561389857600080fd5b6138a48683870161362a565b935060208501359150808211156138ba57600080fd5b50613379858286016132cc565b6001600160a01b0386811682528516602082015260006138ea60408301866133b6565b83606083015260a0608083015261390460a0830184613216565b979650505050505050565b600181811c9082168061392357607f821691505b60208210810361394357634e487b7160e01b600052602260045260246000fd5b50919050565b602080825260119082015270139bc81cda1a5c1b595b9d08199bdd5b99607a1b604082015260600190565b634e487b7160e01b600052601160045260246000fd5b8181038181111561081457610814613974565b634e487b7160e01b600052603260045260246000fd5b601f82111561083f57600081815260208120601f850160051c810160208610156139da5750805b601f850160051c820191505b818110156139f9578281556001016139e6565b505050505050565b815167ffffffffffffffff811115613a1b57613a1b613285565b613a2f81613a29845461390f565b846139b3565b602080601f831160018114613a645760008415613a4c5750858301515b600019600386901b1c1916600185901b1785556139f9565b600085815260208120601f198616915b82811015613a9357888601518255948401946001909101908401613a74565b5085821015613ab15787850151600019600388901b60f8161c191681555b5050505050600190811b01905550565b6020815260006130cd6020830184613216565b600060208284031215613ae657600080fd5b81516130cd816131ad565b60208082526019908201527f50726f6475637420686173206265656e20726563616c6c656400000000000000604082015260600190565b60208082526014908201527310985d18da08191bd95cc81b9bdd08195e1a5cdd60621b604082015260600190565b6020808252601490820152734e6f207061796d656e7420696e20657363726f7760601b604082015260600190565b6001600160a01b0385168152608060208201819052600090613ba890830186613216565b8281036040840152613bba8186613216565b905082810360608401526139048185613216565b600060208284031215613be057600080fd5b5051919050565b604081526000613bfa6040830185613216565b90508260208301529392505050565b6020810161081482846133b6565b600060018201613c2957613c29613974565b5060010190565b838152600060206bffffffffffffffffffffffff198560601b168184015260348301845182860160005b82811015613c7657815184529284019290840190600101613c5a565b509198975050505050505050565b8082018082111561081457610814613974565b7f416363657373436f6e74726f6c3a206163636f756e7420000000000000000000815260008351613ccf8160178501602088016131f2565b7001034b99036b4b9b9b4b733903937b6329607d1b6017918401918201528351613d008160288401602088016131f2565b01602801949350505050565b808202811582820484141761081457610814613974565b600081613d3257613d32613974565b50600019019056fe2a5f906c256a5d799494fcd066e1f6c077689de1cdb65052a1624de4bace99bfa264697066735822122007b9e78ad71ab51802fefe42475215e4b0ee72f51e20fc67377a6a4a90b3671d64736f6c63430008130033","opcodes":"PUSH1 0x80 PUSH1 0x40 MSTORE PUSH3 0x93A80 PUSH1 0x6 SSTORE CALLVALUE DUP1 ISZERO PUSH3 0x18 JUMPI PUSH1 0x0 DUP1 REVERT JUMPDEST POP PUSH1 0x40 MLOAD PUSH3 0x3EF9 CODESIZE SUB DUP1 PUSH3 0x3EF9 DUP4 CODECOPY DUP2 ADD PUSH1 0x40 DUP2 SWAP1 MSTORE PUSH3 0x3B SWAP2 PUSH3 0x127 JUMP JUMPDEST PUSH1 0x1 DUP1 SLOAD PUSH1 0xFF NOT AND DUP2 SSTORE PUSH1 0x2 SSTORE PUSH1 0x7 DUP1 SLOAD PUSH1 0x1 PUSH1 0x1 PUSH1 0xA0 SHL SUB NOT AND PUSH1 0x1 PUSH1 0x1 PUSH1 0xA0 SHL SUB DUP4 AND OR SWAP1 SSTORE PUSH3 0x70 PUSH1 0x0 CALLER PUSH3 0x77 JUMP JUMPDEST POP PUSH3 0x159 JUMP JUMPDEST PUSH3 0x83 DUP3 DUP3 PUSH3 0x87 JUMP JUMPDEST POP POP JUMP JUMPDEST PUSH1 0x0 DUP3 DUP2 MSTORE PUSH1 0x20 DUP2 DUP2 MSTORE PUSH1 0x40 DUP1 DUP4 KECCAK256 PUSH1 0x1 PUSH1 0x1 PUSH1 0xA0 SHL SUB DUP6 AND DUP5 MSTORE SWAP1 SWAP2 MSTORE SWAP1 KECCAK256 SLOAD PUSH1 0xFF AND PUSH3 0x83 JUMPI PUSH1 0x0 DUP3 DUP2 MSTORE PUSH1 0x20 DUP2 DUP2 MSTORE PUSH1 0x40 DUP1 DUP4 KECCAK256 PUSH1 0x1 PUSH1 0x1 PUSH1 0xA0 SHL SUB DUP6 AND DUP5 MSTORE SWAP1 SWAP2 MSTORE SWAP1 KECCAK256 DUP1 SLOAD PUSH1 0xFF NOT AND PUSH1 0x1 OR SWAP1 SSTORE PUSH3 0xE3 CALLER SWAP1 JUMP JUMPDEST PUSH1 0x1 PUSH1 0x1 PUSH1 0xA0 SHL SUB AND DUP2 PUSH1 0x1 PUSH1 0x1 PUSH1 0xA0 SHL SUB AND DUP4 PUSH32 0x2F8788117E7EFF1D82E926EC794901D17C78024A50270940304540A733656F0D PUSH1 0x40 MLOAD PUSH1 0x40 MLOAD DUP1 SWAP2 SUB SWAP1 LOG4 POP POP JUMP JUMPDEST PUSH1 0x0 PUSH1 0x20 DUP3 DUP5 SUB SLT ISZERO PUSH3 0x13A JUMPI PUSH1 0x0 DUP1 REVERT JUMPDEST DUP2 MLOAD PUSH1 0x1 PUSH1 0x1 PUSH1 0xA0 SHL SUB DUP2 AND DUP2 EQ PUSH3 0x152 JUMPI PUSH1 0x0 DUP1 REVERT JUMPDEST SWAP4 SWAP3 POP POP POP JUMP JUMPDEST PUSH2 0x3D90 DUP1 PUSH3 0x169 PUSH1 0x0 CODECOPY PUSH1 0x0 RETURN INVALID PUSH1 0x80 PUSH1 0x40 MSTORE PUSH1 0x4 CALLDATASIZE LT PUSH2 0x229 JUMPI PUSH1 0x0 CALLDATALOAD PUSH1 0xE0 SHR DUP1 PUSH4 0x88685CD9 GT PUSH2 0x123 JUMPI DUP1 PUSH4 0xC4811A4D GT PUSH2 0xAB JUMPI DUP1 PUSH4 0xE21DD3FC GT PUSH2 0x6F JUMPI DUP1 PUSH4 0xE21DD3FC EQ PUSH2 0x736 JUMPI DUP1 PUSH4 0xE7BF7DFC EQ PUSH2 0x756 JUMPI DUP1 PUSH4 0xF405C96B EQ PUSH2 0x783 JUMPI DUP1 PUSH4 0xF63813F4 EQ PUSH2 0x7A3 JUMPI DUP1 PUSH4 0xF8A904B1 EQ PUSH2 0x7C3 JUMPI PUSH1 0x0 DUP1 REVERT JUMPDEST DUP1 PUSH4 0xC4811A4D EQ PUSH2 0x692 JUMPI DUP1 PUSH4 0xC63FDCC7 EQ PUSH2 0x6C3 JUMPI DUP1 PUSH4 0xCE90CEFF EQ PUSH2 0x6E3 JUMPI DUP1 PUSH4 0xD420AA27 EQ PUSH2 0x703 JUMPI DUP1 PUSH4 0xD547741F EQ PUSH2 0x716 JUMPI PUSH1 0x0 DUP1 REVERT JUMPDEST DUP1 PUSH4 0x9837D0DA GT PUSH2 0xF2 JUMPI DUP1 PUSH4 0x9837D0DA EQ PUSH2 0x5F0 JUMPI DUP1 PUSH4 0xA217FDDF EQ PUSH2 0x61D JUMPI DUP1 PUSH4 0xAB6B81C6 EQ PUSH2 0x632 JUMPI DUP1 PUSH4 0xB22F875B EQ PUSH2 0x652 JUMPI DUP1 PUSH4 0xBEED8311 EQ PUSH2 0x672 JUMPI PUSH1 0x0 DUP1 REVERT JUMPDEST DUP1 PUSH4 0x88685CD9 EQ PUSH2 0x562 JUMPI DUP1 PUSH4 0x91D14854 EQ PUSH2 0x582 JUMPI DUP1 PUSH4 0x91E98E8E EQ PUSH2 0x5A2 JUMPI DUP1 PUSH4 0x94719EA0 EQ PUSH2 0x5C2 JUMPI PUSH1 0x0 DUP1 REVERT JUMPDEST DUP1 PUSH4 0x4A22F370 GT PUSH2 0x1B1 JUMPI DUP1 PUSH4 0x605C6D63 GT PUSH2 0x175 JUMPI DUP1 PUSH4 0x605C6D63 EQ PUSH2 0x4BD JUMPI DUP1 PUSH4 0x631C6FFE EQ PUSH2 0x4D3 JUMPI DUP1 PUSH4 0x68D2E183 EQ PUSH2 0x500 JUMPI DUP1 PUSH4 0x81491E68 EQ PUSH2 0x520 JUMPI DUP1 PUSH4 0x8456CB59 EQ PUSH2 0x54D JUMPI PUSH1 0x0 DUP1 REVERT JUMPDEST DUP1 PUSH4 0x4A22F370 EQ PUSH2 0x3F7 JUMPI DUP1 PUSH4 0x4EC0C9E9 EQ PUSH2 0x445 JUMPI DUP1 PUSH4 0x5A3C88EA EQ PUSH2 0x465 JUMPI DUP1 PUSH4 0x5C975ABB EQ PUSH2 0x485 JUMPI DUP1 PUSH4 0x5DA09B88 EQ PUSH2 0x49D JUMPI PUSH1 0x0 DUP1 REVERT JUMPDEST DUP1 PUSH4 0x36568ABE GT PUSH2 0x1F8 JUMPI DUP1 PUSH4 0x36568ABE EQ PUSH2 0x337 JUMPI DUP1 PUSH4 0x38EB6A19 EQ PUSH2 0x357 JUMPI DUP1 PUSH4 0x3F4BA83A EQ PUSH2 0x384 JUMPI DUP1 PUSH4 0x43EBF45A EQ PUSH2 0x399 JUMPI DUP1 PUSH4 0x47788BBE EQ PUSH2 0x3C6 JUMPI PUSH1 0x0 DUP1 REVERT JUMPDEST DUP1 PUSH4 0x1FFC9A7 EQ PUSH2 0x280 JUMPI DUP1 PUSH4 0x2115E7BF EQ PUSH2 0x2B5 JUMPI DUP1 PUSH4 0x248A9CA3 EQ PUSH2 0x2E5 JUMPI DUP1 PUSH4 0x2F2FF15D EQ PUSH2 0x315 JUMPI PUSH1 0x0 DUP1 REVERT JUMPDEST CALLDATASIZE PUSH2 0x27B JUMPI PUSH1 0x40 MLOAD PUSH3 0x461BCD PUSH1 0xE5 SHL DUP2 MSTORE PUSH1 0x20 PUSH1 0x4 DUP3 ADD MSTORE PUSH1 0x1C PUSH1 0x24 DUP3 ADD MSTORE PUSH32 0x446972656374207061796D656E7473206E6F7420616363657074656400000000 PUSH1 0x44 DUP3 ADD MSTORE PUSH1 0x64 ADD JUMPDEST PUSH1 0x40 MLOAD DUP1 SWAP2 SUB SWAP1 REVERT JUMPDEST PUSH1 0x0 DUP1 REVERT JUMPDEST CALLVALUE DUP1 ISZERO PUSH2 0x28C JUMPI PUSH1 0x0 DUP1 REVERT JUMPDEST POP PUSH2 0x2A0 PUSH2 0x29B CALLDATASIZE PUSH1 0x4 PUSH2 0x316A JUMP JUMPDEST PUSH2 0x7E3 JUMP JUMPDEST PUSH1 0x40 MLOAD SWAP1 ISZERO ISZERO DUP2 MSTORE PUSH1 0x20 ADD JUMPDEST PUSH1 0x40 MLOAD DUP1 SWAP2 SUB SWAP1 RETURN JUMPDEST CALLVALUE DUP1 ISZERO PUSH2 0x2C1 JUMPI PUSH1 0x0 DUP1 REVERT JUMPDEST POP PUSH2 0x2D7 PUSH1 0x0 DUP1 MLOAD PUSH1 0x20 PUSH2 0x3D3B DUP4 CODECOPY DUP2 MLOAD SWAP2 MSTORE DUP2 JUMP JUMPDEST PUSH1 0x40 MLOAD SWAP1 DUP2 MSTORE PUSH1 0x20 ADD PUSH2 0x2AC JUMP JUMPDEST CALLVALUE DUP1 ISZERO PUSH2 0x2F1 JUMPI PUSH1 0x0 DUP1 REVERT JUMPDEST POP PUSH2 0x2D7 PUSH2 0x300 CALLDATASIZE PUSH1 0x4 PUSH2 0x3194 JUMP JUMPDEST PUSH1 0x0 SWAP1 DUP2 MSTORE PUSH1 0x20 DUP2 SWAP1 MSTORE PUSH1 0x40 SWAP1 KECCAK256 PUSH1 0x1 ADD SLOAD SWAP1 JUMP JUMPDEST CALLVALUE DUP1 ISZERO PUSH2 0x321 JUMPI PUSH1 0x0 DUP1 REVERT JUMPDEST POP PUSH2 0x335 PUSH2 0x330 CALLDATASIZE PUSH1 0x4 PUSH2 0x31C2 JUMP JUMPDEST PUSH2 0x81A JUMP JUMPDEST STOP JUMPDEST CALLVALUE DUP1 ISZERO PUSH2 0x343 JUMPI PUSH1 0x0 DUP1 REVERT JUMPDEST POP PUSH2 0x335 PUSH2 0x352 CALLDATASIZE PUSH1 0x4 PUSH2 0x31C2 JUMP JUMPDEST PUSH2 0x844 JUMP JUMPDEST CALLVALUE DUP1 ISZERO PUSH2 0x363 JUMPI PUSH1 0x0 DUP1 REVERT JUMPDEST POP PUSH2 0x2D7 PUSH2 0x372 CALLDATASIZE PUSH1 0x4 PUSH2 0x3194 JUMP JUMPDEST PUSH1 0x3 PUSH1 0x20 MSTORE PUSH1 0x0 SWAP1 DUP2 MSTORE PUSH1 0x40 SWAP1 KECCAK256 SLOAD DUP2 JUMP JUMPDEST CALLVALUE DUP1 ISZERO PUSH2 0x390 JUMPI PUSH1 0x0 DUP1 REVERT JUMPDEST POP PUSH2 0x335 PUSH2 0x8C2 JUMP JUMPDEST CALLVALUE DUP1 ISZERO PUSH2 0x3A5 JUMPI PUSH1 0x0 DUP1 REVERT JUMPDEST POP PUSH2 0x2D7 PUSH2 0x3B4 CALLDATASIZE PUSH1 0x4 PUSH2 0x3194 JUMP JUMPDEST PUSH1 0x4 PUSH1 0x20 MSTORE PUSH1 0x0 SWAP1 DUP2 MSTORE PUSH1 0x40 SWAP1 KECCAK256 SLOAD DUP2 JUMP JUMPDEST CALLVALUE DUP1 ISZERO PUSH2 0x3D2 JUMPI PUSH1 0x0 DUP1 REVERT JUMPDEST POP PUSH2 0x3E6 PUSH2 0x3E1 CALLDATASIZE PUSH1 0x4 PUSH2 0x3194 JUMP JUMPDEST PUSH2 0x8D8 JUMP JUMPDEST PUSH1 0x40 MLOAD PUSH2 0x2AC SWAP6 SWAP5 SWAP4 SWAP3 SWAP2 SWAP1 PUSH2 0x3242 JUMP JUMPDEST CALLVALUE DUP1 ISZERO PUSH2 0x403 JUMPI PUSH1 0x0 DUP1 REVERT JUMPDEST POP PUSH2 0x42D PUSH2 0x412 CALLDATASIZE PUSH1 0x4 PUSH2 0x3194 JUMP JUMPDEST PUSH1 0x5 PUSH1 0x20 MSTORE PUSH1 0x0 SWAP1 DUP2 MSTORE PUSH1 0x40 SWAP1 KECCAK256 SLOAD PUSH1 0x1 PUSH1 0x1 PUSH1 0xA0 SHL SUB AND DUP2 JUMP JUMPDEST PUSH1 0x40 MLOAD PUSH1 0x1 PUSH1 0x1 PUSH1 0xA0 SHL SUB SWAP1 SWAP2 AND DUP2 MSTORE PUSH1 0x20 ADD PUSH2 0x2AC JUMP JUMPDEST CALLVALUE DUP1 ISZERO PUSH2 0x451 JUMPI PUSH1 0x0 DUP1 REVERT JUMPDEST POP PUSH2 0x335 PUSH2 0x460 CALLDATASIZE PUSH1 0x4 PUSH2 0x333C JUMP JUMPDEST PUSH2 0x9A0 JUMP JUMPDEST CALLVALUE DUP1 ISZERO PUSH2 0x471 JUMPI PUSH1 0x0 DUP1 REVERT JUMPDEST POP PUSH2 0x335 PUSH2 0x480 CALLDATASIZE PUSH1 0x4 PUSH2 0x3194 JUMP JUMPDEST PUSH2 0xAC2 JUMP JUMPDEST CALLVALUE DUP1 ISZERO PUSH2 0x491 JUMPI PUSH1 0x0 DUP1 REVERT JUMPDEST POP PUSH1 0x1 SLOAD PUSH1 0xFF AND PUSH2 0x2A0 JUMP JUMPDEST CALLVALUE DUP1 ISZERO PUSH2 0x4A9 JUMPI PUSH1 0x0 DUP1 REVERT JUMPDEST POP PUSH2 0x2A0 PUSH2 0x4B8 CALLDATASIZE PUSH1 0x4 PUSH2 0x3383 JUMP JUMPDEST PUSH2 0xCDD JUMP JUMPDEST CALLVALUE DUP1 ISZERO PUSH2 0x4C9 JUMPI PUSH1 0x0 DUP1 REVERT JUMPDEST POP PUSH2 0x2D7 PUSH1 0x6 SLOAD DUP2 JUMP JUMPDEST CALLVALUE DUP1 ISZERO PUSH2 0x4DF JUMPI PUSH1 0x0 DUP1 REVERT JUMPDEST POP PUSH2 0x4F3 PUSH2 0x4EE CALLDATASIZE PUSH1 0x4 PUSH2 0x3194 JUMP JUMPDEST PUSH2 0xCF7 JUMP JUMPDEST PUSH1 0x40 MLOAD PUSH2 0x2AC SWAP2 SWAP1 PUSH2 0x33D8 JUMP JUMPDEST CALLVALUE DUP1 ISZERO PUSH2 0x50C JUMPI PUSH1 0x0 DUP1 REVERT JUMPDEST POP PUSH2 0x335 PUSH2 0x51B CALLDATASIZE PUSH1 0x4 PUSH2 0x333C JUMP JUMPDEST PUSH2 0xE67 JUMP JUMPDEST CALLVALUE DUP1 ISZERO PUSH2 0x52C JUMPI PUSH1 0x0 DUP1 REVERT JUMPDEST POP PUSH2 0x540 PUSH2 0x53B CALLDATASIZE PUSH1 0x4 PUSH2 0x3194 JUMP JUMPDEST PUSH2 0x10A0 JUMP JUMPDEST PUSH1 0x40 MLOAD PUSH2 0x2AC SWAP2 SWAP1 PUSH2 0x34C9 JUMP JUMPDEST CALLVALUE DUP1 ISZERO PUSH2 0x559 JUMPI PUSH1 0x0 DUP1 REVERT JUMPDEST POP PUSH2 0x335 PUSH2 0x112E JUMP JUMPDEST CALLVALUE DUP1 ISZERO PUSH2 0x56E JUMPI PUSH1 0x0 DUP1 REVERT JUMPDEST POP PUSH2 0x335 PUSH2 0x57D CALLDATASIZE PUSH1 0x4 PUSH2 0x3194 JUMP JUMPDEST PUSH2 0x1141 JUMP JUMPDEST CALLVALUE DUP1 ISZERO PUSH2 0x58E JUMPI PUSH1 0x0 DUP1 REVERT JUMPDEST POP PUSH2 0x2A0 PUSH2 0x59D CALLDATASIZE PUSH1 0x4 PUSH2 0x31C2 JUMP JUMPDEST PUSH2 0x13AA JUMP JUMPDEST CALLVALUE DUP1 ISZERO PUSH2 0x5AE JUMPI PUSH1 0x0 DUP1 REVERT JUMPDEST POP PUSH2 0x2D7 PUSH2 0x5BD CALLDATASIZE PUSH1 0x4 PUSH2 0x34DC JUMP JUMPDEST PUSH2 0x13D3 JUMP JUMPDEST CALLVALUE DUP1 ISZERO PUSH2 0x5CE JUMPI PUSH1 0x0 DUP1 REVERT JUMPDEST POP PUSH2 0x5E2 PUSH2 0x5DD CALLDATASIZE PUSH1 0x4 PUSH2 0x3685 JUMP JUMPDEST PUSH2 0x16A1 JUMP JUMPDEST PUSH1 0x40 MLOAD PUSH2 0x2AC SWAP3 SWAP2 SWAP1 PUSH2 0x3757 JUMP JUMPDEST CALLVALUE DUP1 ISZERO PUSH2 0x5FC JUMPI PUSH1 0x0 DUP1 REVERT JUMPDEST POP PUSH2 0x610 PUSH2 0x60B CALLDATASIZE PUSH1 0x4 PUSH2 0x3194 JUMP JUMPDEST PUSH2 0x18A3 JUMP JUMPDEST PUSH1 0x40 MLOAD PUSH2 0x2AC SWAP2 SWAP1 PUSH2 0x3778 JUMP JUMPDEST CALLVALUE DUP1 ISZERO PUSH2 0x629 JUMPI PUSH1 0x0 DUP1 REVERT JUMPDEST POP PUSH2 0x2D7 PUSH1 0x0 DUP2 JUMP JUMPDEST CALLVALUE DUP1 ISZERO PUSH2 0x63E JUMPI PUSH1 0x0 DUP1 REVERT JUMPDEST POP PUSH2 0x335 PUSH2 0x64D CALLDATASIZE PUSH1 0x4 PUSH2 0x37D4 JUMP JUMPDEST PUSH2 0x19BD JUMP JUMPDEST CALLVALUE DUP1 ISZERO PUSH2 0x65E JUMPI PUSH1 0x0 DUP1 REVERT JUMPDEST POP PUSH2 0x335 PUSH2 0x66D CALLDATASIZE PUSH1 0x4 PUSH2 0x3841 JUMP JUMPDEST PUSH2 0x1ACE JUMP JUMPDEST CALLVALUE DUP1 ISZERO PUSH2 0x67E JUMPI PUSH1 0x0 DUP1 REVERT JUMPDEST POP PUSH2 0x335 PUSH2 0x68D CALLDATASIZE PUSH1 0x4 PUSH2 0x386D JUMP JUMPDEST PUSH2 0x1BD0 JUMP JUMPDEST CALLVALUE DUP1 ISZERO PUSH2 0x69E JUMPI PUSH1 0x0 DUP1 REVERT JUMPDEST POP PUSH2 0x6B2 PUSH2 0x6AD CALLDATASIZE PUSH1 0x4 PUSH2 0x3194 JUMP JUMPDEST PUSH2 0x1DAC JUMP JUMPDEST PUSH1 0x40 MLOAD PUSH2 0x2AC SWAP6 SWAP5 SWAP4 SWAP3 SWAP2 SWAP1 PUSH2 0x38C7 JUMP JUMPDEST CALLVALUE DUP1 ISZERO PUSH2 0x6CF JUMPI PUSH1 0x0 DUP1 REVERT JUMPDEST POP PUSH2 0x335 PUSH2 0x6DE CALLDATASIZE PUSH1 0x4 PUSH2 0x3194 JUMP JUMPDEST PUSH2 0x1EEF JUMP JUMPDEST CALLVALUE DUP1 ISZERO PUSH2 0x6EF JUMPI PUSH1 0x0 DUP1 REVERT JUMPDEST POP PUSH2 0x335 PUSH2 0x6FE CALLDATASIZE PUSH1 0x4 PUSH2 0x37D4 JUMP JUMPDEST PUSH2 0x2152 JUMP JUMPDEST PUSH2 0x335 PUSH2 0x711 CALLDATASIZE PUSH1 0x4 PUSH2 0x3194 JUMP JUMPDEST PUSH2 0x236E JUMP JUMPDEST CALLVALUE DUP1 ISZERO PUSH2 0x722 JUMPI PUSH1 0x0 DUP1 REVERT JUMPDEST POP PUSH2 0x335 PUSH2 0x731 CALLDATASIZE PUSH1 0x4 PUSH2 0x31C2 JUMP JUMPDEST PUSH2 0x25AE JUMP JUMPDEST CALLVALUE DUP1 ISZERO PUSH2 0x742 JUMPI PUSH1 0x0 DUP1 REVERT JUMPDEST POP PUSH2 0x335 PUSH2 0x751 CALLDATASIZE PUSH1 0x4 PUSH2 0x3194 JUMP JUMPDEST PUSH2 0x25D3 JUMP JUMPDEST CALLVALUE DUP1 ISZERO PUSH2 0x762 JUMPI PUSH1 0x0 DUP1 REVERT JUMPDEST POP PUSH2 0x2D7 PUSH2 0x771 CALLDATASIZE PUSH1 0x4 PUSH2 0x3194 JUMP JUMPDEST PUSH1 0x0 SWAP1 DUP2 MSTORE PUSH1 0x3 PUSH1 0x20 MSTORE PUSH1 0x40 SWAP1 KECCAK256 SLOAD SWAP1 JUMP JUMPDEST CALLVALUE DUP1 ISZERO PUSH2 0x78F JUMPI PUSH1 0x0 DUP1 REVERT JUMPDEST POP PUSH2 0x335 PUSH2 0x79E CALLDATASIZE PUSH1 0x4 PUSH2 0x3841 JUMP JUMPDEST PUSH2 0x26F1 JUMP JUMPDEST CALLVALUE DUP1 ISZERO PUSH2 0x7AF JUMPI PUSH1 0x0 DUP1 REVERT JUMPDEST POP PUSH2 0x335 PUSH2 0x7BE CALLDATASIZE PUSH1 0x4 PUSH2 0x3194 JUMP JUMPDEST PUSH2 0x2820 JUMP JUMPDEST CALLVALUE DUP1 ISZERO PUSH2 0x7CF JUMPI PUSH1 0x0 DUP1 REVERT JUMPDEST POP PUSH2 0x335 PUSH2 0x7DE CALLDATASIZE PUSH1 0x4 PUSH2 0x3194 JUMP JUMPDEST PUSH2 0x2A48 JUMP JUMPDEST PUSH1 0x0 PUSH1 0x1 PUSH1 0x1 PUSH1 0xE0 SHL SUB NOT DUP3 AND PUSH4 0x7965DB0B PUSH1 0xE0 SHL EQ DUP1 PUSH2 0x814 JUMPI POP PUSH4 0x1FFC9A7 PUSH1 0xE0 SHL PUSH1 0x1 PUSH1 0x1 PUSH1 0xE0 SHL SUB NOT DUP4 AND EQ JUMPDEST SWAP3 SWAP2 POP POP JUMP JUMPDEST PUSH1 0x0 DUP3 DUP2 MSTORE PUSH1 0x20 DUP2 SWAP1 MSTORE PUSH1 0x40 SWAP1 KECCAK256 PUSH1 0x1 ADD SLOAD PUSH2 0x835 DUP2 PUSH2 0x2C5E JUMP JUMPDEST PUSH2 0x83F DUP4 DUP4 PUSH2 0x2C68 JUMP JUMPDEST POP POP POP JUMP JUMPDEST PUSH1 0x1 PUSH1 0x1 PUSH1 0xA0 SHL SUB DUP2 AND CALLER EQ PUSH2 0x8B4 JUMPI PUSH1 0x40 MLOAD PUSH3 0x461BCD PUSH1 0xE5 SHL DUP2 MSTORE PUSH1 0x20 PUSH1 0x4 DUP3 ADD MSTORE PUSH1 0x2F PUSH1 0x24 DUP3 ADD MSTORE PUSH32 0x416363657373436F6E74726F6C3A2063616E206F6E6C792072656E6F756E6365 PUSH1 0x44 DUP3 ADD MSTORE PUSH15 0x103937B632B9903337B91039B2B633 PUSH1 0x89 SHL PUSH1 0x64 DUP3 ADD MSTORE PUSH1 0x84 ADD PUSH2 0x272 JUMP JUMPDEST PUSH2 0x8BE DUP3 DUP3 PUSH2 0x2CEC JUMP JUMPDEST POP POP JUMP JUMPDEST PUSH1 0x0 PUSH2 0x8CD DUP2 PUSH2 0x2C5E JUMP JUMPDEST PUSH2 0x8D5 PUSH2 0x2D51 JUMP JUMPDEST POP JUMP JUMPDEST PUSH1 0x8 PUSH1 0x20 MSTORE PUSH1 0x0 SWAP1 DUP2 MSTORE PUSH1 0x40 SWAP1 KECCAK256 DUP1 SLOAD PUSH1 0x1 DUP3 ADD DUP1 SLOAD PUSH1 0x1 PUSH1 0x1 PUSH1 0xA0 SHL SUB SWAP1 SWAP3 AND SWAP3 SWAP2 PUSH2 0x904 SWAP1 PUSH2 0x390F JUMP JUMPDEST DUP1 PUSH1 0x1F ADD PUSH1 0x20 DUP1 SWAP2 DIV MUL PUSH1 0x20 ADD PUSH1 0x40 MLOAD SWAP1 DUP2 ADD PUSH1 0x40 MSTORE DUP1 SWAP3 SWAP2 SWAP1 DUP2 DUP2 MSTORE PUSH1 0x20 ADD DUP3 DUP1 SLOAD PUSH2 0x930 SWAP1 PUSH2 0x390F JUMP JUMPDEST DUP1 ISZERO PUSH2 0x97D JUMPI DUP1 PUSH1 0x1F LT PUSH2 0x952 JUMPI PUSH2 0x100 DUP1 DUP4 SLOAD DIV MUL DUP4 MSTORE SWAP2 PUSH1 0x20 ADD SWAP2 PUSH2 0x97D JUMP JUMPDEST DUP3 ADD SWAP2 SWAP1 PUSH1 0x0 MSTORE PUSH1 0x20 PUSH1 0x0 KECCAK256 SWAP1 JUMPDEST DUP2 SLOAD DUP2 MSTORE SWAP1 PUSH1 0x1 ADD SWAP1 PUSH1 0x20 ADD DUP1 DUP4 GT PUSH2 0x960 JUMPI DUP3 SWAP1 SUB PUSH1 0x1F AND DUP3 ADD SWAP2 JUMPDEST POP POP POP POP PUSH1 0x2 DUP4 ADD SLOAD PUSH1 0x3 SWAP1 SWAP4 ADD SLOAD SWAP2 SWAP3 SWAP2 PUSH1 0xFF DUP1 DUP3 AND SWAP3 POP PUSH2 0x100 SWAP1 SWAP2 DIV AND DUP6 JUMP JUMPDEST PUSH2 0x9A8 PUSH2 0x2DA3 JUMP JUMPDEST PUSH2 0x9B3 PUSH1 0x0 CALLER PUSH2 0x13AA JUMP JUMPDEST DUP1 PUSH2 0x9D1 JUMPI POP PUSH2 0x9D1 PUSH1 0x0 DUP1 MLOAD PUSH1 0x20 PUSH2 0x3D3B DUP4 CODECOPY DUP2 MLOAD SWAP2 MSTORE CALLER PUSH2 0x13AA JUMP JUMPDEST PUSH2 0xA0C JUMPI PUSH1 0x40 MLOAD PUSH3 0x461BCD PUSH1 0xE5 SHL DUP2 MSTORE PUSH1 0x20 PUSH1 0x4 DUP3 ADD MSTORE PUSH1 0xC PUSH1 0x24 DUP3 ADD MSTORE PUSH12 0x155B985D5D1A1BDC9A5E9959 PUSH1 0xA2 SHL PUSH1 0x44 DUP3 ADD MSTORE PUSH1 0x64 ADD PUSH2 0x272 JUMP JUMPDEST PUSH1 0x0 DUP3 DUP2 MSTORE PUSH1 0xA PUSH1 0x20 MSTORE PUSH1 0x40 SWAP1 KECCAK256 SLOAD PUSH2 0xA37 JUMPI PUSH1 0x40 MLOAD PUSH3 0x461BCD PUSH1 0xE5 SHL DUP2 MSTORE PUSH1 0x4 ADD PUSH2 0x272 SWAP1 PUSH2 0x3949 JUMP JUMPDEST PUSH1 0x0 DUP3 DUP2 MSTORE PUSH1 0xA PUSH1 0x20 MSTORE PUSH1 0x40 SWAP1 KECCAK256 DUP1 SLOAD DUP3 SWAP1 DUP3 SWAP1 PUSH2 0xA57 SWAP1 PUSH1 0x1 SWAP1 PUSH2 0x398A JUMP JUMPDEST DUP2 SLOAD DUP2 LT PUSH2 0xA67 JUMPI PUSH2 0xA67 PUSH2 0x399D JUMP JUMPDEST SWAP1 PUSH1 0x0 MSTORE PUSH1 0x20 PUSH1 0x0 KECCAK256 SWAP1 PUSH1 0x5 MUL ADD PUSH1 0x4 ADD SWAP1 DUP2 PUSH2 0xA84 SWAP2 SWAP1 PUSH2 0x3A01 JUMP JUMPDEST POP DUP3 PUSH32 0x65EDC79681B60DDA53CE45315418E2D9637C424299784FC6AAF815FA304DDA2B DUP4 PUSH1 0x40 MLOAD PUSH2 0xAB5 SWAP2 SWAP1 PUSH2 0x3AC1 JUMP JUMPDEST PUSH1 0x40 MLOAD DUP1 SWAP2 SUB SWAP1 LOG2 POP POP POP JUMP JUMPDEST PUSH2 0xACA PUSH2 0x2DA3 JUMP JUMPDEST PUSH2 0xAD5 PUSH1 0x0 CALLER PUSH2 0x13AA JUMP JUMPDEST DUP1 PUSH2 0xAF3 JUMPI POP PUSH2 0xAF3 PUSH1 0x0 DUP1 MLOAD PUSH1 0x20 PUSH2 0x3D3B DUP4 CODECOPY DUP2 MLOAD SWAP2 MSTORE CALLER PUSH2 0x13AA JUMP JUMPDEST PUSH2 0xB52 JUMPI PUSH1 0x40 MLOAD PUSH3 0x461BCD PUSH1 0xE5 SHL DUP2 MSTORE PUSH1 0x20 PUSH1 0x4 DUP3 ADD MSTORE PUSH1 0x2A PUSH1 0x24 DUP3 ADD MSTORE PUSH32 0x4F6E6C792061646D696E206F722072657461696C65722063616E20617070726F PUSH1 0x44 DUP3 ADD MSTORE PUSH10 0x76652072657475726E73 PUSH1 0xB0 SHL PUSH1 0x64 DUP3 ADD MSTORE PUSH1 0x84 ADD PUSH2 0x272 JUMP JUMPDEST PUSH1 0x0 DUP2 DUP2 MSTORE PUSH1 0x8 PUSH1 0x20 MSTORE PUSH1 0x40 SWAP1 KECCAK256 PUSH1 0x2 ADD SLOAD PUSH2 0xBA6 JUMPI PUSH1 0x40 MLOAD PUSH3 0x461BCD PUSH1 0xE5 SHL DUP2 MSTORE PUSH1 0x20 PUSH1 0x4 DUP3 ADD MSTORE PUSH1 0x13 PUSH1 0x24 DUP3 ADD MSTORE PUSH19 0x139BC81C995D1D5C9B881C995C5D595CDD1959 PUSH1 0x6A SHL PUSH1 0x44 DUP3 ADD MSTORE PUSH1 0x64 ADD PUSH2 0x272 JUMP JUMPDEST PUSH1 0x0 DUP2 DUP2 MSTORE PUSH1 0x8 PUSH1 0x20 MSTORE PUSH1 0x40 SWAP1 KECCAK256 PUSH1 0x3 ADD SLOAD PUSH1 0xFF AND ISZERO PUSH2 0xC02 JUMPI PUSH1 0x40 MLOAD PUSH3 0x461BCD PUSH1 0xE5 SHL DUP2 MSTORE PUSH1 0x20 PUSH1 0x4 DUP3 ADD MSTORE PUSH1 0x17 PUSH1 0x24 DUP3 ADD MSTORE PUSH23 0x14995D1D5C9B88185B1C9958591E48185C1C1C9BDD9959 PUSH1 0x4A SHL PUSH1 0x44 DUP3 ADD MSTORE PUSH1 0x64 ADD PUSH2 0x272 JUMP JUMPDEST PUSH1 0x0 DUP2 DUP2 MSTORE PUSH1 0x8 PUSH1 0x20 MSTORE PUSH1 0x40 SWAP1 KECCAK256 PUSH1 0x3 ADD SLOAD PUSH2 0x100 SWAP1 DIV PUSH1 0xFF AND ISZERO PUSH2 0xC69 JUMPI PUSH1 0x40 MLOAD PUSH3 0x461BCD PUSH1 0xE5 SHL DUP2 MSTORE PUSH1 0x20 PUSH1 0x4 DUP3 ADD MSTORE PUSH1 0x1F PUSH1 0x24 DUP3 ADD MSTORE PUSH32 0x43616E6E6F7420617070726F766520726563616C6C2061732072657475726E00 PUSH1 0x44 DUP3 ADD MSTORE PUSH1 0x64 ADD PUSH2 0x272 JUMP JUMPDEST PUSH1 0x0 DUP2 DUP2 MSTORE PUSH1 0x8 PUSH1 0x20 MSTORE PUSH1 0x40 SWAP1 KECCAK256 PUSH1 0x3 ADD DUP1 SLOAD PUSH1 0xFF NOT AND PUSH1 0x1 OR SWAP1 SSTORE PUSH2 0xC90 DUP2 PUSH1 0x7 PUSH2 0x26F1 JUMP JUMPDEST PUSH1 0x0 DUP2 DUP2 MSTORE PUSH1 0x4 PUSH1 0x20 MSTORE PUSH1 0x40 SWAP1 KECCAK256 SLOAD ISZERO PUSH2 0xCAD JUMPI PUSH2 0xCAD DUP2 PUSH2 0x2820 JUMP JUMPDEST PUSH1 0x40 MLOAD CALLER SWAP1 DUP3 SWAP1 PUSH32 0xF50D06D0DC1D2792C4F628E23688B3DB80DC503AB9AE502CE15EE2AAC3CC1220 SWAP1 PUSH1 0x0 SWAP1 LOG3 POP JUMP JUMPDEST PUSH1 0x0 PUSH2 0x814 PUSH1 0x0 DUP1 MLOAD PUSH1 0x20 PUSH2 0x3D3B DUP4 CODECOPY DUP2 MLOAD SWAP2 MSTORE DUP4 PUSH2 0x13AA JUMP JUMPDEST PUSH1 0x60 PUSH1 0xA PUSH1 0x0 DUP4 DUP2 MSTORE PUSH1 0x20 ADD SWAP1 DUP2 MSTORE PUSH1 0x20 ADD PUSH1 0x0 KECCAK256 DUP1 SLOAD DUP1 PUSH1 0x20 MUL PUSH1 0x20 ADD PUSH1 0x40 MLOAD SWAP1 DUP2 ADD PUSH1 0x40 MSTORE DUP1 SWAP3 SWAP2 SWAP1 DUP2 DUP2 MSTORE PUSH1 0x20 ADD PUSH1 0x0 SWAP1 JUMPDEST DUP3 DUP3 LT ISZERO PUSH2 0xE5C JUMPI PUSH1 0x0 DUP5 DUP2 MSTORE PUSH1 0x20 SWAP1 DUP2 SWAP1 KECCAK256 PUSH1 0x40 DUP1 MLOAD PUSH1 0xC0 DUP2 ADD DUP3 MSTORE PUSH1 0x5 DUP7 MUL SWAP1 SWAP3 ADD DUP1 SLOAD DUP4 MSTORE PUSH1 0x1 DUP2 ADD SLOAD PUSH1 0x1 PUSH1 0x1 PUSH1 0xA0 SHL SUB SWAP1 DUP2 AND SWAP5 DUP5 ADD SWAP5 SWAP1 SWAP5 MSTORE PUSH1 0x2 DUP2 ADD SLOAD SWAP4 DUP5 AND SWAP2 DUP4 ADD SWAP2 SWAP1 SWAP2 MSTORE SWAP1 SWAP2 PUSH1 0x60 DUP4 ADD SWAP1 PUSH1 0x1 PUSH1 0xA0 SHL SWAP1 DIV PUSH1 0xFF AND PUSH1 0x8 DUP2 GT ISZERO PUSH2 0xD9C JUMPI PUSH2 0xD9C PUSH2 0x33A0 JUMP JUMPDEST PUSH1 0x8 DUP2 GT ISZERO PUSH2 0xDAD JUMPI PUSH2 0xDAD PUSH2 0x33A0 JUMP JUMPDEST DUP2 MSTORE PUSH1 0x20 ADD PUSH1 0x3 DUP3 ADD SLOAD DUP2 MSTORE PUSH1 0x20 ADD PUSH1 0x4 DUP3 ADD DUP1 SLOAD PUSH2 0xDCB SWAP1 PUSH2 0x390F JUMP JUMPDEST DUP1 PUSH1 0x1F ADD PUSH1 0x20 DUP1 SWAP2 DIV MUL PUSH1 0x20 ADD PUSH1 0x40 MLOAD SWAP1 DUP2 ADD PUSH1 0x40 MSTORE DUP1 SWAP3 SWAP2 SWAP1 DUP2 DUP2 MSTORE PUSH1 0x20 ADD DUP3 DUP1 SLOAD PUSH2 0xDF7 SWAP1 PUSH2 0x390F JUMP JUMPDEST DUP1 ISZERO PUSH2 0xE44 JUMPI DUP1 PUSH1 0x1F LT PUSH2 0xE19 JUMPI PUSH2 0x100 DUP1 DUP4 SLOAD DIV MUL DUP4 MSTORE SWAP2 PUSH1 0x20 ADD SWAP2 PUSH2 0xE44 JUMP JUMPDEST DUP3 ADD SWAP2 SWAP1 PUSH1 0x0 MSTORE PUSH1 0x20 PUSH1 0x0 KECCAK256 SWAP1 JUMPDEST DUP2 SLOAD DUP2 MSTORE SWAP1 PUSH1 0x1 ADD SWAP1 PUSH1 0x20 ADD DUP1 DUP4 GT PUSH2 0xE27 JUMPI DUP3 SWAP1 SUB PUSH1 0x1F AND DUP3 ADD SWAP2 JUMPDEST POP POP POP POP POP DUP2 MSTORE POP POP DUP2 MSTORE PUSH1 0x20 ADD SWAP1 PUSH1 0x1 ADD SWAP1 PUSH2 0xD2C JUMP JUMPDEST POP POP POP POP SWAP1 POP SWAP2 SWAP1 POP JUMP JUMPDEST PUSH2 0xE6F PUSH2 0x2DA3 JUMP JUMPDEST PUSH1 0x7 SLOAD PUSH1 0x40 MLOAD PUSH4 0x31A9108F PUSH1 0xE1 SHL DUP2 MSTORE PUSH1 0x4 DUP2 ADD DUP5 SWAP1 MSTORE CALLER SWAP2 PUSH1 0x1 PUSH1 0x1 PUSH1 0xA0 SHL SUB AND SWAP1 PUSH4 0x6352211E SWAP1 PUSH1 0x24 ADD PUSH1 0x20 PUSH1 0x40 MLOAD DUP1 DUP4 SUB DUP2 DUP7 GAS STATICCALL ISZERO DUP1 ISZERO PUSH2 0xEB8 JUMPI RETURNDATASIZE PUSH1 0x0 DUP1 RETURNDATACOPY RETURNDATASIZE PUSH1 0x0 REVERT JUMPDEST POP POP POP POP PUSH1 0x40 MLOAD RETURNDATASIZE PUSH1 0x1F NOT PUSH1 0x1F DUP3 ADD AND DUP3 ADD DUP1 PUSH1 0x40 MSTORE POP DUP2 ADD SWAP1 PUSH2 0xEDC SWAP2 SWAP1 PUSH2 0x3AD4 JUMP JUMPDEST PUSH1 0x1 PUSH1 0x1 PUSH1 0xA0 SHL SUB AND EQ PUSH2 0xF26 JUMPI PUSH1 0x40 MLOAD PUSH3 0x461BCD PUSH1 0xE5 SHL DUP2 MSTORE PUSH1 0x20 PUSH1 0x4 DUP3 ADD MSTORE PUSH1 0x11 PUSH1 0x24 DUP3 ADD MSTORE PUSH17 0x2737BA10383937B23AB1BA1037BBB732B9 PUSH1 0x79 SHL PUSH1 0x44 DUP3 ADD MSTORE PUSH1 0x64 ADD PUSH2 0x272 JUMP JUMPDEST PUSH1 0x0 DUP3 DUP2 MSTORE PUSH1 0x8 PUSH1 0x20 MSTORE PUSH1 0x40 SWAP1 KECCAK256 PUSH1 0x2 ADD SLOAD ISZERO PUSH2 0xF85 JUMPI PUSH1 0x40 MLOAD PUSH3 0x461BCD PUSH1 0xE5 SHL DUP2 MSTORE PUSH1 0x20 PUSH1 0x4 DUP3 ADD MSTORE PUSH1 0x18 PUSH1 0x24 DUP3 ADD MSTORE PUSH32 0x52657475726E20616C7265616479207265717565737465640000000000000000 PUSH1 0x44 DUP3 ADD MSTORE PUSH1 0x64 ADD PUSH2 0x272 JUMP JUMPDEST PUSH1 0x0 DUP3 DUP2 MSTORE PUSH1 0x8 PUSH1 0x20 MSTORE PUSH1 0x40 SWAP1 KECCAK256 PUSH1 0x3 ADD SLOAD PUSH2 0x100 SWAP1 DIV PUSH1 0xFF AND ISZERO PUSH2 0xFBC JUMPI PUSH1 0x40 MLOAD PUSH3 0x461BCD PUSH1 0xE5 SHL DUP2 MSTORE PUSH1 0x4 ADD PUSH2 0x272 SWAP1 PUSH2 0x3AF1 JUMP JUMPDEST PUSH1 0x40 DUP1 MLOAD PUSH1 0xA0 DUP2 ADD DUP3 MSTORE CALLER DUP2 MSTORE PUSH1 0x20 DUP1 DUP3 ADD DUP5 DUP2 MSTORE TIMESTAMP DUP4 DUP6 ADD MSTORE PUSH1 0x0 PUSH1 0x60 DUP5 ADD DUP2 SWAP1 MSTORE PUSH1 0x80 DUP5 ADD DUP2 SWAP1 MSTORE DUP7 DUP2 MSTORE PUSH1 0x8 SWAP1 SWAP3 MSTORE SWAP3 SWAP1 KECCAK256 DUP2 MLOAD DUP2 SLOAD PUSH1 0x1 PUSH1 0x1 PUSH1 0xA0 SHL SUB NOT AND PUSH1 0x1 PUSH1 0x1 PUSH1 0xA0 SHL SUB SWAP1 SWAP2 AND OR DUP2 SSTORE SWAP2 MLOAD SWAP1 SWAP2 SWAP1 PUSH1 0x1 DUP3 ADD SWAP1 PUSH2 0x1021 SWAP1 DUP3 PUSH2 0x3A01 JUMP JUMPDEST POP PUSH1 0x40 DUP3 DUP2 ADD MLOAD PUSH1 0x2 DUP4 ADD SSTORE PUSH1 0x60 DUP4 ADD MLOAD PUSH1 0x3 SWAP1 SWAP3 ADD DUP1 SLOAD PUSH1 0x80 SWAP1 SWAP5 ADD MLOAD ISZERO ISZERO PUSH2 0x100 MUL PUSH2 0xFF00 NOT SWAP4 ISZERO ISZERO SWAP4 SWAP1 SWAP4 AND PUSH2 0xFFFF NOT SWAP1 SWAP5 AND SWAP4 SWAP1 SWAP4 OR SWAP2 SWAP1 SWAP2 OR SWAP1 SWAP2 SSTORE MLOAD CALLER SWAP1 DUP4 SWAP1 PUSH32 0x5D761C0D0CDA7585F3C7D01A6EAF194153F473909BF0CB8CF5C2138B296AA94D SWAP1 PUSH2 0x1094 SWAP1 DUP6 SWAP1 PUSH2 0x3AC1 JUMP JUMPDEST PUSH1 0x40 MLOAD DUP1 SWAP2 SUB SWAP1 LOG3 POP POP JUMP JUMPDEST PUSH1 0x0 DUP2 DUP2 MSTORE PUSH1 0x9 PUSH1 0x20 MSTORE PUSH1 0x40 SWAP1 KECCAK256 SLOAD PUSH1 0x60 SWAP1 PUSH2 0x10CE JUMPI PUSH1 0x40 MLOAD PUSH3 0x461BCD PUSH1 0xE5 SHL DUP2 MSTORE PUSH1 0x4 ADD PUSH2 0x272 SWAP1 PUSH2 0x3B28 JUMP JUMPDEST PUSH1 0x0 DUP3 DUP2 MSTORE PUSH1 0x9 PUSH1 0x20 SWAP1 DUP2 MSTORE PUSH1 0x40 SWAP2 DUP3 SWAP1 KECCAK256 DUP1 SLOAD DUP4 MLOAD DUP2 DUP5 MUL DUP2 ADD DUP5 ADD SWAP1 SWAP5 MSTORE DUP1 DUP5 MSTORE SWAP1 SWAP2 DUP4 ADD DUP3 DUP3 DUP1 ISZERO PUSH2 0x1122 JUMPI PUSH1 0x20 MUL DUP3 ADD SWAP2 SWAP1 PUSH1 0x0 MSTORE PUSH1 0x20 PUSH1 0x0 KECCAK256 SWAP1 JUMPDEST DUP2 SLOAD DUP2 MSTORE PUSH1 0x20 ADD SWAP1 PUSH1 0x1 ADD SWAP1 DUP1 DUP4 GT PUSH2 0x110E JUMPI JUMPDEST POP POP POP POP POP SWAP1 POP SWAP2 SWAP1 POP JUMP JUMPDEST PUSH1 0x0 PUSH2 0x1139 DUP2 PUSH2 0x2C5E JUMP JUMPDEST PUSH2 0x8D5 PUSH2 0x2DEB JUMP JUMPDEST PUSH2 0x1149 PUSH2 0x2E26 JUMP JUMPDEST PUSH2 0x1151 PUSH2 0x2DA3 JUMP JUMPDEST PUSH1 0x7 SLOAD PUSH1 0x40 MLOAD PUSH4 0x31A9108F PUSH1 0xE1 SHL DUP2 MSTORE PUSH1 0x4 DUP2 ADD DUP4 SWAP1 MSTORE PUSH1 0x1 PUSH1 0x1 PUSH1 0xA0 SHL SUB SWAP1 SWAP2 AND SWAP1 PUSH4 0x6352211E SWAP1 PUSH1 0x24 ADD PUSH1 0x20 PUSH1 0x40 MLOAD DUP1 DUP4 SUB DUP2 DUP7 GAS STATICCALL ISZERO DUP1 ISZERO PUSH2 0x119A JUMPI RETURNDATASIZE PUSH1 0x0 DUP1 RETURNDATACOPY RETURNDATASIZE PUSH1 0x0 REVERT JUMPDEST POP POP POP POP PUSH1 0x40 MLOAD RETURNDATASIZE PUSH1 0x1F NOT PUSH1 0x1F DUP3 ADD AND DUP3 ADD DUP1 PUSH1 0x40 MSTORE POP DUP2 ADD SWAP1 PUSH2 0x11BE SWAP2 SWAP1 PUSH2 0x3AD4 JUMP JUMPDEST PUSH1 0x1 PUSH1 0x1 PUSH1 0xA0 SHL SUB AND CALLER PUSH1 0x1 PUSH1 0x1 PUSH1 0xA0 SHL SUB AND EQ PUSH2 0x122D JUMPI PUSH1 0x40 MLOAD PUSH3 0x461BCD PUSH1 0xE5 SHL DUP2 MSTORE PUSH1 0x20 PUSH1 0x4 DUP3 ADD MSTORE PUSH1 0x26 PUSH1 0x24 DUP3 ADD MSTORE PUSH32 0x4F6E6C792070726F64756374206F776E65722063616E2072656C656173652070 PUSH1 0x44 DUP3 ADD MSTORE PUSH6 0x185E5B595B9D PUSH1 0xD2 SHL PUSH1 0x64 DUP3 ADD MSTORE PUSH1 0x84 ADD PUSH2 0x272 JUMP JUMPDEST PUSH1 0x0 DUP2 DUP2 MSTORE PUSH1 0x4 PUSH1 0x20 MSTORE PUSH1 0x40 SWAP1 KECCAK256 SLOAD PUSH2 0x1258 JUMPI PUSH1 0x40 MLOAD PUSH3 0x461BCD PUSH1 0xE5 SHL DUP2 MSTORE PUSH1 0x4 ADD PUSH2 0x272 SWAP1 PUSH2 0x3B56 JUMP JUMPDEST PUSH1 0x0 DUP2 DUP2 MSTORE PUSH1 0x8 PUSH1 0x20 MSTORE PUSH1 0x40 SWAP1 KECCAK256 PUSH1 0x3 ADD SLOAD PUSH2 0x100 SWAP1 DIV PUSH1 0xFF AND ISZERO PUSH2 0x128F JUMPI PUSH1 0x40 MLOAD PUSH3 0x461BCD PUSH1 0xE5 SHL DUP2 MSTORE PUSH1 0x4 ADD PUSH2 0x272 SWAP1 PUSH2 0x3AF1 JUMP JUMPDEST PUSH1 0x0 DUP2 DUP2 MSTORE PUSH1 0x4 PUSH1 0x20 SWAP1 DUP2 MSTORE PUSH1 0x40 DUP1 DUP4 KECCAK256 DUP1 SLOAD PUSH1 0x5 SWAP1 SWAP4 MSTORE DUP2 DUP5 KECCAK256 DUP1 SLOAD SWAP2 DUP6 SWAP1 SSTORE DUP1 SLOAD PUSH1 0x1 PUSH1 0x1 PUSH1 0xA0 SHL SUB NOT AND SWAP1 SSTORE SWAP1 MLOAD SWAP2 SWAP3 PUSH1 0x1 PUSH1 0x1 PUSH1 0xA0 SHL SUB SWAP1 SWAP2 AND SWAP2 DUP3 SWAP1 DUP5 SWAP1 DUP4 DUP2 DUP2 DUP2 DUP6 DUP8 GAS CALL SWAP3 POP POP POP RETURNDATASIZE DUP1 PUSH1 0x0 DUP2 EQ PUSH2 0x130A JUMPI PUSH1 0x40 MLOAD SWAP2 POP PUSH1 0x1F NOT PUSH1 0x3F RETURNDATASIZE ADD AND DUP3 ADD PUSH1 0x40 MSTORE RETURNDATASIZE DUP3 MSTORE RETURNDATASIZE PUSH1 0x0 PUSH1 0x20 DUP5 ADD RETURNDATACOPY PUSH2 0x130F JUMP JUMPDEST PUSH1 0x60 SWAP2 POP JUMPDEST POP POP SWAP1 POP DUP1 PUSH2 0x1359 JUMPI PUSH1 0x40 MLOAD PUSH3 0x461BCD PUSH1 0xE5 SHL DUP2 MSTORE PUSH1 0x20 PUSH1 0x4 DUP3 ADD MSTORE PUSH1 0x16 PUSH1 0x24 DUP3 ADD MSTORE PUSH22 0x14185E5B595B9D081C995B19585CD94819985A5B1959 PUSH1 0x52 SHL PUSH1 0x44 DUP3 ADD MSTORE PUSH1 0x64 ADD PUSH2 0x272 JUMP JUMPDEST DUP2 PUSH1 0x1 PUSH1 0x1 PUSH1 0xA0 SHL SUB AND DUP5 PUSH32 0x21D71DB5BE59BB9FA133895586B7404307DD33FB93B16DB09DC6F1D9D7D231B0 DUP6 PUSH1 0x40 MLOAD PUSH2 0x1395 SWAP2 DUP2 MSTORE PUSH1 0x20 ADD SWAP1 JUMP JUMPDEST PUSH1 0x40 MLOAD DUP1 SWAP2 SUB SWAP1 LOG3 POP POP POP PUSH2 0x8D5 PUSH1 0x1 PUSH1 0x2 SSTORE JUMP JUMPDEST PUSH1 0x0 SWAP2 DUP3 MSTORE PUSH1 0x20 DUP3 DUP2 MSTORE PUSH1 0x40 DUP1 DUP5 KECCAK256 PUSH1 0x1 PUSH1 0x1 PUSH1 0xA0 SHL SUB SWAP4 SWAP1 SWAP4 AND DUP5 MSTORE SWAP2 SWAP1 MSTORE SWAP1 KECCAK256 SLOAD PUSH1 0xFF AND SWAP1 JUMP JUMPDEST PUSH1 0x0 PUSH2 0x13DD PUSH2 0x2DA3 JUMP JUMPDEST PUSH2 0x13F5 PUSH1 0x0 DUP1 MLOAD PUSH1 0x20 PUSH2 0x3D3B DUP4 CODECOPY DUP2 MLOAD SWAP2 MSTORE CALLER PUSH2 0x13AA JUMP JUMPDEST PUSH2 0x143B JUMPI PUSH1 0x40 MLOAD PUSH3 0x461BCD PUSH1 0xE5 SHL DUP2 MSTORE PUSH1 0x20 PUSH1 0x4 DUP3 ADD MSTORE PUSH1 0x17 PUSH1 0x24 DUP3 ADD MSTORE PUSH23 0x21B0B63632B91036BAB9BA103132903932BA30B4B632B9 PUSH1 0x49 SHL PUSH1 0x44 DUP3 ADD MSTORE PUSH1 0x64 ADD PUSH2 0x272 JUMP JUMPDEST PUSH1 0x0 DUP3 GT PUSH2 0x148B JUMPI PUSH1 0x40 MLOAD PUSH3 0x461BCD PUSH1 0xE5 SHL DUP2 MSTORE PUSH1 0x20 PUSH1 0x4 DUP3 ADD MSTORE PUSH1 0x1C PUSH1 0x24 DUP3 ADD MSTORE PUSH32 0x5072696365206D7573742062652067726561746572207468616E203000000000 PUSH1 0x44 DUP3 ADD MSTORE PUSH1 0x64 ADD PUSH2 0x272 JUMP JUMPDEST PUSH1 0x7 SLOAD PUSH1 0x40 MLOAD PUSH4 0x1E7054B3 PUSH1 0xE0 SHL DUP2 MSTORE PUSH1 0x0 SWAP2 PUSH1 0x1 PUSH1 0x1 PUSH1 0xA0 SHL SUB AND SWAP1 PUSH4 0x1E7054B3 SWAP1 PUSH2 0x14C2 SWAP1 CALLER SWAP1 DUP12 SWAP1 DUP12 SWAP1 DUP11 SWAP1 PUSH1 0x4 ADD PUSH2 0x3B84 JUMP JUMPDEST PUSH1 0x20 PUSH1 0x40 MLOAD DUP1 DUP4 SUB DUP2 PUSH1 0x0 DUP8 GAS CALL ISZERO DUP1 ISZERO PUSH2 0x14E1 JUMPI RETURNDATASIZE PUSH1 0x0 DUP1 RETURNDATACOPY RETURNDATASIZE PUSH1 0x0 REVERT JUMPDEST POP POP POP POP PUSH1 0x40 MLOAD RETURNDATASIZE PUSH1 0x1F NOT PUSH1 0x1F DUP3 ADD AND DUP3 ADD DUP1 PUSH1 0x40 MSTORE POP DUP2 ADD SWAP1 PUSH2 0x1505 SWAP2 SWAP1 PUSH2 0x3BCE JUMP JUMPDEST PUSH1 0x40 DUP1 MLOAD PUSH1 0xC0 DUP2 ADD DUP3 MSTORE DUP3 DUP2 MSTORE CALLER PUSH1 0x20 DUP1 DUP4 ADD DUP3 DUP2 MSTORE DUP4 DUP6 ADD SWAP3 DUP4 MSTORE PUSH1 0x0 PUSH1 0x60 DUP6 ADD DUP2 DUP2 MSTORE TIMESTAMP PUSH1 0x80 DUP8 ADD MSTORE DUP7 MLOAD DUP1 DUP9 ADD DUP9 MSTORE PUSH1 0x16 DUP2 MSTORE PUSH22 0x4D616E75666163747572696E6720466163696C697479 PUSH1 0x50 SHL DUP2 DUP7 ADD MSTORE PUSH1 0xA0 DUP8 ADD MSTORE DUP8 DUP3 MSTORE PUSH1 0x3 DUP5 MSTORE DUP7 DUP3 KECCAK256 DUP12 SWAP1 SSTORE PUSH1 0xA DUP5 MSTORE SWAP6 DUP2 KECCAK256 DUP1 SLOAD PUSH1 0x1 DUP1 DUP3 ADD DUP4 SSTORE SWAP2 DUP4 MSTORE SWAP4 SWAP1 SWAP2 KECCAK256 DUP6 MLOAD PUSH1 0x5 SWAP1 SWAP5 MUL ADD SWAP3 DUP4 SSTORE SWAP1 MLOAD SWAP1 DUP3 ADD DUP1 SLOAD PUSH1 0x1 PUSH1 0x1 PUSH1 0xA0 SHL SUB SWAP3 DUP4 AND PUSH1 0x1 PUSH1 0x1 PUSH1 0xA0 SHL SUB NOT SWAP2 DUP3 AND OR SWAP1 SWAP2 SSTORE SWAP3 MLOAD PUSH1 0x2 DUP4 ADD DUP1 SLOAD SWAP2 SWAP1 SWAP3 AND SWAP4 DUP2 AND DUP5 OR DUP3 SSTORE SWAP5 MLOAD SWAP6 SWAP7 POP SWAP3 SWAP5 DUP6 SWAP5 SWAP2 SWAP4 SWAP1 SWAP3 SWAP1 SWAP2 PUSH1 0x1 PUSH1 0x1 PUSH1 0xA8 SHL SUB NOT AND OR PUSH1 0x1 PUSH1 0xA0 SHL DUP4 PUSH1 0x8 DUP2 GT ISZERO PUSH2 0x15F3 JUMPI PUSH2 0x15F3 PUSH2 0x33A0 JUMP JUMPDEST MUL OR SWAP1 SSTORE POP PUSH1 0x80 DUP3 ADD MLOAD PUSH1 0x3 DUP3 ADD SSTORE PUSH1 0xA0 DUP3 ADD MLOAD PUSH1 0x4 DUP3 ADD SWAP1 PUSH2 0x1616 SWAP1 DUP3 PUSH2 0x3A01 JUMP JUMPDEST POP POP POP CALLER PUSH1 0x1 PUSH1 0x1 PUSH1 0xA0 SHL SUB AND DUP3 PUSH32 0x5F25C590B5C7F62ED4186ADCA32D3118CAEF07E5020C6CC8268D4136DF2CFEF8 DUP11 DUP8 PUSH1 0x40 MLOAD PUSH2 0x1655 SWAP3 SWAP2 SWAP1 PUSH2 0x3BE7 JUMP JUMPDEST PUSH1 0x40 MLOAD DUP1 SWAP2 SUB SWAP1 LOG3 DUP2 PUSH32 0xE07678EBDA9FF268C2C8531BB0EBFC488D9FA7067D919572337A14A72C3AA0B7 PUSH1 0x5 PUSH1 0x40 MLOAD PUSH2 0x168E SWAP2 SWAP1 PUSH2 0x3C09 JUMP JUMPDEST PUSH1 0x40 MLOAD DUP1 SWAP2 SUB SWAP1 LOG2 POP SWAP7 SWAP6 POP POP POP POP POP POP JUMP JUMPDEST PUSH1 0x0 PUSH1 0x60 PUSH2 0x16AD PUSH2 0x2DA3 JUMP JUMPDEST DUP5 MLOAD DUP8 MLOAD EQ DUP1 ISZERO PUSH2 0x16BF JUMPI POP DUP4 MLOAD DUP6 MLOAD EQ JUMPDEST DUP1 ISZERO PUSH2 0x16CC JUMPI POP DUP3 MLOAD DUP5 MLOAD EQ JUMPDEST PUSH2 0x1718 JUMPI PUSH1 0x40 MLOAD PUSH3 0x461BCD PUSH1 0xE5 SHL DUP2 MSTORE PUSH1 0x20 PUSH1 0x4 DUP3 ADD MSTORE PUSH1 0x18 PUSH1 0x24 DUP3 ADD MSTORE PUSH32 0x4172726179206C656E67746873206D757374206D617463680000000000000000 PUSH1 0x44 DUP3 ADD MSTORE PUSH1 0x64 ADD PUSH2 0x272 JUMP JUMPDEST PUSH1 0x0 DUP8 MLOAD PUSH8 0xFFFFFFFFFFFFFFFF DUP2 GT ISZERO PUSH2 0x1734 JUMPI PUSH2 0x1734 PUSH2 0x3285 JUMP JUMPDEST PUSH1 0x40 MLOAD SWAP1 DUP1 DUP3 MSTORE DUP1 PUSH1 0x20 MUL PUSH1 0x20 ADD DUP3 ADD PUSH1 0x40 MSTORE DUP1 ISZERO PUSH2 0x175D JUMPI DUP2 PUSH1 0x20 ADD PUSH1 0x20 DUP3 MUL DUP1 CALLDATASIZE DUP4 CALLDATACOPY ADD SWAP1 POP JUMPDEST POP SWAP1 POP PUSH1 0x0 JUMPDEST DUP9 MLOAD DUP2 LT ISZERO PUSH2 0x180C JUMPI PUSH2 0x17DD DUP10 DUP3 DUP2 MLOAD DUP2 LT PUSH2 0x1781 JUMPI PUSH2 0x1781 PUSH2 0x399D JUMP JUMPDEST PUSH1 0x20 MUL PUSH1 0x20 ADD ADD MLOAD DUP10 DUP10 DUP5 DUP2 MLOAD DUP2 LT PUSH2 0x179C JUMPI PUSH2 0x179C PUSH2 0x399D JUMP JUMPDEST PUSH1 0x20 MUL PUSH1 0x20 ADD ADD MLOAD DUP10 DUP6 DUP2 MLOAD DUP2 LT PUSH2 0x17B6 JUMPI PUSH2 0x17B6 PUSH2 0x399D JUMP JUMPDEST PUSH1 0x20 MUL PUSH1 0x20 ADD ADD MLOAD DUP10 DUP7 DUP2 MLOAD DUP2 LT PUSH2 0x17D0 JUMPI PUSH2 0x17D0 PUSH2 0x399D JUMP JUMPDEST PUSH1 0x20 MUL PUSH1 0x20 ADD ADD MLOAD PUSH2 0x13D3 JUMP JUMPDEST DUP3 DUP3 DUP2 MLOAD DUP2 LT PUSH2 0x17EF JUMPI PUSH2 0x17EF PUSH2 0x399D JUMP JUMPDEST PUSH1 0x20 SWAP1 DUP2 MUL SWAP2 SWAP1 SWAP2 ADD ADD MSTORE DUP1 PUSH2 0x1804 DUP2 PUSH2 0x3C17 JUMP JUMPDEST SWAP2 POP POP PUSH2 0x1763 JUMP JUMPDEST POP PUSH1 0x0 TIMESTAMP CALLER DUP4 PUSH1 0x40 MLOAD PUSH1 0x20 ADD PUSH2 0x1824 SWAP4 SWAP3 SWAP2 SWAP1 PUSH2 0x3C30 JUMP JUMPDEST PUSH1 0x40 DUP1 MLOAD PUSH1 0x1F NOT DUP2 DUP5 SUB ADD DUP2 MSTORE SWAP2 DUP2 MSTORE DUP2 MLOAD PUSH1 0x20 SWAP3 DUP4 ADD KECCAK256 PUSH1 0x0 DUP2 DUP2 MSTORE PUSH1 0x9 DUP5 MSTORE SWAP2 SWAP1 SWAP2 KECCAK256 DUP5 MLOAD SWAP2 SWAP4 POP PUSH2 0x185D SWAP3 SWAP1 SWAP2 SWAP1 DUP6 ADD SWAP1 PUSH2 0x30D4 JUMP JUMPDEST POP DUP1 PUSH32 0xB94DD5EC3E09F1C2092E97679BA8E9B03E4231443DAE894A614AEECFF4C2E172 DUP4 PUSH1 0x40 MLOAD PUSH2 0x188E SWAP2 SWAP1 PUSH2 0x34C9 JUMP JUMPDEST PUSH1 0x40 MLOAD DUP1 SWAP2 SUB SWAP1 LOG2 SWAP9 SWAP1 SWAP8 POP SWAP6 POP POP POP POP POP POP JUMP JUMPDEST PUSH1 0x40 DUP1 MLOAD PUSH1 0xA0 DUP2 ADD DUP3 MSTORE PUSH1 0x0 DUP1 DUP3 MSTORE PUSH1 0x60 PUSH1 0x20 DUP4 ADD DUP2 SWAP1 MSTORE SWAP3 DUP3 ADD DUP2 SWAP1 MSTORE SWAP2 DUP2 ADD DUP3 SWAP1 MSTORE PUSH1 0x80 DUP2 ADD SWAP2 SWAP1 SWAP2 MSTORE PUSH1 0x0 DUP3 DUP2 MSTORE PUSH1 0x8 PUSH1 0x20 SWAP1 DUP2 MSTORE PUSH1 0x40 SWAP2 DUP3 SWAP1 KECCAK256 DUP3 MLOAD PUSH1 0xA0 DUP2 ADD SWAP1 SWAP4 MSTORE DUP1 SLOAD PUSH1 0x1 PUSH1 0x1 PUSH1 0xA0 SHL SUB AND DUP4 MSTORE PUSH1 0x1 DUP2 ADD DUP1 SLOAD SWAP2 SWAP3 DUP5 ADD SWAP2 PUSH2 0x190B SWAP1 PUSH2 0x390F JUMP JUMPDEST DUP1 PUSH1 0x1F ADD PUSH1 0x20 DUP1 SWAP2 DIV MUL PUSH1 0x20 ADD PUSH1 0x40 MLOAD SWAP1 DUP2 ADD PUSH1 0x40 MSTORE DUP1 SWAP3 SWAP2 SWAP1 DUP2 DUP2 MSTORE PUSH1 0x20 ADD DUP3 DUP1 SLOAD PUSH2 0x1937 SWAP1 PUSH2 0x390F JUMP JUMPDEST DUP1 ISZERO PUSH2 0x1984 JUMPI DUP1 PUSH1 0x1F LT PUSH2 0x1959 JUMPI PUSH2 0x100 DUP1 DUP4 SLOAD DIV MUL DUP4 MSTORE SWAP2 PUSH1 0x20 ADD SWAP2 PUSH2 0x1984 JUMP JUMPDEST DUP3 ADD SWAP2 SWAP1 PUSH1 0x0 MSTORE PUSH1 0x20 PUSH1 0x0 KECCAK256 SWAP1 JUMPDEST DUP2 SLOAD DUP2 MSTORE SWAP1 PUSH1 0x1 ADD SWAP1 PUSH1 0x20 ADD DUP1 DUP4 GT PUSH2 0x1967 JUMPI DUP3 SWAP1 SUB PUSH1 0x1F AND DUP3 ADD SWAP2 JUMPDEST POP POP POP SWAP2 DUP4 MSTORE POP POP PUSH1 0x2 DUP3 ADD SLOAD PUSH1 0x20 DUP3 ADD MSTORE PUSH1 0x3 SWAP1 SWAP2 ADD SLOAD PUSH1 0xFF DUP1 DUP3 AND ISZERO ISZERO PUSH1 0x40 DUP5 ADD MSTORE PUSH2 0x100 SWAP1 SWAP2 DIV AND ISZERO ISZERO PUSH1 0x60 SWAP1 SWAP2 ADD MSTORE SWAP3 SWAP2 POP POP JUMP JUMPDEST PUSH2 0x19C5 PUSH2 0x2DA3 JUMP JUMPDEST PUSH1 0x0 DUP4 DUP2 MSTORE PUSH1 0x9 PUSH1 0x20 MSTORE PUSH1 0x40 SWAP1 KECCAK256 SLOAD PUSH2 0x19F0 JUMPI PUSH1 0x40 MLOAD PUSH3 0x461BCD PUSH1 0xE5 SHL DUP2 MSTORE PUSH1 0x4 ADD PUSH2 0x272 SWAP1 PUSH2 0x3B28 JUMP JUMPDEST PUSH1 0x0 DUP4 DUP2 MSTORE PUSH1 0x9 PUSH1 0x20 SWAP1 DUP2 MSTORE PUSH1 0x40 DUP1 DUP4 KECCAK256 DUP1 SLOAD DUP3 MLOAD DUP2 DUP6 MUL DUP2 ADD DUP6 ADD SWAP1 SWAP4 MSTORE DUP1 DUP4 MSTORE SWAP2 SWAP3 SWAP1 SWAP2 SWAP1 DUP4 ADD DUP3 DUP3 DUP1 ISZERO PUSH2 0x1A46 JUMPI PUSH1 0x20 MUL DUP3 ADD SWAP2 SWAP1 PUSH1 0x0 MSTORE PUSH1 0x20 PUSH1 0x0 KECCAK256 SWAP1 JUMPDEST DUP2 SLOAD DUP2 MSTORE PUSH1 0x20 ADD SWAP1 PUSH1 0x1 ADD SWAP1 DUP1 DUP4 GT PUSH2 0x1A32 JUMPI JUMPDEST POP POP POP POP POP SWAP1 POP PUSH1 0x0 JUMPDEST DUP2 MLOAD DUP2 LT ISZERO PUSH2 0x1A8F JUMPI PUSH2 0x1A7D DUP3 DUP3 DUP2 MLOAD DUP2 LT PUSH2 0x1A6E JUMPI PUSH2 0x1A6E PUSH2 0x399D JUMP JUMPDEST PUSH1 0x20 MUL PUSH1 0x20 ADD ADD MLOAD DUP6 DUP6 PUSH2 0x2152 JUMP JUMPDEST DUP1 PUSH2 0x1A87 DUP2 PUSH2 0x3C17 JUMP JUMPDEST SWAP2 POP POP PUSH2 0x1A50 JUMP JUMPDEST POP PUSH1 0x40 MLOAD PUSH1 0x1 PUSH1 0x1 PUSH1 0xA0 SHL SUB DUP5 AND SWAP1 CALLER SWAP1 DUP7 SWAP1 PUSH32 0x1B76C1632322EBCA66BE0F95368216A67B8DCFAA70055274F8D8600DAE0B7827 SWAP1 PUSH1 0x0 SWAP1 LOG4 POP POP POP POP JUMP JUMPDEST PUSH2 0x1AD6 PUSH2 0x2DA3 JUMP JUMPDEST PUSH1 0x0 DUP3 DUP2 MSTORE PUSH1 0x9 PUSH1 0x20 MSTORE PUSH1 0x40 SWAP1 KECCAK256 SLOAD PUSH2 0x1B01 JUMPI PUSH1 0x40 MLOAD PUSH3 0x461BCD PUSH1 0xE5 SHL DUP2 MSTORE PUSH1 0x4 ADD PUSH2 0x272 SWAP1 PUSH2 0x3B28 JUMP JUMPDEST PUSH1 0x0 DUP3 DUP2 MSTORE PUSH1 0x9 PUSH1 0x20 SWAP1 DUP2 MSTORE PUSH1 0x40 DUP1 DUP4 KECCAK256 DUP1 SLOAD DUP3 MLOAD DUP2 DUP6 MUL DUP2 ADD DUP6 ADD SWAP1 SWAP4 MSTORE DUP1 DUP4 MSTORE SWAP2 SWAP3 SWAP1 SWAP2 SWAP1 DUP4 ADD DUP3 DUP3 DUP1 ISZERO PUSH2 0x1B57 JUMPI PUSH1 0x20 MUL DUP3 ADD SWAP2 SWAP1 PUSH1 0x0 MSTORE PUSH1 0x20 PUSH1 0x0 KECCAK256 SWAP1 JUMPDEST DUP2 SLOAD DUP2 MSTORE PUSH1 0x20 ADD SWAP1 PUSH1 0x1 ADD SWAP1 DUP1 DUP4 GT PUSH2 0x1B43 JUMPI JUMPDEST POP POP POP POP POP SWAP1 POP PUSH1 0x0 JUMPDEST DUP2 MLOAD DUP2 LT ISZERO PUSH2 0x1B9F JUMPI PUSH2 0x1B8D DUP3 DUP3 DUP2 MLOAD DUP2 LT PUSH2 0x1B7F JUMPI PUSH2 0x1B7F PUSH2 0x399D JUMP JUMPDEST PUSH1 0x20 MUL PUSH1 0x20 ADD ADD MLOAD DUP5 PUSH2 0x26F1 JUMP JUMPDEST DUP1 PUSH2 0x1B97 DUP2 PUSH2 0x3C17 JUMP JUMPDEST SWAP2 POP POP PUSH2 0x1B61 JUMP JUMPDEST POP DUP3 PUSH32 0xA2876B6DBB89E1F7F1B4763DF4991E8A101B6A2A4B3DEA2604A6892FEF6A330F DUP4 PUSH1 0x40 MLOAD PUSH2 0xAB5 SWAP2 SWAP1 PUSH2 0x3C09 JUMP JUMPDEST PUSH2 0x1BD8 PUSH2 0x2DA3 JUMP JUMPDEST PUSH2 0x1BF0 PUSH1 0x0 DUP1 MLOAD PUSH1 0x20 PUSH2 0x3D3B DUP4 CODECOPY DUP2 MLOAD SWAP2 MSTORE CALLER PUSH2 0x13AA JUMP JUMPDEST DUP1 PUSH2 0x1C01 JUMPI POP PUSH2 0x1C01 PUSH1 0x0 CALLER PUSH2 0x13AA JUMP JUMPDEST PUSH2 0x1C60 JUMPI PUSH1 0x40 MLOAD PUSH3 0x461BCD PUSH1 0xE5 SHL DUP2 MSTORE PUSH1 0x20 PUSH1 0x4 DUP3 ADD MSTORE PUSH1 0x2A PUSH1 0x24 DUP3 ADD MSTORE PUSH32 0x4F6E6C792061646D696E206F722072657461696C65722063616E20726563616C PUSH1 0x44 DUP3 ADD MSTORE PUSH10 0x6C2070726F6475637473 PUSH1 0xB0 SHL PUSH1 0x64 DUP3 ADD MSTORE PUSH1 0x84 ADD PUSH2 0x272 JUMP JUMPDEST PUSH1 0x0 JUMPDEST DUP3 MLOAD DUP2 LT ISZERO PUSH2 0x83F JUMPI PUSH1 0x0 DUP4 DUP3 DUP2 MLOAD DUP2 LT PUSH2 0x1C80 JUMPI PUSH2 0x1C80 PUSH2 0x399D JUMP JUMPDEST PUSH1 0x20 SWAP1 DUP2 MUL SWAP2 SWAP1 SWAP2 ADD DUP2 ADD MLOAD PUSH1 0x40 DUP1 MLOAD PUSH1 0xA0 DUP2 ADD DUP3 MSTORE CALLER DUP2 MSTORE DUP1 DUP5 ADD DUP8 DUP2 MSTORE TIMESTAMP DUP3 DUP5 ADD MSTORE PUSH1 0x1 PUSH1 0x60 DUP4 ADD DUP2 SWAP1 MSTORE PUSH1 0x80 DUP4 ADD DUP2 SWAP1 MSTORE PUSH1 0x0 DUP6 DUP2 MSTORE PUSH1 0x8 SWAP1 SWAP7 MSTORE SWAP3 SWAP1 SWAP5 KECCAK256 DUP2 MLOAD DUP2 SLOAD PUSH1 0x1 PUSH1 0x1 PUSH1 0xA0 SHL SUB NOT AND PUSH1 0x1 PUSH1 0x1 PUSH1 0xA0 SHL SUB SWAP1 SWAP2 AND OR DUP2 SSTORE SWAP4 MLOAD SWAP3 SWAP5 POP SWAP3 SWAP2 SWAP1 DUP3 ADD SWAP1 PUSH2 0x1CF3 SWAP1 DUP3 PUSH2 0x3A01 JUMP JUMPDEST POP PUSH1 0x40 DUP3 ADD MLOAD PUSH1 0x2 DUP3 ADD SSTORE PUSH1 0x60 DUP3 ADD MLOAD PUSH1 0x3 SWAP1 SWAP2 ADD DUP1 SLOAD PUSH1 0x80 SWAP1 SWAP4 ADD MLOAD ISZERO ISZERO PUSH2 0x100 MUL PUSH2 0xFF00 NOT SWAP3 ISZERO ISZERO SWAP3 SWAP1 SWAP3 AND PUSH2 0xFFFF NOT SWAP1 SWAP4 AND SWAP3 SWAP1 SWAP3 OR OR SWAP1 SSTORE PUSH2 0x1D3A DUP2 PUSH1 0x8 PUSH2 0x26F1 JUMP JUMPDEST PUSH1 0x0 DUP2 DUP2 MSTORE PUSH1 0x4 PUSH1 0x20 MSTORE PUSH1 0x40 SWAP1 KECCAK256 SLOAD ISZERO PUSH2 0x1D57 JUMPI PUSH2 0x1D57 DUP2 PUSH2 0x2820 JUMP JUMPDEST CALLER PUSH1 0x1 PUSH1 0x1 PUSH1 0xA0 SHL SUB AND DUP2 PUSH32 0xC836B58F1D2B092E3AF919AAE9A0607BB0C4FE552AA37D0D7ED26885488B7399 DUP6 PUSH1 0x40 MLOAD PUSH2 0x1D91 SWAP2 SWAP1 PUSH2 0x3AC1 JUMP JUMPDEST PUSH1 0x40 MLOAD DUP1 SWAP2 SUB SWAP1 LOG3 POP DUP1 PUSH2 0x1DA4 DUP2 PUSH2 0x3C17 JUMP JUMPDEST SWAP2 POP POP PUSH2 0x1C63 JUMP JUMPDEST PUSH1 0x0 DUP2 DUP2 MSTORE PUSH1 0xA PUSH1 0x20 MSTORE PUSH1 0x40 DUP2 KECCAK256 SLOAD DUP2 SWAP1 DUP2 SWAP1 DUP2 SWAP1 PUSH1 0x60 SWAP1 PUSH2 0x1DE0 JUMPI PUSH1 0x40 MLOAD PUSH3 0x461BCD PUSH1 0xE5 SHL DUP2 MSTORE PUSH1 0x4 ADD PUSH2 0x272 SWAP1 PUSH2 0x3949 JUMP JUMPDEST PUSH1 0x0 DUP7 DUP2 MSTORE PUSH1 0xA PUSH1 0x20 MSTORE PUSH1 0x40 DUP2 KECCAK256 DUP1 SLOAD PUSH2 0x1DFC SWAP1 PUSH1 0x1 SWAP1 PUSH2 0x398A JUMP JUMPDEST DUP2 SLOAD DUP2 LT PUSH2 0x1E0C JUMPI PUSH2 0x1E0C PUSH2 0x399D JUMP JUMPDEST PUSH1 0x0 SWAP2 DUP3 MSTORE PUSH1 0x20 SWAP1 SWAP2 KECCAK256 PUSH1 0x5 SWAP1 SWAP2 MUL ADD PUSH1 0x1 DUP2 ADD SLOAD PUSH1 0x2 DUP3 ADD SLOAD PUSH1 0x3 DUP4 ADD SLOAD PUSH1 0x4 DUP5 ADD DUP1 SLOAD SWAP5 SWAP6 POP PUSH1 0x1 PUSH1 0x1 PUSH1 0xA0 SHL SUB SWAP4 DUP5 AND SWAP5 SWAP4 DUP4 AND SWAP4 PUSH1 0x1 PUSH1 0xA0 SHL SWAP1 SWAP4 DIV PUSH1 0xFF AND SWAP3 DUP2 SWAP1 PUSH2 0x1E5B SWAP1 PUSH2 0x390F JUMP JUMPDEST DUP1 PUSH1 0x1F ADD PUSH1 0x20 DUP1 SWAP2 DIV MUL PUSH1 0x20 ADD PUSH1 0x40 MLOAD SWAP1 DUP2 ADD PUSH1 0x40 MSTORE DUP1 SWAP3 SWAP2 SWAP1 DUP2 DUP2 MSTORE PUSH1 0x20 ADD DUP3 DUP1 SLOAD PUSH2 0x1E87 SWAP1 PUSH2 0x390F JUMP JUMPDEST DUP1 ISZERO PUSH2 0x1ED4 JUMPI DUP1 PUSH1 0x1F LT PUSH2 0x1EA9 JUMPI PUSH2 0x100 DUP1 DUP4 SLOAD DIV MUL DUP4 MSTORE SWAP2 PUSH1 0x20 ADD SWAP2 PUSH2 0x1ED4 JUMP JUMPDEST DUP3 ADD SWAP2 SWAP1 PUSH1 0x0 MSTORE PUSH1 0x20 PUSH1 0x0 KECCAK256 SWAP1 JUMPDEST DUP2 SLOAD DUP2 MSTORE SWAP1 PUSH1 0x1 ADD SWAP1 PUSH1 0x20 ADD DUP1 DUP4 GT PUSH2 0x1EB7 JUMPI DUP3 SWAP1 SUB PUSH1 0x1F AND DUP3 ADD SWAP2 JUMPDEST POP POP POP POP POP SWAP1 POP SWAP6 POP SWAP6 POP SWAP6 POP SWAP6 POP SWAP6 POP POP SWAP2 SWAP4 SWAP6 SWAP1 SWAP3 SWAP5 POP JUMP JUMPDEST PUSH2 0x1EF7 PUSH2 0x2E26 JUMP JUMPDEST PUSH2 0x1EFF PUSH2 0x2DA3 JUMP JUMPDEST PUSH1 0x0 DUP2 DUP2 MSTORE PUSH1 0x4 PUSH1 0x20 MSTORE PUSH1 0x40 SWAP1 KECCAK256 SLOAD PUSH2 0x1F2A JUMPI PUSH1 0x40 MLOAD PUSH3 0x461BCD PUSH1 0xE5 SHL DUP2 MSTORE PUSH1 0x4 ADD PUSH2 0x272 SWAP1 PUSH2 0x3B56 JUMP JUMPDEST PUSH1 0x0 DUP2 DUP2 MSTORE PUSH1 0x5 PUSH1 0x20 MSTORE PUSH1 0x40 SWAP1 KECCAK256 SLOAD PUSH1 0x1 PUSH1 0x1 PUSH1 0xA0 SHL SUB AND CALLER EQ PUSH2 0x1F86 JUMPI PUSH1 0x40 MLOAD PUSH3 0x461BCD PUSH1 0xE5 SHL DUP2 MSTORE PUSH1 0x20 PUSH1 0x4 DUP3 ADD MSTORE PUSH1 0x13 PUSH1 0x24 DUP3 ADD MSTORE PUSH19 0x4E6F74207468652062656E6566696369617279 PUSH1 0x68 SHL PUSH1 0x44 DUP3 ADD MSTORE PUSH1 0x64 ADD PUSH2 0x272 JUMP JUMPDEST PUSH1 0x0 DUP2 DUP2 MSTORE PUSH1 0x8 PUSH1 0x20 MSTORE PUSH1 0x40 SWAP1 KECCAK256 PUSH1 0x3 ADD SLOAD PUSH2 0x100 SWAP1 DIV PUSH1 0xFF AND ISZERO PUSH2 0x1FBD JUMPI PUSH1 0x40 MLOAD PUSH3 0x461BCD PUSH1 0xE5 SHL DUP2 MSTORE PUSH1 0x4 ADD PUSH2 0x272 SWAP1 PUSH2 0x3AF1 JUMP JUMPDEST PUSH1 0x0 DUP2 DUP2 MSTORE PUSH1 0xA PUSH1 0x20 MSTORE PUSH1 0x40 SWAP1 KECCAK256 DUP1 SLOAD ISZERO DUP1 ISZERO SWAP1 PUSH2 0x2018 JUMPI POP PUSH1 0x6 SLOAD DUP2 SLOAD DUP3 SWAP1 PUSH2 0x1FE9 SWAP1 PUSH1 0x1 SWAP1 PUSH2 0x398A JUMP JUMPDEST DUP2 SLOAD DUP2 LT PUSH2 0x1FF9 JUMPI PUSH2 0x1FF9 PUSH2 0x399D JUMP JUMPDEST SWAP1 PUSH1 0x0 MSTORE PUSH1 0x20 PUSH1 0x0 KECCAK256 SWAP1 PUSH1 0x5 MUL ADD PUSH1 0x3 ADD SLOAD PUSH2 0x2015 SWAP2 SWAP1 PUSH2 0x3C84 JUMP JUMPDEST TIMESTAMP GT JUMPDEST PUSH2 0x2064 JUMPI PUSH1 0x40 MLOAD PUSH3 0x461BCD PUSH1 0xE5 SHL DUP2 MSTORE PUSH1 0x20 PUSH1 0x4 DUP3 ADD MSTORE PUSH1 0x1A PUSH1 0x24 DUP3 ADD MSTORE PUSH32 0x457363726F772074696D656F7574206E6F742072656163686564000000000000 PUSH1 0x44 DUP3 ADD MSTORE PUSH1 0x64 ADD PUSH2 0x272 JUMP JUMPDEST PUSH1 0x0 DUP3 DUP2 MSTORE PUSH1 0x4 PUSH1 0x20 SWAP1 DUP2 MSTORE PUSH1 0x40 DUP1 DUP4 KECCAK256 DUP1 SLOAD SWAP1 DUP5 SWAP1 SSTORE PUSH1 0x5 SWAP1 SWAP3 MSTORE DUP1 DUP4 KECCAK256 DUP1 SLOAD PUSH1 0x1 PUSH1 0x1 PUSH1 0xA0 SHL SUB NOT AND SWAP1 SSTORE MLOAD SWAP1 SWAP2 SWAP1 CALLER SWAP1 DUP4 SWAP1 DUP4 DUP2 DUP2 DUP2 DUP6 DUP8 GAS CALL SWAP3 POP POP POP RETURNDATASIZE DUP1 PUSH1 0x0 DUP2 EQ PUSH2 0x20D1 JUMPI PUSH1 0x40 MLOAD SWAP2 POP PUSH1 0x1F NOT PUSH1 0x3F RETURNDATASIZE ADD AND DUP3 ADD PUSH1 0x40 MSTORE RETURNDATASIZE DUP3 MSTORE RETURNDATASIZE PUSH1 0x0 PUSH1 0x20 DUP5 ADD RETURNDATACOPY PUSH2 0x20D6 JUMP JUMPDEST PUSH1 0x60 SWAP2 POP JUMPDEST POP POP SWAP1 POP DUP1 PUSH2 0x211E JUMPI PUSH1 0x40 MLOAD PUSH3 0x461BCD PUSH1 0xE5 SHL DUP2 MSTORE PUSH1 0x20 PUSH1 0x4 DUP3 ADD MSTORE PUSH1 0x14 PUSH1 0x24 DUP3 ADD MSTORE PUSH20 0x10DB185A5B481C185E5B595B9D0819985A5B1959 PUSH1 0x62 SHL PUSH1 0x44 DUP3 ADD MSTORE PUSH1 0x64 ADD PUSH2 0x272 JUMP JUMPDEST PUSH1 0x40 MLOAD DUP3 DUP2 MSTORE CALLER SWAP1 DUP6 SWAP1 PUSH32 0x264B84D6BB26C82423CFCB91B4220EFABA80E38B8EA7A87B58A80FCAF0956912 SWAP1 PUSH1 0x20 ADD PUSH2 0x1395 JUMP JUMPDEST PUSH2 0x215A PUSH2 0x2DA3 JUMP JUMPDEST PUSH2 0x2172 PUSH1 0x0 DUP1 MLOAD PUSH1 0x20 PUSH2 0x3D3B DUP4 CODECOPY DUP2 MLOAD SWAP2 MSTORE CALLER PUSH2 0x13AA JUMP JUMPDEST PUSH2 0x21B8 JUMPI PUSH1 0x40 MLOAD PUSH3 0x461BCD PUSH1 0xE5 SHL DUP2 MSTORE PUSH1 0x20 PUSH1 0x4 DUP3 ADD MSTORE PUSH1 0x17 PUSH1 0x24 DUP3 ADD MSTORE PUSH23 0x21B0B63632B91036BAB9BA103132903932BA30B4B632B9 PUSH1 0x49 SHL PUSH1 0x44 DUP3 ADD MSTORE PUSH1 0x64 ADD PUSH2 0x272 JUMP JUMPDEST PUSH1 0x0 DUP4 DUP2 MSTORE PUSH1 0x8 PUSH1 0x20 MSTORE PUSH1 0x40 SWAP1 KECCAK256 PUSH1 0x3 ADD SLOAD PUSH2 0x100 SWAP1 DIV PUSH1 0xFF AND ISZERO PUSH2 0x21EF JUMPI PUSH1 0x40 MLOAD PUSH3 0x461BCD PUSH1 0xE5 SHL DUP2 MSTORE PUSH1 0x4 ADD PUSH2 0x272 SWAP1 PUSH2 0x3AF1 JUMP JUMPDEST PUSH1 0x0 DUP4 DUP2 MSTORE PUSH1 0x8 PUSH1 0x20 MSTORE PUSH1 0x40 SWAP1 KECCAK256 PUSH1 0x3 ADD SLOAD PUSH1 0xFF AND ISZERO PUSH2 0x2251 JUMPI PUSH1 0x40 MLOAD PUSH3 0x461BCD PUSH1 0xE5 SHL DUP2 MSTORE PUSH1 0x20 PUSH1 0x4 DUP3 ADD MSTORE PUSH1 0x1A PUSH1 0x24 DUP3 ADD MSTORE PUSH32 0x50726F64756374206861732070656E64696E672072657475726E000000000000 PUSH1 0x44 DUP3 ADD MSTORE PUSH1 0x64 ADD PUSH2 0x272 JUMP JUMPDEST PUSH1 0x40 DUP1 MLOAD PUSH1 0xC0 DUP2 ADD DUP3 MSTORE DUP5 DUP2 MSTORE CALLER PUSH1 0x20 DUP1 DUP4 ADD SWAP2 DUP3 MSTORE PUSH1 0x1 PUSH1 0x1 PUSH1 0xA0 SHL SUB DUP7 DUP2 AND DUP5 DUP7 ADD SWAP1 DUP2 MSTORE PUSH1 0x3 PUSH1 0x60 DUP7 ADD SWAP1 DUP2 MSTORE TIMESTAMP PUSH1 0x80 DUP8 ADD MSTORE PUSH1 0xA0 DUP7 ADD DUP9 SWAP1 MSTORE PUSH1 0x0 DUP11 DUP2 MSTORE PUSH1 0xA DUP6 MSTORE SWAP7 DUP8 KECCAK256 DUP1 SLOAD PUSH1 0x1 DUP1 DUP3 ADD DUP4 SSTORE SWAP2 DUP10 MSTORE SWAP5 SWAP1 SWAP8 KECCAK256 DUP7 MLOAD PUSH1 0x5 SWAP1 SWAP6 MUL ADD SWAP4 DUP5 SSTORE SWAP4 MLOAD SWAP6 DUP4 ADD DUP1 SLOAD SWAP7 DUP4 AND PUSH1 0x1 PUSH1 0x1 PUSH1 0xA0 SHL SUB NOT SWAP8 DUP9 AND OR SWAP1 SSTORE MLOAD PUSH1 0x2 DUP4 ADD DUP1 SLOAD SWAP2 SWAP1 SWAP3 AND SWAP6 DUP2 AND DUP7 OR DUP3 SSTORE SWAP3 MLOAD SWAP4 SWAP5 DUP6 SWAP5 SWAP3 SWAP4 PUSH1 0x1 PUSH1 0x1 PUSH1 0xA8 SHL SUB NOT AND OR PUSH1 0x1 PUSH1 0xA0 SHL DUP4 PUSH1 0x8 DUP2 GT ISZERO PUSH2 0x230A JUMPI PUSH2 0x230A PUSH2 0x33A0 JUMP JUMPDEST MUL OR SWAP1 SSTORE POP PUSH1 0x80 DUP3 ADD MLOAD PUSH1 0x3 DUP3 ADD SSTORE PUSH1 0xA0 DUP3 ADD MLOAD PUSH1 0x4 DUP3 ADD SWAP1 PUSH2 0x232D SWAP1 DUP3 PUSH2 0x3A01 JUMP JUMPDEST POP POP PUSH1 0x40 MLOAD PUSH1 0x1 PUSH1 0x1 PUSH1 0xA0 SHL SUB DUP6 AND SWAP2 POP CALLER SWAP1 DUP7 SWAP1 PUSH32 0xFE0FD664B79935C18377297309C92F6ABE60CCAA6D43BD30327C508C7FDA080E SWAP1 PUSH1 0x0 SWAP1 LOG4 POP POP POP POP JUMP JUMPDEST PUSH2 0x2376 PUSH2 0x2E26 JUMP JUMPDEST PUSH2 0x237E PUSH2 0x2DA3 JUMP JUMPDEST PUSH1 0x0 DUP2 DUP2 MSTORE PUSH1 0x3 PUSH1 0x20 MSTORE PUSH1 0x40 SWAP1 KECCAK256 SLOAD PUSH2 0x23D0 JUMPI PUSH1 0x40 MLOAD PUSH3 0x461BCD PUSH1 0xE5 SHL DUP2 MSTORE PUSH1 0x20 PUSH1 0x4 DUP3 ADD MSTORE PUSH1 0x14 PUSH1 0x24 DUP3 ADD MSTORE PUSH20 0x50726F64756374206E6F7420666F722073616C65 PUSH1 0x60 SHL PUSH1 0x44 DUP3 ADD MSTORE PUSH1 0x64 ADD PUSH2 0x272 JUMP JUMPDEST PUSH1 0x0 DUP2 DUP2 MSTORE PUSH1 0x3 PUSH1 0x20 MSTORE PUSH1 0x40 SWAP1 KECCAK256 SLOAD CALLVALUE EQ PUSH2 0x242D JUMPI PUSH1 0x40 MLOAD PUSH3 0x461BCD PUSH1 0xE5 SHL DUP2 MSTORE PUSH1 0x20 PUSH1 0x4 DUP3 ADD MSTORE PUSH1 0x18 PUSH1 0x24 DUP3 ADD MSTORE PUSH32 0x496E636F7272656374207061796D656E7420616D6F756E740000000000000000 PUSH1 0x44 DUP3 ADD MSTORE PUSH1 0x64 ADD PUSH2 0x272 JUMP JUMPDEST PUSH1 0x0 DUP2 DUP2 MSTORE PUSH1 0x4 PUSH1 0x20 MSTORE PUSH1 0x40 SWAP1 KECCAK256 SLOAD ISZERO PUSH2 0x2489 JUMPI PUSH1 0x40 MLOAD PUSH3 0x461BCD PUSH1 0xE5 SHL DUP2 MSTORE PUSH1 0x20 PUSH1 0x4 DUP3 ADD MSTORE PUSH1 0x19 PUSH1 0x24 DUP3 ADD MSTORE PUSH32 0x5061796D656E7420616C726561647920696E20657363726F7700000000000000 PUSH1 0x44 DUP3 ADD MSTORE PUSH1 0x64 ADD PUSH2 0x272 JUMP JUMPDEST PUSH1 0x0 DUP2 DUP2 MSTORE PUSH1 0x8 PUSH1 0x20 MSTORE PUSH1 0x40 SWAP1 KECCAK256 PUSH1 0x3 ADD SLOAD PUSH2 0x100 SWAP1 DIV PUSH1 0xFF AND ISZERO PUSH2 0x24C0 JUMPI PUSH1 0x40 MLOAD PUSH3 0x461BCD PUSH1 0xE5 SHL DUP2 MSTORE PUSH1 0x4 ADD PUSH2 0x272 SWAP1 PUSH2 0x3AF1 JUMP JUMPDEST PUSH1 0x0 DUP2 DUP2 MSTORE PUSH1 0x4 PUSH1 0x20 DUP2 SWAP1 MSTORE PUSH1 0x40 SWAP2 DUP3 SWAP1 KECCAK256 CALLVALUE SWAP1 SSTORE PUSH1 0x7 SLOAD SWAP2 MLOAD PUSH4 0x31A9108F PUSH1 0xE1 SHL DUP2 MSTORE SWAP1 DUP2 ADD DUP4 SWAP1 MSTORE PUSH1 0x1 PUSH1 0x1 PUSH1 0xA0 SHL SUB SWAP1 SWAP2 AND SWAP1 PUSH4 0x6352211E SWAP1 PUSH1 0x24 ADD PUSH1 0x20 PUSH1 0x40 MLOAD DUP1 DUP4 SUB DUP2 DUP7 GAS STATICCALL ISZERO DUP1 ISZERO PUSH2 0x251C JUMPI RETURNDATASIZE PUSH1 0x0 DUP1 RETURNDATACOPY RETURNDATASIZE PUSH1 0x0 REVERT JUMPDEST POP POP POP POP PUSH1 0x40 MLOAD RETURNDATASIZE PUSH1 0x1F NOT PUSH1 0x1F DUP3 ADD AND DUP3 ADD DUP1 PUSH1 0x40 MSTORE POP DUP2 ADD SWAP1 PUSH2 0x2540 SWAP2 SWAP1 PUSH2 0x3AD4 JUMP JUMPDEST PUSH1 0x0 DUP3 DUP2 MSTORE PUSH1 0x5 PUSH1 0x20 SWAP1 DUP2 MSTORE PUSH1 0x40 SWAP2 DUP3 SWAP1 KECCAK256 DUP1 SLOAD PUSH1 0x1 PUSH1 0x1 PUSH1 0xA0 SHL SUB NOT AND PUSH1 0x1 PUSH1 0x1 PUSH1 0xA0 SHL SUB SWAP5 SWAP1 SWAP5 AND SWAP4 SWAP1 SWAP4 OR SWAP1 SWAP3 SSTORE MLOAD CALLVALUE DUP2 MSTORE CALLER SWAP2 DUP4 SWAP2 PUSH32 0x4D3F6D68B42E1E039D6E7323B2B8BDEAF223F453882CE17A5984F4D6AABBDB33 SWAP2 ADD PUSH1 0x40 MLOAD DUP1 SWAP2 SUB SWAP1 LOG3 PUSH2 0x8D5 PUSH1 0x1 PUSH1 0x2 SSTORE JUMP JUMPDEST PUSH1 0x0 DUP3 DUP2 MSTORE PUSH1 0x20 DUP2 SWAP1 MSTORE PUSH1 0x40 SWAP1 KECCAK256 PUSH1 0x1 ADD SLOAD PUSH2 0x25C9 DUP2 PUSH2 0x2C5E JUMP JUMPDEST PUSH2 0x83F DUP4 DUP4 PUSH2 0x2CEC JUMP JUMPDEST PUSH2 0x25DB PUSH2 0x2DA3 JUMP JUMPDEST PUSH1 0x0 DUP2 DUP2 MSTORE PUSH1 0x8 PUSH1 0x20 MSTORE PUSH1 0x40 SWAP1 KECCAK256 PUSH1 0x2 ADD SLOAD PUSH2 0x262C JUMPI PUSH1 0x40 MLOAD PUSH3 0x461BCD PUSH1 0xE5 SHL DUP2 MSTORE PUSH1 0x20 PUSH1 0x4 DUP3 ADD MSTORE PUSH1 0x10 PUSH1 0x24 DUP3 ADD MSTORE PUSH16 0x4E6F20726563616C6C20657869737473 PUSH1 0x80 SHL PUSH1 0x44 DUP3 ADD MSTORE PUSH1 0x64 ADD PUSH2 0x272 JUMP JUMPDEST PUSH1 0x0 DUP2 DUP2 MSTORE PUSH1 0x8 PUSH1 0x20 MSTORE PUSH1 0x40 SWAP1 KECCAK256 PUSH1 0x3 ADD SLOAD PUSH2 0x100 SWAP1 DIV PUSH1 0xFF AND PUSH2 0x2681 JUMPI PUSH1 0x40 MLOAD PUSH3 0x461BCD PUSH1 0xE5 SHL DUP2 MSTORE PUSH1 0x20 PUSH1 0x4 DUP3 ADD MSTORE PUSH1 0xC PUSH1 0x24 DUP3 ADD MSTORE PUSH12 0x139BDD0818481C9958D85B1B PUSH1 0xA2 SHL PUSH1 0x44 DUP3 ADD MSTORE PUSH1 0x64 ADD PUSH2 0x272 JUMP JUMPDEST PUSH1 0x0 DUP2 DUP2 MSTORE PUSH1 0x8 PUSH1 0x20 MSTORE PUSH1 0x40 DUP2 KECCAK256 DUP1 SLOAD PUSH1 0x1 PUSH1 0x1 PUSH1 0xA0 SHL SUB NOT AND DUP2 SSTORE SWAP1 PUSH2 0x26AB PUSH1 0x1 DUP4 ADD DUP3 PUSH2 0x311F JUMP JUMPDEST POP PUSH1 0x0 PUSH1 0x2 DUP3 ADD DUP2 SWAP1 SSTORE PUSH1 0x3 SWAP1 SWAP2 ADD DUP1 SLOAD PUSH2 0xFFFF NOT AND SWAP1 SSTORE PUSH1 0x40 MLOAD CALLER SWAP2 DUP4 SWAP2 PUSH32 0x1458428970EE0C7C9FF91684136DCCAE5F5C6E35EBEF6A18188D864876816D1F SWAP2 SWAP1 LOG3 POP JUMP JUMPDEST PUSH2 0x26F9 PUSH2 0x2DA3 JUMP JUMPDEST PUSH2 0x2704 PUSH1 0x0 CALLER PUSH2 0x13AA JUMP JUMPDEST DUP1 PUSH2 0x2722 JUMPI POP PUSH2 0x2722 PUSH1 0x0 DUP1 MLOAD PUSH1 0x20 PUSH2 0x3D3B DUP4 CODECOPY DUP2 MLOAD SWAP2 MSTORE CALLER PUSH2 0x13AA JUMP JUMPDEST PUSH2 0x275D JUMPI PUSH1 0x40 MLOAD PUSH3 0x461BCD PUSH1 0xE5 SHL DUP2 MSTORE PUSH1 0x20 PUSH1 0x4 DUP3 ADD MSTORE PUSH1 0xC PUSH1 0x24 DUP3 ADD MSTORE PUSH12 0x155B985D5D1A1BDC9A5E9959 PUSH1 0xA2 SHL PUSH1 0x44 DUP3 ADD MSTORE PUSH1 0x64 ADD PUSH2 0x272 JUMP JUMPDEST PUSH1 0x0 DUP3 DUP2 MSTORE PUSH1 0xA PUSH1 0x20 MSTORE PUSH1 0x40 SWAP1 KECCAK256 SLOAD PUSH2 0x2788 JUMPI PUSH1 0x40 MLOAD PUSH3 0x461BCD PUSH1 0xE5 SHL DUP2 MSTORE PUSH1 0x4 ADD PUSH2 0x272 SWAP1 PUSH2 0x3949 JUMP JUMPDEST PUSH1 0x0 DUP3 DUP2 MSTORE PUSH1 0xA PUSH1 0x20 MSTORE PUSH1 0x40 SWAP1 KECCAK256 DUP1 SLOAD DUP3 SWAP1 DUP3 SWAP1 PUSH2 0x27A8 SWAP1 PUSH1 0x1 SWAP1 PUSH2 0x398A JUMP JUMPDEST DUP2 SLOAD DUP2 LT PUSH2 0x27B8 JUMPI PUSH2 0x27B8 PUSH2 0x399D JUMP JUMPDEST PUSH1 0x0 SWAP2 DUP3 MSTORE PUSH1 0x20 SWAP1 SWAP2 KECCAK256 PUSH1 0x2 PUSH1 0x5 SWAP1 SWAP3 MUL ADD ADD DUP1 SLOAD PUSH1 0xFF PUSH1 0xA0 SHL NOT AND PUSH1 0x1 PUSH1 0xA0 SHL DUP4 PUSH1 0x8 DUP2 GT ISZERO PUSH2 0x27EB JUMPI PUSH2 0x27EB PUSH2 0x33A0 JUMP JUMPDEST MUL OR SWAP1 SSTORE POP DUP3 PUSH32 0xE07678EBDA9FF268C2C8531BB0EBFC488D9FA7067D919572337A14A72C3AA0B7 DUP4 PUSH1 0x40 MLOAD PUSH2 0xAB5 SWAP2 SWAP1 PUSH2 0x3C09 JUMP JUMPDEST PUSH2 0x2828 PUSH2 0x2E26 JUMP JUMPDEST PUSH2 0x2830 PUSH2 0x2DA3 JUMP JUMPDEST PUSH2 0x283B PUSH1 0x0 CALLER PUSH2 0x13AA JUMP JUMPDEST DUP1 PUSH2 0x285C JUMPI POP PUSH1 0x0 DUP2 DUP2 MSTORE PUSH1 0x5 PUSH1 0x20 MSTORE PUSH1 0x40 SWAP1 KECCAK256 SLOAD PUSH1 0x1 PUSH1 0x1 PUSH1 0xA0 SHL SUB AND CALLER EQ JUMPDEST PUSH2 0x28A8 JUMPI PUSH1 0x40 MLOAD PUSH3 0x461BCD PUSH1 0xE5 SHL DUP2 MSTORE PUSH1 0x20 PUSH1 0x4 DUP3 ADD MSTORE PUSH1 0x18 PUSH1 0x24 DUP3 ADD MSTORE PUSH32 0x4E6F7420617574686F72697A656420746F20726566756E640000000000000000 PUSH1 0x44 DUP3 ADD MSTORE PUSH1 0x64 ADD PUSH2 0x272 JUMP JUMPDEST PUSH1 0x0 DUP2 DUP2 MSTORE PUSH1 0x4 PUSH1 0x20 MSTORE PUSH1 0x40 SWAP1 KECCAK256 SLOAD PUSH2 0x28D3 JUMPI PUSH1 0x40 MLOAD PUSH3 0x461BCD PUSH1 0xE5 SHL DUP2 MSTORE PUSH1 0x4 ADD PUSH2 0x272 SWAP1 PUSH2 0x3B56 JUMP JUMPDEST PUSH1 0x0 DUP2 DUP2 MSTORE PUSH1 0x4 PUSH1 0x20 DUP2 SWAP1 MSTORE PUSH1 0x40 DUP1 DUP4 KECCAK256 SLOAD PUSH1 0x7 SLOAD SWAP2 MLOAD PUSH4 0x31A9108F PUSH1 0xE1 SHL DUP2 MSTORE SWAP3 DUP4 ADD DUP6 SWAP1 MSTORE SWAP3 SWAP2 PUSH1 0x1 PUSH1 0x1 PUSH1 0xA0 SHL SUB SWAP1 SWAP2 AND SWAP1 PUSH4 0x6352211E SWAP1 PUSH1 0x24 ADD PUSH1 0x20 PUSH1 0x40 MLOAD DUP1 DUP4 SUB DUP2 DUP7 GAS STATICCALL ISZERO DUP1 ISZERO PUSH2 0x292E JUMPI RETURNDATASIZE PUSH1 0x0 DUP1 RETURNDATACOPY RETURNDATASIZE PUSH1 0x0 REVERT JUMPDEST POP POP POP POP PUSH1 0x40 MLOAD RETURNDATASIZE PUSH1 0x1F NOT PUSH1 0x1F DUP3 ADD AND DUP3 ADD DUP1 PUSH1 0x40 MSTORE POP DUP2 ADD SWAP1 PUSH2 0x2952 SWAP2 SWAP1 PUSH2 0x3AD4 JUMP JUMPDEST PUSH1 0x0 DUP5 DUP2 MSTORE PUSH1 0x4 PUSH1 0x20 SWAP1 DUP2 MSTORE PUSH1 0x40 DUP1 DUP4 KECCAK256 DUP4 SWAP1 SSTORE PUSH1 0x5 SWAP1 SWAP2 MSTORE DUP1 DUP3 KECCAK256 DUP1 SLOAD PUSH1 0x1 PUSH1 0x1 PUSH1 0xA0 SHL SUB NOT AND SWAP1 SSTORE MLOAD SWAP2 SWAP3 POP SWAP1 PUSH1 0x1 PUSH1 0x1 PUSH1 0xA0 SHL SUB DUP4 AND SWAP1 DUP5 SWAP1 DUP4 DUP2 DUP2 DUP2 DUP6 DUP8 GAS CALL SWAP3 POP POP POP RETURNDATASIZE DUP1 PUSH1 0x0 DUP2 EQ PUSH2 0x29C6 JUMPI PUSH1 0x40 MLOAD SWAP2 POP PUSH1 0x1F NOT PUSH1 0x3F RETURNDATASIZE ADD AND DUP3 ADD PUSH1 0x40 MSTORE RETURNDATASIZE DUP3 MSTORE RETURNDATASIZE PUSH1 0x0 PUSH1 0x20 DUP5 ADD RETURNDATACOPY PUSH2 0x29CB JUMP JUMPDEST PUSH1 0x60 SWAP2 POP JUMPDEST POP POP SWAP1 POP DUP1 PUSH2 0x2A0C JUMPI PUSH1 0x40 MLOAD PUSH3 0x461BCD PUSH1 0xE5 SHL DUP2 MSTORE PUSH1 0x20 PUSH1 0x4 DUP3 ADD MSTORE PUSH1 0xD PUSH1 0x24 DUP3 ADD MSTORE PUSH13 0x1499599D5B990819985A5B1959 PUSH1 0x9A SHL PUSH1 0x44 DUP3 ADD MSTORE PUSH1 0x64 ADD PUSH2 0x272 JUMP JUMPDEST DUP2 PUSH1 0x1 PUSH1 0x1 PUSH1 0xA0 SHL SUB AND DUP5 PUSH32 0xE89EC1881A76229445BCD179B8C4B24F9EDC7DDD87D07FB3B19C67AE9C6E27CC DUP6 PUSH1 0x40 MLOAD PUSH2 0x1395 SWAP2 DUP2 MSTORE PUSH1 0x20 ADD SWAP1 JUMP JUMPDEST PUSH2 0x2A50 PUSH2 0x2DA3 JUMP JUMPDEST PUSH2 0x2A5B PUSH1 0x0 CALLER PUSH2 0x13AA JUMP JUMPDEST DUP1 PUSH2 0x2A79 JUMPI POP PUSH2 0x2A79 PUSH1 0x0 DUP1 MLOAD PUSH1 0x20 PUSH2 0x3D3B DUP4 CODECOPY DUP2 MLOAD SWAP2 MSTORE CALLER PUSH2 0x13AA JUMP JUMPDEST PUSH2 0x2AD7 JUMPI PUSH1 0x40 MLOAD PUSH3 0x461BCD PUSH1 0xE5 SHL DUP2 MSTORE PUSH1 0x20 PUSH1 0x4 DUP3 ADD MSTORE PUSH1 0x29 PUSH1 0x24 DUP3 ADD MSTORE PUSH32 0x4F6E6C792061646D696E206F722072657461696C65722063616E2072656A6563 PUSH1 0x44 DUP3 ADD MSTORE PUSH9 0x742072657475726E73 PUSH1 0xB8 SHL PUSH1 0x64 DUP3 ADD MSTORE PUSH1 0x84 ADD PUSH2 0x272 JUMP JUMPDEST PUSH1 0x0 DUP2 DUP2 MSTORE PUSH1 0x8 PUSH1 0x20 MSTORE PUSH1 0x40 SWAP1 KECCAK256 PUSH1 0x2 ADD SLOAD PUSH2 0x2B2B JUMPI PUSH1 0x40 MLOAD PUSH3 0x461BCD PUSH1 0xE5 SHL DUP2 MSTORE PUSH1 0x20 PUSH1 0x4 DUP3 ADD MSTORE PUSH1 0x13 PUSH1 0x24 DUP3 ADD MSTORE PUSH19 0x139BC81C995D1D5C9B881C995C5D595CDD1959 PUSH1 0x6A SHL PUSH1 0x44 DUP3 ADD MSTORE PUSH1 0x64 ADD PUSH2 0x272 JUMP JUMPDEST PUSH1 0x0 DUP2 DUP2 MSTORE PUSH1 0x8 PUSH1 0x20 MSTORE PUSH1 0x40 SWAP1 KECCAK256 PUSH1 0x3 ADD SLOAD PUSH1 0xFF AND ISZERO PUSH2 0x2B87 JUMPI PUSH1 0x40 MLOAD PUSH3 0x461BCD PUSH1 0xE5 SHL DUP2 MSTORE PUSH1 0x20 PUSH1 0x4 DUP3 ADD MSTORE PUSH1 0x17 PUSH1 0x24 DUP3 ADD MSTORE PUSH23 0x14995D1D5C9B88185B1C9958591E48185C1C1C9BDD9959 PUSH1 0x4A SHL PUSH1 0x44 DUP3 ADD MSTORE PUSH1 0x64 ADD PUSH2 0x272 JUMP JUMPDEST PUSH1 0x0 DUP2 DUP2 MSTORE PUSH1 0x8 PUSH1 0x20 MSTORE PUSH1 0x40 SWAP1 KECCAK256 PUSH1 0x3 ADD SLOAD PUSH2 0x100 SWAP1 DIV PUSH1 0xFF AND ISZERO PUSH2 0x2BEE JUMPI PUSH1 0x40 MLOAD PUSH3 0x461BCD PUSH1 0xE5 SHL DUP2 MSTORE PUSH1 0x20 PUSH1 0x4 DUP3 ADD MSTORE PUSH1 0x1E PUSH1 0x24 DUP3 ADD MSTORE PUSH32 0x43616E6E6F742072656A65637420726563616C6C2061732072657475726E0000 PUSH1 0x44 DUP3 ADD MSTORE PUSH1 0x64 ADD PUSH2 0x272 JUMP JUMPDEST PUSH1 0x0 DUP2 DUP2 MSTORE PUSH1 0x8 PUSH1 0x20 MSTORE PUSH1 0x40 DUP2 KECCAK256 DUP1 SLOAD PUSH1 0x1 PUSH1 0x1 PUSH1 0xA0 SHL SUB NOT AND DUP2 SSTORE SWAP1 PUSH2 0x2C18 PUSH1 0x1 DUP4 ADD DUP3 PUSH2 0x311F JUMP JUMPDEST POP PUSH1 0x0 PUSH1 0x2 DUP3 ADD DUP2 SWAP1 SSTORE PUSH1 0x3 SWAP1 SWAP2 ADD DUP1 SLOAD PUSH2 0xFFFF NOT AND SWAP1 SSTORE PUSH1 0x40 MLOAD CALLER SWAP2 DUP4 SWAP2 PUSH32 0x791610E49233E39B9D3A534A749B0CAC20D66C0E35E68FA0CBC907569A20D20C SWAP2 SWAP1 LOG3 POP JUMP JUMPDEST PUSH2 0x8D5 DUP2 CALLER PUSH2 0x2E7D JUMP JUMPDEST PUSH2 0x2C72 DUP3 DUP3 PUSH2 0x13AA JUMP JUMPDEST PUSH2 0x8BE JUMPI PUSH1 0x0 DUP3 DUP2 MSTORE PUSH1 0x20 DUP2 DUP2 MSTORE PUSH1 0x40 DUP1 DUP4 KECCAK256 PUSH1 0x1 PUSH1 0x1 PUSH1 0xA0 SHL SUB DUP6 AND DUP5 MSTORE SWAP1 SWAP2 MSTORE SWAP1 KECCAK256 DUP1 SLOAD PUSH1 0xFF NOT AND PUSH1 0x1 OR SWAP1 SSTORE PUSH2 0x2CA8 CALLER SWAP1 JUMP JUMPDEST PUSH1 0x1 PUSH1 0x1 PUSH1 0xA0 SHL SUB AND DUP2 PUSH1 0x1 PUSH1 0x1 PUSH1 0xA0 SHL SUB AND DUP4 PUSH32 0x2F8788117E7EFF1D82E926EC794901D17C78024A50270940304540A733656F0D PUSH1 0x40 MLOAD PUSH1 0x40 MLOAD DUP1 SWAP2 SUB SWAP1 LOG4 POP POP JUMP JUMPDEST PUSH2 0x2CF6 DUP3 DUP3 PUSH2 0x13AA JUMP JUMPDEST ISZERO PUSH2 0x8BE JUMPI PUSH1 0x0 DUP3 DUP2 MSTORE PUSH1 0x20 DUP2 DUP2 MSTORE PUSH1 0x40 DUP1 DUP4 KECCAK256 PUSH1 0x1 PUSH1 0x1 PUSH1 0xA0 SHL SUB DUP6 AND DUP1 DUP6 MSTORE SWAP3 MSTORE DUP1 DUP4 KECCAK256 DUP1 SLOAD PUSH1 0xFF NOT AND SWAP1 SSTORE MLOAD CALLER SWAP3 DUP6 SWAP2 PUSH32 0xF6391F5C32D9C69D2A47EA670B442974B53935D1EDC7FD64EB21E047A839171B SWAP2 SWAP1 LOG4 POP POP JUMP JUMPDEST PUSH2 0x2D59 PUSH2 0x2ED6 JUMP JUMPDEST PUSH1 0x1 DUP1 SLOAD PUSH1 0xFF NOT AND SWAP1 SSTORE PUSH32 0x5DB9EE0A495BF2E6FF9C91A7834C1BA4FDD244A5E8AA4E537BD38AEAE4B073AA CALLER JUMPDEST PUSH1 0x40 MLOAD PUSH1 0x1 PUSH1 0x1 PUSH1 0xA0 SHL SUB SWAP1 SWAP2 AND DUP2 MSTORE PUSH1 0x20 ADD PUSH1 0x40 MLOAD DUP1 SWAP2 SUB SWAP1 LOG1 JUMP JUMPDEST PUSH1 0x1 SLOAD PUSH1 0xFF AND ISZERO PUSH2 0x2DE9 JUMPI PUSH1 0x40 MLOAD PUSH3 0x461BCD PUSH1 0xE5 SHL DUP2 MSTORE PUSH1 0x20 PUSH1 0x4 DUP3 ADD MSTORE PUSH1 0x10 PUSH1 0x24 DUP3 ADD MSTORE PUSH16 0x14185D5CD8589B194E881C185D5CD959 PUSH1 0x82 SHL PUSH1 0x44 DUP3 ADD MSTORE PUSH1 0x64 ADD PUSH2 0x272 JUMP JUMPDEST JUMP JUMPDEST PUSH2 0x2DF3 PUSH2 0x2DA3 JUMP JUMPDEST PUSH1 0x1 DUP1 SLOAD PUSH1 0xFF NOT AND DUP2 OR SWAP1 SSTORE PUSH32 0x62E78CEA01BEE320CD4E420270B5EA74000D11B0C9F74754EBDBFC544B05A258 CALLER PUSH2 0x2D86 JUMP JUMPDEST PUSH1 0x2 DUP1 SLOAD SUB PUSH2 0x2E77 JUMPI PUSH1 0x40 MLOAD PUSH3 0x461BCD PUSH1 0xE5 SHL DUP2 MSTORE PUSH1 0x20 PUSH1 0x4 DUP3 ADD MSTORE PUSH1 0x1F PUSH1 0x24 DUP3 ADD MSTORE PUSH32 0x5265656E7472616E637947756172643A207265656E7472616E742063616C6C00 PUSH1 0x44 DUP3 ADD MSTORE PUSH1 0x64 ADD PUSH2 0x272 JUMP JUMPDEST PUSH1 0x2 DUP1 SSTORE JUMP JUMPDEST PUSH2 0x2E87 DUP3 DUP3 PUSH2 0x13AA JUMP JUMPDEST PUSH2 0x8BE JUMPI PUSH2 0x2E94 DUP2 PUSH2 0x2F1F JUMP JUMPDEST PUSH2 0x2E9F DUP4 PUSH1 0x20 PUSH2 0x2F31 JUMP JUMPDEST PUSH1 0x40 MLOAD PUSH1 0x20 ADD PUSH2 0x2EB0 SWAP3 SWAP2 SWAP1 PUSH2 0x3C97 JUMP JUMPDEST PUSH1 0x40 DUP1 MLOAD PUSH1 0x1F NOT DUP2 DUP5 SUB ADD DUP2 MSTORE SWAP1 DUP3 SWAP1 MSTORE PUSH3 0x461BCD PUSH1 0xE5 SHL DUP3 MSTORE PUSH2 0x272 SWAP2 PUSH1 0x4 ADD PUSH2 0x3AC1 JUMP JUMPDEST PUSH1 0x1 SLOAD PUSH1 0xFF AND PUSH2 0x2DE9 JUMPI PUSH1 0x40 MLOAD PUSH3 0x461BCD PUSH1 0xE5 SHL DUP2 MSTORE PUSH1 0x20 PUSH1 0x4 DUP3 ADD MSTORE PUSH1 0x14 PUSH1 0x24 DUP3 ADD MSTORE PUSH20 0x14185D5CD8589B194E881B9BDD081C185D5CD959 PUSH1 0x62 SHL PUSH1 0x44 DUP3 ADD MSTORE PUSH1 0x64 ADD PUSH2 0x272 JUMP JUMPDEST PUSH1 0x60 PUSH2 0x814 PUSH1 0x1 PUSH1 0x1 PUSH1 0xA0 SHL SUB DUP4 AND PUSH1 0x14 JUMPDEST PUSH1 0x60 PUSH1 0x0 PUSH2 0x2F40 DUP4 PUSH1 0x2 PUSH2 0x3D0C JUMP JUMPDEST PUSH2 0x2F4B SWAP1 PUSH1 0x2 PUSH2 0x3C84 JUMP JUMPDEST PUSH8 0xFFFFFFFFFFFFFFFF DUP2 GT ISZERO PUSH2 0x2F63 JUMPI PUSH2 0x2F63 PUSH2 0x3285 JUMP JUMPDEST PUSH1 0x40 MLOAD SWAP1 DUP1 DUP3 MSTORE DUP1 PUSH1 0x1F ADD PUSH1 0x1F NOT AND PUSH1 0x20 ADD DUP3 ADD PUSH1 0x40 MSTORE DUP1 ISZERO PUSH2 0x2F8D JUMPI PUSH1 0x20 DUP3 ADD DUP2 DUP1 CALLDATASIZE DUP4 CALLDATACOPY ADD SWAP1 POP JUMPDEST POP SWAP1 POP PUSH1 0x3 PUSH1 0xFC SHL DUP2 PUSH1 0x0 DUP2 MLOAD DUP2 LT PUSH2 0x2FA8 JUMPI PUSH2 0x2FA8 PUSH2 0x399D JUMP JUMPDEST PUSH1 0x20 ADD ADD SWAP1 PUSH1 0x1 PUSH1 0x1 PUSH1 0xF8 SHL SUB NOT AND SWAP1 DUP2 PUSH1 0x0 BYTE SWAP1 MSTORE8 POP PUSH1 0xF PUSH1 0xFB SHL DUP2 PUSH1 0x1 DUP2 MLOAD DUP2 LT PUSH2 0x2FD7 JUMPI PUSH2 0x2FD7 PUSH2 0x399D JUMP JUMPDEST PUSH1 0x20 ADD ADD SWAP1 PUSH1 0x1 PUSH1 0x1 PUSH1 0xF8 SHL SUB NOT AND SWAP1 DUP2 PUSH1 0x0 BYTE SWAP1 MSTORE8 POP PUSH1 0x0 PUSH2 0x2FFB DUP5 PUSH1 0x2 PUSH2 0x3D0C JUMP JUMPDEST PUSH2 0x3006 SWAP1 PUSH1 0x1 PUSH2 0x3C84 JUMP JUMPDEST SWAP1 POP JUMPDEST PUSH1 0x1 DUP2 GT ISZERO PUSH2 0x307E JUMPI PUSH16 0x181899199A1A9B1B9C1CB0B131B232B3 PUSH1 0x81 SHL DUP6 PUSH1 0xF AND PUSH1 0x10 DUP2 LT PUSH2 0x303A JUMPI PUSH2 0x303A PUSH2 0x399D JUMP JUMPDEST BYTE PUSH1 0xF8 SHL DUP3 DUP3 DUP2 MLOAD DUP2 LT PUSH2 0x3050 JUMPI PUSH2 0x3050 PUSH2 0x399D JUMP JUMPDEST PUSH1 0x20 ADD ADD SWAP1 PUSH1 0x1 PUSH1 0x1 PUSH1 0xF8 SHL SUB NOT AND SWAP1 DUP2 PUSH1 0x0 BYTE SWAP1 MSTORE8 POP PUSH1 0x4 SWAP5 SWAP1 SWAP5 SHR SWAP4 PUSH2 0x3077 DUP2 PUSH2 0x3D23 JUMP JUMPDEST SWAP1 POP PUSH2 0x3009 JUMP JUMPDEST POP DUP4 ISZERO PUSH2 0x30CD JUMPI PUSH1 0x40 MLOAD PUSH3 0x461BCD PUSH1 0xE5 SHL DUP2 MSTORE PUSH1 0x20 PUSH1 0x4 DUP3 ADD DUP2 SWAP1 MSTORE PUSH1 0x24 DUP3 ADD MSTORE PUSH32 0x537472696E67733A20686578206C656E67746820696E73756666696369656E74 PUSH1 0x44 DUP3 ADD MSTORE PUSH1 0x64 ADD PUSH2 0x272 JUMP JUMPDEST SWAP4 SWAP3 POP POP POP JUMP JUMPDEST DUP3 DUP1 SLOAD DUP3 DUP3 SSTORE SWAP1 PUSH1 0x0 MSTORE PUSH1 0x20 PUSH1 0x0 KECCAK256 SWAP1 DUP2 ADD SWAP3 DUP3 ISZERO PUSH2 0x310F JUMPI SWAP2 PUSH1 0x20 MUL DUP3 ADD JUMPDEST DUP3 DUP2 GT ISZERO PUSH2 0x310F JUMPI DUP3 MLOAD DUP3 SSTORE SWAP2 PUSH1 0x20 ADD SWAP2 SWAP1 PUSH1 0x1 ADD SWAP1 PUSH2 0x30F4 JUMP JUMPDEST POP PUSH2 0x311B SWAP3 SWAP2 POP PUSH2 0x3155 JUMP JUMPDEST POP SWAP1 JUMP JUMPDEST POP DUP1 SLOAD PUSH2 0x312B SWAP1 PUSH2 0x390F JUMP JUMPDEST PUSH1 0x0 DUP3 SSTORE DUP1 PUSH1 0x1F LT PUSH2 0x313B JUMPI POP POP JUMP JUMPDEST PUSH1 0x1F ADD PUSH1 0x20 SWAP1 DIV SWAP1 PUSH1 0x0 MSTORE PUSH1 0x20 PUSH1 0x0 KECCAK256 SWAP1 DUP2 ADD SWAP1 PUSH2 0x8D5 SWAP2 SWAP1 JUMPDEST JUMPDEST DUP1 DUP3 GT ISZERO PUSH2 0x311B JUMPI PUSH1 0x0 DUP2 SSTORE PUSH1 0x1 ADD PUSH2 0x3156 JUMP JUMPDEST PUSH1 0x0 PUSH1 0x20 DUP3 DUP5 SUB SLT ISZERO PUSH2 0x317C JUMPI PUSH1 0x0 DUP1 REVERT JUMPDEST DUP2 CALLDATALOAD PUSH1 0x1 PUSH1 0x1 PUSH1 0xE0 SHL SUB NOT DUP2 AND DUP2 EQ PUSH2 0x30CD JUMPI PUSH1 0x0 DUP1 REVERT JUMPDEST PUSH1 0x0 PUSH1 0x20 DUP3 DUP5 SUB SLT ISZERO PUSH2 0x31A6 JUMPI PUSH1 0x0 DUP1 REVERT JUMPDEST POP CALLDATALOAD SWAP2 SWAP1 POP JUMP JUMPDEST PUSH1 0x1 PUSH1 0x1 PUSH1 0xA0 SHL SUB DUP2 AND DUP2 EQ PUSH2 0x8D5 JUMPI PUSH1 0x0 DUP1 REVERT JUMPDEST PUSH1 0x0 DUP1 PUSH1 0x40 DUP4 DUP6 SUB SLT ISZERO PUSH2 0x31D5 JUMPI PUSH1 0x0 DUP1 REVERT JUMPDEST DUP3 CALLDATALOAD SWAP2 POP PUSH1 0x20 DUP4 ADD CALLDATALOAD PUSH2 0x31E7 DUP2 PUSH2 0x31AD JUMP JUMPDEST DUP1 SWAP2 POP POP SWAP3 POP SWAP3 SWAP1 POP JUMP JUMPDEST PUSH1 0x0 JUMPDEST DUP4 DUP2 LT ISZERO PUSH2 0x320D JUMPI DUP2 DUP2 ADD MLOAD DUP4 DUP3 ADD MSTORE PUSH1 0x20 ADD PUSH2 0x31F5 JUMP JUMPDEST POP POP PUSH1 0x0 SWAP2 ADD MSTORE JUMP JUMPDEST PUSH1 0x0 DUP2 MLOAD DUP1 DUP5 MSTORE PUSH2 0x322E DUP2 PUSH1 0x20 DUP7 ADD PUSH1 0x20 DUP7 ADD PUSH2 0x31F2 JUMP JUMPDEST PUSH1 0x1F ADD PUSH1 0x1F NOT AND SWAP3 SWAP1 SWAP3 ADD PUSH1 0x20 ADD SWAP3 SWAP2 POP POP JUMP JUMPDEST PUSH1 0x1 PUSH1 0x1 PUSH1 0xA0 SHL SUB DUP7 AND DUP2 MSTORE PUSH1 0xA0 PUSH1 0x20 DUP3 ADD DUP2 SWAP1 MSTORE PUSH1 0x0 SWAP1 PUSH2 0x3266 SWAP1 DUP4 ADD DUP8 PUSH2 0x3216 JUMP JUMPDEST PUSH1 0x40 DUP4 ADD SWAP6 SWAP1 SWAP6 MSTORE POP SWAP2 ISZERO ISZERO PUSH1 0x60 DUP4 ADD MSTORE ISZERO ISZERO PUSH1 0x80 SWAP1 SWAP2 ADD MSTORE SWAP3 SWAP2 POP POP JUMP JUMPDEST PUSH4 0x4E487B71 PUSH1 0xE0 SHL PUSH1 0x0 MSTORE PUSH1 0x41 PUSH1 0x4 MSTORE PUSH1 0x24 PUSH1 0x0 REVERT JUMPDEST PUSH1 0x40 MLOAD PUSH1 0x1F DUP3 ADD PUSH1 0x1F NOT AND DUP2 ADD PUSH8 0xFFFFFFFFFFFFFFFF DUP2 GT DUP3 DUP3 LT OR ISZERO PUSH2 0x32C4 JUMPI PUSH2 0x32C4 PUSH2 0x3285 JUMP JUMPDEST PUSH1 0x40 MSTORE SWAP2 SWAP1 POP JUMP JUMPDEST PUSH1 0x0 DUP3 PUSH1 0x1F DUP4 ADD SLT PUSH2 0x32DD JUMPI PUSH1 0x0 DUP1 REVERT JUMPDEST DUP2 CALLDATALOAD PUSH8 0xFFFFFFFFFFFFFFFF DUP2 GT ISZERO PUSH2 0x32F7 JUMPI PUSH2 0x32F7 PUSH2 0x3285 JUMP JUMPDEST PUSH2 0x330A PUSH1 0x1F DUP3 ADD PUSH1 0x1F NOT AND PUSH1 0x20 ADD PUSH2 0x329B JUMP JUMPDEST DUP2 DUP2 MSTORE DUP5 PUSH1 0x20 DUP4 DUP7 ADD ADD GT ISZERO PUSH2 0x331F JUMPI PUSH1 0x0 DUP1 REVERT JUMPDEST DUP2 PUSH1 0x20 DUP6 ADD PUSH1 0x20 DUP4 ADD CALLDATACOPY PUSH1 0x0 SWAP2 DUP2 ADD PUSH1 0x20 ADD SWAP2 SWAP1 SWAP2 MSTORE SWAP4 SWAP3 POP POP POP JUMP JUMPDEST PUSH1 0x0 DUP1 PUSH1 0x40 DUP4 DUP6 SUB SLT ISZERO PUSH2 0x334F JUMPI PUSH1 0x0 DUP1 REVERT JUMPDEST DUP3 CALLDATALOAD SWAP2 POP PUSH1 0x20 DUP4 ADD CALLDATALOAD PUSH8 0xFFFFFFFFFFFFFFFF DUP2 GT ISZERO PUSH2 0x336D JUMPI PUSH1 0x0 DUP1 REVERT JUMPDEST PUSH2 0x3379 DUP6 DUP3 DUP7 ADD PUSH2 0x32CC JUMP JUMPDEST SWAP2 POP POP SWAP3 POP SWAP3 SWAP1 POP JUMP JUMPDEST PUSH1 0x0 PUSH1 0x20 DUP3 DUP5 SUB SLT ISZERO PUSH2 0x3395 JUMPI PUSH1 0x0 DUP1 REVERT JUMPDEST DUP2 CALLDATALOAD PUSH2 0x30CD DUP2 PUSH2 0x31AD JUMP JUMPDEST PUSH4 0x4E487B71 PUSH1 0xE0 SHL PUSH1 0x0 MSTORE PUSH1 0x21 PUSH1 0x4 MSTORE PUSH1 0x24 PUSH1 0x0 REVERT JUMPDEST PUSH1 0x9 DUP2 LT PUSH2 0x33D4 JUMPI PUSH4 0x4E487B71 PUSH1 0xE0 SHL PUSH1 0x0 MSTORE PUSH1 0x21 PUSH1 0x4 MSTORE PUSH1 0x24 PUSH1 0x0 REVERT JUMPDEST SWAP1 MSTORE JUMP JUMPDEST PUSH1 0x0 PUSH1 0x20 DUP1 DUP4 ADD DUP2 DUP5 MSTORE DUP1 DUP6 MLOAD DUP1 DUP4 MSTORE PUSH1 0x40 SWAP3 POP DUP3 DUP7 ADD SWAP2 POP DUP3 DUP2 PUSH1 0x5 SHL DUP8 ADD ADD DUP5 DUP9 ADD PUSH1 0x0 JUMPDEST DUP4 DUP2 LT ISZERO PUSH2 0x3480 JUMPI DUP9 DUP4 SUB PUSH1 0x3F NOT ADD DUP6 MSTORE DUP2 MLOAD DUP1 MLOAD DUP5 MSTORE DUP8 DUP2 ADD MLOAD PUSH1 0x1 PUSH1 0x1 PUSH1 0xA0 SHL SUB SWAP1 DUP2 AND DUP10 DUP7 ADD MSTORE DUP8 DUP3 ADD MLOAD AND DUP8 DUP6 ADD MSTORE PUSH1 0x60 DUP1 DUP3 ADD MLOAD PUSH1 0xC0 SWAP2 SWAP1 PUSH2 0x3448 DUP3 DUP9 ADD DUP3 PUSH2 0x33B6 JUMP JUMPDEST POP POP PUSH1 0x80 DUP3 DUP2 ADD MLOAD SWAP1 DUP7 ADD MSTORE PUSH1 0xA0 SWAP2 DUP3 ADD MLOAD SWAP2 DUP6 ADD DUP2 SWAP1 MSTORE PUSH2 0x346C DUP2 DUP7 ADD DUP4 PUSH2 0x3216 JUMP JUMPDEST SWAP7 DUP10 ADD SWAP7 SWAP5 POP POP POP SWAP1 DUP7 ADD SWAP1 PUSH1 0x1 ADD PUSH2 0x33FF JUMP JUMPDEST POP SWAP1 SWAP9 SWAP8 POP POP POP POP POP POP POP POP JUMP JUMPDEST PUSH1 0x0 DUP2 MLOAD DUP1 DUP5 MSTORE PUSH1 0x20 DUP1 DUP6 ADD SWAP5 POP DUP1 DUP5 ADD PUSH1 0x0 JUMPDEST DUP4 DUP2 LT ISZERO PUSH2 0x34BE JUMPI DUP2 MLOAD DUP8 MSTORE SWAP6 DUP3 ADD SWAP6 SWAP1 DUP3 ADD SWAP1 PUSH1 0x1 ADD PUSH2 0x34A2 JUMP JUMPDEST POP SWAP5 SWAP6 SWAP5 POP POP POP POP POP JUMP JUMPDEST PUSH1 0x20 DUP2 MSTORE PUSH1 0x0 PUSH2 0x30CD PUSH1 0x20 DUP4 ADD DUP5 PUSH2 0x348E JUMP JUMPDEST PUSH1 0x0 DUP1 PUSH1 0x0 DUP1 PUSH1 0x0 PUSH1 0xA0 DUP7 DUP9 SUB SLT ISZERO PUSH2 0x34F4 JUMPI PUSH1 0x0 DUP1 REVERT JUMPDEST DUP6 CALLDATALOAD PUSH8 0xFFFFFFFFFFFFFFFF DUP1 DUP3 GT ISZERO PUSH2 0x350C JUMPI PUSH1 0x0 DUP1 REVERT JUMPDEST PUSH2 0x3518 DUP10 DUP4 DUP11 ADD PUSH2 0x32CC JUMP JUMPDEST SWAP7 POP PUSH1 0x20 DUP9 ADD CALLDATALOAD SWAP2 POP DUP1 DUP3 GT ISZERO PUSH2 0x352E JUMPI PUSH1 0x0 DUP1 REVERT JUMPDEST PUSH2 0x353A DUP10 DUP4 DUP11 ADD PUSH2 0x32CC JUMP JUMPDEST SWAP6 POP PUSH1 0x40 DUP9 ADD CALLDATALOAD SWAP5 POP PUSH1 0x60 DUP9 ADD CALLDATALOAD SWAP2 POP DUP1 DUP3 GT ISZERO PUSH2 0x3557 JUMPI PUSH1 0x0 DUP1 REVERT JUMPDEST POP PUSH2 0x3564 DUP9 DUP3 DUP10 ADD PUSH2 0x32CC JUMP JUMPDEST SWAP6 SWAP9 SWAP5 SWAP8 POP SWAP3 SWAP6 PUSH1 0x80 ADD CALLDATALOAD SWAP4 SWAP3 POP POP POP JUMP JUMPDEST PUSH1 0x0 PUSH8 0xFFFFFFFFFFFFFFFF DUP3 GT ISZERO PUSH2 0x3590 JUMPI PUSH2 0x3590 PUSH2 0x3285 JUMP JUMPDEST POP PUSH1 0x5 SHL PUSH1 0x20 ADD SWAP1 JUMP JUMPDEST PUSH1 0x0 DUP3 PUSH1 0x1F DUP4 ADD SLT PUSH2 0x35AB JUMPI PUSH1 0x0 DUP1 REVERT JUMPDEST DUP2 CALLDATALOAD PUSH1 0x20 PUSH2 0x35C0 PUSH2 0x35BB DUP4 PUSH2 0x3576 JUMP JUMPDEST PUSH2 0x329B JUMP JUMPDEST DUP3 DUP2 MSTORE PUSH1 0x5 SWAP3 SWAP1 SWAP3 SHL DUP5 ADD DUP2 ADD SWAP2 DUP2 DUP2 ADD SWAP1 DUP7 DUP5 GT ISZERO PUSH2 0x35DF JUMPI PUSH1 0x0 DUP1 REVERT JUMPDEST DUP3 DUP7 ADD JUMPDEST DUP5 DUP2 LT ISZERO PUSH2 0x361F JUMPI DUP1 CALLDATALOAD PUSH8 0xFFFFFFFFFFFFFFFF DUP2 GT ISZERO PUSH2 0x3603 JUMPI PUSH1 0x0 DUP1 DUP2 REVERT JUMPDEST PUSH2 0x3611 DUP10 DUP7 DUP4 DUP12 ADD ADD PUSH2 0x32CC JUMP JUMPDEST DUP5 MSTORE POP SWAP2 DUP4 ADD SWAP2 DUP4 ADD PUSH2 0x35E3 JUMP JUMPDEST POP SWAP7 SWAP6 POP POP POP POP POP POP JUMP JUMPDEST PUSH1 0x0 DUP3 PUSH1 0x1F DUP4 ADD SLT PUSH2 0x363B JUMPI PUSH1 0x0 DUP1 REVERT JUMPDEST DUP2 CALLDATALOAD PUSH1 0x20 PUSH2 0x364B PUSH2 0x35BB DUP4 PUSH2 0x3576 JUMP JUMPDEST DUP3 DUP2 MSTORE PUSH1 0x5 SWAP3 SWAP1 SWAP3 SHL DUP5 ADD DUP2 ADD SWAP2 DUP2 DUP2 ADD SWAP1 DUP7 DUP5 GT ISZERO PUSH2 0x366A JUMPI PUSH1 0x0 DUP1 REVERT JUMPDEST DUP3 DUP7 ADD JUMPDEST DUP5 DUP2 LT ISZERO PUSH2 0x361F JUMPI DUP1 CALLDATALOAD DUP4 MSTORE SWAP2 DUP4 ADD SWAP2 DUP4 ADD PUSH2 0x366E JUMP JUMPDEST PUSH1 0x0 DUP1 PUSH1 0x0 DUP1 PUSH1 0x0 PUSH1 0xA0 DUP7 DUP9 SUB SLT ISZERO PUSH2 0x369D JUMPI PUSH1 0x0 DUP1 REVERT JUMPDEST DUP6 CALLDATALOAD PUSH8 0xFFFFFFFFFFFFFFFF DUP1 DUP3 GT ISZERO PUSH2 0x36B5 JUMPI PUSH1 0x0 DUP1 REVERT JUMPDEST PUSH2 0x36C1 DUP10 DUP4 DUP11 ADD PUSH2 0x359A JUMP JUMPDEST SWAP7 POP PUSH1 0x20 DUP9 ADD CALLDATALOAD SWAP2 POP DUP1 DUP3 GT ISZERO PUSH2 0x36D7 JUMPI PUSH1 0x0 DUP1 REVERT JUMPDEST PUSH2 0x36E3 DUP10 DUP4 DUP11 ADD PUSH2 0x32CC JUMP JUMPDEST SWAP6 POP PUSH1 0x40 DUP9 ADD CALLDATALOAD SWAP2 POP DUP1 DUP3 GT ISZERO PUSH2 0x36F9 JUMPI PUSH1 0x0 DUP1 REVERT JUMPDEST PUSH2 0x3705 DUP10 DUP4 DUP11 ADD PUSH2 0x362A JUMP JUMPDEST SWAP5 POP PUSH1 0x60 DUP9 ADD CALLDATALOAD SWAP2 POP DUP1 DUP3 GT ISZERO PUSH2 0x371B JUMPI PUSH1 0x0 DUP1 REVERT JUMPDEST PUSH2 0x3727 DUP10 DUP4 DUP11 ADD PUSH2 0x359A JUMP JUMPDEST SWAP4 POP PUSH1 0x80 DUP9 ADD CALLDATALOAD SWAP2 POP DUP1 DUP3 GT ISZERO PUSH2 0x373D JUMPI PUSH1 0x0 DUP1 REVERT JUMPDEST POP PUSH2 0x374A DUP9 DUP3 DUP10 ADD PUSH2 0x362A JUMP JUMPDEST SWAP2 POP POP SWAP3 SWAP6 POP SWAP3 SWAP6 SWAP1 SWAP4 POP JUMP JUMPDEST DUP3 DUP2 MSTORE PUSH1 0x40 PUSH1 0x20 DUP3 ADD MSTORE PUSH1 0x0 PUSH2 0x3770 PUSH1 0x40 DUP4 ADD DUP5 PUSH2 0x348E JUMP JUMPDEST SWAP5 SWAP4 POP POP POP POP JUMP JUMPDEST PUSH1 0x20 DUP1 DUP3 MSTORE DUP3 MLOAD PUSH1 0x1 PUSH1 0x1 PUSH1 0xA0 SHL SUB AND DUP3 DUP3 ADD MSTORE DUP3 ADD MLOAD PUSH1 0xA0 PUSH1 0x40 DUP4 ADD MSTORE PUSH1 0x0 SWAP1 PUSH2 0x37A6 PUSH1 0xC0 DUP5 ADD DUP3 PUSH2 0x3216 JUMP JUMPDEST SWAP1 POP PUSH1 0x40 DUP5 ADD MLOAD PUSH1 0x60 DUP5 ADD MSTORE PUSH1 0x60 DUP5 ADD MLOAD ISZERO ISZERO PUSH1 0x80 DUP5 ADD MSTORE PUSH1 0x80 DUP5 ADD MLOAD ISZERO ISZERO PUSH1 0xA0 DUP5 ADD MSTORE DUP1 SWAP2 POP POP SWAP3 SWAP2 POP POP JUMP JUMPDEST PUSH1 0x0 DUP1 PUSH1 0x0 PUSH1 0x60 DUP5 DUP7 SUB SLT ISZERO PUSH2 0x37E9 JUMPI PUSH1 0x0 DUP1 REVERT JUMPDEST DUP4 CALLDATALOAD SWAP3 POP PUSH1 0x20 DUP5 ADD CALLDATALOAD PUSH2 0x37FB DUP2 PUSH2 0x31AD JUMP JUMPDEST SWAP2 POP PUSH1 0x40 DUP5 ADD CALLDATALOAD PUSH8 0xFFFFFFFFFFFFFFFF DUP2 GT ISZERO PUSH2 0x3817 JUMPI PUSH1 0x0 DUP1 REVERT JUMPDEST PUSH2 0x3823 DUP7 DUP3 DUP8 ADD PUSH2 0x32CC JUMP JUMPDEST SWAP2 POP POP SWAP3 POP SWAP3 POP SWAP3 JUMP JUMPDEST DUP1 CALLDATALOAD PUSH1 0x9 DUP2 LT PUSH2 0x383C JUMPI PUSH1 0x0 DUP1 REVERT JUMPDEST SWAP2 SWAP1 POP JUMP JUMPDEST PUSH1 0x0 DUP1 PUSH1 0x40 DUP4 DUP6 SUB SLT ISZERO PUSH2 0x3854 JUMPI PUSH1 0x0 DUP1 REVERT JUMPDEST DUP3 CALLDATALOAD SWAP2 POP PUSH2 0x3864 PUSH1 0x20 DUP5 ADD PUSH2 0x382D JUMP JUMPDEST SWAP1 POP SWAP3 POP SWAP3 SWAP1 POP JUMP JUMPDEST PUSH1 0x0 DUP1 PUSH1 0x40 DUP4 DUP6 SUB SLT ISZERO PUSH2 0x3880 JUMPI PUSH1 0x0 DUP1 REVERT JUMPDEST DUP3 CALLDATALOAD PUSH8 0xFFFFFFFFFFFFFFFF DUP1 DUP3 GT ISZERO PUSH2 0x3898 JUMPI PUSH1 0x0 DUP1 REVERT JUMPDEST PUSH2 0x38A4 DUP7 DUP4 DUP8 ADD PUSH2 0x362A JUMP JUMPDEST SWAP4 POP PUSH1 0x20 DUP6 ADD CALLDATALOAD SWAP2 POP DUP1 DUP3 GT ISZERO PUSH2 0x38BA JUMPI PUSH1 0x0 DUP1 REVERT JUMPDEST POP PUSH2 0x3379 DUP6 DUP3 DUP7 ADD PUSH2 0x32CC JUMP JUMPDEST PUSH1 0x1 PUSH1 0x1 PUSH1 0xA0 SHL SUB DUP7 DUP2 AND DUP3 MSTORE DUP6 AND PUSH1 0x20 DUP3 ADD MSTORE PUSH1 0x0 PUSH2 0x38EA PUSH1 0x40 DUP4 ADD DUP7 PUSH2 0x33B6 JUMP JUMPDEST DUP4 PUSH1 0x60 DUP4 ADD MSTORE PUSH1 0xA0 PUSH1 0x80 DUP4 ADD MSTORE PUSH2 0x3904 PUSH1 0xA0 DUP4 ADD DUP5 PUSH2 0x3216 JUMP JUMPDEST SWAP8 SWAP7 POP POP POP POP POP POP POP JUMP JUMPDEST PUSH1 0x1 DUP2 DUP2 SHR SWAP1 DUP3 AND DUP1 PUSH2 0x3923 JUMPI PUSH1 0x7F DUP3 AND SWAP2 POP JUMPDEST PUSH1 0x20 DUP3 LT DUP2 SUB PUSH2 0x3943 JUMPI PUSH4 0x4E487B71 PUSH1 0xE0 SHL PUSH1 0x0 MSTORE PUSH1 0x22 PUSH1 0x4 MSTORE PUSH1 0x24 PUSH1 0x0 REVERT JUMPDEST POP SWAP2 SWAP1 POP JUMP JUMPDEST PUSH1 0x20 DUP1 DUP3 MSTORE PUSH1 0x11 SWAP1 DUP3 ADD MSTORE PUSH17 0x139BC81CDA1A5C1B595B9D08199BDD5B99 PUSH1 0x7A SHL PUSH1 0x40 DUP3 ADD MSTORE PUSH1 0x60 ADD SWAP1 JUMP JUMPDEST PUSH4 0x4E487B71 PUSH1 0xE0 SHL PUSH1 0x0 MSTORE PUSH1 0x11 PUSH1 0x4 MSTORE PUSH1 0x24 PUSH1 0x0 REVERT JUMPDEST DUP2 DUP2 SUB DUP2 DUP2 GT ISZERO PUSH2 0x814 JUMPI PUSH2 0x814 PUSH2 0x3974 JUMP JUMPDEST PUSH4 0x4E487B71 PUSH1 0xE0 SHL PUSH1 0x0 MSTORE PUSH1 0x32 PUSH1 0x4 MSTORE PUSH1 0x24 PUSH1 0x0 REVERT JUMPDEST PUSH1 0x1F DUP3 GT ISZERO PUSH2 0x83F JUMPI PUSH1 0x0 DUP2 DUP2 MSTORE PUSH1 0x20 DUP2 KECCAK256 PUSH1 0x1F DUP6 ADD PUSH1 0x5 SHR DUP2 ADD PUSH1 0x20 DUP7 LT ISZERO PUSH2 0x39DA JUMPI POP DUP1 JUMPDEST PUSH1 0x1F DUP6 ADD PUSH1 0x5 SHR DUP3 ADD SWAP2 POP JUMPDEST DUP2 DUP2 LT ISZERO PUSH2 0x39F9 JUMPI DUP3 DUP2 SSTORE PUSH1 0x1 ADD PUSH2 0x39E6 JUMP JUMPDEST POP POP POP POP POP POP JUMP JUMPDEST DUP2 MLOAD PUSH8 0xFFFFFFFFFFFFFFFF DUP2 GT ISZERO PUSH2 0x3A1B JUMPI PUSH2 0x3A1B PUSH2 0x3285 JUMP JUMPDEST PUSH2 0x3A2F DUP2 PUSH2 0x3A29 DUP5 SLOAD PUSH2 0x390F JUMP JUMPDEST DUP5 PUSH2 0x39B3 JUMP JUMPDEST PUSH1 0x20 DUP1 PUSH1 0x1F DUP4 GT PUSH1 0x1 DUP2 EQ PUSH2 0x3A64 JUMPI PUSH1 0x0 DUP5 ISZERO PUSH2 0x3A4C JUMPI POP DUP6 DUP4 ADD MLOAD JUMPDEST PUSH1 0x0 NOT PUSH1 0x3 DUP7 SWAP1 SHL SHR NOT AND PUSH1 0x1 DUP6 SWAP1 SHL OR DUP6 SSTORE PUSH2 0x39F9 JUMP JUMPDEST PUSH1 0x0 DUP6 DUP2 MSTORE PUSH1 0x20 DUP2 KECCAK256 PUSH1 0x1F NOT DUP7 AND SWAP2 JUMPDEST DUP3 DUP2 LT ISZERO PUSH2 0x3A93 JUMPI DUP9 DUP7 ADD MLOAD DUP3 SSTORE SWAP5 DUP5 ADD SWAP5 PUSH1 0x1 SWAP1 SWAP2 ADD SWAP1 DUP5 ADD PUSH2 0x3A74 JUMP JUMPDEST POP DUP6 DUP3 LT ISZERO PUSH2 0x3AB1 JUMPI DUP8 DUP6 ADD MLOAD PUSH1 0x0 NOT PUSH1 0x3 DUP9 SWAP1 SHL PUSH1 0xF8 AND SHR NOT AND DUP2 SSTORE JUMPDEST POP POP POP POP POP PUSH1 0x1 SWAP1 DUP2 SHL ADD SWAP1 SSTORE POP JUMP JUMPDEST PUSH1 0x20 DUP2 MSTORE PUSH1 0x0 PUSH2 0x30CD PUSH1 0x20 DUP4 ADD DUP5 PUSH2 0x3216 JUMP JUMPDEST PUSH1 0x0 PUSH1 0x20 DUP3 DUP5 SUB SLT ISZERO PUSH2 0x3AE6 JUMPI PUSH1 0x0 DUP1 REVERT JUMPDEST DUP2 MLOAD PUSH2 0x30CD DUP2 PUSH2 0x31AD JUMP JUMPDEST PUSH1 0x20 DUP1 DUP3 MSTORE PUSH1 0x19 SWAP1 DUP3 ADD MSTORE PUSH32 0x50726F6475637420686173206265656E20726563616C6C656400000000000000 PUSH1 0x40 DUP3 ADD MSTORE PUSH1 0x60 ADD SWAP1 JUMP JUMPDEST PUSH1 0x20 DUP1 DUP3 MSTORE PUSH1 0x14 SWAP1 DUP3 ADD MSTORE PUSH20 0x10985D18DA08191BD95CC81B9BDD08195E1A5CDD PUSH1 0x62 SHL PUSH1 0x40 DUP3 ADD MSTORE PUSH1 0x60 ADD SWAP1 JUMP JUMPDEST PUSH1 0x20 DUP1 DUP3 MSTORE PUSH1 0x14 SWAP1 DUP3 ADD MSTORE PUSH20 0x4E6F207061796D656E7420696E20657363726F77 PUSH1 0x60 SHL PUSH1 0x40 DUP3 ADD MSTORE PUSH1 0x60 ADD SWAP1 JUMP JUMPDEST PUSH1 0x1 PUSH1 0x1 PUSH1 0xA0 SHL SUB DUP6 AND DUP2 MSTORE PUSH1 0x80 PUSH1 0x20 DUP3 ADD DUP2 SWAP1 MSTORE PUSH1 0x0 SWAP1 PUSH2 0x3BA8 SWAP1 DUP4 ADD DUP7 PUSH2 0x3216 JUMP JUMPDEST DUP3 DUP2 SUB PUSH1 0x40 DUP5 ADD MSTORE PUSH2 0x3BBA DUP2 DUP7 PUSH2 0x3216 JUMP JUMPDEST SWAP1 POP DUP3 DUP2 SUB PUSH1 0x60 DUP5 ADD MSTORE PUSH2 0x3904 DUP2 DUP6 PUSH2 0x3216 JUMP JUMPDEST PUSH1 0x0 PUSH1 0x20 DUP3 DUP5 SUB SLT ISZERO PUSH2 0x3BE0 JUMPI PUSH1 0x0 DUP1 REVERT JUMPDEST POP MLOAD SWAP2 SWAP1 POP JUMP JUMPDEST PUSH1 0x40 DUP2 MSTORE PUSH1 0x0 PUSH2 0x3BFA PUSH1 0x40 DUP4 ADD DUP6 PUSH2 0x3216 JUMP JUMPDEST SWAP1 POP DUP3 PUSH1 0x20 DUP4 ADD MSTORE SWAP4 SWAP3 POP POP POP JUMP JUMPDEST PUSH1 0x20 DUP2 ADD PUSH2 0x814 DUP3 DUP5 PUSH2 0x33B6 JUMP JUMPDEST PUSH1 0x0 PUSH1 0x1 DUP3 ADD PUSH2 0x3C29 JUMPI PUSH2 0x3C29 PUSH2 0x3974 JUMP JUMPDEST POP PUSH1 0x1 ADD SWAP1 JUMP JUMPDEST DUP4 DUP2 MSTORE PUSH1 0x0 PUSH1 0x20 PUSH12 0xFFFFFFFFFFFFFFFFFFFFFFFF NOT DUP6 PUSH1 0x60 SHL AND DUP2 DUP5 ADD MSTORE PUSH1 0x34 DUP4 ADD DUP5 MLOAD DUP3 DUP7 ADD PUSH1 0x0 JUMPDEST DUP3 DUP2 LT ISZERO PUSH2 0x3C76 JUMPI DUP2 MLOAD DUP5 MSTORE SWAP3 DUP5 ADD SWAP3 SWAP1 DUP5 ADD SWAP1 PUSH1 0x1 ADD PUSH2 0x3C5A JUMP JUMPDEST POP SWAP2 SWAP9 SWAP8 POP POP POP POP POP POP POP POP JUMP JUMPDEST DUP1 DUP3 ADD DUP1 DUP3 GT ISZERO PUSH2 0x814 JUMPI PUSH2 0x814 PUSH2 0x3974 JUMP JUMPDEST PUSH32 0x416363657373436F6E74726F6C3A206163636F756E7420000000000000000000 DUP2 MSTORE PUSH1 0x0 DUP4 MLOAD PUSH2 0x3CCF DUP2 PUSH1 0x17 DUP6 ADD PUSH1 0x20 DUP9 ADD PUSH2 0x31F2 JUMP JUMPDEST PUSH17 0x1034B99036B4B9B9B4B733903937B6329 PUSH1 0x7D SHL PUSH1 0x17 SWAP2 DUP5 ADD SWAP2 DUP3 ADD MSTORE DUP4 MLOAD PUSH2 0x3D00 DUP2 PUSH1 0x28 DUP5 ADD PUSH1 0x20 DUP9 ADD PUSH2 0x31F2 JUMP JUMPDEST ADD PUSH1 0x28 ADD SWAP5 SWAP4 POP POP POP POP JUMP JUMPDEST DUP1 DUP3 MUL DUP2 ISZERO DUP3 DUP3 DIV DUP5 EQ OR PUSH2 0x814 JUMPI PUSH2 0x814 PUSH2 0x3974 JUMP JUMPDEST PUSH1 0x0 DUP2 PUSH2 0x3D32 JUMPI PUSH2 0x3D32 PUSH2 0x3974 JUMP JUMPDEST POP PUSH1 0x0 NOT ADD SWAP1 JUMP INVALID 0x2A 0x5F SWAP1 PUSH13 0x256A5D799494FCD066E1F6C077 PUSH9 0x9DE1CDB65052A1624D 0xE4 0xBA 0xCE SWAP10 0xBF LOG2 PUSH5 0x6970667358 0x22 SLT KECCAK256 SMOD 0xB9 0xE7 DUP11 0xD7 BYTE 0xB5 XOR MUL INVALID INVALID TIMESTAMP SELFBALANCE MSTORE ISZERO 0xE4 0xB0 0xEE PUSH19 0xF51E20FC67377A6A4A90B3671D64736F6C6343 STOP ADDMOD SGT STOP CALLER "},"methodIdentifiers":{"DEFAULT_ADMIN_ROLE()":"a217fddf","RETAILER_ROLE()":"2115e7bf","approveReturn(uint256)":"5a3c88ea","claimPayment(uint256)":"c63fdcc7","createBatchShipment(bytes32,address,string)":"ab6b81c6","createProduct(string,string,uint256,string,uint256)":"91e98e8e","createProductBatch(string[],string,uint256[],string[],uint256[])":"94719ea0","createShipment(uint256,address,string)":"ce90ceff","escrowBalances(uint256)":"43ebf45a","escrowBeneficiary(uint256)":"4a22f370","escrowTimeout()":"605c6d63","getBatchProducts(bytes32)":"81491e68","getCurrentShipment(uint256)":"c4811a4d","getProductPrice(uint256)":"e7bf7dfc","getReturnRequest(uint256)":"9837d0da","getRoleAdmin(bytes32)":"248a9ca3","getShipmentHistory(uint256)":"631c6ffe","grantRole(bytes32,address)":"2f2ff15d","hasRole(bytes32,address)":"91d14854","isRetailer(address)":"5da09b88","pause()":"8456cb59","paused()":"5c975abb","payForProduct(uint256)":"d420aa27","productPrices(uint256)":"38eb6a19","recallProducts(uint256[],string)":"beed8311","refundPayment(uint256)":"f63813f4","rejectReturn(uint256)":"f8a904b1","releasePayment(uint256)":"88685cd9","renounceRole(bytes32,address)":"36568abe","requestReturn(uint256,string)":"68d2e183","resolveRecall(uint256)":"e21dd3fc","returnRequests(uint256)":"47788bbe","revokeRole(bytes32,address)":"d547741f","supportsInterface(bytes4)":"01ffc9a7","unpause()":"3f4ba83a","updateBatchStage(bytes32,uint8)":"b22f875b","updateLocation(uint256,string)":"4ec0c9e9","updateStage(uint256,uint8)":"f405c96b"}}}}}