{"contracts/LogiCoin.sol":{"LogiCoin":{"abi":[{"inputs":[],"stateMutability":"nonpayable","type":"constructor"},{"anonymous":false,"inputs":[{"indexed":true,"internalType":"address","name":"owner","type":"address"},{"indexed":true,"internalType":"address","name":"spender","type":"address"},{"indexed":false,"internalType":"uint256","name":"value","type":"uint256"}],"name":"Approval","type":"event"},{"anonymous":false,"inputs":[{"indexed":false,"internalType":"address","name":"account","type":"address"}],"name":"Paused","type":"event"},{"anonymous":false,"inputs":[{"indexed":true,"internalType":"bytes32","name":"role","type":"bytes32"},{"indexed":true,"internalType":"bytes32","name":"previousAdminRole","type":"bytes32"},{"indexed":true,"internalType":"bytes32","name":"newAdminRole","type":"bytes32"}],"name":"RoleAdminChanged","type":"event"},{"anonymous":false,"inputs":[{"indexed":true,"internalType":"bytes32","name":"role","type":"bytes32"},{"indexed":true,"internalType":"address","name":"account","type":"address"},{"indexed":true,"internalType":"address","name":"sender","type":"address"}],"name":"RoleGranted","type":"event"},{"anonymous":false,"inputs":[{"indexed":true,"internalType":"bytes32","name":"role","type":"bytes32"},{"indexed":true,"internalType":"address","name":"account","type":"address"},{"indexed":true,"internalType":"address","name":"sender","type":"address"}],"name":"RoleRevoked","type":"event"},{"anonymous":false,"inputs":[{"indexed":true,"internalType":"address","name":"buyer","type":"address"},{"indexed":false,"internalType":"uint256","name":"usdAmount","type":"uint256"},{"indexed":false,"internalType":"uint256","name":"tokenAmount","type":"uint256"}],"name":"TokensPurchased","type":"event"},{"anonymous":false,"inputs":[{"indexed":true,"internalType":"address","name":"seller","type":"address"},{"indexed":false,"internalType":"uint256","name":"tokenAmount","type":"uint256"},{"indexed":false,"internalType":"uint256","name":"usdAmount","type":"uint256"}],"name":"TokensSold","type":"event"},{"anonymous":false,"inputs":[{"indexed":true,"internalType":"address","name":"from","type":"address"},{"indexed":true,"internalType":"address","name":"to","type":"address"},{"indexed":false,"internalType":"uint256","name":"value","type":"uint256"}],"name":"Transfer","type":"event"},{"anonymous":false,"inputs":[{"indexed":false,"internalType":"address","name":"account","type":"address"}],"name":"Unpaused","type":"event"},{"inputs":[],"name":"DEFAULT_ADMIN_ROLE","outputs":[{"internalType":"bytes32","name":"","type":"bytes32"}],"stateMutability":"view","type":"function"},{"inputs":[],"name":"EXCHANGE_RATE","outputs":[{"internalType":"uint256","name":"","type":"uint256"}],"stateMutability":"view","type":"function"},{"inputs":[],"name":"MINTER_ROLE","outputs":[{"internalType":"bytes32","name":"","type":"bytes32"}],"stateMutability":"view","type":"function"},{"inputs":[{"internalType":"address","name":"owner","type":"address"},{"internalType":"address","name":"spender","type":"address"}],"name":"allowance","outputs":[{"internalType":"uint256","name":"","type":"uint256"}],"stateMutability":"view","type":"function"},{"inputs":[{"internalType":"address","name":"spender","type":"address"},{"internalType":"uint256","name":"amount","type":"uint256"}],"name":"approve","outputs":[{"internalType":"bool","name":"","type":"bool"}],"stateMutability":"nonpayable","type":"function"},{"inputs":[{"internalType":"address","name":"account","type":"address"}],"name":"balanceOf","outputs":[{"internalType":"uint256","name":"","type":"uint256"}],"stateMutability":"view","type":"function"},{"inputs":[{"internalType":"address","name":"from","type":"address"},{"internalType":"uint256","name":"tokenAmount","type":"uint256"}],"name":"burnForUSD","outputs":[],"stateMutability":"nonpayable","type":"function"},{"inputs":[],"name":"decimals","outputs":[{"internalType":"uint8","name":"","type":"uint8"}],"stateMutability":"view","type":"function"},{"inputs":[{"internalType":"address","name":"spender","type":"address"},{"internalType":"uint256","name":"subtractedValue","type":"uint256"}],"name":"decreaseAllowance","outputs":[{"internalType":"bool","name":"","type":"bool"}],"stateMutability":"nonpayable","type":"function"},{"inputs":[{"internalType":"bytes32","name":"role","type":"bytes32"}],"name":"getRoleAdmin","outputs":[{"internalType":"bytes32","name":"","type":"bytes32"}],"stateMutability":"view","type":"function"},{"inputs":[{"internalType":"bytes32","name":"role","type":"bytes32"},{"internalType":"address","name":"account","type":"address"}],"name":"grantRole","outputs":[],"stateMutability":"nonpayable","type":"function"},{"inputs":[{"internalType":"bytes32","name":"role","type":"bytes32"},{"internalType":"address","name":"account","type":"address"}],"name":"hasRole","outputs":[{"internalType":"bool","name":"","type":"bool"}],"stateMutability":"view","type":"function"},{"inputs":[{"internalType":"address","name":"spender","type":"address"},{"internalType":"uint256","name":"addedValue","type":"uint256"}],"name":"increaseAllowance","outputs":[{"internalType":"bool","name":"","type":"bool"}],"stateMutability":"nonpayable","type":"function"},{"inputs":[{"internalType":"address","name":"to","type":"address"},{"internalType":"uint256","name":"usdAmount","type":"uint256"}],"name":"mintFromUSD","outputs":[],"stateMutability":"nonpayable","type":"function"},{"inputs":[],"name":"name","outputs":[{"internalType":"string","name":"","type":"string"}],"stateMutability":"view","type":"function"},{"inputs":[],"name":"pause","outputs":[],"stateMutability":"nonpayable","type":"function"},{"inputs":[],"name":"paused","outputs":[{"internalType":"bool","name":"","type":"bool"}],"stateMutability":"view","type":"function"},{"inputs":[{"internalType":"bytes32","name":"role","type":"bytes32"},{"internalType":"address","name":"account","type":"address"}],"name":"renounceRole","outputs":[],"stateMutability":"nonpayable","type":"function"},{"inputs":[{"internalType":"bytes32","name":"role","type":"bytes32"},{"internalType":"address","name":"account","type":"address"}],"name":"revokeRole","outputs":[],"stateMutability":"nonpayable","type":"function"},{"inputs":[{"internalType":"bytes4","name":"interfaceId","type":"bytes4"}],"name":"supportsInterface","outputs":[{"internalType":"bool","name":"","type":"bool"}],"stateMutability":"view","type":"function"},{"inputs":[],"name":"symbol","outputs":[{"internalType":"string","name":"","type":"string"}],"stateMutability":"view","type":"function"},{"inputs":[{"internalType":"uint256","name":"tokenAmount","type":"uint256"}],"name":"tokensToUSD","outputs":[{"internalType":"uint256","name":"","type":"uint256"}],"stateMutability":"pure","type":"function"},{"inputs":[],"name":"totalSupply","outputs":[{"internalType":"uint256","name":"","type":"uint256"}],"stateMutability":"view","type":"function"},{"inputs":[{"internalType":"address","name":"to","type":"address"},{"internalType":"uint256","name":"amount","type":"uint256"}],"name":"transfer","outputs":[{"internalType":"bool","name":"","type":"bool"}],"stateMutability":"nonpayable","type":"function"},{"inputs":[{"internalType":"address","name":"from","type":"address"},{"internalType":"address","name":"to","type":"address"},{"internalType":"uint256","name":"amount","type":"uint256"}],"name":"transferFrom","outputs":[{"internalType":"bool","name":"","type":"bool"}],"stateMutability":"nonpayable","type":"function"},{"inputs":[],"name":"unpause","outputs":[],"stateMutability":"nonpayable","type":"function"},{"inputs":[{"internalType":"uint256","name":"usdAmount","type":"uint256"}],"name":"usdToTokens","outputs":[{"internalType":"uint256","name":"","type":"uint256"}],"stateMutability":"pure","type":"function"}],"evm":{"bytecode":{"linkReferences":{},"object":"60806040523480156200001157600080fd5b50604051806040016040528060088152602001672637b3b4a1b7b4b760c11b815250604051806040016040528060048152602001634c4f474960e01b815250816003908162000061919062000215565b50600462000070828262000215565b50506006805460ff19169055506200008a600033620000bc565b620000b67f9f2df0fed2c77648de5860a4cc508cd0818c85b8b8a1ab4ceeef8d981c8956a633620000bc565b620002e1565b620000c88282620000cc565b5050565b60008281526005602090815260408083206001600160a01b038516845290915290205460ff16620000c85760008281526005602090815260408083206001600160a01b03851684529091529020805460ff191660011790556200012c3390565b6001600160a01b0316816001600160a01b0316837f2f8788117e7eff1d82e926ec794901d17c78024a50270940304540a733656f0d60405160405180910390a45050565b634e487b7160e01b600052604160045260246000fd5b600181811c908216806200019b57607f821691505b602082108103620001bc57634e487b7160e01b600052602260045260246000fd5b50919050565b601f8211156200021057600081815260208120601f850160051c81016020861015620001eb5750805b601f850160051c820191505b818110156200020c57828155600101620001f7565b5050505b505050565b81516001600160401b0381111562000231576200023162000170565b620002498162000242845462000186565b84620001c2565b602080601f831160018114620002815760008415620002685750858301515b600019600386901b1c1916600185901b1785556200020c565b600085815260208120601f198616915b82811015620002b25788860151825594840194600190910190840162000291565b5085821015620002d15787850151600019600388901b60f8161c191681555b5050505050600190811b01905550565b61159780620002f16000396000f3fe608060405234801561001057600080fd5b50600436106101a95760003560e01c806370a08231116100f9578063a217fddf11610097578063d539139311610071578063d539139314610362578063d547741f14610389578063dd62ed3e1461039c578063f76abc94146103af57600080fd5b8063a217fddf14610334578063a457c2d71461033c578063a9059cbb1461034f57600080fd5b80638616e033116100d35780638616e033146102f357806391d148541461030657806395d89b4114610319578063a12d49811461032157600080fd5b806370a08231146102af578063718e8c63146102d85780638456cb59146102eb57600080fd5b8063248a9ca31161016657806336568abe1161014057806336568abe1461027657806339509351146102895780633f4ba83a1461029c5780635c975abb146102a457600080fd5b8063248a9ca31461022f5780632f2ff15d14610252578063313ce5671461026757600080fd5b806301ffc9a7146101ae57806306fdde03146101d6578063095ea7b3146101eb57806314a8bd0d146101fe57806318160ddd1461021457806323b872dd1461021c575b600080fd5b6101c16101bc366004611264565b6103c2565b60405190151581526020015b60405180910390f35b6101de6103f9565b6040516101cd91906112b2565b6101c16101f9366004611301565b61048b565b610206606481565b6040519081526020016101cd565b600254610206565b6101c161022a36600461132b565b6104a3565b61020661023d366004611367565b60009081526005602052604090206001015490565b610265610260366004611380565b6104c7565b005b604051601281526020016101cd565b610265610284366004611380565b6104f1565b6101c1610297366004611301565b610574565b610265610596565b60065460ff166101c1565b6102066102bd3660046113ac565b6001600160a01b031660009081526020819052604090205490565b6102066102e6366004611367565b6105ac565b6102656105b9565b610265610301366004611301565b6105cc565b6101c1610314366004611380565b610716565b6101de610741565b61020661032f366004611367565b610750565b610206600081565b6101c161034a366004611301565b61075d565b6101c161035d366004611301565b6107d8565b6102067f9f2df0fed2c77648de5860a4cc508cd0818c85b8b8a1ab4ceeef8d981c8956a681565b610265610397366004611380565b6107e6565b6102066103aa3660046113c7565b61080b565b6102656103bd366004611301565b610836565b60006001600160e01b03198216637965db0b60e01b14806103f357506301ffc9a760e01b6001600160e01b03198316145b92915050565b606060038054610408906113f1565b80601f0160208091040260200160405190810160405280929190818152602001828054610434906113f1565b80156104815780601f1061045657610100808354040283529160200191610481565b820191906000526020600020905b81548152906001019060200180831161046457829003601f168201915b5050505050905090565b60003361049981858561090c565b5060019392505050565b6000336104b1858285610a30565b6104bc858585610aaa565b506001949350505050565b6000828152600560205260409020600101546104e281610c4e565b6104ec8383610c58565b505050565b6001600160a01b03811633146105665760405162461bcd60e51b815260206004820152602f60248201527f416363657373436f6e74726f6c3a2063616e206f6e6c792072656e6f756e636560448201526e103937b632b9903337b91039b2b63360891b60648201526084015b60405180910390fd5b6105708282610cde565b5050565b600033610499818585610587838361080b565b6105919190611441565b61090c565b60006105a181610c4e565b6105a9610d45565b50565b60006103f3606483611454565b60006105c481610c4e565b6105a9610d97565b7f9f2df0fed2c77648de5860a4cc508cd0818c85b8b8a1ab4ceeef8d981c8956a66105f681610c4e565b6105fe610dd4565b600082116106485760405162461bcd60e51b8152602060048201526017602482015276416d6f756e74206d75737420626520706f73697469766560481b604482015260640161055d565b610653606483611481565b156106b25760405162461bcd60e51b815260206004820152602960248201527f416d6f756e74206d75737420626520646976697369626c652062792065786368604482015268616e6765207261746560b81b606482015260840161055d565b60006106bf606484611495565b90506106cb8484610e1c565b60408051848152602081018390526001600160a01b038616917f2dcf9433d75db0d8b1c172641f85e319ffe4ad22e108a95d1847ceb906e5195d91015b60405180910390a250505050565b60009182526005602090815260408084206001600160a01b0393909316845291905290205460ff1690565b606060048054610408906113f1565b60006103f3606483611495565b6000338161076b828661080b565b9050838110156107cb5760405162461bcd60e51b815260206004820152602560248201527f45524332303a2064656372656173656420616c6c6f77616e63652062656c6f77604482015264207a65726f60d81b606482015260840161055d565b6104bc828686840361090c565b600033610499818585610aaa565b60008281526005602052604090206001015461080181610c4e565b6104ec8383610cde565b6001600160a01b03918216600090815260016020908152604080832093909416825291909152205490565b7f9f2df0fed2c77648de5860a4cc508cd0818c85b8b8a1ab4ceeef8d981c8956a661086081610c4e565b610868610dd4565b600082116108b25760405162461bcd60e51b8152602060048201526017602482015276416d6f756e74206d75737420626520706f73697469766560481b604482015260640161055d565b60006108bf606484611454565b90506108cb8482610f4e565b60408051848152602081018390526001600160a01b038616917f8fafebcaf9d154343dad25669bfa277f4fbacd7ac6b0c4fed522580e040a0f339101610708565b6001600160a01b03831661096e5760405162461bcd60e51b8152602060048201526024808201527f45524332303a20617070726f76652066726f6d20746865207a65726f206164646044820152637265737360e01b606482015260840161055d565b6001600160a01b0382166109cf5760405162461bcd60e51b815260206004820152602260248201527f45524332303a20617070726f766520746f20746865207a65726f206164647265604482015261737360f01b606482015260840161055d565b6001600160a01b0383811660008181526001602090815260408083209487168084529482529182902085905590518481527f8c5be1e5ebec7d5bd14f71427d1e84f3dd0314c0f7b2291e5b200ac8c7c3b925910160405180910390a3505050565b6000610a3c848461080b565b90506000198114610aa45781811015610a975760405162461bcd60e51b815260206004820152601d60248201527f45524332303a20696e73756666696369656e7420616c6c6f77616e6365000000604482015260640161055d565b610aa4848484840361090c565b50505050565b6001600160a01b038316610b0e5760405162461bcd60e51b815260206004820152602560248201527f45524332303a207472616e736665722066726f6d20746865207a65726f206164604482015264647265737360d81b606482015260840161055d565b6001600160a01b038216610b705760405162461bcd60e51b815260206004820152602360248201527f45524332303a207472616e7366657220746f20746865207a65726f206164647260448201526265737360e81b606482015260840161055d565b6001600160a01b03831660009081526020819052604090205481811015610be85760405162461bcd60e51b815260206004820152602660248201527f45524332303a207472616e7366657220616d6f756e7420657863656564732062604482015265616c616e636560d01b606482015260840161055d565b6001600160a01b03848116600081815260208181526040808320878703905593871680835291849020805487019055925185815290927fddf252ad1be2c89b69c2b068fc378daa952ba7f163c4a11628f55a4df523b3ef910160405180910390a3610aa4565b6105a9813361100d565b610c628282610716565b6105705760008281526005602090815260408083206001600160a01b03851684529091529020805460ff19166001179055610c9a3390565b6001600160a01b0316816001600160a01b0316837f2f8788117e7eff1d82e926ec794901d17c78024a50270940304540a733656f0d60405160405180910390a45050565b610ce88282610716565b156105705760008281526005602090815260408083206001600160a01b0385168085529252808320805460ff1916905551339285917ff6391f5c32d9c69d2a47ea670b442974b53935d1edc7fd64eb21e047a839171b9190a45050565b610d4d611066565b6006805460ff191690557f5db9ee0a495bf2e6ff9c91a7834c1ba4fdd244a5e8aa4e537bd38aeae4b073aa335b6040516001600160a01b03909116815260200160405180910390a1565b610d9f610dd4565b6006805460ff191660011790557f62e78cea01bee320cd4e420270b5ea74000d11b0c9f74754ebdbfc544b05a258610d7a3390565b60065460ff1615610e1a5760405162461bcd60e51b815260206004820152601060248201526f14185d5cd8589b194e881c185d5cd95960821b604482015260640161055d565b565b6001600160a01b038216610e7c5760405162461bcd60e51b815260206004820152602160248201527f45524332303a206275726e2066726f6d20746865207a65726f206164647265736044820152607360f81b606482015260840161055d565b6001600160a01b03821660009081526020819052604090205481811015610ef05760405162461bcd60e51b815260206004820152602260248201527f45524332303a206275726e20616d6f756e7420657863656564732062616c616e604482015261636560f01b606482015260840161055d565b6001600160a01b0383166000818152602081815260408083208686039055600280548790039055518581529192917fddf252ad1be2c89b69c2b068fc378daa952ba7f163c4a11628f55a4df523b3ef910160405180910390a3505050565b6001600160a01b038216610fa45760405162461bcd60e51b815260206004820152601f60248201527f45524332303a206d696e7420746f20746865207a65726f206164647265737300604482015260640161055d565b8060026000828254610fb69190611441565b90915550506001600160a01b038216600081815260208181526040808320805486019055518481527fddf252ad1be2c89b69c2b068fc378daa952ba7f163c4a11628f55a4df523b3ef910160405180910390a35050565b6110178282610716565b61057057611024816110af565b61102f8360206110c1565b6040516020016110409291906114a9565b60408051601f198184030181529082905262461bcd60e51b825261055d916004016112b2565b60065460ff16610e1a5760405162461bcd60e51b815260206004820152601460248201527314185d5cd8589b194e881b9bdd081c185d5cd95960621b604482015260640161055d565b60606103f36001600160a01b03831660145b606060006110d0836002611454565b6110db906002611441565b67ffffffffffffffff8111156110f3576110f361151e565b6040519080825280601f01601f19166020018201604052801561111d576020820181803683370190505b509050600360fc1b8160008151811061113857611138611534565b60200101906001600160f81b031916908160001a905350600f60fb1b8160018151811061116757611167611534565b60200101906001600160f81b031916908160001a905350600061118b846002611454565b611196906001611441565b90505b600181111561120e576f181899199a1a9b1b9c1cb0b131b232b360811b85600f16601081106111ca576111ca611534565b1a60f81b8282815181106111e0576111e0611534565b60200101906001600160f81b031916908160001a90535060049490941c936112078161154a565b9050611199565b50831561125d5760405162461bcd60e51b815260206004820181905260248201527f537472696e67733a20686578206c656e67746820696e73756666696369656e74604482015260640161055d565b9392505050565b60006020828403121561127657600080fd5b81356001600160e01b03198116811461125d57600080fd5b60005b838110156112a9578181015183820152602001611291565b50506000910152565b60208152600082518060208401526112d181604085016020870161128e565b601f01601f19169190910160400192915050565b80356001600160a01b03811681146112fc57600080fd5b919050565b6000806040838503121561131457600080fd5b61131d836112e5565b946020939093013593505050565b60008060006060848603121561134057600080fd5b611349846112e5565b9250611357602085016112e5565b9150604084013590509250925092565b60006020828403121561137957600080fd5b5035919050565b6000806040838503121561139357600080fd5b823591506113a3602084016112e5565b90509250929050565b6000602082840312156113be57600080fd5b61125d826112e5565b600080604083850312156113da57600080fd5b6113e3836112e5565b91506113a3602084016112e5565b600181811c9082168061140557607f821691505b60208210810361142557634e487b7160e01b600052602260045260246000fd5b50919050565b634e487b7160e01b600052601160045260246000fd5b808201808211156103f3576103f361142b565b80820281158282048414176103f3576103f361142b565b634e487b7160e01b600052601260045260246000fd5b6000826114905761149061146b565b500690565b6000826114a4576114a461146b565b500490565b7f416363657373436f6e74726f6c3a206163636f756e74200000000000000000008152600083516114e181601785016020880161128e565b7001034b99036b4b9b9b4b733903937b6329607d1b601791840191820152835161151281602884016020880161128e565b01602801949350505050565b634e487b7160e01b600052604160045260246000fd5b634e487b7160e01b600052603260045260246000fd5b6000816115595761155961142b565b50600019019056fea2646970667358221220acf0276fbfcaacf60b41af20a97da80d04a588f2c0ac6b787b8f72ae701715a164736f6c63430008130033","opcodes":"PUSH1 0x80 PUSH1 0x40 MSTORE CALLVALUE DUP1 ISZERO PUSH3 0x11 JUMPI PUSH1 0x0 DUP1 REVERT JUMPDEST POP PUSH1 0x40 MLOAD DUP1 PUSH1 0x40 ADD PUSH1 0x40 MSTORE DUP1 PUSH1 0x8 DUP2 MSTORE PUSH1 0x20 ADD PUSH8 0x2637B3B4A1B7B4B7 PUSH1 0xC1 SHL DUP2 MSTORE POP PUSH1 0x40 MLOAD DUP1 PUSH1 0x40 ADD PUSH1 0x40 MSTORE DUP1 PUSH1 0x4 DUP2 MSTORE PUSH1 0x20 ADD PUSH4 0x4C4F4749 PUSH1 0xE0 SHL DUP2 MSTORE POP DUP2 PUSH1 0x3 SWAP1 DUP2 PUSH3 0x61 SWAP2 SWAP1 PUSH3 0x215 JUMP JUMPDEST POP PUSH1 0x4 PUSH3 0x70 DUP3 DUP3 PUSH3 0x215 JUMP JUMPDEST POP POP PUSH1 0x6 DUP1 SLOAD PUSH1 0xFF NOT AND SWAP1 SSTORE POP PUSH3 0x8A PUSH1 0x0 CALLER PUSH3 0xBC JUMP JUMPDEST PUSH3 0xB6 PUSH32 0x9F2DF0FED2C77648DE5860A4CC508CD0818C85B8B8A1AB4CEEEF8D981C8956A6 CALLER PUSH3 0xBC JUMP JUMPDEST PUSH3 0x2E1 JUMP JUMPDEST PUSH3 0xC8 DUP3 DUP3 PUSH3 0xCC JUMP JUMPDEST POP POP JUMP JUMPDEST PUSH1 0x0 DUP3 DUP2 MSTORE PUSH1 0x5 PUSH1 0x20 SWAP1 DUP2 MSTORE PUSH1 0x40 DUP1 DUP4 KECCAK256 PUSH1 0x1 PUSH1 0x1 PUSH1 0xA0 SHL SUB DUP6 AND DUP5 MSTORE SWAP1 SWAP2 MSTORE SWAP1 KECCAK256 SLOAD PUSH1 0xFF AND PUSH3 0xC8 JUMPI PUSH1 0x0 DUP3 DUP2 MSTORE PUSH1 0x5 PUSH1 0x20 SWAP1 DUP2 MSTORE PUSH1 0x40 DUP1 DUP4 KECCAK256 PUSH1 0x1 PUSH1 0x1 PUSH1 0xA0 SHL SUB DUP6 AND DUP5 MSTORE SWAP1 SWAP2 MSTORE SWAP1 KECCAK256 DUP1 SLOAD PUSH1 0xFF NOT AND PUSH1 0x1 OR SWAP1 SSTORE PUSH3 0x12C CALLER SWAP1 JUMP JUMPDEST PUSH1 0x1 PUSH1 0x1 PUSH1 0xA0 SHL SUB AND DUP2 PUSH1 0x1 PUSH1 0x1 PUSH1 0xA0 SHL SUB AND DUP4 PUSH32 0x2F8788117E7EFF1D82E926EC794901D17C78024A50270940304540A733656F0D PUSH1 0x40 MLOAD PUSH1 0x40 MLOAD DUP1 SWAP2 SUB SWAP1 LOG4 POP POP JUMP JUMPDEST PUSH4 0x4E487B71 PUSH1 0xE0 SHL PUSH1 0x0 MSTORE PUSH1 0x41 PUSH1 0x4 MSTORE PUSH1 0x24 PUSH1 0x0 REVERT JUMPDEST PUSH1 0x1 DUP2 DUP2 SHR SWAP1 DUP3 AND DUP1 PUSH3 0x19B JUMPI PUSH1 0x7F DUP3 AND SWAP2 POP JUMPDEST PUSH1 0x20 DUP3 LT DUP2 SUB PUSH3 0x1BC JUMPI PUSH4 0x4E487B71 PUSH1 0xE0 SHL PUSH1 0x0 MSTORE PUSH1 0x22 PUSH1 0x4 MSTORE PUSH1 0x24 PUSH1 0x0 REVERT JUMPDEST POP SWAP2 SWAP1 POP JUMP JUMPDEST PUSH1 0x1F DUP3 GT ISZERO PUSH3 0x210 JUMPI PUSH1 0x0 DUP2 DUP2 MSTORE PUSH1 0x20 DUP2 KECCAK256 PUSH1 0x1F DUP6 ADD PUSH1 0x5 SHR DUP2 ADD PUSH1 0x20 DUP7 LT ISZERO PUSH3 0x1EB JUMPI POP DUP1 JUMPDEST PUSH1 0x1F DUP6 ADD PUSH1 0x5 SHR DUP3 ADD SWAP2 POP JUMPDEST DUP2 DUP2 LT ISZERO PUSH3 0x20C JUMPI DUP3 DUP2 SSTORE PUSH1 0x1 ADD PUSH3 0x1F7 JUMP JUMPDEST POP POP POP JUMPDEST POP POP POP JUMP JUMPDEST DUP2 MLOAD PUSH1 0x1 PUSH1 0x1 PUSH1 0x40 SHL SUB DUP2 GT ISZERO PUSH3 0x231 JUMPI PUSH3 0x231 PUSH3 0x170 JUMP JUMPDEST PUSH3 0x249 DUP2 PUSH3 0x242 DUP5 SLOAD PUSH3 0x186 JUMP JUMPDEST DUP5 PUSH3 0x1C2 JUMP JUMPDEST PUSH1 0x20 DUP1 PUSH1 0x1F DUP4 GT PUSH1 0x1 DUP2 EQ PUSH3 0x281 JUMPI PUSH1 0x0 DUP5 ISZERO PUSH3 0x268 JUMPI POP DUP6 DUP4 ADD MLOAD JUMPDEST PUSH1 0x0 NOT PUSH1 0x3 DUP7 SWAP1 SHL SHR NOT AND PUSH1 0x1 DUP6 SWAP1 SHL OR DUP6 SSTORE PUSH3 0x20C JUMP JUMPDEST PUSH1 0x0 DUP6 DUP2 MSTORE PUSH1 0x20 DUP2 KECCAK256 PUSH1 0x1F NOT DUP7 AND SWAP2 JUMPDEST DUP3 DUP2 LT ISZERO PUSH3 0x2B2 JUMPI DUP9 DUP7 ADD MLOAD DUP3 SSTORE SWAP5 DUP5 ADD SWAP5 PUSH1 0x1 SWAP1 SWAP2 ADD SWAP1 DUP5 ADD PUSH3 0x291 JUMP JUMPDEST POP DUP6 DUP3 LT ISZERO PUSH3 0x2D1 JUMPI DUP8 DUP6 ADD MLOAD PUSH1 0x0 NOT PUSH1 0x3 DUP9 SWAP1 SHL PUSH1 0xF8 AND SHR NOT AND DUP2 SSTORE JUMPDEST POP POP POP POP POP PUSH1 0x1 SWAP1 DUP2 SHL ADD SWAP1 SSTORE POP JUMP JUMPDEST PUSH2 0x1597 DUP1 PUSH3 0x2F1 PUSH1 0x0 CODECOPY PUSH1 0x0 RETURN INVALID PUSH1 0x80 PUSH1 0x40 MSTORE CALLVALUE DUP1 ISZERO PUSH2 0x10 JUMPI PUSH1 0x0 DUP1 REVERT JUMPDEST POP PUSH1 0x4 CALLDATASIZE LT PUSH2 0x1A9 JUMPI PUSH1 0x0 CALLDATALOAD PUSH1 0xE0 SHR DUP1 PUSH4 0x70A08231 GT PUSH2 0xF9 JUMPI DUP1 PUSH4 0xA217FDDF GT PUSH2 0x97 JUMPI DUP1 PUSH4 0xD5391393 GT PUSH2 0x71 JUMPI DUP1 PUSH4 0xD5391393 EQ PUSH2 0x362 JUMPI DUP1 PUSH4 0xD547741F EQ PUSH2 0x389 JUMPI DUP1 PUSH4 0xDD62ED3E EQ PUSH2 0x39C JUMPI DUP1 PUSH4 0xF76ABC94 EQ PUSH2 0x3AF JUMPI PUSH1 0x0 DUP1 REVERT JUMPDEST DUP1 PUSH4 0xA217FDDF EQ PUSH2 0x334 JUMPI DUP1 PUSH4 0xA457C2D7 EQ PUSH2 0x33C JUMPI DUP1 PUSH4 0xA9059CBB EQ PUSH2 0x34F JUMPI PUSH1 0x0 DUP1 REVERT JUMPDEST DUP1 PUSH4 0x8616E033 GT PUSH2 0xD3 JUMPI DUP1 PUSH4 0x8616E033 EQ PUSH2 0x2F3 JUMPI DUP1 PUSH4 0x91D14854 EQ PUSH2 0x306 JUMPI DUP1 PUSH4 0x95D89B41 EQ PUSH2 0x319 JUMPI DUP1 PUSH4 0xA12D4981 EQ PUSH2 0x321 JUMPI PUSH1 0x0 DUP1 REVERT JUMPDEST DUP1 PUSH4 0x70A08231 EQ PUSH2 0x2AF JUMPI DUP1 PUSH4 0x718E8C63 EQ PUSH2 0x2D8 JUMPI DUP1 PUSH4 0x8456CB59 EQ PUSH2 0x2EB JUMPI PUSH1 0x0 DUP1 REVERT JUMPDEST DUP1 PUSH4 0x248A9CA3 GT PUSH2 0x166 JUMPI DUP1 PUSH4 0x36568ABE GT PUSH2 0x140 JUMPI DUP1 PUSH4 0x36568ABE EQ PUSH2 0x276 JUMPI DUP1 PUSH4 0x39509351 EQ PUSH2 0x289 JUMPI DUP1 PUSH4 0x3F4BA83A EQ PUSH2 0x29C JUMPI DUP1 PUSH4 0x5C975ABB EQ PUSH2 0x2A4 JUMPI PUSH1 0x0 DUP1 REVERT JUMPDEST DUP1 PUSH4 0x248A9CA3 EQ PUSH2 0x22F JUMPI DUP1 PUSH4 0x2F2FF15D EQ PUSH2 0x252 JUMPI DUP1 PUSH4 0x313CE567 EQ PUSH2 0x267 JUMPI PUSH1 0x0 DUP1 REVERT JUMPDEST DUP1 PUSH4 0x1FFC9A7 EQ PUSH2 0x1AE JUMPI DUP1 PUSH4 0x6FDDE03 EQ PUSH2 0x1D6 JUMPI DUP1 PUSH4 0x95EA7B3 EQ PUSH2 0x1EB JUMPI DUP1 PUSH4 0x14A8BD0D EQ PUSH2 0x1FE JUMPI DUP1 PUSH4 0x18160DDD EQ PUSH2 0x214 JUMPI DUP1 PUSH4 0x23B872DD EQ PUSH2 0x21C JUMPI JUMPDEST PUSH1 0x0 DUP1 REVERT JUMPDEST PUSH2 0x1C1 PUSH2 0x1BC CALLDATASIZE PUSH1 0x4 PUSH2 0x1264 JUMP JUMPDEST PUSH2 0x3C2 JUMP JUMPDEST PUSH1 0x40 MLOAD SWAP1 ISZERO ISZERO DUP2 MSTORE PUSH1 0x20 ADD JUMPDEST PUSH1 0x40 MLOAD DUP1 SWAP2 SUB SWAP1 RETURN JUMPDEST PUSH2 0x1DE PUSH2 0x3F9 JUMP JUMPDEST PUSH1 0x40 MLOAD PUSH2 0x1CD SWAP2 SWAP1 PUSH2 0x12B2 JUMP JUMPDEST PUSH2 0x1C1 PUSH2 0x1F9 CALLDATASIZE PUSH1 0x4 PUSH2 0x1301 JUMP JUMPDEST PUSH2 0x48B JUMP JUMPDEST PUSH2 0x206 PUSH1 0x64 DUP2 JUMP JUMPDEST PUSH1 0x40 MLOAD SWAP1 DUP2 MSTORE PUSH1 0x20 ADD PUSH2 0x1CD JUMP JUMPDEST PUSH1 0x2 SLOAD PUSH2 0x206 JUMP JUMPDEST PUSH2 0x1C1 PUSH2 0x22A CALLDATASIZE PUSH1 0x4 PUSH2 0x132B JUMP JUMPDEST PUSH2 0x4A3 JUMP JUMPDEST PUSH2 0x206 PUSH2 0x23D CALLDATASIZE PUSH1 0x4 PUSH2 0x1367 JUMP JUMPDEST PUSH1 0x0 SWAP1 DUP2 MSTORE PUSH1 0x5 PUSH1 0x20 MSTORE PUSH1 0x40 SWAP1 KECCAK256 PUSH1 0x1 ADD SLOAD SWAP1 JUMP JUMPDEST PUSH2 0x265 PUSH2 0x260 CALLDATASIZE PUSH1 0x4 PUSH2 0x1380 JUMP JUMPDEST PUSH2 0x4C7 JUMP JUMPDEST STOP JUMPDEST PUSH1 0x40 MLOAD PUSH1 0x12 DUP2 MSTORE PUSH1 0x20 ADD PUSH2 0x1CD JUMP JUMPDEST PUSH2 0x265 PUSH2 0x284 CALLDATASIZE PUSH1 0x4 PUSH2 0x1380 JUMP JUMPDEST PUSH2 0x4F1 JUMP JUMPDEST PUSH2 0x1C1 PUSH2 0x297 CALLDATASIZE PUSH1 0x4 PUSH2 0x1301 JUMP JUMPDEST PUSH2 0x574 JUMP JUMPDEST PUSH2 0x265 PUSH2 0x596 JUMP JUMPDEST PUSH1 0x6 SLOAD PUSH1 0xFF AND PUSH2 0x1C1 JUMP JUMPDEST PUSH2 0x206 PUSH2 0x2BD CALLDATASIZE PUSH1 0x4 PUSH2 0x13AC JUMP JUMPDEST PUSH1 0x1 PUSH1 0x1 PUSH1 0xA0 SHL SUB AND PUSH1 0x0 SWAP1 DUP2 MSTORE PUSH1 0x20 DUP2 SWAP1 MSTORE PUSH1 0x40 SWAP1 KECCAK256 SLOAD SWAP1 JUMP JUMPDEST PUSH2 0x206 PUSH2 0x2E6 CALLDATASIZE PUSH1 0x4 PUSH2 0x1367 JUMP JUMPDEST PUSH2 0x5AC JUMP JUMPDEST PUSH2 0x265 PUSH2 0x5B9 JUMP JUMPDEST PUSH2 0x265 PUSH2 0x301 CALLDATASIZE PUSH1 0x4 PUSH2 0x1301 JUMP JUMPDEST PUSH2 0x5CC JUMP JUMPDEST PUSH2 0x1C1 PUSH2 0x314 CALLDATASIZE PUSH1 0x4 PUSH2 0x1380 JUMP JUMPDEST PUSH2 0x716 JUMP JUMPDEST PUSH2 0x1DE PUSH2 0x741 JUMP JUMPDEST PUSH2 0x206 PUSH2 0x32F CALLDATASIZE PUSH1 0x4 PUSH2 0x1367 JUMP JUMPDEST PUSH2 0x750 JUMP JUMPDEST PUSH2 0x206 PUSH1 0x0 DUP2 JUMP JUMPDEST PUSH2 0x1C1 PUSH2 0x34A CALLDATASIZE PUSH1 0x4 PUSH2 0x1301 JUMP JUMPDEST PUSH2 0x75D JUMP JUMPDEST PUSH2 0x1C1 PUSH2 0x35D CALLDATASIZE PUSH1 0x4 PUSH2 0x1301 JUMP JUMPDEST PUSH2 0x7D8 JUMP JUMPDEST PUSH2 0x206 PUSH32 0x9F2DF0FED2C77648DE5860A4CC508CD0818C85B8B8A1AB4CEEEF8D981C8956A6 DUP2 JUMP JUMPDEST PUSH2 0x265 PUSH2 0x397 CALLDATASIZE PUSH1 0x4 PUSH2 0x1380 JUMP JUMPDEST PUSH2 0x7E6 JUMP JUMPDEST PUSH2 0x206 PUSH2 0x3AA CALLDATASIZE PUSH1 0x4 PUSH2 0x13C7 JUMP JUMPDEST PUSH2 0x80B JUMP JUMPDEST PUSH2 0x265 PUSH2 0x3BD CALLDATASIZE PUSH1 0x4 PUSH2 0x1301 JUMP JUMPDEST PUSH2 0x836 JUMP JUMPDEST PUSH1 0x0 PUSH1 0x1 PUSH1 0x1 PUSH1 0xE0 SHL SUB NOT DUP3 AND PUSH4 0x7965DB0B PUSH1 0xE0 SHL EQ DUP1 PUSH2 0x3F3 JUMPI POP PUSH4 0x1FFC9A7 PUSH1 0xE0 SHL PUSH1 0x1 PUSH1 0x1 PUSH1 0xE0 SHL SUB NOT DUP4 AND EQ JUMPDEST SWAP3 SWAP2 POP POP JUMP JUMPDEST PUSH1 0x60 PUSH1 0x3 DUP1 SLOAD PUSH2 0x408 SWAP1 PUSH2 0x13F1 JUMP JUMPDEST DUP1 PUSH1 0x1F ADD PUSH1 0x20 DUP1 SWAP2 DIV MUL PUSH1 0x20 ADD PUSH1 0x40 MLOAD SWAP1 DUP2 ADD PUSH1 0x40 MSTORE DUP1 SWAP3 SWAP2 SWAP1 DUP2 DUP2 MSTORE PUSH1 0x20 ADD DUP3 DUP1 SLOAD PUSH2 0x434 SWAP1 PUSH2 0x13F1 JUMP JUMPDEST DUP1 ISZERO PUSH2 0x481 JUMPI DUP1 PUSH1 0x1F LT PUSH2 0x456 JUMPI PUSH2 0x100 DUP1 DUP4 SLOAD DIV MUL DUP4 MSTORE SWAP2 PUSH1 0x20 ADD SWAP2 PUSH2 0x481 JUMP JUMPDEST DUP3 ADD SWAP2 SWAP1 PUSH1 0x0 MSTORE PUSH1 0x20 PUSH1 0x0 KECCAK256 SWAP1 JUMPDEST DUP2 SLOAD DUP2 MSTORE SWAP1 PUSH1 0x1 ADD SWAP1 PUSH1 0x20 ADD DUP1 DUP4 GT PUSH2 0x464 JUMPI DUP3 SWAP1 SUB PUSH1 0x1F AND DUP3 ADD SWAP2 JUMPDEST POP POP POP POP POP SWAP1 POP SWAP1 JUMP JUMPDEST PUSH1 0x0 CALLER PUSH2 0x499 DUP2 DUP6 DUP6 PUSH2 0x90C JUMP JUMPDEST POP PUSH1 0x1 SWAP4 SWAP3 POP POP POP JUMP JUMPDEST PUSH1 0x0 CALLER PUSH2 0x4B1 DUP6 DUP3 DUP6 PUSH2 0xA30 JUMP JUMPDEST PUSH2 0x4BC DUP6 DUP6 DUP6 PUSH2 0xAAA JUMP JUMPDEST POP PUSH1 0x1 SWAP5 SWAP4 POP POP POP POP JUMP JUMPDEST PUSH1 0x0 DUP3 DUP2 MSTORE PUSH1 0x5 PUSH1 0x20 MSTORE PUSH1 0x40 SWAP1 KECCAK256 PUSH1 0x1 ADD SLOAD PUSH2 0x4E2 DUP2 PUSH2 0xC4E JUMP JUMPDEST PUSH2 0x4EC DUP4 DUP4 PUSH2 0xC58 JUMP JUMPDEST POP POP POP JUMP JUMPDEST PUSH1 0x1 PUSH1 0x1 PUSH1 0xA0 SHL SUB DUP2 AND CALLER EQ PUSH2 0x566 JUMPI PUSH1 0x40 MLOAD PUSH3 0x461BCD PUSH1 0xE5 SHL DUP2 MSTORE PUSH1 0x20 PUSH1 0x4 DUP3 ADD MSTORE PUSH1 0x2F PUSH1 0x24 DUP3 ADD MSTORE PUSH32 0x416363657373436F6E74726F6C3A2063616E206F6E6C792072656E6F756E6365 PUSH1 0x44 DUP3 ADD MSTORE PUSH15 0x103937B632B9903337B91039B2B633 PUSH1 0x89 SHL PUSH1 0x64 DUP3 ADD MSTORE PUSH1 0x84 ADD JUMPDEST PUSH1 0x40 MLOAD DUP1 SWAP2 SUB SWAP1 REVERT JUMPDEST PUSH2 0x570 DUP3 DUP3 PUSH2 0xCDE JUMP JUMPDEST POP POP JUMP JUMPDEST PUSH1 0x0 CALLER PUSH2 0x499 DUP2 DUP6 DUP6 PUSH2 0x587 DUP4 DUP4 PUSH2 0x80B JUMP JUMPDEST PUSH2 0x591 SWAP2 SWAP1 PUSH2 0x1441 JUMP JUMPDEST PUSH2 0x90C JUMP JUMPDEST PUSH1 0x0 PUSH2 0x5A1 DUP2 PUSH2 0xC4E JUMP JUMPDEST PUSH2 0x5A9 PUSH2 0xD45 JUMP JUMPDEST POP JUMP JUMPDEST PUSH1 0x0 PUSH2 0x3F3 PUSH1 0x64 DUP4 PUSH2 0x1454 JUMP JUMPDEST PUSH1 0x0 PUSH2 0x5C4 DUP2 PUSH2 0xC4E JUMP JUMPDEST PUSH2 0x5A9 PUSH2 0xD97 JUMP JUMPDEST PUSH32 0x9F2DF0FED2C77648DE5860A4CC508CD0818C85B8B8A1AB4CEEEF8D981C8956A6 PUSH2 0x5F6 DUP2 PUSH2 0xC4E JUMP JUMPDEST PUSH2 0x5FE PUSH2 0xDD4 JUMP JUMPDEST PUSH1 0x0 DUP3 GT PUSH2 0x648 JUMPI PUSH1 0x40 MLOAD PUSH3 0x461BCD PUSH1 0xE5 SHL DUP2 MSTORE PUSH1 0x20 PUSH1 0x4 DUP3 ADD MSTORE PUSH1 0x17 PUSH1 0x24 DUP3 ADD MSTORE PUSH23 0x416D6F756E74206D75737420626520706F736974697665 PUSH1 0x48 SHL PUSH1 0x44 DUP3 ADD MSTORE PUSH1 0x64 ADD PUSH2 0x55D JUMP JUMPDEST PUSH2 0x653 PUSH1 0x64 DUP4 PUSH2 0x1481 JUMP JUMPDEST ISZERO PUSH2 0x6B2 JUMPI PUSH1 0x40 MLOAD PUSH3 0x461BCD PUSH1 0xE5 SHL DUP2 MSTORE PUSH1 0x20 PUSH1 0x4 DUP3 ADD MSTORE PUSH1 0x29 PUSH1 0x24 DUP3 ADD MSTORE PUSH32 0x416D6F756E74206D75737420626520646976697369626C652062792065786368 PUSH1 0x44 DUP3 ADD MSTORE PUSH9 0x616E67652072617465 PUSH1 0xB8 SHL PUSH1 0x64 DUP3 ADD MSTORE PUSH1 0x84 ADD PUSH2 0x55D JUMP JUMPDEST PUSH1 0x0 PUSH2 0x6BF PUSH1 0x64 DUP5 PUSH2 0x1495 JUMP JUMPDEST SWAP1 POP PUSH2 0x6CB DUP5 DUP5 PUSH2 0xE1C JUMP JUMPDEST PUSH1 0x40 DUP1 MLOAD DUP5 DUP2 MSTORE PUSH1 0x20 DUP2 ADD DUP4 SWAP1 MSTORE PUSH1 0x1 PUSH1 0x1 PUSH1 0xA0 SHL SUB DUP7 AND SWAP2 PUSH32 0x2DCF9433D75DB0D8B1C172641F85E319FFE4AD22E108A95D1847CEB906E5195D SWAP2 ADD JUMPDEST PUSH1 0x40 MLOAD DUP1 SWAP2 SUB SWAP1 LOG2 POP POP POP POP JUMP JUMPDEST PUSH1 0x0 SWAP2 DUP3 MSTORE PUSH1 0x5 PUSH1 0x20 SWAP1 DUP2 MSTORE PUSH1 0x40 DUP1 DUP5 KECCAK256 PUSH1 0x1 PUSH1 0x1 PUSH1 0xA0 SHL SUB SWAP4 SWAP1 SWAP4 AND DUP5 MSTORE SWAP2 SWAP1 MSTORE SWAP1 KECCAK256 SLOAD PUSH1 0xFF AND SWAP1 JUMP JUMPDEST PUSH1 0x60 PUSH1 0x4 DUP1 SLOAD PUSH2 0x408 SWAP1 PUSH2 0x13F1 JUMP JUMPDEST PUSH1 0x0 PUSH2 0x3F3 PUSH1 0x64 DUP4 PUSH2 0x1495 JUMP JUMPDEST PUSH1 0x0 CALLER DUP2 PUSH2 0x76B DUP3 DUP7 PUSH2 0x80B JUMP JUMPDEST SWAP1 POP DUP4 DUP2 LT ISZERO PUSH2 0x7CB JUMPI PUSH1 0x40 MLOAD PUSH3 0x461BCD PUSH1 0xE5 SHL DUP2 MSTORE PUSH1 0x20 PUSH1 0x4 DUP3 ADD MSTORE PUSH1 0x25 PUSH1 0x24 DUP3 ADD MSTORE PUSH32 0x45524332303A2064656372656173656420616C6C6F77616E63652062656C6F77 PUSH1 0x44 DUP3 ADD MSTORE PUSH5 0x207A65726F PUSH1 0xD8 SHL PUSH1 0x64 DUP3 ADD MSTORE PUSH1 0x84 ADD PUSH2 0x55D JUMP JUMPDEST PUSH2 0x4BC DUP3 DUP7 DUP7 DUP5 SUB PUSH2 0x90C JUMP JUMPDEST PUSH1 0x0 CALLER PUSH2 0x499 DUP2 DUP6 DUP6 PUSH2 0xAAA JUMP JUMPDEST PUSH1 0x0 DUP3 DUP2 MSTORE PUSH1 0x5 PUSH1 0x20 MSTORE PUSH1 0x40 SWAP1 KECCAK256 PUSH1 0x1 ADD SLOAD PUSH2 0x801 DUP2 PUSH2 0xC4E JUMP JUMPDEST PUSH2 0x4EC DUP4 DUP4 PUSH2 0xCDE JUMP JUMPDEST PUSH1 0x1 PUSH1 0x1 PUSH1 0xA0 SHL SUB SWAP2 DUP3 AND PUSH1 0x0 SWAP1 DUP2 MSTORE PUSH1 0x1 PUSH1 0x20 SWAP1 DUP2 MSTORE PUSH1 0x40 DUP1 DUP4 KECCAK256 SWAP4 SWAP1 SWAP5 AND DUP3 MSTORE SWAP2 SWAP1 SWAP2 MSTORE KECCAK256 SLOAD SWAP1 JUMP JUMPDEST PUSH32 0x9F2DF0FED2C77648DE5860A4CC508CD0818C85B8B8A1AB4CEEEF8D981C8956A6 PUSH2 0x860 DUP2 PUSH2 0xC4E JUMP JUMPDEST PUSH2 0x868 PUSH2 0xDD4 JUMP JUMPDEST PUSH1 0x0 DUP3 GT PUSH2 0x8B2 JUMPI PUSH1 0x40 MLOAD PUSH3 0x461BCD PUSH1 0xE5 SHL DUP2 MSTORE PUSH1 0x20 PUSH1 0x4 DUP3 ADD MSTORE PUSH1 0x17 PUSH1 0x24 DUP3 ADD MSTORE PUSH23 0x416D6F756E74206D75737420626520706F736974697665 PUSH1 0x48 SHL PUSH1 0x44 DUP3 ADD MSTORE PUSH1 0x64 ADD PUSH2 0x55D JUMP JUMPDEST PUSH1 0x0 PUSH2 0x8BF PUSH1 0x64 DUP5 PUSH2 0x1454 JUMP JUMPDEST SWAP1 POP PUSH2 0x8CB DUP5 DUP3 PUSH2 0xF4E JUMP JUMPDEST PUSH1 0x40 DUP1 MLOAD DUP5 DUP2 MSTORE PUSH1 0x20 DUP2 ADD DUP4 SWAP1 MSTORE PUSH1 0x1 PUSH1 0x1 PUSH1 0xA0 SHL SUB DUP7 AND SWAP2 PUSH32 0x8FAFEBCAF9D154343DAD25669BFA277F4FBACD7AC6B0C4FED522580E040A0F33 SWAP2 ADD PUSH2 0x708 JUMP JUMPDEST PUSH1 0x1 PUSH1 0x1 PUSH1 0xA0 SHL SUB DUP4 AND PUSH2 0x96E JUMPI PUSH1 0x40 MLOAD PUSH3 0x461BCD PUSH1 0xE5 SHL DUP2 MSTORE PUSH1 0x20 PUSH1 0x4 DUP3 ADD MSTORE PUSH1 0x24 DUP1 DUP3 ADD MSTORE PUSH32 0x45524332303A20617070726F76652066726F6D20746865207A65726F20616464 PUSH1 0x44 DUP3 ADD MSTORE PUSH4 0x72657373 PUSH1 0xE0 SHL PUSH1 0x64 DUP3 ADD MSTORE PUSH1 0x84 ADD PUSH2 0x55D JUMP JUMPDEST PUSH1 0x1 PUSH1 0x1 PUSH1 0xA0 SHL SUB DUP3 AND PUSH2 0x9CF JUMPI PUSH1 0x40 MLOAD PUSH3 0x461BCD PUSH1 0xE5 SHL DUP2 MSTORE PUSH1 0x20 PUSH1 0x4 DUP3 ADD MSTORE PUSH1 0x22 PUSH1 0x24 DUP3 ADD MSTORE PUSH32 0x45524332303A20617070726F766520746F20746865207A65726F206164647265 PUSH1 0x44 DUP3 ADD MSTORE PUSH2 0x7373 PUSH1 0xF0 SHL PUSH1 0x64 DUP3 ADD MSTORE PUSH1 0x84 ADD PUSH2 0x55D JUMP JUMPDEST PUSH1 0x1 PUSH1 0x1 PUSH1 0xA0 SHL SUB DUP4 DUP2 AND PUSH1 0x0 DUP2 DUP2 MSTORE PUSH1 0x1 PUSH1 0x20 SWAP1 DUP2 MSTORE PUSH1 0x40 DUP1 DUP4 KECCAK256 SWAP5 DUP8 AND DUP1 DUP5 MSTORE SWAP5 DUP3 MSTORE SWAP2 DUP3 SWAP1 KECCAK256 DUP6 SWAP1 SSTORE SWAP1 MLOAD DUP5 DUP2 MSTORE PUSH32 0x8C5BE1E5EBEC7D5BD14F71427D1E84F3DD0314C0F7B2291E5B200AC8C7C3B925 SWAP2 ADD PUSH1 0x40 MLOAD DUP1 SWAP2 SUB SWAP1 LOG3 POP POP POP JUMP JUMPDEST PUSH1 0x0 PUSH2 0xA3C DUP5 DUP5 PUSH2 0x80B JUMP JUMPDEST SWAP1 POP PUSH1 0x0 NOT DUP2 EQ PUSH2 0xAA4 JUMPI DUP2 DUP2 LT ISZERO PUSH2 0xA97 JUMPI PUSH1 0x40 MLOAD PUSH3 0x461BCD PUSH1 0xE5 SHL DUP2 MSTORE PUSH1 0x20 PUSH1 0x4 DUP3 ADD MSTORE PUSH1 0x1D PUSH1 0x24 DUP3 ADD MSTORE PUSH32 0x45524332303A20696E73756666696369656E7420616C6C6F77616E6365000000 PUSH1 0x44 DUP3 ADD MSTORE PUSH1 0x64 ADD PUSH2 0x55D JUMP JUMPDEST PUSH2 0xAA4 DUP5 DUP5 DUP5 DUP5 SUB PUSH2 0x90C JUMP JUMPDEST POP POP POP POP JUMP JUMPDEST PUSH1 0x1 PUSH1 0x1 PUSH1 0xA0 SHL SUB DUP4 AND PUSH2 0xB0E JUMPI PUSH1 0x40 MLOAD PUSH3 0x461BCD PUSH1 0xE5 SHL DUP2 MSTORE PUSH1 0x20 PUSH1 0x4 DUP3 ADD MSTORE PUSH1 0x25 PUSH1 0x24 DUP3 ADD MSTORE PUSH32 0x45524332303A207472616E736665722066726F6D20746865207A65726F206164 PUSH1 0x44 DUP3 ADD MSTORE PUSH5 0x6472657373 PUSH1 0xD8 SHL PUSH1 0x64 DUP3 ADD MSTORE PUSH1 0x84 ADD PUSH2 0x55D JUMP JUMPDEST PUSH1 0x1 PUSH1 0x1 PUSH1 0xA0 SHL SUB DUP3 AND PUSH2 0xB70 JUMPI PUSH1 0x40 MLOAD PUSH3 0x461BCD PUSH1 0xE5 SHL DUP2 MSTORE PUSH1 0x20 PUSH1 0x4 DUP3 ADD MSTORE PUSH1 0x23 PUSH1 0x24 DUP3 ADD MSTORE PUSH32 0x45524332303A207472616E7366657220746F20746865207A65726F2061646472 PUSH1 0x44 DUP3 ADD MSTORE PUSH3 0x657373 PUSH1 0xE8 SHL PUSH1 0x64 DUP3 ADD MSTORE PUSH1 0x84 ADD PUSH2 0x55D JUMP JUMPDEST PUSH1 0x1 PUSH1 0x1 PUSH1 0xA0 SHL SUB DUP4 AND PUSH1 0x0 SWAP1 DUP2 MSTORE PUSH1 0x20 DUP2 SWAP1 MSTORE PUSH1 0x40 SWAP1 KECCAK256 SLOAD DUP2 DUP2 LT ISZERO PUSH2 0xBE8 JUMPI PUSH1 0x40 MLOAD PUSH3 0x461BCD PUSH1 0xE5 SHL DUP2 MSTORE PUSH1 0x20 PUSH1 0x4 DUP3 ADD MSTORE PUSH1 0x26 PUSH1 0x24 DUP3 ADD MSTORE PUSH32 0x45524332303A207472616E7366657220616D6F756E7420657863656564732062 PUSH1 0x44 DUP3 ADD MSTORE PUSH6 0x616C616E6365 PUSH1 0xD0 SHL PUSH1 0x64 DUP3 ADD MSTORE PUSH1 0x84 ADD PUSH2 0x55D JUMP JUMPDEST PUSH1 0x1 PUSH1 0x1 PUSH1 0xA0 SHL SUB DUP5 DUP2 AND PUSH1 0x0 DUP2 DUP2 MSTORE PUSH1 0x20 DUP2 DUP2 MSTORE PUSH1 0x40 DUP1 DUP4 KECCAK256 DUP8 DUP8 SUB SWAP1 SSTORE SWAP4 DUP8 AND DUP1 DUP4 MSTORE SWAP2 DUP5 SWAP1 KECCAK256 DUP1 SLOAD DUP8 ADD SWAP1 SSTORE SWAP3 MLOAD DUP6 DUP2 MSTORE SWAP1 SWAP3 PUSH32 0xDDF252AD1BE2C89B69C2B068FC378DAA952BA7F163C4A11628F55A4DF523B3EF SWAP2 ADD PUSH1 0x40 MLOAD DUP1 SWAP2 SUB SWAP1 LOG3 PUSH2 0xAA4 JUMP JUMPDEST PUSH2 0x5A9 DUP2 CALLER PUSH2 0x100D JUMP JUMPDEST PUSH2 0xC62 DUP3 DUP3 PUSH2 0x716 JUMP JUMPDEST PUSH2 0x570 JUMPI PUSH1 0x0 DUP3 DUP2 MSTORE PUSH1 0x5 PUSH1 0x20 SWAP1 DUP2 MSTORE PUSH1 0x40 DUP1 DUP4 KECCAK256 PUSH1 0x1 PUSH1 0x1 PUSH1 0xA0 SHL SUB DUP6 AND DUP5 MSTORE SWAP1 SWAP2 MSTORE SWAP1 KECCAK256 DUP1 SLOAD PUSH1 0xFF NOT AND PUSH1 0x1 OR SWAP1 SSTORE PUSH2 0xC9A CALLER SWAP1 JUMP JUMPDEST PUSH1 0x1 PUSH1 0x1 PUSH1 0xA0 SHL SUB AND DUP2 PUSH1 0x1 PUSH1 0x1 PUSH1 0xA0 SHL SUB AND DUP4 PUSH32 0x2F8788117E7EFF1D82E926EC794901D17C78024A50270940304540A733656F0D PUSH1 0x40 MLOAD PUSH1 0x40 MLOAD DUP1 SWAP2 SUB SWAP1 LOG4 POP POP JUMP JUMPDEST PUSH2 0xCE8 DUP3 DUP3 PUSH2 0x716 JUMP JUMPDEST ISZERO PUSH2 0x570 JUMPI PUSH1 0x0 DUP3 DUP2 MSTORE PUSH1 0x5 PUSH1 0x20 SWAP1 DUP2 MSTORE PUSH1 0x40 DUP1 DUP4 KECCAK256 PUSH1 0x1 PUSH1 0x1 PUSH1 0xA0 SHL SUB DUP6 AND DUP1 DUP6 MSTORE SWAP3 MSTORE DUP1 DUP4 KECCAK256 DUP1 SLOAD PUSH1 0xFF NOT AND SWAP1 SSTORE MLOAD CALLER SWAP3 DUP6 SWAP2 PUSH32 0xF6391F5C32D9C69D2A47EA670B442974B53935D1EDC7FD64EB21E047A839171B SWAP2 SWAP1 LOG4 POP POP JUMP JUMPDEST PUSH2 0xD4D PUSH2 0x1066 JUMP JUMPDEST PUSH1 0x6 DUP1 SLOAD PUSH1 0xFF NOT AND SWAP1 SSTORE PUSH32 0x5DB9EE0A495BF2E6FF9C91A7834C1BA4FDD244A5E8AA4E537BD38AEAE4B073AA CALLER JUMPDEST PUSH1 0x40 MLOAD PUSH1 0x1 PUSH1 0x1 PUSH1 0xA0 SHL SUB SWAP1 SWAP2 AND DUP2 MSTORE PUSH1 0x20 ADD PUSH1 0x40 MLOAD DUP1 SWAP2 SUB SWAP1 LOG1 JUMP JUMPDEST PUSH2 0xD9F PUSH2 0xDD4 JUMP JUMPDEST PUSH1 0x6 DUP1 SLOAD PUSH1 0xFF NOT AND PUSH1 0x1 OR SWAP1 SSTORE PUSH32 0x62E78CEA01BEE320CD4E420270B5EA74000D11B0C9F74754EBDBFC544B05A258 PUSH2 0xD7A CALLER SWAP1 JUMP JUMPDEST PUSH1 0x6 SLOAD PUSH1 0xFF AND ISZERO PUSH2 0xE1A JUMPI PUSH1 0x40 MLOAD PUSH3 0x461BCD PUSH1 0xE5 SHL DUP2 MSTORE PUSH1 0x20 PUSH1 0x4 DUP3 ADD MSTORE PUSH1 0x10 PUSH1 0x24 DUP3 ADD MSTORE PUSH16 0x14185D5CD8589B194E881C185D5CD959 PUSH1 0x82 SHL PUSH1 0x44 DUP3 ADD MSTORE PUSH1 0x64 ADD PUSH2 0x55D JUMP JUMPDEST JUMP JUMPDEST PUSH1 0x1 PUSH1 0x1 PUSH1 0xA0 SHL SUB DUP3 AND PUSH2 0xE7C JUMPI PUSH1 0x40 MLOAD PUSH3 0x461BCD PUSH1 0xE5 SHL DUP2 MSTORE PUSH1 0x20 PUSH1 0x4 DUP3 ADD MSTORE PUSH1 0x21 PUSH1 0x24 DUP3 ADD MSTORE PUSH32 0x45524332303A206275726E2066726F6D20746865207A65726F20616464726573 PUSH1 0x44 DUP3 ADD MSTORE PUSH1 0x73 PUSH1 0xF8 SHL PUSH1 0x64 DUP3 ADD MSTORE PUSH1 0x84 ADD PUSH2 0x55D JUMP JUMPDEST PUSH1 0x1 PUSH1 0x1 PUSH1 0xA0 SHL SUB DUP3 AND PUSH1 0x0 SWAP1 DUP2 MSTORE PUSH1 0x20 DUP2 SWAP1 MSTORE PUSH1 0x40 SWAP1 KECCAK256 SLOAD DUP2 DUP2 LT ISZERO PUSH2 0xEF0 JUMPI PUSH1 0x40 MLOAD PUSH3 0x461BCD PUSH1 0xE5 SHL DUP2 MSTORE PUSH1 0x20 PUSH1 0x4 DUP3 ADD MSTORE PUSH1 0x22 PUSH1 0x24 DUP3 ADD MSTORE PUSH32 0x45524332303A206275726E20616D6F756E7420657863656564732062616C616E PUSH1 0x44 DUP3 ADD MSTORE PUSH2 0x6365 PUSH1 0xF0 SHL PUSH1 0x64 DUP3 ADD MSTORE PUSH1 0x84 ADD PUSH2 0x55D JUMP JUMPDEST PUSH1 0x1 PUSH1 0x1 PUSH1 0xA0 SHL SUB DUP4 AND PUSH1 0x0 DUP2 DUP2 MSTORE PUSH1 0x20 DUP2 DUP2 MSTORE PUSH1 0x40 DUP1 DUP4 KECCAK256 DUP7 DUP7 SUB SWAP1 SSTORE PUSH1 0x2 DUP1 SLOAD DUP8 SWAP1 SUB SWAP1 SSTORE MLOAD DUP6 DUP2 MSTORE SWAP2 SWAP3 SWAP2 PUSH32 0xDDF252AD1BE2C89B69C2B068FC378DAA952BA7F163C4A11628F55A4DF523B3EF SWAP2 ADD PUSH1 0x40 MLOAD DUP1 SWAP2 SUB SWAP1 LOG3 POP POP POP JUMP JUMPDEST PUSH1 0x1 PUSH1 0x1 PUSH1 0xA0 SHL SUB DUP3 AND PUSH2 0xFA4 JUMPI PUSH1 0x40 MLOAD PUSH3 0x461BCD PUSH1 0xE5 SHL DUP2 MSTORE PUSH1 0x20 PUSH1 0x4 DUP3 ADD MSTORE PUSH1 0x1F PUSH1 0x24 DUP3 ADD MSTORE PUSH32 0x45524332303A206D696E7420746F20746865207A65726F206164647265737300 PUSH1 0x44 DUP3 ADD MSTORE PUSH1 0x64 ADD PUSH2 0x55D JUMP JUMPDEST DUP1 PUSH1 0x2 PUSH1 0x0 DUP3 DUP3 SLOAD PUSH2 0xFB6 SWAP2 SWAP1 PUSH2 0x1441 JUMP JUMPDEST SWAP1 SWAP2 SSTORE POP POP PUSH1 0x1 PUSH1 0x1 PUSH1 0xA0 SHL SUB DUP3 AND PUSH1 0x0 DUP2 DUP2 MSTORE PUSH1 0x20 DUP2 DUP2 MSTORE PUSH1 0x40 DUP1 DUP4 KECCAK256 DUP1 SLOAD DUP7 ADD SWAP1 SSTORE MLOAD DUP5 DUP2 MSTORE PUSH32 0xDDF252AD1BE2C89B69C2B068FC378DAA952BA7F163C4A11628F55A4DF523B3EF SWAP2 ADD PUSH1 0x40 MLOAD DUP1 SWAP2 SUB SWAP1 LOG3 POP POP JUMP JUMPDEST PUSH2 0x1017 DUP3 DUP3 PUSH2 0x716 JUMP JUMPDEST PUSH2 0x570 JUMPI PUSH2 0x1024 DUP2 PUSH2 0x10AF JUMP JUMPDEST PUSH2 0x102F DUP4 PUSH1 0x20 PUSH2 0x10C1 JUMP JUMPDEST PUSH1 0x40 MLOAD PUSH1 0x20 ADD PUSH2 0x1040 SWAP3 SWAP2 SWAP1 PUSH2 0x14A9 JUMP JUMPDEST PUSH1 0x40 DUP1 MLOAD PUSH1 0x1F NOT DUP2 DUP5 SUB ADD DUP2 MSTORE SWAP1 DUP3 SWAP1 MSTORE PUSH3 0x461BCD PUSH1 0xE5 SHL DUP3 MSTORE PUSH2 0x55D SWAP2 PUSH1 0x4 ADD PUSH2 0x12B2 JUMP JUMPDEST PUSH1 0x6 SLOAD PUSH1 0xFF AND PUSH2 0xE1A JUMPI PUSH1 0x40 MLOAD PUSH3 0x461BCD PUSH1 0xE5 SHL DUP2 MSTORE PUSH1 0x20 PUSH1 0x4 DUP3 ADD MSTORE PUSH1 0x14 PUSH1 0x24 DUP3 ADD MSTORE PUSH20 0x14185D5CD8589B194E881B9BDD081C185D5CD959 PUSH1 0x62 SHL PUSH1 0x44 DUP3 ADD MSTORE PUSH1 0x64 ADD PUSH2 0x55D JUMP JUMPDEST PUSH1 0x60 PUSH2 0x3F3 PUSH1 0x1 PUSH1 0x1 PUSH1 0xA0 SHL SUB DUP4 AND PUSH1 0x14 JUMPDEST PUSH1 0x60 PUSH1 0x0 PUSH2 0x10D0 DUP4 PUSH1 0x2 PUSH2 0x1454 JUMP JUMPDEST PUSH2 0x10DB SWAP1 PUSH1 0x2 PUSH2 0x1441 JUMP JUMPDEST PUSH8 0xFFFFFFFFFFFFFFFF DUP2 GT ISZERO PUSH2 0x10F3 JUMPI PUSH2 0x10F3 PUSH2 0x151E JUMP JUMPDEST PUSH1 0x40 MLOAD SWAP1 DUP1 DUP3 MSTORE DUP1 PUSH1 0x1F ADD PUSH1 0x1F NOT AND PUSH1 0x20 ADD DUP3 ADD PUSH1 0x40 MSTORE DUP1 ISZERO PUSH2 0x111D JUMPI PUSH1 0x20 DUP3 ADD DUP2 DUP1 CALLDATASIZE DUP4 CALLDATACOPY ADD SWAP1 POP JUMPDEST POP SWAP1 POP PUSH1 0x3 PUSH1 0xFC SHL DUP2 PUSH1 0x0 DUP2 MLOAD DUP2 LT PUSH2 0x1138 JUMPI PUSH2 0x1138 PUSH2 0x1534 JUMP JUMPDEST PUSH1 0x20 ADD ADD SWAP1 PUSH1 0x1 PUSH1 0x1 PUSH1 0xF8 SHL SUB NOT AND SWAP1 DUP2 PUSH1 0x0 BYTE SWAP1 MSTORE8 POP PUSH1 0xF PUSH1 0xFB SHL DUP2 PUSH1 0x1 DUP2 MLOAD DUP2 LT PUSH2 0x1167 JUMPI PUSH2 0x1167 PUSH2 0x1534 JUMP JUMPDEST PUSH1 0x20 ADD ADD SWAP1 PUSH1 0x1 PUSH1 0x1 PUSH1 0xF8 SHL SUB NOT AND SWAP1 DUP2 PUSH1 0x0 BYTE SWAP1 MSTORE8 POP PUSH1 0x0 PUSH2 0x118B DUP5 PUSH1 0x2 PUSH2 0x1454 JUMP JUMPDEST PUSH2 0x1196 SWAP1 PUSH1 0x1 PUSH2 0x1441 JUMP JUMPDEST SWAP1 POP JUMPDEST PUSH1 0x1 DUP2 GT ISZERO PUSH2 0x120E JUMPI PUSH16 0x181899199A1A9B1B9C1CB0B131B232B3 PUSH1 0x81 SHL DUP6 PUSH1 0xF AND PUSH1 0x10 DUP2 LT PUSH2 0x11CA JUMPI PUSH2 0x11CA PUSH2 0x1534 JUMP JUMPDEST BYTE PUSH1 0xF8 SHL DUP3 DUP3 DUP2 MLOAD DUP2 LT PUSH2 0x11E0 JUMPI PUSH2 0x11E0 PUSH2 0x1534 JUMP JUMPDEST PUSH1 0x20 ADD ADD SWAP1 PUSH1 0x1 PUSH1 0x1 PUSH1 0xF8 SHL SUB NOT AND SWAP1 DUP2 PUSH1 0x0 BYTE SWAP1 MSTORE8 POP PUSH1 0x4 SWAP5 SWAP1 SWAP5 SHR SWAP4 PUSH2 0x1207 DUP2 PUSH2 0x154A JUMP JUMPDEST SWAP1 POP PUSH2 0x1199 JUMP JUMPDEST POP DUP4 ISZERO PUSH2 0x125D JUMPI PUSH1 0x40 MLOAD PUSH3 0x461BCD PUSH1 0xE5 SHL DUP2 MSTORE PUSH1 0x20 PUSH1 0x4 DUP3 ADD DUP2 SWAP1 MSTORE PUSH1 0x24 DUP3 ADD MSTORE PUSH32 0x537472696E67733A20686578206C656E67746820696E73756666696369656E74 PUSH1 0x44 DUP3 ADD MSTORE PUSH1 0x64 ADD PUSH2 0x55D JUMP JUMPDEST SWAP4 SWAP3 POP POP POP JUMP JUMPDEST PUSH1 0x0 PUSH1 0x20 DUP3 DUP5 SUB SLT ISZERO PUSH2 0x1276 JUMPI PUSH1 0x0 DUP1 REVERT JUMPDEST DUP2 CALLDATALOAD PUSH1 0x1 PUSH1 0x1 PUSH1 0xE0 SHL SUB NOT DUP2 AND DUP2 EQ PUSH2 0x125D JUMPI PUSH1 0x0 DUP1 REVERT JUMPDEST PUSH1 0x0 JUMPDEST DUP4 DUP2 LT ISZERO PUSH2 0x12A9 JUMPI DUP2 DUP2 ADD MLOAD DUP4 DUP3 ADD MSTORE PUSH1 0x20 ADD PUSH2 0x1291 JUMP JUMPDEST POP POP PUSH1 0x0 SWAP2 ADD MSTORE JUMP JUMPDEST PUSH1 0x20 DUP2 MSTORE PUSH1 0x0 DUP3 MLOAD DUP1 PUSH1 0x20 DUP5 ADD MSTORE PUSH2 0x12D1 DUP2 PUSH1 0x40 DUP6 ADD PUSH1 0x20 DUP8 ADD PUSH2 0x128E JUMP JUMPDEST PUSH1 0x1F ADD PUSH1 0x1F NOT AND SWAP2 SWAP1 SWAP2 ADD PUSH1 0x40 ADD SWAP3 SWAP2 POP POP JUMP JUMPDEST DUP1 CALLDATALOAD PUSH1 0x1 PUSH1 0x1 PUSH1 0xA0 SHL SUB DUP2 AND DUP2 EQ PUSH2 0x12FC JUMPI PUSH1 0x0 DUP1 REVERT JUMPDEST SWAP2 SWAP1 POP JUMP JUMPDEST PUSH1 0x0 DUP1 PUSH1 0x40 DUP4 DUP6 SUB SLT ISZERO PUSH2 0x1314 JUMPI PUSH1 0x0 DUP1 REVERT JUMPDEST PUSH2 0x131D DUP4 PUSH2 0x12E5 JUMP JUMPDEST SWAP5 PUSH1 0x20 SWAP4 SWAP1 SWAP4 ADD CALLDATALOAD SWAP4 POP POP POP JUMP JUMPDEST PUSH1 0x0 DUP1 PUSH1 0x0 PUSH1 0x60 DUP5 DUP7 SUB SLT ISZERO PUSH2 0x1340 JUMPI PUSH1 0x0 DUP1 REVERT JUMPDEST PUSH2 0x1349 DUP5 PUSH2 0x12E5 JUMP JUMPDEST SWAP3 POP PUSH2 0x1357 PUSH1 0x20 DUP6 ADD PUSH2 0x12E5 JUMP JUMPDEST SWAP2 POP PUSH1 0x40 DUP5 ADD CALLDATALOAD SWAP1 POP SWAP3 POP SWAP3 POP SWAP3 JUMP JUMPDEST PUSH1 0x0 PUSH1 0x20 DUP3 DUP5 SUB SLT ISZERO PUSH2 0x1379 JUMPI PUSH1 0x0 DUP1 REVERT JUMPDEST POP CALLDATALOAD SWAP2 SWAP1 POP JUMP JUMPDEST PUSH1 0x0 DUP1 PUSH1 0x40 DUP4 DUP6 SUB SLT ISZERO PUSH2 0x1393 JUMPI PUSH1 0x0 DUP1 REVERT JUMPDEST DUP3 CALLDATALOAD SWAP2 POP PUSH2 0x13A3 PUSH1 0x20 DUP5 ADD PUSH2 0x12E5 JUMP JUMPDEST SWAP1 POP SWAP3 POP SWAP3 SWAP1 POP JUMP JUMPDEST PUSH1 0x0 PUSH1 0x20 DUP3 DUP5 SUB SLT ISZERO PUSH2 0x13BE JUMPI PUSH1 0x0 DUP1 REVERT JUMPDEST PUSH2 0x125D DUP3 PUSH2 0x12E5 JUMP JUMPDEST PUSH1 0x0 DUP1 PUSH1 0x40 DUP4 DUP6 SUB SLT ISZERO PUSH2 0x13DA JUMPI PUSH1 0x0 DUP1 REVERT JUMPDEST PUSH2 0x13E3 DUP4 PUSH2 0x12E5 JUMP JUMPDEST SWAP2 POP PUSH2 0x13A3 PUSH1 0x20 DUP5 ADD PUSH2 0x12E5 JUMP JUMPDEST PUSH1 0x1 DUP2 DUP2 SHR SWAP1 DUP3 AND DUP1 PUSH2 0x1405 JUMPI PUSH1 0x7F DUP3 AND SWAP2 POP JUMPDEST PUSH1 0x20 DUP3 LT DUP2 SUB PUSH2 0x1425 JUMPI PUSH4 0x4E487B71 PUSH1 0xE0 SHL PUSH1 0x0 MSTORE PUSH1 0x22 PUSH1 0x4 MSTORE PUSH1 0x24 PUSH1 0x0 REVERT JUMPDEST POP SWAP2 SWAP1 POP JUMP JUMPDEST PUSH4 0x4E487B71 PUSH1 0xE0 SHL PUSH1 0x0 MSTORE PUSH1 0x11 PUSH1 0x4 MSTORE PUSH1 0x24 PUSH1 0x0 REVERT JUMPDEST DUP1 DUP3 ADD DUP1 DUP3 GT ISZERO PUSH2 0x3F3 JUMPI PUSH2 0x3F3 PUSH2 0x142B JUMP JUMPDEST DUP1 DUP3 MUL DUP2 ISZERO DUP3 DUP3 DIV DUP5 EQ OR PUSH2 0x3F3 JUMPI PUSH2 0x3F3 PUSH2 0x142B JUMP JUMPDEST PUSH4 0x4E487B71 PUSH1 0xE0 SHL PUSH1 0x0 MSTORE PUSH1 0x12 PUSH1 0x4 MSTORE PUSH1 0x24 PUSH1 0x0 REVERT JUMPDEST PUSH1 0x0 DUP3 PUSH2 0x1490 JUMPI PUSH2 0x1490 PUSH2 0x146B JUMP JUMPDEST POP MOD SWAP1 JUMP JUMPDEST PUSH1 0x0 DUP3 PUSH2 0x14A4 JUMPI PUSH2 0x14A4 PUSH2 0x146B JUMP JUMPDEST POP DIV SWAP1 JUMP JUMPDEST PUSH32 0x416363657373436F6E74726F6C3A206163636F756E7420000000000000000000 DUP2 MSTORE PUSH1 0x0 DUP4 MLOAD PUSH2 0x14E1 DUP2 PUSH1 0x17 DUP6 ADD PUSH1 0x20 DUP9 ADD PUSH2 0x128E JUMP JUMPDEST PUSH17 0x1034B99036B4B9B9B4B733903937B6329 PUSH1 0x7D SHL PUSH1 0x17 SWAP2 DUP5 ADD SWAP2 DUP3 ADD MSTORE DUP4 MLOAD PUSH2 0x1512 DUP2 PUSH1 0x28 DUP5 ADD PUSH1 0x20 DUP9 ADD PUSH2 0x128E JUMP JUMPDEST ADD PUSH1 0x28 ADD SWAP5 SWAP4 POP POP POP POP JUMP JUMPDEST PUSH4 0x4E487B71 PUSH1 0xE0 SHL PUSH1 0x0 MSTORE PUSH1 0x41 PUSH1 0x4 MSTORE PUSH1 0x24 PUSH1 0x0 REVERT JUMPDEST PUSH4 0x4E487B71 PUSH1 0xE0 SHL PUSH1 0x0 MSTORE PUSH1 0x32 PUSH1 0x4 MSTORE PUSH1 0x24 PUSH1 0x0 REVERT JUMPDEST PUSH1 0x0 DUP2 PUSH2 0x1559 JUMPI PUSH2 0x1559 PUSH2 0x142B JUMP JUMPDEST POP PUSH1 0x0 NOT ADD SWAP1 JUMP INVALID LOG2 PUSH5 0x6970667358 0x22 SLT KECCAK256 0xAC CREATE 0x27 PUSH16 0xBFCAACF60B41AF20A97DA80D04A588F2 0xC0 0xAC PUSH12 0x787B8F72AE701715A164736F PUSH13 0x63430008130033000000000000 "},"methodIdentifiers":{"DEFAULT_ADMIN_ROLE()":"a217fddf","EXCHANGE_RATE()":"14a8bd0d","MINTER_ROLE()":"d5391393","allowance(address,address)":"dd62ed3e","approve(address,uint256)":"095ea7b3","balanceOf(address)":"70a08231","burnForUSD(address,uint256)":"8616e033","decimals()":"313ce567","decreaseAllowance(address,uint256)":"a457c2d7","getRoleAdmin(bytes32)":"248a9ca3","grantRole(bytes32,address)":"2f2ff15d","hasRole(bytes32,address)":"91d14854","increaseAllowance(address,uint256)":"39509351","mintFromUSD(address,uint256)":"f76abc94","name()":"06fdde03","pause()":"8456cb59","paused()":"5c975abb","renounceRole(bytes32,address)":"36568abe","revokeRole(bytes32,address)":"d547741f","supportsInterface(bytes4)":"01ffc9a7","symbol()":"95d89b41","tokensToUSD(uint256)":"a12d4981","totalSupply()":"18160ddd","transfer(address,uint256)":"a9059cbb","transferFrom(address,address,uint256)":"23b872dd","unpause()":"3f4ba83a","usdToTokens(uint256)":"718e8c63"}}}}}