{
  "_format": "hh-sol-artifact-1",
  "contractName": "SupplyChain",
  "sourceName": "contracts/SupplyChain.sol",
  "abi": [
    {
      "inputs": [
        {
          "internalType": "address",
          "name": "productNFTAddress",
          "type": "address"
        }
      ],
      "stateMutability": "nonpayable",
      "type": "constructor"
    },
    {
      "anonymous": false,
      "inputs": [
        {
          "indexed": true,
          "internalType": "uint256",
          "name": "productId",
          "type": "uint256"
        },
        {
          "indexed": false,
          "internalType": "string",
          "name": "newLocation",
          "type": "string"
        }
      ],
      "name": "LocationUpdated",
      "type": "event"
    },
    {
      "anonymous": false,
      "inputs": [
        {
          "indexed": false,
          "internalType": "address",
          "name": "account",
          "type": "address"
        }
      ],
      "name": "Paused",
      "type": "event"
    },
    {
      "anonymous": false,
      "inputs": [
        {
          "indexed": true,
          "internalType": "uint256",
          "name": "productId",
          "type": "uint256"
        },
        {
          "indexed": true,
          "internalType": "address",
          "name": "seller",
          "type": "address"
        },
        {
          "indexed": false,
          "internalType": "string",
          "name": "name",
          "type": "string"
        }
      ],
      "name": "ProductCreated",
      "type": "event"
    },
    {
      "anonymous": false,
      "inputs": [
        {
          "indexed": true,
          "internalType": "bytes32",
          "name": "role",
          "type": "bytes32"
        },
        {
          "indexed": true,
          "internalType": "bytes32",
          "name": "previousAdminRole",
          "type": "bytes32"
        },
        {
          "indexed": true,
          "internalType": "bytes32",
          "name": "newAdminRole",
          "type": "bytes32"
        }
      ],
      "name": "RoleAdminChanged",
      "type": "event"
    },
    {
      "anonymous": false,
      "inputs": [
        {
          "indexed": true,
          "internalType": "bytes32",
          "name": "role",
          "type": "bytes32"
        },
        {
          "indexed": true,
          "internalType": "address",
          "name": "account",
          "type": "address"
        },
        {
          "indexed": true,
          "internalType": "address",
          "name": "sender",
          "type": "address"
        }
      ],
      "name": "RoleGranted",
      "type": "event"
    },
    {
      "anonymous": false,
      "inputs": [
        {
          "indexed": true,
          "internalType": "bytes32",
          "name": "role",
          "type": "bytes32"
        },
        {
          "indexed": true,
          "internalType": "address",
          "name": "account",
          "type": "address"
        },
        {
          "indexed": true,
          "internalType": "address",
          "name": "sender",
          "type": "address"
        }
      ],
      "name": "RoleRevoked",
      "type": "event"
    },
    {
      "anonymous": false,
      "inputs": [
        {
          "indexed": true,
          "internalType": "uint256",
          "name": "productId",
          "type": "uint256"
        },
        {
          "indexed": true,
          "internalType": "address",
          "name": "sender",
          "type": "address"
        },
        {
          "indexed": true,
          "internalType": "address",
          "name": "receiver",
          "type": "address"
        }
      ],
      "name": "ShipmentCreated",
      "type": "event"
    },
    {
      "anonymous": false,
      "inputs": [
        {
          "indexed": true,
          "internalType": "uint256",
          "name": "productId",
          "type": "uint256"
        },
        {
          "indexed": false,
          "internalType": "enum SupplyChain.Stage",
          "name": "newStage",
          "type": "uint8"
        }
      ],
      "name": "StageUpdated",
      "type": "event"
    },
    {
      "anonymous": false,
      "inputs": [
        {
          "indexed": false,
          "internalType": "address",
          "name": "account",
          "type": "address"
        }
      ],
      "name": "Unpaused",
      "type": "event"
    },
    {
      "inputs": [],
      "name": "DEFAULT_ADMIN_ROLE",
      "outputs": [
        {
          "internalType": "bytes32",
          "name": "",
          "type": "bytes32"
        }
      ],
      "stateMutability": "view",
      "type": "function"
    },
    {
      "inputs": [],
      "name": "SELLER_ROLE",
      "outputs": [
        {
          "internalType": "bytes32",
          "name": "",
          "type": "bytes32"
        }
      ],
      "stateMutability": "view",
      "type": "function"
    },
    {
      "inputs": [
        {
          "internalType": "string",
          "name": "name",
          "type": "string"
        },
        {
          "internalType": "string",
          "name": "seller",
          "type": "string"
        },
        {
          "internalType": "uint256",
          "name": "price",
          "type": "uint256"
        },
        {
          "internalType": "string",
          "name": "tokenURI",
          "type": "string"
        }
      ],
      "name": "createProduct",
      "outputs": [
        {
          "internalType": "uint256",
          "name": "",
          "type": "uint256"
        }
      ],
      "stateMutability": "nonpayable",
      "type": "function"
    },
    {
      "inputs": [
        {
          "internalType": "uint256",
          "name": "productId",
          "type": "uint256"
        },
        {
          "internalType": "address",
          "name": "receiver",
          "type": "address"
        },
        {
          "internalType": "string",
          "name": "location",
          "type": "string"
        }
      ],
      "name": "createShipment",
      "outputs": [],
      "stateMutability": "nonpayable",
      "type": "function"
    },
    {
      "inputs": [
        {
          "internalType": "uint256",
          "name": "productId",
          "type": "uint256"
        }
      ],
      "name": "getCurrentShipment",
      "outputs": [
        {
          "internalType": "address",
          "name": "sender",
          "type": "address"
        },
        {
          "internalType": "address",
          "name": "receiver",
          "type": "address"
        },
        {
          "internalType": "enum SupplyChain.Stage",
          "name": "stage",
          "type": "uint8"
        },
        {
          "internalType": "uint256",
          "name": "timestamp",
          "type": "uint256"
        },
        {
          "internalType": "string",
          "name": "location",
          "type": "string"
        }
      ],
      "stateMutability": "view",
      "type": "function"
    },
    {
      "inputs": [
        {
          "internalType": "bytes32",
          "name": "role",
          "type": "bytes32"
        }
      ],
      "name": "getRoleAdmin",
      "outputs": [
        {
          "internalType": "bytes32",
          "name": "",
          "type": "bytes32"
        }
      ],
      "stateMutability": "view",
      "type": "function"
    },
    {
      "inputs": [
        {
          "internalType": "uint256",
          "name": "productId",
          "type": "uint256"
        }
      ],
      "name": "getShipmentHistory",
      "outputs": [
        {
          "components": [
            {
              "internalType": "uint256",
              "name": "productId",
              "type": "uint256"
            },
            {
              "internalType": "address",
              "name": "sender",
              "type": "address"
            },
            {
              "internalType": "address",
              "name": "receiver",
              "type": "address"
            },
            {
              "internalType": "enum SupplyChain.Stage",
              "name": "currentStage",
              "type": "uint8"
            },
            {
              "internalType": "uint256",
              "name": "timestamp",
              "type": "uint256"
            },
            {
              "internalType": "string",
              "name": "location",
              "type": "string"
            }
          ],
          "internalType": "struct SupplyChain.Shipment[]",
          "name": "",
          "type": "tuple[]"
        }
      ],
      "stateMutability": "view",
      "type": "function"
    },
    {
      "inputs": [
        {
          "internalType": "bytes32",
          "name": "role",
          "type": "bytes32"
        },
        {
          "internalType": "address",
          "name": "account",
          "type": "address"
        }
      ],
      "name": "grantRole",
      "outputs": [],
      "stateMutability": "nonpayable",
      "type": "function"
    },
    {
      "inputs": [
        {
          "internalType": "address",
          "name": "account",
          "type": "address"
        }
      ],
      "name": "grantSellerRole",
      "outputs": [],
      "stateMutability": "nonpayable",
      "type": "function"
    },
    {
      "inputs": [
        {
          "internalType": "bytes32",
          "name": "role",
          "type": "bytes32"
        },
        {
          "internalType": "address",
          "name": "account",
          "type": "address"
        }
      ],
      "name": "hasRole",
      "outputs": [
        {
          "internalType": "bool",
          "name": "",
          "type": "bool"
        }
      ],
      "stateMutability": "view",
      "type": "function"
    },
    {
      "inputs": [
        {
          "internalType": "address",
          "name": "account",
          "type": "address"
        }
      ],
      "name": "isSeller",
      "outputs": [
        {
          "internalType": "bool",
          "name": "",
          "type": "bool"
        }
      ],
      "stateMutability": "view",
      "type": "function"
    },
    {
      "inputs": [],
      "name": "pause",
      "outputs": [],
      "stateMutability": "nonpayable",
      "type": "function"
    },
    {
      "inputs": [],
      "name": "paused",
      "outputs": [
        {
          "internalType": "bool",
          "name": "",
          "type": "bool"
        }
      ],
      "stateMutability": "view",
      "type": "function"
    },
    {
      "inputs": [
        {
          "internalType": "bytes32",
          "name": "role",
          "type": "bytes32"
        },
        {
          "internalType": "address",
          "name": "account",
          "type": "address"
        }
      ],
      "name": "renounceRole",
      "outputs": [],
      "stateMutability": "nonpayable",
      "type": "function"
    },
    {
      "inputs": [
        {
          "internalType": "bytes32",
          "name": "role",
          "type": "bytes32"
        },
        {
          "internalType": "address",
          "name": "account",
          "type": "address"
        }
      ],
      "name": "revokeRole",
      "outputs": [],
      "stateMutability": "nonpayable",
      "type": "function"
    },
    {
      "inputs": [
        {
          "internalType": "bytes4",
          "name": "interfaceId",
          "type": "bytes4"
        }
      ],
      "name": "supportsInterface",
      "outputs": [
        {
          "internalType": "bool",
          "name": "",
          "type": "bool"
        }
      ],
      "stateMutability": "view",
      "type": "function"
    },
    {
      "inputs": [],
      "name": "unpause",
      "outputs": [],
      "stateMutability": "nonpayable",
      "type": "function"
    },
    {
      "inputs": [
        {
          "internalType": "uint256",
          "name": "productId",
          "type": "uint256"
        },
        {
          "internalType": "string",
          "name": "newLocation",
          "type": "string"
        }
      ],
      "name": "updateLocation",
      "outputs": [],
      "stateMutability": "nonpayable",
      "type": "function"
    },
    {
      "inputs": [
        {
          "internalType": "uint256",
          "name": "productId",
          "type": "uint256"
        },
        {
          "internalType": "enum SupplyChain.Stage",
          "name": "newStage",
          "type": "uint8"
        }
      ],
      "name": "updateStage",
      "outputs": [],
      "stateMutability": "nonpayable",
      "type": "function"
    }
  ],
  "bytecode": "0x60806040523480156200001157600080fd5b5060405162001aba38038062001aba833981016040819052620000349162000117565b600180546001600160a81b0319166101006001600160a01b038416021790556200006060003362000067565b5062000149565b62000073828262000077565b5050565b6000828152602081815260408083206001600160a01b038516845290915290205460ff1662000073576000828152602081815260408083206001600160a01b03851684529091529020805460ff19166001179055620000d33390565b6001600160a01b0316816001600160a01b0316837f2f8788117e7eff1d82e926ec794901d17c78024a50270940304540a733656f0d60405160405180910390a45050565b6000602082840312156200012a57600080fd5b81516001600160a01b03811681146200014257600080fd5b9392505050565b61196180620001596000396000f3fe608060405234801561001057600080fd5b50600436106101215760003560e01c80638456cb59116100ad578063d547741f11610071578063d547741f1461025a578063dbe4613d1461026d578063ee95feaf14610282578063f06e1e7b14610295578063f405c96b146102a857600080fd5b80638456cb591461020057806391d1485414610208578063a217fddf1461021b578063c4811a4d14610223578063ce90ceff1461024757600080fd5b806336568abe116100f457806336568abe146101a75780633f4ba83a146101ba5780634ec0c9e9146101c25780635c975abb146101d5578063631c6ffe146101e057600080fd5b806301ffc9a71461012657806312c891961461014e578063248a9ca31461016f5780632f2ff15d14610192575b600080fd5b6101396101343660046111ec565b6102bb565b60405190151581526020015b60405180910390f35b61016161015c3660046112b9565b6102f2565b604051908152602001610145565b61016161017d36600461134b565b60009081526020819052604090206001015490565b6101a56101a0366004611380565b610566565b005b6101a56101b5366004611380565b610590565b6101a561060e565b6101a56101d03660046113ac565b610624565b60015460ff16610139565b6101f36101ee36600461134b565b610787565b604051610145919061147b565b6101a56108f7565b610139610216366004611380565b61090a565b610161600081565b61023661023136600461134b565b610933565b604051610145959493929190611531565b6101a5610255366004611579565b610a76565b6101a5610268366004611380565b610bfb565b61016160008051602061190c83398151915281565b6101396102903660046115d0565b610c20565b6101a56102a33660046115d0565b610c3a565b6101a56102b63660046115eb565b610c5d565b60006001600160e01b03198216637965db0b60e01b14806102ec57506301ffc9a760e01b6001600160e01b03198316145b92915050565b60006102fc610dcd565b61031460008051602061190c8339815191523361090a565b61035f5760405162461bcd60e51b815260206004820152601760248201527621b0b63632b91036bab9ba10313290309039b2b63632b960491b60448201526064015b60405180910390fd5b600154604051631e7054b360e01b815260009161010090046001600160a01b031690631e7054b39061039b9033908a908a90899060040161161f565b6020604051808303816000875af11580156103ba573d6000803e3d6000fd5b505050506040513d601f19601f820116820180604052508101906103de9190611669565b6040805160c08101825282815233602080830182815283850192835260006060850181815242608087015286518088018852600f81526e29b2b63632b9102637b1b0ba34b7b760891b8186015260a08701528782526002808552968220805460018082018355918452949092208651600590950201938455915190830180546001600160a01b039283166001600160a01b0319918216179091559351958301805496909116938616841781559051959650929485949193909290916001600160a81b03191617600160a01b8360048111156104bb576104bb6113f3565b02179055506080820151600382015560a082015160048201906104de908261170a565b505050336001600160a01b0316827f91bfc064380de20e1c90ea2ed78d0358b4ab45d446c0b93b0b07bc86f95897da8960405161051b91906117ca565b60405180910390a3817fe07678ebda9ff268c2c8531bb0ebfc488d9fa7067d919572337a14a72c3aa0b7600060405161055491906117dd565b60405180910390a25095945050505050565b60008281526020819052604090206001015461058181610e15565b61058b8383610e1f565b505050565b6001600160a01b03811633146106005760405162461bcd60e51b815260206004820152602f60248201527f416363657373436f6e74726f6c3a2063616e206f6e6c792072656e6f756e636560448201526e103937b632b9903337b91039b2b63360891b6064820152608401610356565b61060a8282610ea3565b5050565b600061061981610e15565b610621610f08565b50565b61062c610dcd565b61064460008051602061190c8339815191523361090a565b8061069657506000828152600260205260409020805461066690600190611801565b8154811061067657610676611814565b60009182526020909120600590910201600201546001600160a01b031633145b6106d15760405162461bcd60e51b815260206004820152600c60248201526b155b985d5d1a1bdc9a5e995960a21b6044820152606401610356565b6000828152600260205260409020546106fc5760405162461bcd60e51b81526004016103569061182a565b600082815260026020526040902080548290829061071c90600190611801565b8154811061072c5761072c611814565b90600052602060002090600502016004019081610749919061170a565b50827f65edc79681b60dda53ce45315418e2d9637c424299784fc6aaf815fa304dda2b8360405161077a91906117ca565b60405180910390a2505050565b606060026000838152602001908152602001600020805480602002602001604051908101604052809291908181526020016000905b828210156108ec5760008481526020908190206040805160c081018252600586029092018054835260018101546001600160a01b039081169484019490945260028101549384169183019190915290916060830190600160a01b900460ff16600481111561082c5761082c6113f3565b600481111561083d5761083d6113f3565b81526020016003820154815260200160048201805461085b90611682565b80601f016020809104026020016040519081016040528092919081815260200182805461088790611682565b80156108d45780601f106108a9576101008083540402835291602001916108d4565b820191906000526020600020905b8154815290600101906020018083116108b757829003601f168201915b505050505081525050815260200190600101906107bc565b505050509050919050565b600061090281610e15565b610621610f5a565b6000918252602082815260408084206001600160a01b0393909316845291905290205460ff1690565b6000818152600260205260408120548190819081906060906109675760405162461bcd60e51b81526004016103569061182a565b6000868152600260205260408120805461098390600190611801565b8154811061099357610993611814565b600091825260209091206005909102016001810154600282015460038301546004840180549495506001600160a01b039384169493831693600160a01b90930460ff169281906109e290611682565b80601f0160208091040260200160405190810160405280929190818152602001828054610a0e90611682565b8015610a5b5780601f10610a3057610100808354040283529160200191610a5b565b820191906000526020600020905b815481529060010190602001808311610a3e57829003601f168201915b50505050509050955095509550955095505091939590929450565b610a7e610dcd565b610a9660008051602061190c8339815191523361090a565b610adc5760405162461bcd60e51b815260206004820152601760248201527621b0b63632b91036bab9ba10313290309039b2b63632b960491b6044820152606401610356565b6040805160c0810182528481523360208083019182526001600160a01b0386811684860190815260036060860190815242608087015260a0860188905260008a81526002808652978120805460018082018355918352959091208751600590960201948555945194840180549584166001600160a01b0319968716179055905195830180549690921693861684178255519394859492936001600160a81b031990911617600160a01b836004811115610b9757610b976113f3565b02179055506080820151600382015560a08201516004820190610bba908261170a565b50506040516001600160a01b0385169150339086907ffe0fd664b79935c18377297309c92f6abe60ccaa6d43bd30327c508c7fda080e90600090a450505050565b600082815260208190526040902060010154610c1681610e15565b61058b8383610ea3565b60006102ec60008051602061190c8339815191528361090a565b6000610c4581610e15565b61060a60008051602061190c83398151915283610566565b610c65610dcd565b610c7d60008051602061190c8339815191523361090a565b80610ccf575060008281526002602052604090208054610c9f90600190611801565b81548110610caf57610caf611814565b60009182526020909120600590910201600201546001600160a01b031633145b610d0a5760405162461bcd60e51b815260206004820152600c60248201526b155b985d5d1a1bdc9a5e995960a21b6044820152606401610356565b600082815260026020526040902054610d355760405162461bcd60e51b81526004016103569061182a565b6000828152600260205260409020805482908290610d5590600190611801565b81548110610d6557610d65611814565b60009182526020909120600260059092020101805460ff60a01b1916600160a01b836004811115610d9857610d986113f3565b0217905550827fe07678ebda9ff268c2c8531bb0ebfc488d9fa7067d919572337a14a72c3aa0b78360405161077a91906117dd565b60015460ff1615610e135760405162461bcd60e51b815260206004820152601060248201526f14185d5cd8589b194e881c185d5cd95960821b6044820152606401610356565b565b6106218133610f95565b610e29828261090a565b61060a576000828152602081815260408083206001600160a01b03851684529091529020805460ff19166001179055610e5f3390565b6001600160a01b0316816001600160a01b0316837f2f8788117e7eff1d82e926ec794901d17c78024a50270940304540a733656f0d60405160405180910390a45050565b610ead828261090a565b1561060a576000828152602081815260408083206001600160a01b0385168085529252808320805460ff1916905551339285917ff6391f5c32d9c69d2a47ea670b442974b53935d1edc7fd64eb21e047a839171b9190a45050565b610f10610fee565b6001805460ff191690557f5db9ee0a495bf2e6ff9c91a7834c1ba4fdd244a5e8aa4e537bd38aeae4b073aa335b6040516001600160a01b03909116815260200160405180910390a1565b610f62610dcd565b6001805460ff1916811790557f62e78cea01bee320cd4e420270b5ea74000d11b0c9f74754ebdbfc544b05a25833610f3d565b610f9f828261090a565b61060a57610fac81611037565b610fb7836020611049565b604051602001610fc8929190611855565b60408051601f198184030181529082905262461bcd60e51b8252610356916004016117ca565b60015460ff16610e135760405162461bcd60e51b815260206004820152601460248201527314185d5cd8589b194e881b9bdd081c185d5cd95960621b6044820152606401610356565b60606102ec6001600160a01b03831660145b606060006110588360026118ca565b6110639060026118e1565b67ffffffffffffffff81111561107b5761107b611216565b6040519080825280601f01601f1916602001820160405280156110a5576020820181803683370190505b509050600360fc1b816000815181106110c0576110c0611814565b60200101906001600160f81b031916908160001a905350600f60fb1b816001815181106110ef576110ef611814565b60200101906001600160f81b031916908160001a90535060006111138460026118ca565b61111e9060016118e1565b90505b6001811115611196576f181899199a1a9b1b9c1cb0b131b232b360811b85600f166010811061115257611152611814565b1a60f81b82828151811061116857611168611814565b60200101906001600160f81b031916908160001a90535060049490941c9361118f816118f4565b9050611121565b5083156111e55760405162461bcd60e51b815260206004820181905260248201527f537472696e67733a20686578206c656e67746820696e73756666696369656e746044820152606401610356565b9392505050565b6000602082840312156111fe57600080fd5b81356001600160e01b0319811681146111e557600080fd5b634e487b7160e01b600052604160045260246000fd5b600082601f83011261123d57600080fd5b813567ffffffffffffffff8082111561125857611258611216565b604051601f8301601f19908116603f0116810190828211818310171561128057611280611216565b8160405283815286602085880101111561129957600080fd5b836020870160208301376000602085830101528094505050505092915050565b600080600080608085870312156112cf57600080fd5b843567ffffffffffffffff808211156112e757600080fd5b6112f38883890161122c565b9550602087013591508082111561130957600080fd5b6113158883890161122c565b945060408701359350606087013591508082111561133257600080fd5b5061133f8782880161122c565b91505092959194509250565b60006020828403121561135d57600080fd5b5035919050565b80356001600160a01b038116811461137b57600080fd5b919050565b6000806040838503121561139357600080fd5b823591506113a360208401611364565b90509250929050565b600080604083850312156113bf57600080fd5b82359150602083013567ffffffffffffffff8111156113dd57600080fd5b6113e98582860161122c565b9150509250929050565b634e487b7160e01b600052602160045260246000fd5b6005811061142757634e487b7160e01b600052602160045260246000fd5b9052565b60005b8381101561144657818101518382015260200161142e565b50506000910152565b6000815180845261146781602086016020860161142b565b601f01601f19169290920160200192915050565b60006020808301818452808551808352604092508286019150828160051b87010184880160005b8381101561152357888303603f19018552815180518452878101516001600160a01b039081168986015287820151168785015260608082015160c091906114eb82880182611409565b50506080828101519086015260a09182015191850181905261150f8186018361144f565b9689019694505050908601906001016114a2565b509098975050505050505050565b6001600160a01b0386811682528516602082015260006115546040830186611409565b83606083015260a0608083015261156e60a083018461144f565b979650505050505050565b60008060006060848603121561158e57600080fd5b8335925061159e60208501611364565b9150604084013567ffffffffffffffff8111156115ba57600080fd5b6115c68682870161122c565b9150509250925092565b6000602082840312156115e257600080fd5b6111e582611364565b600080604083850312156115fe57600080fd5b8235915060208301356005811061161457600080fd5b809150509250929050565b6001600160a01b03851681526080602082018190526000906116439083018661144f565b8281036040840152611655818661144f565b9050828103606084015261156e818561144f565b60006020828403121561167b57600080fd5b5051919050565b600181811c9082168061169657607f821691505b6020821081036116b657634e487b7160e01b600052602260045260246000fd5b50919050565b601f82111561058b57600081815260208120601f850160051c810160208610156116e35750805b601f850160051c820191505b81811015611702578281556001016116ef565b505050505050565b815167ffffffffffffffff81111561172457611724611216565b611738816117328454611682565b846116bc565b602080601f83116001811461176d57600084156117555750858301515b600019600386901b1c1916600185901b178555611702565b600085815260208120601f198616915b8281101561179c5788860151825594840194600190910190840161177d565b50858210156117ba5787850151600019600388901b60f8161c191681555b5050505050600190811b01905550565b6020815260006111e5602083018461144f565b602081016102ec8284611409565b634e487b7160e01b600052601160045260246000fd5b818103818111156102ec576102ec6117eb565b634e487b7160e01b600052603260045260246000fd5b602080825260119082015270139bc81cda1a5c1b595b9d08199bdd5b99607a1b604082015260600190565b7f416363657373436f6e74726f6c3a206163636f756e742000000000000000000081526000835161188d81601785016020880161142b565b7001034b99036b4b9b9b4b733903937b6329607d1b60179184019182015283516118be81602884016020880161142b565b01602801949350505050565b80820281158282048414176102ec576102ec6117eb565b808201808211156102ec576102ec6117eb565b600081611903576119036117eb565b50600019019056fe43f25613eb2f15fb17222a5d424ca2655743e71265d98e4b93c05e5fb589ecdea2646970667358221220f21b727271617bddcb1254f5d16c9bd5cc4c6908feef877a18b07dd884b22b3264736f6c63430008130033",
  "linkReferences": {},
  "deployedLinkReferences": {}
}