{
  "_format": "hh-sol-artifact-1",
  "contractName": "SupplyChain",
  "sourceName": "contracts/SupplyChain.sol",
  "abi": [
    {
      "inputs": [
        {
          "internalType": "address",
          "name": "productNFTAddress",
          "type": "address"
        }
      ],
      "stateMutability": "nonpayable",
      "type": "constructor"
    },
    {
      "anonymous": false,
      "inputs": [
        {
          "indexed": true,
          "internalType": "bytes32",
          "name": "batchId",
          "type": "bytes32"
        },
        {
          "indexed": false,
          "internalType": "uint256[]",
          "name": "productIds",
          "type": "uint256[]"
        }
      ],
      "name": "BatchCreated",
      "type": "event"
    },
    {
      "anonymous": false,
      "inputs": [
        {
          "indexed": true,
          "internalType": "bytes32",
          "name": "batchId",
          "type": "bytes32"
        },
        {
          "indexed": true,
          "internalType": "address",
          "name": "sender",
          "type": "address"
        },
        {
          "indexed": true,
          "internalType": "address",
          "name": "receiver",
          "type": "address"
        }
      ],
      "name": "BatchShipmentCreated",
      "type": "event"
    },
    {
      "anonymous": false,
      "inputs": [
        {
          "indexed": true,
          "internalType": "bytes32",
          "name": "batchId",
          "type": "bytes32"
        },
        {
          "indexed": false,
          "internalType": "enum SupplyChain.Stage",
          "name": "newStage",
          "type": "uint8"
        }
      ],
      "name": "BatchStageUpdated",
      "type": "event"
    },
    {
      "anonymous": false,
      "inputs": [
        {
          "indexed": true,
          "internalType": "uint256",
          "name": "productId",
          "type": "uint256"
        },
        {
          "indexed": true,
          "internalType": "address",
          "name": "beneficiary",
          "type": "address"
        },
        {
          "indexed": false,
          "internalType": "uint256",
          "name": "amount",
          "type": "uint256"
        }
      ],
      "name": "EscrowClaimed",
      "type": "event"
    },
    {
      "anonymous": false,
      "inputs": [
        {
          "indexed": true,
          "internalType": "uint256",
          "name": "productId",
          "type": "uint256"
        },
        {
          "indexed": false,
          "internalType": "string",
          "name": "newLocation",
          "type": "string"
        }
      ],
      "name": "LocationUpdated",
      "type": "event"
    },
    {
      "anonymous": false,
      "inputs": [
        {
          "indexed": false,
          "internalType": "address",
          "name": "account",
          "type": "address"
        }
      ],
      "name": "Paused",
      "type": "event"
    },
    {
      "anonymous": false,
      "inputs": [
        {
          "indexed": true,
          "internalType": "uint256",
          "name": "productId",
          "type": "uint256"
        },
        {
          "indexed": true,
          "internalType": "address",
          "name": "payer",
          "type": "address"
        },
        {
          "indexed": false,
          "internalType": "uint256",
          "name": "amount",
          "type": "uint256"
        }
      ],
      "name": "PaymentReceived",
      "type": "event"
    },
    {
      "anonymous": false,
      "inputs": [
        {
          "indexed": true,
          "internalType": "uint256",
          "name": "productId",
          "type": "uint256"
        },
        {
          "indexed": true,
          "internalType": "address",
          "name": "receiver",
          "type": "address"
        },
        {
          "indexed": false,
          "internalType": "uint256",
          "name": "amount",
          "type": "uint256"
        }
      ],
      "name": "PaymentRefunded",
      "type": "event"
    },
    {
      "anonymous": false,
      "inputs": [
        {
          "indexed": true,
          "internalType": "uint256",
          "name": "productId",
          "type": "uint256"
        },
        {
          "indexed": true,
          "internalType": "address",
          "name": "beneficiary",
          "type": "address"
        },
        {
          "indexed": false,
          "internalType": "uint256",
          "name": "amount",
          "type": "uint256"
        }
      ],
      "name": "PaymentReleased",
      "type": "event"
    },
    {
      "anonymous": false,
      "inputs": [
        {
          "indexed": true,
          "internalType": "uint256",
          "name": "productId",
          "type": "uint256"
        },
        {
          "indexed": true,
          "internalType": "address",
          "name": "seller",
          "type": "address"
        },
        {
          "indexed": false,
          "internalType": "string",
          "name": "name",
          "type": "string"
        },
        {
          "indexed": false,
          "internalType": "uint256",
          "name": "price",
          "type": "uint256"
        }
      ],
      "name": "ProductCreated",
      "type": "event"
    },
    {
      "anonymous": false,
      "inputs": [
        {
          "indexed": true,
          "internalType": "uint256",
          "name": "productId",
          "type": "uint256"
        },
        {
          "indexed": true,
          "internalType": "address",
          "name": "recalledBy",
          "type": "address"
        },
        {
          "indexed": false,
          "internalType": "string",
          "name": "reason",
          "type": "string"
        }
      ],
      "name": "ProductRecalled",
      "type": "event"
    },
    {
      "anonymous": false,
      "inputs": [
        {
          "indexed": true,
          "internalType": "uint256",
          "name": "productId",
          "type": "uint256"
        },
        {
          "indexed": true,
          "internalType": "address",
          "name": "resolvedBy",
          "type": "address"
        }
      ],
      "name": "RecallResolved",
      "type": "event"
    },
    {
      "anonymous": false,
      "inputs": [
        {
          "indexed": true,
          "internalType": "uint256",
          "name": "productId",
          "type": "uint256"
        },
        {
          "indexed": true,
          "internalType": "address",
          "name": "approvedBy",
          "type": "address"
        }
      ],
      "name": "ReturnApproved",
      "type": "event"
    },
    {
      "anonymous": false,
      "inputs": [
        {
          "indexed": true,
          "internalType": "uint256",
          "name": "productId",
          "type": "uint256"
        },
        {
          "indexed": true,
          "internalType": "address",
          "name": "rejectedBy",
          "type": "address"
        }
      ],
      "name": "ReturnRejected",
      "type": "event"
    },
    {
      "anonymous": false,
      "inputs": [
        {
          "indexed": true,
          "internalType": "uint256",
          "name": "productId",
          "type": "uint256"
        },
        {
          "indexed": true,
          "internalType": "address",
          "name": "requestedBy",
          "type": "address"
        },
        {
          "indexed": false,
          "internalType": "string",
          "name": "reason",
          "type": "string"
        }
      ],
      "name": "ReturnRequested",
      "type": "event"
    },
    {
      "anonymous": false,
      "inputs": [
        {
          "indexed": true,
          "internalType": "bytes32",
          "name": "role",
          "type": "bytes32"
        },
        {
          "indexed": true,
          "internalType": "bytes32",
          "name": "previousAdminRole",
          "type": "bytes32"
        },
        {
          "indexed": true,
          "internalType": "bytes32",
          "name": "newAdminRole",
          "type": "bytes32"
        }
      ],
      "name": "RoleAdminChanged",
      "type": "event"
    },
    {
      "anonymous": false,
      "inputs": [
        {
          "indexed": true,
          "internalType": "bytes32",
          "name": "role",
          "type": "bytes32"
        },
        {
          "indexed": true,
          "internalType": "address",
          "name": "account",
          "type": "address"
        },
        {
          "indexed": true,
          "internalType": "address",
          "name": "sender",
          "type": "address"
        }
      ],
      "name": "RoleGranted",
      "type": "event"
    },
    {
      "anonymous": false,
      "inputs": [
        {
          "indexed": true,
          "internalType": "bytes32",
          "name": "role",
          "type": "bytes32"
        },
        {
          "indexed": true,
          "internalType": "address",
          "name": "account",
          "type": "address"
        },
        {
          "indexed": true,
          "internalType": "address",
          "name": "sender",
          "type": "address"
        }
      ],
      "name": "RoleRevoked",
      "type": "event"
    },
    {
      "anonymous": false,
      "inputs": [
        {
          "indexed": true,
          "internalType": "uint256",
          "name": "productId",
          "type": "uint256"
        },
        {
          "indexed": true,
          "internalType": "address",
          "name": "sender",
          "type": "address"
        },
        {
          "indexed": true,
          "internalType": "address",
          "name": "receiver",
          "type": "address"
        }
      ],
      "name": "ShipmentCreated",
      "type": "event"
    },
    {
      "anonymous": false,
      "inputs": [
        {
          "indexed": true,
          "internalType": "uint256",
          "name": "productId",
          "type": "uint256"
        },
        {
          "indexed": false,
          "internalType": "enum SupplyChain.Stage",
          "name": "newStage",
          "type": "uint8"
        }
      ],
      "name": "StageUpdated",
      "type": "event"
    },
    {
      "anonymous": false,
      "inputs": [
        {
          "indexed": false,
          "internalType": "address",
          "name": "account",
          "type": "address"
        }
      ],
      "name": "Unpaused",
      "type": "event"
    },
    {
      "inputs": [],
      "name": "DEFAULT_ADMIN_ROLE",
      "outputs": [
        {
          "internalType": "bytes32",
          "name": "",
          "type": "bytes32"
        }
      ],
      "stateMutability": "view",
      "type": "function"
    },
    {
      "inputs": [],
      "name": "RETAILER_ROLE",
      "outputs": [
        {
          "internalType": "bytes32",
          "name": "",
          "type": "bytes32"
        }
      ],
      "stateMutability": "view",
      "type": "function"
    },
    {
      "inputs": [
        {
          "internalType": "uint256",
          "name": "productId",
          "type": "uint256"
        }
      ],
      "name": "approveReturn",
      "outputs": [],
      "stateMutability": "nonpayable",
      "type": "function"
    },
    {
      "inputs": [
        {
          "internalType": "uint256",
          "name": "productId",
          "type": "uint256"
        }
      ],
      "name": "claimPayment",
      "outputs": [],
      "stateMutability": "nonpayable",
      "type": "function"
    },
    {
      "inputs": [
        {
          "internalType": "bytes32",
          "name": "batchId",
          "type": "bytes32"
        },
        {
          "internalType": "address",
          "name": "receiver",
          "type": "address"
        },
        {
          "internalType": "string",
          "name": "location",
          "type": "string"
        }
      ],
      "name": "createBatchShipment",
      "outputs": [],
      "stateMutability": "nonpayable",
      "type": "function"
    },
    {
      "inputs": [
        {
          "internalType": "string",
          "name": "name",
          "type": "string"
        },
        {
          "internalType": "string",
          "name": "seller",
          "type": "string"
        },
        {
          "internalType": "uint256",
          "name": "",
          "type": "uint256"
        },
        {
          "internalType": "string",
          "name": "tokenURI",
          "type": "string"
        },
        {
          "internalType": "uint256",
          "name": "sellingPrice",
          "type": "uint256"
        }
      ],
      "name": "createProduct",
      "outputs": [
        {
          "internalType": "uint256",
          "name": "",
          "type": "uint256"
        }
      ],
      "stateMutability": "nonpayable",
      "type": "function"
    },
    {
      "inputs": [
        {
          "internalType": "string[]",
          "name": "names",
          "type": "string[]"
        },
        {
          "internalType": "string",
          "name": "seller",
          "type": "string"
        },
        {
          "internalType": "uint256[]",
          "name": "prices",
          "type": "uint256[]"
        },
        {
          "internalType": "string[]",
          "name": "tokenURIs",
          "type": "string[]"
        },
        {
          "internalType": "uint256[]",
          "name": "sellingPrices",
          "type": "uint256[]"
        }
      ],
      "name": "createProductBatch",
      "outputs": [
        {
          "internalType": "bytes32",
          "name": "",
          "type": "bytes32"
        },
        {
          "internalType": "uint256[]",
          "name": "",
          "type": "uint256[]"
        }
      ],
      "stateMutability": "nonpayable",
      "type": "function"
    },
    {
      "inputs": [
        {
          "internalType": "uint256",
          "name": "productId",
          "type": "uint256"
        },
        {
          "internalType": "address",
          "name": "receiver",
          "type": "address"
        },
        {
          "internalType": "string",
          "name": "location",
          "type": "string"
        }
      ],
      "name": "createShipment",
      "outputs": [],
      "stateMutability": "nonpayable",
      "type": "function"
    },
    {
      "inputs": [
        {
          "internalType": "uint256",
          "name": "",
          "type": "uint256"
        }
      ],
      "name": "escrowBalances",
      "outputs": [
        {
          "internalType": "uint256",
          "name": "",
          "type": "uint256"
        }
      ],
      "stateMutability": "view",
      "type": "function"
    },
    {
      "inputs": [
        {
          "internalType": "uint256",
          "name": "",
          "type": "uint256"
        }
      ],
      "name": "escrowBeneficiary",
      "outputs": [
        {
          "internalType": "address",
          "name": "",
          "type": "address"
        }
      ],
      "stateMutability": "view",
      "type": "function"
    },
    {
      "inputs": [],
      "name": "escrowTimeout",
      "outputs": [
        {
          "internalType": "uint256",
          "name": "",
          "type": "uint256"
        }
      ],
      "stateMutability": "view",
      "type": "function"
    },
    {
      "inputs": [
        {
          "internalType": "bytes32",
          "name": "batchId",
          "type": "bytes32"
        }
      ],
      "name": "getBatchProducts",
      "outputs": [
        {
          "internalType": "uint256[]",
          "name": "",
          "type": "uint256[]"
        }
      ],
      "stateMutability": "view",
      "type": "function"
    },
    {
      "inputs": [
        {
          "internalType": "uint256",
          "name": "productId",
          "type": "uint256"
        }
      ],
      "name": "getCurrentShipment",
      "outputs": [
        {
          "internalType": "address",
          "name": "sender",
          "type": "address"
        },
        {
          "internalType": "address",
          "name": "receiver",
          "type": "address"
        },
        {
          "internalType": "enum SupplyChain.Stage",
          "name": "stage",
          "type": "uint8"
        },
        {
          "internalType": "uint256",
          "name": "timestamp",
          "type": "uint256"
        },
        {
          "internalType": "string",
          "name": "location",
          "type": "string"
        }
      ],
      "stateMutability": "view",
      "type": "function"
    },
    {
      "inputs": [
        {
          "internalType": "uint256",
          "name": "productId",
          "type": "uint256"
        }
      ],
      "name": "getProductPrice",
      "outputs": [
        {
          "internalType": "uint256",
          "name": "",
          "type": "uint256"
        }
      ],
      "stateMutability": "view",
      "type": "function"
    },
    {
      "inputs": [
        {
          "internalType": "uint256",
          "name": "productId",
          "type": "uint256"
        }
      ],
      "name": "getReturnRequest",
      "outputs": [
        {
          "components": [
            {
              "internalType": "address",
              "name": "requestedBy",
              "type": "address"
            },
            {
              "internalType": "string",
              "name": "reason",
              "type": "string"
            },
            {
              "internalType": "uint256",
              "name": "timestamp",
              "type": "uint256"
            },
            {
              "internalType": "bool",
              "name": "approved",
              "type": "bool"
            },
            {
              "internalType": "bool",
              "name": "isRecall",
              "type": "bool"
            }
          ],
          "internalType": "struct SupplyChain.ReturnRequest",
          "name": "",
          "type": "tuple"
        }
      ],
      "stateMutability": "view",
      "type": "function"
    },
    {
      "inputs": [
        {
          "internalType": "bytes32",
          "name": "role",
          "type": "bytes32"
        }
      ],
      "name": "getRoleAdmin",
      "outputs": [
        {
          "internalType": "bytes32",
          "name": "",
          "type": "bytes32"
        }
      ],
      "stateMutability": "view",
      "type": "function"
    },
    {
      "inputs": [
        {
          "internalType": "uint256",
          "name": "productId",
          "type": "uint256"
        }
      ],
      "name": "getShipmentHistory",
      "outputs": [
        {
          "components": [
            {
              "internalType": "uint256",
              "name": "productId",
              "type": "uint256"
            },
            {
              "internalType": "address",
              "name": "sender",
              "type": "address"
            },
            {
              "internalType": "address",
              "name": "receiver",
              "type": "address"
            },
            {
              "internalType": "enum SupplyChain.Stage",
              "name": "currentStage",
              "type": "uint8"
            },
            {
              "internalType": "uint256",
              "name": "timestamp",
              "type": "uint256"
            },
            {
              "internalType": "string",
              "name": "location",
              "type": "string"
            }
          ],
          "internalType": "struct SupplyChain.Shipment[]",
          "name": "",
          "type": "tuple[]"
        }
      ],
      "stateMutability": "view",
      "type": "function"
    },
    {
      "inputs": [
        {
          "internalType": "bytes32",
          "name": "role",
          "type": "bytes32"
        },
        {
          "internalType": "address",
          "name": "account",
          "type": "address"
        }
      ],
      "name": "grantRole",
      "outputs": [],
      "stateMutability": "nonpayable",
      "type": "function"
    },
    {
      "inputs": [
        {
          "internalType": "bytes32",
          "name": "role",
          "type": "bytes32"
        },
        {
          "internalType": "address",
          "name": "account",
          "type": "address"
        }
      ],
      "name": "hasRole",
      "outputs": [
        {
          "internalType": "bool",
          "name": "",
          "type": "bool"
        }
      ],
      "stateMutability": "view",
      "type": "function"
    },
    {
      "inputs": [
        {
          "internalType": "address",
          "name": "account",
          "type": "address"
        }
      ],
      "name": "isRetailer",
      "outputs": [
        {
          "internalType": "bool",
          "name": "",
          "type": "bool"
        }
      ],
      "stateMutability": "view",
      "type": "function"
    },
    {
      "inputs": [],
      "name": "pause",
      "outputs": [],
      "stateMutability": "nonpayable",
      "type": "function"
    },
    {
      "inputs": [],
      "name": "paused",
      "outputs": [
        {
          "internalType": "bool",
          "name": "",
          "type": "bool"
        }
      ],
      "stateMutability": "view",
      "type": "function"
    },
    {
      "inputs": [
        {
          "internalType": "uint256",
          "name": "productId",
          "type": "uint256"
        }
      ],
      "name": "payForProduct",
      "outputs": [],
      "stateMutability": "payable",
      "type": "function"
    },
    {
      "inputs": [
        {
          "internalType": "uint256",
          "name": "",
          "type": "uint256"
        }
      ],
      "name": "productPrices",
      "outputs": [
        {
          "internalType": "uint256",
          "name": "",
          "type": "uint256"
        }
      ],
      "stateMutability": "view",
      "type": "function"
    },
    {
      "inputs": [
        {
          "internalType": "uint256[]",
          "name": "productIds",
          "type": "uint256[]"
        },
        {
          "internalType": "string",
          "name": "reason",
          "type": "string"
        }
      ],
      "name": "recallProducts",
      "outputs": [],
      "stateMutability": "nonpayable",
      "type": "function"
    },
    {
      "inputs": [
        {
          "internalType": "uint256",
          "name": "productId",
          "type": "uint256"
        }
      ],
      "name": "refundPayment",
      "outputs": [],
      "stateMutability": "nonpayable",
      "type": "function"
    },
    {
      "inputs": [
        {
          "internalType": "uint256",
          "name": "productId",
          "type": "uint256"
        }
      ],
      "name": "rejectReturn",
      "outputs": [],
      "stateMutability": "nonpayable",
      "type": "function"
    },
    {
      "inputs": [
        {
          "internalType": "uint256",
          "name": "productId",
          "type": "uint256"
        }
      ],
      "name": "releasePayment",
      "outputs": [],
      "stateMutability": "nonpayable",
      "type": "function"
    },
    {
      "inputs": [
        {
          "internalType": "bytes32",
          "name": "role",
          "type": "bytes32"
        },
        {
          "internalType": "address",
          "name": "account",
          "type": "address"
        }
      ],
      "name": "renounceRole",
      "outputs": [],
      "stateMutability": "nonpayable",
      "type": "function"
    },
    {
      "inputs": [
        {
          "internalType": "uint256",
          "name": "productId",
          "type": "uint256"
        },
        {
          "internalType": "string",
          "name": "reason",
          "type": "string"
        }
      ],
      "name": "requestReturn",
      "outputs": [],
      "stateMutability": "nonpayable",
      "type": "function"
    },
    {
      "inputs": [
        {
          "internalType": "uint256",
          "name": "productId",
          "type": "uint256"
        }
      ],
      "name": "resolveRecall",
      "outputs": [],
      "stateMutability": "nonpayable",
      "type": "function"
    },
    {
      "inputs": [
        {
          "internalType": "uint256",
          "name": "",
          "type": "uint256"
        }
      ],
      "name": "returnRequests",
      "outputs": [
        {
          "internalType": "address",
          "name": "requestedBy",
          "type": "address"
        },
        {
          "internalType": "string",
          "name": "reason",
          "type": "string"
        },
        {
          "internalType": "uint256",
          "name": "timestamp",
          "type": "uint256"
        },
        {
          "internalType": "bool",
          "name": "approved",
          "type": "bool"
        },
        {
          "internalType": "bool",
          "name": "isRecall",
          "type": "bool"
        }
      ],
      "stateMutability": "view",
      "type": "function"
    },
    {
      "inputs": [
        {
          "internalType": "bytes32",
          "name": "role",
          "type": "bytes32"
        },
        {
          "internalType": "address",
          "name": "account",
          "type": "address"
        }
      ],
      "name": "revokeRole",
      "outputs": [],
      "stateMutability": "nonpayable",
      "type": "function"
    },
    {
      "inputs": [
        {
          "internalType": "bytes4",
          "name": "interfaceId",
          "type": "bytes4"
        }
      ],
      "name": "supportsInterface",
      "outputs": [
        {
          "internalType": "bool",
          "name": "",
          "type": "bool"
        }
      ],
      "stateMutability": "view",
      "type": "function"
    },
    {
      "inputs": [],
      "name": "unpause",
      "outputs": [],
      "stateMutability": "nonpayable",
      "type": "function"
    },
    {
      "inputs": [
        {
          "internalType": "bytes32",
          "name": "batchId",
          "type": "bytes32"
        },
        {
          "internalType": "enum SupplyChain.Stage",
          "name": "newStage",
          "type": "uint8"
        }
      ],
      "name": "updateBatchStage",
      "outputs": [],
      "stateMutability": "nonpayable",
      "type": "function"
    },
    {
      "inputs": [
        {
          "internalType": "uint256",
          "name": "productId",
          "type": "uint256"
        },
        {
          "internalType": "string",
          "name": "newLocation",
          "type": "string"
        }
      ],
      "name": "updateLocation",
      "outputs": [],
      "stateMutability": "nonpayable",
      "type": "function"
    },
    {
      "inputs": [
        {
          "internalType": "uint256",
          "name": "productId",
          "type": "uint256"
        },
        {
          "internalType": "enum SupplyChain.Stage",
          "name": "newStage",
          "type": "uint8"
        }
      ],
      "name": "updateStage",
      "outputs": [],
      "stateMutability": "nonpayable",
      "type": "function"
    },
    {
      "stateMutability": "payable",
      "type": "receive"
    }
  ],
  "bytecode": "0x608060405262093a806006553480156200001857600080fd5b5060405162003ef938038062003ef98339810160408190526200003b9162000127565b6001805460ff19168155600255600780546001600160a01b0319166001600160a01b0383161790556200007060003362000077565b5062000159565b62000083828262000087565b5050565b6000828152602081815260408083206001600160a01b038516845290915290205460ff1662000083576000828152602081815260408083206001600160a01b03851684529091529020805460ff19166001179055620000e33390565b6001600160a01b0316816001600160a01b0316837f2f8788117e7eff1d82e926ec794901d17c78024a50270940304540a733656f0d60405160405180910390a45050565b6000602082840312156200013a57600080fd5b81516001600160a01b03811681146200015257600080fd5b9392505050565b613d9080620001696000396000f3fe6080604052600436106102295760003560e01c806388685cd911610123578063c4811a4d116100ab578063e21dd3fc1161006f578063e21dd3fc14610736578063e7bf7dfc14610756578063f405c96b14610783578063f63813f4146107a3578063f8a904b1146107c357600080fd5b8063c4811a4d14610692578063c63fdcc7146106c3578063ce90ceff146106e3578063d420aa2714610703578063d547741f1461071657600080fd5b80639837d0da116100f25780639837d0da146105f0578063a217fddf1461061d578063ab6b81c614610632578063b22f875b14610652578063beed83111461067257600080fd5b806388685cd91461056257806391d148541461058257806391e98e8e146105a257806394719ea0146105c257600080fd5b80634a22f370116101b1578063605c6d6311610175578063605c6d63146104bd578063631c6ffe146104d357806368d2e1831461050057806381491e68146105205780638456cb591461054d57600080fd5b80634a22f370146103f75780634ec0c9e9146104455780635a3c88ea146104655780635c975abb146104855780635da09b881461049d57600080fd5b806336568abe116101f857806336568abe1461033757806338eb6a19146103575780633f4ba83a1461038457806343ebf45a1461039957806347788bbe146103c657600080fd5b806301ffc9a7146102805780632115e7bf146102b5578063248a9ca3146102e55780632f2ff15d1461031557600080fd5b3661027b5760405162461bcd60e51b815260206004820152601c60248201527f446972656374207061796d656e7473206e6f742061636365707465640000000060448201526064015b60405180910390fd5b600080fd5b34801561028c57600080fd5b506102a061029b36600461316a565b6107e3565b60405190151581526020015b60405180910390f35b3480156102c157600080fd5b506102d7600080516020613d3b83398151915281565b6040519081526020016102ac565b3480156102f157600080fd5b506102d7610300366004613194565b60009081526020819052604090206001015490565b34801561032157600080fd5b506103356103303660046131c2565b61081a565b005b34801561034357600080fd5b506103356103523660046131c2565b610844565b34801561036357600080fd5b506102d7610372366004613194565b60036020526000908152604090205481565b34801561039057600080fd5b506103356108c2565b3480156103a557600080fd5b506102d76103b4366004613194565b60046020526000908152604090205481565b3480156103d257600080fd5b506103e66103e1366004613194565b6108d8565b6040516102ac959493929190613242565b34801561040357600080fd5b5061042d610412366004613194565b6005602052600090815260409020546001600160a01b031681565b6040516001600160a01b0390911681526020016102ac565b34801561045157600080fd5b5061033561046036600461333c565b6109a0565b34801561047157600080fd5b50610335610480366004613194565b610ac2565b34801561049157600080fd5b5060015460ff166102a0565b3480156104a957600080fd5b506102a06104b8366004613383565b610cdd565b3480156104c957600080fd5b506102d760065481565b3480156104df57600080fd5b506104f36104ee366004613194565b610cf7565b6040516102ac91906133d8565b34801561050c57600080fd5b5061033561051b36600461333c565b610e67565b34801561052c57600080fd5b5061054061053b366004613194565b6110a0565b6040516102ac91906134c9565b34801561055957600080fd5b5061033561112e565b34801561056e57600080fd5b5061033561057d366004613194565b611141565b34801561058e57600080fd5b506102a061059d3660046131c2565b6113aa565b3480156105ae57600080fd5b506102d76105bd3660046134dc565b6113d3565b3480156105ce57600080fd5b506105e26105dd366004613685565b6116a1565b6040516102ac929190613757565b3480156105fc57600080fd5b5061061061060b366004613194565b6118a3565b6040516102ac9190613778565b34801561062957600080fd5b506102d7600081565b34801561063e57600080fd5b5061033561064d3660046137d4565b6119bd565b34801561065e57600080fd5b5061033561066d366004613841565b611ace565b34801561067e57600080fd5b5061033561068d36600461386d565b611bd0565b34801561069e57600080fd5b506106b26106ad366004613194565b611dac565b6040516102ac9594939291906138c7565b3480156106cf57600080fd5b506103356106de366004613194565b611eef565b3480156106ef57600080fd5b506103356106fe3660046137d4565b612152565b610335610711366004613194565b61236e565b34801561072257600080fd5b506103356107313660046131c2565b6125ae565b34801561074257600080fd5b50610335610751366004613194565b6125d3565b34801561076257600080fd5b506102d7610771366004613194565b60009081526003602052604090205490565b34801561078f57600080fd5b5061033561079e366004613841565b6126f1565b3480156107af57600080fd5b506103356107be366004613194565b612820565b3480156107cf57600080fd5b506103356107de366004613194565b612a48565b60006001600160e01b03198216637965db0b60e01b148061081457506301ffc9a760e01b6001600160e01b03198316145b92915050565b60008281526020819052604090206001015461083581612c5e565b61083f8383612c68565b505050565b6001600160a01b03811633146108b45760405162461bcd60e51b815260206004820152602f60248201527f416363657373436f6e74726f6c3a2063616e206f6e6c792072656e6f756e636560448201526e103937b632b9903337b91039b2b63360891b6064820152608401610272565b6108be8282612cec565b5050565b60006108cd81612c5e565b6108d5612d51565b50565b600860205260009081526040902080546001820180546001600160a01b0390921692916109049061390f565b80601f01602080910402602001604051908101604052809291908181526020018280546109309061390f565b801561097d5780601f106109525761010080835404028352916020019161097d565b820191906000526020600020905b81548152906001019060200180831161096057829003601f168201915b50505050600283015460039093015491929160ff80821692506101009091041685565b6109a8612da3565b6109b36000336113aa565b806109d157506109d1600080516020613d3b833981519152336113aa565b610a0c5760405162461bcd60e51b815260206004820152600c60248201526b155b985d5d1a1bdc9a5e995960a21b6044820152606401610272565b6000828152600a6020526040902054610a375760405162461bcd60e51b815260040161027290613949565b6000828152600a60205260409020805482908290610a579060019061398a565b81548110610a6757610a6761399d565b90600052602060002090600502016004019081610a849190613a01565b50827f65edc79681b60dda53ce45315418e2d9637c424299784fc6aaf815fa304dda2b83604051610ab59190613ac1565b60405180910390a2505050565b610aca612da3565b610ad56000336113aa565b80610af35750610af3600080516020613d3b833981519152336113aa565b610b525760405162461bcd60e51b815260206004820152602a60248201527f4f6e6c792061646d696e206f722072657461696c65722063616e20617070726f60448201526976652072657475726e7360b01b6064820152608401610272565b600081815260086020526040902060020154610ba65760405162461bcd60e51b8152602060048201526013602482015272139bc81c995d1d5c9b881c995c5d595cdd1959606a1b6044820152606401610272565b60008181526008602052604090206003015460ff1615610c025760405162461bcd60e51b815260206004820152601760248201527614995d1d5c9b88185b1c9958591e48185c1c1c9bdd9959604a1b6044820152606401610272565b600081815260086020526040902060030154610100900460ff1615610c695760405162461bcd60e51b815260206004820152601f60248201527f43616e6e6f7420617070726f766520726563616c6c2061732072657475726e006044820152606401610272565b6000818152600860205260409020600301805460ff19166001179055610c908160076126f1565b60008181526004602052604090205415610cad57610cad81612820565b604051339082907ff50d06d0dc1d2792c4f628e23688b3db80dc503ab9ae502ce15ee2aac3cc122090600090a350565b6000610814600080516020613d3b833981519152836113aa565b6060600a6000838152602001908152602001600020805480602002602001604051908101604052809291908181526020016000905b82821015610e5c5760008481526020908190206040805160c081018252600586029092018054835260018101546001600160a01b039081169484019490945260028101549384169183019190915290916060830190600160a01b900460ff166008811115610d9c57610d9c6133a0565b6008811115610dad57610dad6133a0565b815260200160038201548152602001600482018054610dcb9061390f565b80601f0160208091040260200160405190810160405280929190818152602001828054610df79061390f565b8015610e445780601f10610e1957610100808354040283529160200191610e44565b820191906000526020600020905b815481529060010190602001808311610e2757829003601f168201915b50505050508152505081526020019060010190610d2c565b505050509050919050565b610e6f612da3565b6007546040516331a9108f60e11b81526004810184905233916001600160a01b031690636352211e90602401602060405180830381865afa158015610eb8573d6000803e3d6000fd5b505050506040513d601f19601f82011682018060405250810190610edc9190613ad4565b6001600160a01b031614610f265760405162461bcd60e51b81526020600482015260116024820152702737ba10383937b23ab1ba1037bbb732b960791b6044820152606401610272565b60008281526008602052604090206002015415610f855760405162461bcd60e51b815260206004820152601860248201527f52657475726e20616c72656164792072657175657374656400000000000000006044820152606401610272565b600082815260086020526040902060030154610100900460ff1615610fbc5760405162461bcd60e51b815260040161027290613af1565b6040805160a08101825233815260208082018481524283850152600060608401819052608084018190528681526008909252929020815181546001600160a01b0319166001600160a01b03909116178155915190919060018201906110219082613a01565b50604082810151600283015560608301516003909201805460809094015115156101000261ff00199315159390931661ffff19909416939093179190911790915551339083907f5d761c0d0cda7585f3c7d01a6eaf194153f473909bf0cb8cf5c2138b296aa94d90611094908590613ac1565b60405180910390a35050565b6000818152600960205260409020546060906110ce5760405162461bcd60e51b815260040161027290613b28565b6000828152600960209081526040918290208054835181840281018401909452808452909183018282801561112257602002820191906000526020600020905b81548152602001906001019080831161110e575b50505050509050919050565b600061113981612c5e565b6108d5612deb565b611149612e26565b611151612da3565b6007546040516331a9108f60e11b8152600481018390526001600160a01b0390911690636352211e90602401602060405180830381865afa15801561119a573d6000803e3d6000fd5b505050506040513d601f19601f820116820180604052508101906111be9190613ad4565b6001600160a01b0316336001600160a01b03161461122d5760405162461bcd60e51b815260206004820152602660248201527f4f6e6c792070726f64756374206f776e65722063616e2072656c656173652070604482015265185e5b595b9d60d21b6064820152608401610272565b6000818152600460205260409020546112585760405162461bcd60e51b815260040161027290613b56565b600081815260086020526040902060030154610100900460ff161561128f5760405162461bcd60e51b815260040161027290613af1565b60008181526004602090815260408083208054600590935281842080549185905580546001600160a01b0319169055905191926001600160a01b0390911691829084908381818185875af1925050503d806000811461130a576040519150601f19603f3d011682016040523d82523d6000602084013e61130f565b606091505b50509050806113595760405162461bcd60e51b815260206004820152601660248201527514185e5b595b9d081c995b19585cd94819985a5b195960521b6044820152606401610272565b816001600160a01b0316847f21d71db5be59bb9fa133895586b7404307dd33fb93b16db09dc6f1d9d7d231b08560405161139591815260200190565b60405180910390a35050506108d56001600255565b6000918252602082815260408084206001600160a01b0393909316845291905290205460ff1690565b60006113dd612da3565b6113f5600080516020613d3b833981519152336113aa565b61143b5760405162461bcd60e51b815260206004820152601760248201527621b0b63632b91036bab9ba103132903932ba30b4b632b960491b6044820152606401610272565b6000821161148b5760405162461bcd60e51b815260206004820152601c60248201527f5072696365206d7573742062652067726561746572207468616e2030000000006044820152606401610272565b600754604051631e7054b360e01b81526000916001600160a01b031690631e7054b3906114c29033908b908b908a90600401613b84565b6020604051808303816000875af11580156114e1573d6000803e3d6000fd5b505050506040513d601f19601f820116820180604052508101906115059190613bce565b6040805160c0810182528281523360208083018281528385019283526000606085018181524260808701528651808801885260168152754d616e75666163747572696e6720466163696c69747960501b8186015260a0870152878252600384528682208b9055600a8452958120805460018082018355918352939091208551600590940201928355905190820180546001600160a01b039283166001600160a01b031991821617909155925160028301805491909216938116841782559451959650929485949193909290916001600160a81b03191617600160a01b8360088111156115f3576115f36133a0565b02179055506080820151600382015560a082015160048201906116169082613a01565b505050336001600160a01b0316827f5f25c590b5c7f62ed4186adca32d3118caef07e5020c6cc8268d4136df2cfef88a87604051611655929190613be7565b60405180910390a3817fe07678ebda9ff268c2c8531bb0ebfc488d9fa7067d919572337a14a72c3aa0b7600560405161168e9190613c09565b60405180910390a2509695505050505050565b600060606116ad612da3565b845187511480156116bf575083518551145b80156116cc575082518451145b6117185760405162461bcd60e51b815260206004820152601860248201527f4172726179206c656e67746873206d757374206d6174636800000000000000006044820152606401610272565b6000875167ffffffffffffffff81111561173457611734613285565b60405190808252806020026020018201604052801561175d578160200160208202803683370190505b50905060005b885181101561180c576117dd8982815181106117815761178161399d565b60200260200101518989848151811061179c5761179c61399d565b60200260200101518985815181106117b6576117b661399d565b60200260200101518986815181106117d0576117d061399d565b60200260200101516113d3565b8282815181106117ef576117ef61399d565b60209081029190910101528061180481613c17565b915050611763565b50600042338360405160200161182493929190613c30565b60408051601f19818403018152918152815160209283012060008181526009845291909120845191935061185d929091908501906130d4565b50807fb94dd5ec3e09f1c2092e97679ba8e9b03e4231443dae894a614aeecff4c2e1728360405161188e91906134c9565b60405180910390a29890975095505050505050565b6040805160a08101825260008082526060602083018190529282018190529181018290526080810191909152600082815260086020908152604091829020825160a0810190935280546001600160a01b03168352600181018054919284019161190b9061390f565b80601f01602080910402602001604051908101604052809291908181526020018280546119379061390f565b80156119845780601f1061195957610100808354040283529160200191611984565b820191906000526020600020905b81548152906001019060200180831161196757829003601f168201915b50505091835250506002820154602082015260039091015460ff8082161515604084015261010090910416151560609091015292915050565b6119c5612da3565b6000838152600960205260409020546119f05760405162461bcd60e51b815260040161027290613b28565b600083815260096020908152604080832080548251818502810185019093528083529192909190830182828015611a4657602002820191906000526020600020905b815481526020019060010190808311611a32575b5050505050905060005b8151811015611a8f57611a7d828281518110611a6e57611a6e61399d565b60200260200101518585612152565b80611a8781613c17565b915050611a50565b506040516001600160a01b03841690339086907f1b76c1632322ebca66be0f95368216a67b8dcfaa70055274f8d8600dae0b782790600090a450505050565b611ad6612da3565b600082815260096020526040902054611b015760405162461bcd60e51b815260040161027290613b28565b600082815260096020908152604080832080548251818502810185019093528083529192909190830182828015611b5757602002820191906000526020600020905b815481526020019060010190808311611b43575b5050505050905060005b8151811015611b9f57611b8d828281518110611b7f57611b7f61399d565b6020026020010151846126f1565b80611b9781613c17565b915050611b61565b50827fa2876b6dbb89e1f7f1b4763df4991e8a101b6a2a4b3dea2604a6892fef6a330f83604051610ab59190613c09565b611bd8612da3565b611bf0600080516020613d3b833981519152336113aa565b80611c015750611c016000336113aa565b611c605760405162461bcd60e51b815260206004820152602a60248201527f4f6e6c792061646d696e206f722072657461696c65722063616e20726563616c6044820152696c2070726f647563747360b01b6064820152608401610272565b60005b825181101561083f576000838281518110611c8057611c8061399d565b6020908102919091018101516040805160a0810182523381528084018781524282840152600160608301819052608083018190526000858152600890965292909420815181546001600160a01b0319166001600160a01b039091161781559351929450929190820190611cf39082613a01565b506040820151600282015560608201516003909101805460809093015115156101000261ff00199215159290921661ffff1990931692909217179055611d3a8160086126f1565b60008181526004602052604090205415611d5757611d5781612820565b336001600160a01b0316817fc836b58f1d2b092e3af919aae9a0607bb0c4fe552aa37d0d7ed26885488b739985604051611d919190613ac1565b60405180910390a35080611da481613c17565b915050611c63565b6000818152600a6020526040812054819081908190606090611de05760405162461bcd60e51b815260040161027290613949565b6000868152600a602052604081208054611dfc9060019061398a565b81548110611e0c57611e0c61399d565b600091825260209091206005909102016001810154600282015460038301546004840180549495506001600160a01b039384169493831693600160a01b90930460ff16928190611e5b9061390f565b80601f0160208091040260200160405190810160405280929190818152602001828054611e879061390f565b8015611ed45780601f10611ea957610100808354040283529160200191611ed4565b820191906000526020600020905b815481529060010190602001808311611eb757829003601f168201915b50505050509050955095509550955095505091939590929450565b611ef7612e26565b611eff612da3565b600081815260046020526040902054611f2a5760405162461bcd60e51b815260040161027290613b56565b6000818152600560205260409020546001600160a01b03163314611f865760405162461bcd60e51b81526020600482015260136024820152724e6f74207468652062656e656669636961727960681b6044820152606401610272565b600081815260086020526040902060030154610100900460ff1615611fbd5760405162461bcd60e51b815260040161027290613af1565b6000818152600a60205260409020805415801590612018575060065481548290611fe99060019061398a565b81548110611ff957611ff961399d565b9060005260206000209060050201600301546120159190613c84565b42115b6120645760405162461bcd60e51b815260206004820152601a60248201527f457363726f772074696d656f7574206e6f7420726561636865640000000000006044820152606401610272565b6000828152600460209081526040808320805490849055600590925280832080546001600160a01b031916905551909190339083908381818185875af1925050503d80600081146120d1576040519150601f19603f3d011682016040523d82523d6000602084013e6120d6565b606091505b505090508061211e5760405162461bcd60e51b815260206004820152601460248201527310db185a5b481c185e5b595b9d0819985a5b195960621b6044820152606401610272565b604051828152339085907f264b84d6bb26c82423cfcb91b4220efaba80e38b8ea7a87b58a80fcaf095691290602001611395565b61215a612da3565b612172600080516020613d3b833981519152336113aa565b6121b85760405162461bcd60e51b815260206004820152601760248201527621b0b63632b91036bab9ba103132903932ba30b4b632b960491b6044820152606401610272565b600083815260086020526040902060030154610100900460ff16156121ef5760405162461bcd60e51b815260040161027290613af1565b60008381526008602052604090206003015460ff16156122515760405162461bcd60e51b815260206004820152601a60248201527f50726f64756374206861732070656e64696e672072657475726e0000000000006044820152606401610272565b6040805160c0810182528481523360208083019182526001600160a01b0386811684860190815260036060860190815242608087015260a0860188905260008a8152600a8552968720805460018082018355918952949097208651600590950201938455935195830180549683166001600160a01b031997881617905551600283018054919092169581168617825592519394859492936001600160a81b03191617600160a01b83600881111561230a5761230a6133a0565b02179055506080820151600382015560a0820151600482019061232d9082613a01565b50506040516001600160a01b0385169150339086907ffe0fd664b79935c18377297309c92f6abe60ccaa6d43bd30327c508c7fda080e90600090a450505050565b612376612e26565b61237e612da3565b6000818152600360205260409020546123d05760405162461bcd60e51b815260206004820152601460248201527350726f64756374206e6f7420666f722073616c6560601b6044820152606401610272565b600081815260036020526040902054341461242d5760405162461bcd60e51b815260206004820152601860248201527f496e636f7272656374207061796d656e7420616d6f756e7400000000000000006044820152606401610272565b600081815260046020526040902054156124895760405162461bcd60e51b815260206004820152601960248201527f5061796d656e7420616c726561647920696e20657363726f77000000000000006044820152606401610272565b600081815260086020526040902060030154610100900460ff16156124c05760405162461bcd60e51b815260040161027290613af1565b60008181526004602081905260409182902034905560075491516331a9108f60e11b81529081018390526001600160a01b0390911690636352211e90602401602060405180830381865afa15801561251c573d6000803e3d6000fd5b505050506040513d601f19601f820116820180604052508101906125409190613ad4565b60008281526005602090815260409182902080546001600160a01b0319166001600160a01b03949094169390931790925551348152339183917f4d3f6d68b42e1e039d6e7323b2b8bdeaf223f453882ce17a5984f4d6aabbdb33910160405180910390a36108d56001600255565b6000828152602081905260409020600101546125c981612c5e565b61083f8383612cec565b6125db612da3565b60008181526008602052604090206002015461262c5760405162461bcd60e51b815260206004820152601060248201526f4e6f20726563616c6c2065786973747360801b6044820152606401610272565b600081815260086020526040902060030154610100900460ff166126815760405162461bcd60e51b815260206004820152600c60248201526b139bdd0818481c9958d85b1b60a21b6044820152606401610272565b600081815260086020526040812080546001600160a01b0319168155906126ab600183018261311f565b506000600282018190556003909101805461ffff19169055604051339183917f1458428970ee0c7c9ff91684136dccae5f5c6e35ebef6a18188d864876816d1f9190a350565b6126f9612da3565b6127046000336113aa565b806127225750612722600080516020613d3b833981519152336113aa565b61275d5760405162461bcd60e51b815260206004820152600c60248201526b155b985d5d1a1bdc9a5e995960a21b6044820152606401610272565b6000828152600a60205260409020546127885760405162461bcd60e51b815260040161027290613949565b6000828152600a602052604090208054829082906127a89060019061398a565b815481106127b8576127b861399d565b60009182526020909120600260059092020101805460ff60a01b1916600160a01b8360088111156127eb576127eb6133a0565b0217905550827fe07678ebda9ff268c2c8531bb0ebfc488d9fa7067d919572337a14a72c3aa0b783604051610ab59190613c09565b612828612e26565b612830612da3565b61283b6000336113aa565b8061285c57506000818152600560205260409020546001600160a01b031633145b6128a85760405162461bcd60e51b815260206004820152601860248201527f4e6f7420617574686f72697a656420746f20726566756e6400000000000000006044820152606401610272565b6000818152600460205260409020546128d35760405162461bcd60e51b815260040161027290613b56565b60008181526004602081905260408083205460075491516331a9108f60e11b815292830185905292916001600160a01b0390911690636352211e90602401602060405180830381865afa15801561292e573d6000803e3d6000fd5b505050506040513d601f19601f820116820180604052508101906129529190613ad4565b6000848152600460209081526040808320839055600590915280822080546001600160a01b031916905551919250906001600160a01b0383169084908381818185875af1925050503d80600081146129c6576040519150601f19603f3d011682016040523d82523d6000602084013e6129cb565b606091505b5050905080612a0c5760405162461bcd60e51b815260206004820152600d60248201526c1499599d5b990819985a5b1959609a1b6044820152606401610272565b816001600160a01b0316847fe89ec1881a76229445bcd179b8c4b24f9edc7ddd87d07fb3b19c67ae9c6e27cc8560405161139591815260200190565b612a50612da3565b612a5b6000336113aa565b80612a795750612a79600080516020613d3b833981519152336113aa565b612ad75760405162461bcd60e51b815260206004820152602960248201527f4f6e6c792061646d696e206f722072657461696c65722063616e2072656a6563604482015268742072657475726e7360b81b6064820152608401610272565b600081815260086020526040902060020154612b2b5760405162461bcd60e51b8152602060048201526013602482015272139bc81c995d1d5c9b881c995c5d595cdd1959606a1b6044820152606401610272565b60008181526008602052604090206003015460ff1615612b875760405162461bcd60e51b815260206004820152601760248201527614995d1d5c9b88185b1c9958591e48185c1c1c9bdd9959604a1b6044820152606401610272565b600081815260086020526040902060030154610100900460ff1615612bee5760405162461bcd60e51b815260206004820152601e60248201527f43616e6e6f742072656a65637420726563616c6c2061732072657475726e00006044820152606401610272565b600081815260086020526040812080546001600160a01b031916815590612c18600183018261311f565b506000600282018190556003909101805461ffff19169055604051339183917f791610e49233e39b9d3a534a749b0cac20d66c0e35e68fa0cbc907569a20d20c9190a350565b6108d58133612e7d565b612c7282826113aa565b6108be576000828152602081815260408083206001600160a01b03851684529091529020805460ff19166001179055612ca83390565b6001600160a01b0316816001600160a01b0316837f2f8788117e7eff1d82e926ec794901d17c78024a50270940304540a733656f0d60405160405180910390a45050565b612cf682826113aa565b156108be576000828152602081815260408083206001600160a01b0385168085529252808320805460ff1916905551339285917ff6391f5c32d9c69d2a47ea670b442974b53935d1edc7fd64eb21e047a839171b9190a45050565b612d59612ed6565b6001805460ff191690557f5db9ee0a495bf2e6ff9c91a7834c1ba4fdd244a5e8aa4e537bd38aeae4b073aa335b6040516001600160a01b03909116815260200160405180910390a1565b60015460ff1615612de95760405162461bcd60e51b815260206004820152601060248201526f14185d5cd8589b194e881c185d5cd95960821b6044820152606401610272565b565b612df3612da3565b6001805460ff1916811790557f62e78cea01bee320cd4e420270b5ea74000d11b0c9f74754ebdbfc544b05a25833612d86565b6002805403612e775760405162461bcd60e51b815260206004820152601f60248201527f5265656e7472616e637947756172643a207265656e7472616e742063616c6c006044820152606401610272565b60028055565b612e8782826113aa565b6108be57612e9481612f1f565b612e9f836020612f31565b604051602001612eb0929190613c97565b60408051601f198184030181529082905262461bcd60e51b825261027291600401613ac1565b60015460ff16612de95760405162461bcd60e51b815260206004820152601460248201527314185d5cd8589b194e881b9bdd081c185d5cd95960621b6044820152606401610272565b60606108146001600160a01b03831660145b60606000612f40836002613d0c565b612f4b906002613c84565b67ffffffffffffffff811115612f6357612f63613285565b6040519080825280601f01601f191660200182016040528015612f8d576020820181803683370190505b509050600360fc1b81600081518110612fa857612fa861399d565b60200101906001600160f81b031916908160001a905350600f60fb1b81600181518110612fd757612fd761399d565b60200101906001600160f81b031916908160001a9053506000612ffb846002613d0c565b613006906001613c84565b90505b600181111561307e576f181899199a1a9b1b9c1cb0b131b232b360811b85600f166010811061303a5761303a61399d565b1a60f81b8282815181106130505761305061399d565b60200101906001600160f81b031916908160001a90535060049490941c9361307781613d23565b9050613009565b5083156130cd5760405162461bcd60e51b815260206004820181905260248201527f537472696e67733a20686578206c656e67746820696e73756666696369656e746044820152606401610272565b9392505050565b82805482825590600052602060002090810192821561310f579160200282015b8281111561310f5782518255916020019190600101906130f4565b5061311b929150613155565b5090565b50805461312b9061390f565b6000825580601f1061313b575050565b601f0160209004906000526020600020908101906108d591905b5b8082111561311b5760008155600101613156565b60006020828403121561317c57600080fd5b81356001600160e01b0319811681146130cd57600080fd5b6000602082840312156131a657600080fd5b5035919050565b6001600160a01b03811681146108d557600080fd5b600080604083850312156131d557600080fd5b8235915060208301356131e7816131ad565b809150509250929050565b60005b8381101561320d5781810151838201526020016131f5565b50506000910152565b6000815180845261322e8160208601602086016131f2565b601f01601f19169290920160200192915050565b6001600160a01b038616815260a06020820181905260009061326690830187613216565b6040830195909552509115156060830152151560809091015292915050565b634e487b7160e01b600052604160045260246000fd5b604051601f8201601f1916810167ffffffffffffffff811182821017156132c4576132c4613285565b604052919050565b600082601f8301126132dd57600080fd5b813567ffffffffffffffff8111156132f7576132f7613285565b61330a601f8201601f191660200161329b565b81815284602083860101111561331f57600080fd5b816020850160208301376000918101602001919091529392505050565b6000806040838503121561334f57600080fd5b82359150602083013567ffffffffffffffff81111561336d57600080fd5b613379858286016132cc565b9150509250929050565b60006020828403121561339557600080fd5b81356130cd816131ad565b634e487b7160e01b600052602160045260246000fd5b600981106133d457634e487b7160e01b600052602160045260246000fd5b9052565b60006020808301818452808551808352604092508286019150828160051b87010184880160005b8381101561348057888303603f19018552815180518452878101516001600160a01b039081168986015287820151168785015260608082015160c09190613448828801826133b6565b50506080828101519086015260a09182015191850181905261346c81860183613216565b9689019694505050908601906001016133ff565b509098975050505050505050565b600081518084526020808501945080840160005b838110156134be578151875295820195908201906001016134a2565b509495945050505050565b6020815260006130cd602083018461348e565b600080600080600060a086880312156134f457600080fd5b853567ffffffffffffffff8082111561350c57600080fd5b61351889838a016132cc565b9650602088013591508082111561352e57600080fd5b61353a89838a016132cc565b955060408801359450606088013591508082111561355757600080fd5b50613564888289016132cc565b95989497509295608001359392505050565b600067ffffffffffffffff82111561359057613590613285565b5060051b60200190565b600082601f8301126135ab57600080fd5b813560206135c06135bb83613576565b61329b565b82815260059290921b840181019181810190868411156135df57600080fd5b8286015b8481101561361f57803567ffffffffffffffff8111156136035760008081fd5b6136118986838b01016132cc565b8452509183019183016135e3565b509695505050505050565b600082601f83011261363b57600080fd5b8135602061364b6135bb83613576565b82815260059290921b8401810191818101908684111561366a57600080fd5b8286015b8481101561361f578035835291830191830161366e565b600080600080600060a0868803121561369d57600080fd5b853567ffffffffffffffff808211156136b557600080fd5b6136c189838a0161359a565b965060208801359150808211156136d757600080fd5b6136e389838a016132cc565b955060408801359150808211156136f957600080fd5b61370589838a0161362a565b9450606088013591508082111561371b57600080fd5b61372789838a0161359a565b9350608088013591508082111561373d57600080fd5b5061374a8882890161362a565b9150509295509295909350565b828152604060208201526000613770604083018461348e565b949350505050565b602080825282516001600160a01b03168282015282015160a060408301526000906137a660c0840182613216565b9050604084015160608401526060840151151560808401526080840151151560a08401528091505092915050565b6000806000606084860312156137e957600080fd5b8335925060208401356137fb816131ad565b9150604084013567ffffffffffffffff81111561381757600080fd5b613823868287016132cc565b9150509250925092565b80356009811061383c57600080fd5b919050565b6000806040838503121561385457600080fd5b823591506138646020840161382d565b90509250929050565b6000806040838503121561388057600080fd5b823567ffffffffffffffff8082111561389857600080fd5b6138a48683870161362a565b935060208501359150808211156138ba57600080fd5b50613379858286016132cc565b6001600160a01b0386811682528516602082015260006138ea60408301866133b6565b83606083015260a0608083015261390460a0830184613216565b979650505050505050565b600181811c9082168061392357607f821691505b60208210810361394357634e487b7160e01b600052602260045260246000fd5b50919050565b602080825260119082015270139bc81cda1a5c1b595b9d08199bdd5b99607a1b604082015260600190565b634e487b7160e01b600052601160045260246000fd5b8181038181111561081457610814613974565b634e487b7160e01b600052603260045260246000fd5b601f82111561083f57600081815260208120601f850160051c810160208610156139da5750805b601f850160051c820191505b818110156139f9578281556001016139e6565b505050505050565b815167ffffffffffffffff811115613a1b57613a1b613285565b613a2f81613a29845461390f565b846139b3565b602080601f831160018114613a645760008415613a4c5750858301515b600019600386901b1c1916600185901b1785556139f9565b600085815260208120601f198616915b82811015613a9357888601518255948401946001909101908401613a74565b5085821015613ab15787850151600019600388901b60f8161c191681555b5050505050600190811b01905550565b6020815260006130cd6020830184613216565b600060208284031215613ae657600080fd5b81516130cd816131ad565b60208082526019908201527f50726f6475637420686173206265656e20726563616c6c656400000000000000604082015260600190565b60208082526014908201527310985d18da08191bd95cc81b9bdd08195e1a5cdd60621b604082015260600190565b6020808252601490820152734e6f207061796d656e7420696e20657363726f7760601b604082015260600190565b6001600160a01b0385168152608060208201819052600090613ba890830186613216565b8281036040840152613bba8186613216565b905082810360608401526139048185613216565b600060208284031215613be057600080fd5b5051919050565b604081526000613bfa6040830185613216565b90508260208301529392505050565b6020810161081482846133b6565b600060018201613c2957613c29613974565b5060010190565b838152600060206bffffffffffffffffffffffff198560601b168184015260348301845182860160005b82811015613c7657815184529284019290840190600101613c5a565b509198975050505050505050565b8082018082111561081457610814613974565b7f416363657373436f6e74726f6c3a206163636f756e7420000000000000000000815260008351613ccf8160178501602088016131f2565b7001034b99036b4b9b9b4b733903937b6329607d1b6017918401918201528351613d008160288401602088016131f2565b01602801949350505050565b808202811582820484141761081457610814613974565b600081613d3257613d32613974565b50600019019056fe2a5f906c256a5d799494fcd066e1f6c077689de1cdb65052a1624de4bace99bfa264697066735822122007b9e78ad71ab51802fefe42475215e4b0ee72f51e20fc67377a6a4a90b3671d64736f6c63430008130033",
  "linkReferences": {},
  "deployedLinkReferences": {}
}