{
  "_format": "hh-sol-artifact-1",
  "contractName": "SupplyChain",
  "sourceName": "contracts/SupplyChain.sol",
  "abi": [
    {
      "inputs": [
        {
          "internalType": "address",
          "name": "productNFTAddress",
          "type": "address"
        }
      ],
      "stateMutability": "nonpayable",
      "type": "constructor"
    },
    {
      "anonymous": false,
      "inputs": [
        {
          "indexed": true,
          "internalType": "uint256",
          "name": "productId",
          "type": "uint256"
        },
        {
          "indexed": false,
          "internalType": "string",
          "name": "newLocation",
          "type": "string"
        }
      ],
      "name": "LocationUpdated",
      "type": "event"
    },
    {
      "anonymous": false,
      "inputs": [
        {
          "indexed": false,
          "internalType": "address",
          "name": "account",
          "type": "address"
        }
      ],
      "name": "Paused",
      "type": "event"
    },
    {
      "anonymous": false,
      "inputs": [
        {
          "indexed": true,
          "internalType": "uint256",
          "name": "tokenId",
          "type": "uint256"
        },
        {
          "indexed": false,
          "internalType": "string",
          "name": "name",
          "type": "string"
        },
        {
          "indexed": false,
          "internalType": "address",
          "name": "manufacturer",
          "type": "address"
        }
      ],
      "name": "ProductCreated",
      "type": "event"
    },
    {
      "anonymous": false,
      "inputs": [
        {
          "indexed": true,
          "internalType": "bytes32",
          "name": "role",
          "type": "bytes32"
        },
        {
          "indexed": true,
          "internalType": "bytes32",
          "name": "previousAdminRole",
          "type": "bytes32"
        },
        {
          "indexed": true,
          "internalType": "bytes32",
          "name": "newAdminRole",
          "type": "bytes32"
        }
      ],
      "name": "RoleAdminChanged",
      "type": "event"
    },
    {
      "anonymous": false,
      "inputs": [
        {
          "indexed": true,
          "internalType": "bytes32",
          "name": "role",
          "type": "bytes32"
        },
        {
          "indexed": true,
          "internalType": "address",
          "name": "account",
          "type": "address"
        },
        {
          "indexed": true,
          "internalType": "address",
          "name": "sender",
          "type": "address"
        }
      ],
      "name": "RoleGranted",
      "type": "event"
    },
    {
      "anonymous": false,
      "inputs": [
        {
          "indexed": true,
          "internalType": "bytes32",
          "name": "role",
          "type": "bytes32"
        },
        {
          "indexed": true,
          "internalType": "address",
          "name": "account",
          "type": "address"
        },
        {
          "indexed": true,
          "internalType": "address",
          "name": "sender",
          "type": "address"
        }
      ],
      "name": "RoleRevoked",
      "type": "event"
    },
    {
      "anonymous": false,
      "inputs": [
        {
          "indexed": true,
          "internalType": "uint256",
          "name": "productId",
          "type": "uint256"
        },
        {
          "indexed": true,
          "internalType": "address",
          "name": "sender",
          "type": "address"
        },
        {
          "indexed": true,
          "internalType": "address",
          "name": "receiver",
          "type": "address"
        }
      ],
      "name": "ShipmentCreated",
      "type": "event"
    },
    {
      "anonymous": false,
      "inputs": [
        {
          "indexed": true,
          "internalType": "uint256",
          "name": "productId",
          "type": "uint256"
        },
        {
          "indexed": false,
          "internalType": "enum SupplyChain.Stage",
          "name": "newStage",
          "type": "uint8"
        }
      ],
      "name": "StageUpdated",
      "type": "event"
    },
    {
      "anonymous": false,
      "inputs": [
        {
          "indexed": false,
          "internalType": "address",
          "name": "account",
          "type": "address"
        }
      ],
      "name": "Unpaused",
      "type": "event"
    },
    {
      "inputs": [],
      "name": "DEFAULT_ADMIN_ROLE",
      "outputs": [
        {
          "internalType": "bytes32",
          "name": "",
          "type": "bytes32"
        }
      ],
      "stateMutability": "view",
      "type": "function"
    },
    {
      "inputs": [],
      "name": "DISTRIBUTOR_ROLE",
      "outputs": [
        {
          "internalType": "bytes32",
          "name": "",
          "type": "bytes32"
        }
      ],
      "stateMutability": "view",
      "type": "function"
    },
    {
      "inputs": [],
      "name": "MANUFACTURER_ROLE",
      "outputs": [
        {
          "internalType": "bytes32",
          "name": "",
          "type": "bytes32"
        }
      ],
      "stateMutability": "view",
      "type": "function"
    },
    {
      "inputs": [],
      "name": "RETAILER_ROLE",
      "outputs": [
        {
          "internalType": "bytes32",
          "name": "",
          "type": "bytes32"
        }
      ],
      "stateMutability": "view",
      "type": "function"
    },
    {
      "inputs": [],
      "name": "checkMinterRole",
      "outputs": [
        {
          "internalType": "bool",
          "name": "",
          "type": "bool"
        }
      ],
      "stateMutability": "view",
      "type": "function"
    },
    {
      "inputs": [
        {
          "internalType": "string",
          "name": "name",
          "type": "string"
        },
        {
          "internalType": "string",
          "name": "manufacturer",
          "type": "string"
        },
        {
          "internalType": "uint256",
          "name": "price",
          "type": "uint256"
        },
        {
          "internalType": "string",
          "name": "tokenURI",
          "type": "string"
        }
      ],
      "name": "createProduct",
      "outputs": [
        {
          "internalType": "uint256",
          "name": "",
          "type": "uint256"
        }
      ],
      "stateMutability": "nonpayable",
      "type": "function"
    },
    {
      "inputs": [
        {
          "internalType": "uint256",
          "name": "productId",
          "type": "uint256"
        },
        {
          "internalType": "address",
          "name": "receiver",
          "type": "address"
        },
        {
          "internalType": "string",
          "name": "location",
          "type": "string"
        }
      ],
      "name": "createShipment",
      "outputs": [],
      "stateMutability": "nonpayable",
      "type": "function"
    },
    {
      "inputs": [
        {
          "internalType": "uint256",
          "name": "productId",
          "type": "uint256"
        }
      ],
      "name": "getCurrentShipment",
      "outputs": [
        {
          "internalType": "address",
          "name": "sender",
          "type": "address"
        },
        {
          "internalType": "address",
          "name": "receiver",
          "type": "address"
        },
        {
          "internalType": "enum SupplyChain.Stage",
          "name": "stage",
          "type": "uint8"
        },
        {
          "internalType": "uint256",
          "name": "timestamp",
          "type": "uint256"
        },
        {
          "internalType": "string",
          "name": "location",
          "type": "string"
        }
      ],
      "stateMutability": "view",
      "type": "function"
    },
    {
      "inputs": [
        {
          "internalType": "bytes32",
          "name": "role",
          "type": "bytes32"
        }
      ],
      "name": "getRoleAdmin",
      "outputs": [
        {
          "internalType": "bytes32",
          "name": "",
          "type": "bytes32"
        }
      ],
      "stateMutability": "view",
      "type": "function"
    },
    {
      "inputs": [
        {
          "internalType": "uint256",
          "name": "productId",
          "type": "uint256"
        }
      ],
      "name": "getShipmentHistory",
      "outputs": [
        {
          "components": [
            {
              "internalType": "uint256",
              "name": "productId",
              "type": "uint256"
            },
            {
              "internalType": "address",
              "name": "sender",
              "type": "address"
            },
            {
              "internalType": "address",
              "name": "receiver",
              "type": "address"
            },
            {
              "internalType": "enum SupplyChain.Stage",
              "name": "currentStage",
              "type": "uint8"
            },
            {
              "internalType": "uint256",
              "name": "timestamp",
              "type": "uint256"
            },
            {
              "internalType": "string",
              "name": "location",
              "type": "string"
            }
          ],
          "internalType": "struct SupplyChain.Shipment[]",
          "name": "",
          "type": "tuple[]"
        }
      ],
      "stateMutability": "view",
      "type": "function"
    },
    {
      "inputs": [
        {
          "internalType": "address",
          "name": "account",
          "type": "address"
        }
      ],
      "name": "grantDistributorRole",
      "outputs": [],
      "stateMutability": "nonpayable",
      "type": "function"
    },
    {
      "inputs": [
        {
          "internalType": "address",
          "name": "account",
          "type": "address"
        }
      ],
      "name": "grantManufacturerRole",
      "outputs": [],
      "stateMutability": "nonpayable",
      "type": "function"
    },
    {
      "inputs": [
        {
          "internalType": "address",
          "name": "account",
          "type": "address"
        }
      ],
      "name": "grantRetailerRole",
      "outputs": [],
      "stateMutability": "nonpayable",
      "type": "function"
    },
    {
      "inputs": [
        {
          "internalType": "bytes32",
          "name": "role",
          "type": "bytes32"
        },
        {
          "internalType": "address",
          "name": "account",
          "type": "address"
        }
      ],
      "name": "grantRole",
      "outputs": [],
      "stateMutability": "nonpayable",
      "type": "function"
    },
    {
      "inputs": [
        {
          "internalType": "bytes32",
          "name": "role",
          "type": "bytes32"
        },
        {
          "internalType": "address",
          "name": "account",
          "type": "address"
        }
      ],
      "name": "hasRole",
      "outputs": [
        {
          "internalType": "bool",
          "name": "",
          "type": "bool"
        }
      ],
      "stateMutability": "view",
      "type": "function"
    },
    {
      "inputs": [],
      "name": "initializeMinterRole",
      "outputs": [],
      "stateMutability": "nonpayable",
      "type": "function"
    },
    {
      "inputs": [
        {
          "internalType": "address",
          "name": "account",
          "type": "address"
        }
      ],
      "name": "isDistributor",
      "outputs": [
        {
          "internalType": "bool",
          "name": "",
          "type": "bool"
        }
      ],
      "stateMutability": "view",
      "type": "function"
    },
    {
      "inputs": [
        {
          "internalType": "address",
          "name": "account",
          "type": "address"
        }
      ],
      "name": "isManufacturer",
      "outputs": [
        {
          "internalType": "bool",
          "name": "",
          "type": "bool"
        }
      ],
      "stateMutability": "view",
      "type": "function"
    },
    {
      "inputs": [
        {
          "internalType": "address",
          "name": "account",
          "type": "address"
        }
      ],
      "name": "isRetailer",
      "outputs": [
        {
          "internalType": "bool",
          "name": "",
          "type": "bool"
        }
      ],
      "stateMutability": "view",
      "type": "function"
    },
    {
      "inputs": [],
      "name": "pause",
      "outputs": [],
      "stateMutability": "nonpayable",
      "type": "function"
    },
    {
      "inputs": [],
      "name": "paused",
      "outputs": [
        {
          "internalType": "bool",
          "name": "",
          "type": "bool"
        }
      ],
      "stateMutability": "view",
      "type": "function"
    },
    {
      "inputs": [
        {
          "internalType": "bytes32",
          "name": "role",
          "type": "bytes32"
        },
        {
          "internalType": "address",
          "name": "account",
          "type": "address"
        }
      ],
      "name": "renounceRole",
      "outputs": [],
      "stateMutability": "nonpayable",
      "type": "function"
    },
    {
      "inputs": [
        {
          "internalType": "bytes32",
          "name": "role",
          "type": "bytes32"
        },
        {
          "internalType": "address",
          "name": "account",
          "type": "address"
        }
      ],
      "name": "revokeRole",
      "outputs": [],
      "stateMutability": "nonpayable",
      "type": "function"
    },
    {
      "inputs": [
        {
          "internalType": "bytes4",
          "name": "interfaceId",
          "type": "bytes4"
        }
      ],
      "name": "supportsInterface",
      "outputs": [
        {
          "internalType": "bool",
          "name": "",
          "type": "bool"
        }
      ],
      "stateMutability": "view",
      "type": "function"
    },
    {
      "inputs": [],
      "name": "unpause",
      "outputs": [],
      "stateMutability": "nonpayable",
      "type": "function"
    },
    {
      "inputs": [
        {
          "internalType": "uint256",
          "name": "productId",
          "type": "uint256"
        },
        {
          "internalType": "string",
          "name": "newLocation",
          "type": "string"
        }
      ],
      "name": "updateLocation",
      "outputs": [],
      "stateMutability": "nonpayable",
      "type": "function"
    },
    {
      "inputs": [
        {
          "internalType": "uint256",
          "name": "productId",
          "type": "uint256"
        },
        {
          "internalType": "enum SupplyChain.Stage",
          "name": "newStage",
          "type": "uint8"
        }
      ],
      "name": "updateStage",
      "outputs": [],
      "stateMutability": "nonpayable",
      "type": "function"
    }
  ],
  "bytecode": "0x60806040523480156200001157600080fd5b506040516200260838038062002608833981016040819052620000349162000117565b600180546001600160a81b0319166101006001600160a01b038416021790556200006060003362000067565b5062000149565b62000073828262000077565b5050565b6000828152602081815260408083206001600160a01b038516845290915290205460ff1662000073576000828152602081815260408083206001600160a01b03851684529091529020805460ff19166001179055620000d33390565b6001600160a01b0316816001600160a01b0316837f2f8788117e7eff1d82e926ec794901d17c78024a50270940304540a733656f0d60405160405180910390a45050565b6000602082840312156200012a57600080fd5b81516001600160a01b03811681146200014257600080fd5b9392505050565b6124af80620001596000396000f3fe608060405234801561001057600080fd5b50600436106101a95760003560e01c8063631c6ffe116100f9578063a217fddf11610097578063d547741f11610071578063d547741f1461037b578063f0bd87cc1461038e578063f405c96b146103a3578063f9f806e1146103b657600080fd5b8063a217fddf1461033c578063c4811a4d14610344578063ce90ceff1461036857600080fd5b80638bba2a0a116100d35780638bba2a0a146102ee5780638f0c86fa1461030157806391d1485414610314578063965288b01461032757600080fd5b8063631c6ffe146102be57806379d65580146102de5780638456cb59146102e657600080fd5b806336568abe116101665780634ec0c9e9116101405780634ec0c9e91461027a57806355c4281e1461028d5780635c975abb146102a05780635da09b88146102ab57600080fd5b806336568abe146102575780633f4ba83a1461026a5780634b22c9ab1461027257600080fd5b806301ffc9a7146101ae57806312c89196146101d657806317d4a491146101f75780632115e7bf1461020a578063248a9ca31461021f5780632f2ff15d14610242575b600080fd5b6101c16101bc3660046119f2565b6103c9565b60405190151581526020015b60405180910390f35b6101e96101e4366004611ad3565b610400565b6040519081526020016101cd565b6101c1610205366004611b81565b610974565b6101e960008051602061245a83398151915281565b6101e961022d366004611b9c565b60009081526020819052604090206001015490565b610255610250366004611bb5565b61098e565b005b610255610265366004611bb5565b6109b8565b610255610a36565b6101c1610a4c565b610255610288366004611be1565b610b32565b61025561029b366004611b81565b610c7f565b60015460ff166101c1565b6101c16102b9366004611b81565b610ca2565b6102d16102cc366004611b9c565b610cbc565b6040516101cd9190611cb0565b610255610e2c565b610255610ef8565b6102556102fc366004611b81565b610f0b565b6101c161030f366004611b81565b610f2e565b6101c1610322366004611bb5565b610f44565b6101e960008051602061241a83398151915281565b6101e9600081565b610357610352366004611b9c565b610f6d565b6040516101cd959493929190611d66565b610255610376366004611dae565b6110b0565b610255610389366004611bb5565b61126c565b6101e960008051602061243a83398151915281565b6102556103b1366004611e05565b611291565b6102556103c4366004611b81565b6113eb565b60006001600160e01b03198216637965db0b60e01b14806103fa57506301ffc9a760e01b6001600160e01b03198316145b92915050565b600061040a61140e565b600061042460008051602061241a83398151915233610f44565b9050600061044060008051602061245a83398151915233610f44565b9050818061044b5750805b82610473576040518060400160405280600581526020016466616c736560d81b815250610491565b604051806040016040528060048152602001637472756560e01b8152505b826104b9576040518060400160405280600581526020016466616c736560d81b8152506104d7565b604051806040016040528060048152602001637472756560e01b8152505b6040516020016104e8929190611e39565b6040516020818303038152906040529061051e5760405162461bcd60e51b81526004016105159190611ede565b60405180910390fd5b506001546040805163d539139360e01b8152905160009261010090046001600160a01b0316916391d1485491839163d53913939160048083019260209291908290030181865afa158015610576573d6000803e3d6000fd5b505050506040513d601f19601f8201168201806040525081019061059a9190611ef1565b6040516001600160e01b031960e084901b1681526004810191909152306024820152604401602060405180830381865afa1580156105dc573d6000803e3d6000fd5b505050506040513d601f19601f820116820180604052508101906106009190611f0a565b9050808161062b576040518060400160405280600581526020016466616c736560d81b815250610649565b604051806040016040528060048152602001637472756560e01b8152505b6040516020016106599190611f2c565b604051602081830303815290604052906106865760405162461bcd60e51b81526004016105159190611ede565b50600154604051631e7054b360e01b815260009161010090046001600160a01b031690631e7054b3906106c39033908d908d908c90600401611f97565b6020604051808303816000875af19250505080156106fe575060408051601f3d908101601f191682019092526106fb91810190611ef1565b60015b6107b55761070a611fe1565b806308c379a00361076a575061071e611ffd565b80610729575061076c565b8061073333611456565b604051602001610744929190612087565b60408051601f198184030181529082905262461bcd60e51b825261051591600401611ede565b505b3d808015610796576040519150601f19603f3d011682016040523d82523d6000602084013e61079b565b606091505b506107a533611456565b60405160200161074491906120f5565b80915060006040518060c00160405280848152602001336001600160a01b03168152602001336001600160a01b03168152602001600060068111156107fc576107fc611c28565b81524260208083019190915260408051808201825260168152754d616e75666163747572696e6720466163696c69747960501b8184015292810192909252600086815260028083528382208054600180820183559184529284902086516005909402019283559285015192820180546001600160a01b03199081166001600160a01b03958616179091559385015190820180549485169190931690811783556060850151949550859491939192916001600160a81b03191617600160a01b8360068111156108cc576108cc611c28565b02179055506080820151600382015560a082015160048201906108ef90826121e8565b505050827faf6ffb6277511513e7d579327cc1fc57f0266df2fb11a60b13487b8c9cd2c3888c336040516109249291906122a8565b60405180910390a2827fe07678ebda9ff268c2c8531bb0ebfc488d9fa7067d919572337a14a72c3aa0b7600060405161095d91906122d2565b60405180910390a250909998505050505050505050565b60006103fa60008051602061241a83398151915283610f44565b6000828152602081905260409020600101546109a981611641565b6109b3838361164b565b505050565b6001600160a01b0381163314610a285760405162461bcd60e51b815260206004820152602f60248201527f416363657373436f6e74726f6c3a2063616e206f6e6c792072656e6f756e636560448201526e103937b632b9903337b91039b2b63360891b6064820152608401610515565b610a3282826116cf565b5050565b6000610a4181611641565b610a49611734565b50565b6001546040805163d539139360e01b8152905160009261010090046001600160a01b0316916391d1485491839163d53913939160048083019260209291908290030181865afa158015610aa3573d6000803e3d6000fd5b505050506040513d601f19601f82011682018060405250810190610ac79190611ef1565b6040516001600160e01b031960e084901b1681526004810191909152306024820152604401602060405180830381865afa158015610b09573d6000803e3d6000fd5b505050506040513d601f19601f82011682018060405250810190610b2d9190611f0a565b905090565b610b3a61140e565b610b5260008051602061241a83398151915233610f44565b80610b705750610b7060008051602061243a83398151915233610f44565b80610b8e5750610b8e60008051602061245a83398151915233610f44565b610bc95760405162461bcd60e51b815260206004820152600c60248201526b155b985d5d1a1bdc9a5e995960a21b6044820152606401610515565b600082815260026020526040902054610bf45760405162461bcd60e51b8152600401610515906122e0565b6000828152600260205260409020805482908290610c1490600190612321565b81548110610c2457610c24612334565b90600052602060002090600502016004019081610c4191906121e8565b50827f65edc79681b60dda53ce45315418e2d9637c424299784fc6aaf815fa304dda2b83604051610c729190611ede565b60405180910390a2505050565b6000610c8a81611641565b610a3260008051602061241a8339815191528361098e565b60006103fa60008051602061245a83398151915283610f44565b606060026000838152602001908152602001600020805480602002602001604051908101604052809291908181526020016000905b82821015610e215760008481526020908190206040805160c081018252600586029092018054835260018101546001600160a01b039081169484019490945260028101549384169183019190915290916060830190600160a01b900460ff166006811115610d6157610d61611c28565b6006811115610d7257610d72611c28565b815260200160038201548152602001600482018054610d9090612160565b80601f0160208091040260200160405190810160405280929190818152602001828054610dbc90612160565b8015610e095780601f10610dde57610100808354040283529160200191610e09565b820191906000526020600020905b815481529060010190602001808311610dec57829003601f168201915b50505050508152505081526020019060010190610cf1565b505050509050919050565b6000610e3781611641565b60015461010090046001600160a01b0316610e945760405162461bcd60e51b815260206004820152601a60248201527f50726f647563744e4654206e6f7420696e697469616c697a65640000000000006044820152606401610515565b600154604051633dd1eb6160e01b81523060048201526101009091046001600160a01b031690633dd1eb6190602401600060405180830381600087803b158015610edd57600080fd5b505af1158015610ef1573d6000803e3d6000fd5b5050505050565b6000610f0381611641565b610a49611786565b6000610f1681611641565b610a3260008051602061243a8339815191528361098e565b60006103fa60008051602061243a833981519152835b6000918252602082815260408084206001600160a01b0393909316845291905290205460ff1690565b600081815260026020526040812054819081908190606090610fa15760405162461bcd60e51b8152600401610515906122e0565b60008681526002602052604081208054610fbd90600190612321565b81548110610fcd57610fcd612334565b600091825260209091206005909102016001810154600282015460038301546004840180549495506001600160a01b039384169493831693600160a01b90930460ff1692819061101c90612160565b80601f016020809104026020016040519081016040528092919081815260200182805461104890612160565b80156110955780601f1061106a57610100808354040283529160200191611095565b820191906000526020600020905b81548152906001019060200180831161107857829003601f168201915b50505050509050955095509550955095505091939590929450565b6110b861140e565b6110d060008051602061241a83398151915233610f44565b806110ee57506110ee60008051602061243a83398151915233610f44565b61114d5760405162461bcd60e51b815260206004820152602a60248201527f43616c6c6572206d757374206265206d616e756661637475726572206f72206460448201526934b9ba3934b13aba37b960b11b6064820152608401610515565b6040805160c0810182528481523360208083019182526001600160a01b0386811684860190815260036060860190815242608087015260a0860188905260008a81526002808652978120805460018082018355918352959091208751600590960201948555945194840180549584166001600160a01b0319968716179055905195830180549690921693861684178255519394859492936001600160a81b031990911617600160a01b83600681111561120857611208611c28565b02179055506080820151600382015560a0820151600482019061122b90826121e8565b50506040516001600160a01b0385169150339086907ffe0fd664b79935c18377297309c92f6abe60ccaa6d43bd30327c508c7fda080e90600090a450505050565b60008281526020819052604090206001015461128781611641565b6109b383836116cf565b61129961140e565b6112b160008051602061241a83398151915233610f44565b806112cf57506112cf60008051602061243a83398151915233610f44565b806112ed57506112ed60008051602061245a83398151915233610f44565b6113285760405162461bcd60e51b815260206004820152600c60248201526b155b985d5d1a1bdc9a5e995960a21b6044820152606401610515565b6000828152600260205260409020546113535760405162461bcd60e51b8152600401610515906122e0565b600082815260026020526040902080548290829061137390600190612321565b8154811061138357611383612334565b60009182526020909120600260059092020101805460ff60a01b1916600160a01b8360068111156113b6576113b6611c28565b0217905550827fe07678ebda9ff268c2c8531bb0ebfc488d9fa7067d919572337a14a72c3aa0b783604051610c7291906122d2565b60006113f681611641565b610a3260008051602061245a8339815191528361098e565b60015460ff16156114545760405162461bcd60e51b815260206004820152601060248201526f14185d5cd8589b194e881c185d5cd95960821b6044820152606401610515565b565b604080518082018252601081526f181899199a1a9b1b9c1cb0b131b232b360811b60208201528151602a80825260608281019094526001600160a01b0385169291600091602082018180368337019050509050600360fc1b816000815181106114c1576114c1612334565b60200101906001600160f81b031916908160001a905350600f60fb1b816001815181106114f0576114f0612334565b60200101906001600160f81b031916908160001a90535060005b6014811015611638578260048561152284600c61234a565b6020811061153257611532612334565b1a60f81b6001600160f81b031916901c60f81c60ff168151811061155857611558612334565b01602001516001600160f81b0319168261157383600261235d565b61157e90600261234a565b8151811061158e5761158e612334565b60200101906001600160f81b031916908160001a90535082846115b283600c61234a565b602081106115c2576115c2612334565b825191901a600f169081106115d9576115d9612334565b01602001516001600160f81b031916826115f483600261235d565b6115ff90600361234a565b8151811061160f5761160f612334565b60200101906001600160f81b031916908160001a9053508061163081612374565b91505061150a565b50949350505050565b610a4981336117c1565b6116558282610f44565b610a32576000828152602081815260408083206001600160a01b03851684529091529020805460ff1916600117905561168b3390565b6001600160a01b0316816001600160a01b0316837f2f8788117e7eff1d82e926ec794901d17c78024a50270940304540a733656f0d60405160405180910390a45050565b6116d98282610f44565b15610a32576000828152602081815260408083206001600160a01b0385168085529252808320805460ff1916905551339285917ff6391f5c32d9c69d2a47ea670b442974b53935d1edc7fd64eb21e047a839171b9190a45050565b61173c6117f4565b6001805460ff191690557f5db9ee0a495bf2e6ff9c91a7834c1ba4fdd244a5e8aa4e537bd38aeae4b073aa335b6040516001600160a01b03909116815260200160405180910390a1565b61178e61140e565b6001805460ff1916811790557f62e78cea01bee320cd4e420270b5ea74000d11b0c9f74754ebdbfc544b05a25833611769565b6117cb8282610f44565b610a32576117d88161183d565b6117e383602061184f565b60405160200161074492919061238d565b60015460ff166114545760405162461bcd60e51b815260206004820152601460248201527314185d5cd8589b194e881b9bdd081c185d5cd95960621b6044820152606401610515565b60606103fa6001600160a01b03831660145b6060600061185e83600261235d565b61186990600261234a565b67ffffffffffffffff81111561188157611881611a1c565b6040519080825280601f01601f1916602001820160405280156118ab576020820181803683370190505b509050600360fc1b816000815181106118c6576118c6612334565b60200101906001600160f81b031916908160001a905350600f60fb1b816001815181106118f5576118f5612334565b60200101906001600160f81b031916908160001a905350600061191984600261235d565b61192490600161234a565b90505b600181111561199c576f181899199a1a9b1b9c1cb0b131b232b360811b85600f166010811061195857611958612334565b1a60f81b82828151811061196e5761196e612334565b60200101906001600160f81b031916908160001a90535060049490941c9361199581612402565b9050611927565b5083156119eb5760405162461bcd60e51b815260206004820181905260248201527f537472696e67733a20686578206c656e67746820696e73756666696369656e746044820152606401610515565b9392505050565b600060208284031215611a0457600080fd5b81356001600160e01b0319811681146119eb57600080fd5b634e487b7160e01b600052604160045260246000fd5b601f8201601f1916810167ffffffffffffffff81118282101715611a5857611a58611a1c565b6040525050565b600082601f830112611a7057600080fd5b813567ffffffffffffffff811115611a8a57611a8a611a1c565b604051611aa1601f8301601f191660200182611a32565b818152846020838601011115611ab657600080fd5b816020850160208301376000918101602001919091529392505050565b60008060008060808587031215611ae957600080fd5b843567ffffffffffffffff80821115611b0157600080fd5b611b0d88838901611a5f565b95506020870135915080821115611b2357600080fd5b611b2f88838901611a5f565b9450604087013593506060870135915080821115611b4c57600080fd5b50611b5987828801611a5f565b91505092959194509250565b80356001600160a01b0381168114611b7c57600080fd5b919050565b600060208284031215611b9357600080fd5b6119eb82611b65565b600060208284031215611bae57600080fd5b5035919050565b60008060408385031215611bc857600080fd5b82359150611bd860208401611b65565b90509250929050565b60008060408385031215611bf457600080fd5b82359150602083013567ffffffffffffffff811115611c1257600080fd5b611c1e85828601611a5f565b9150509250929050565b634e487b7160e01b600052602160045260246000fd5b60078110611c5c57634e487b7160e01b600052602160045260246000fd5b9052565b60005b83811015611c7b578181015183820152602001611c63565b50506000910152565b60008151808452611c9c816020860160208601611c60565b601f01601f19169290920160200192915050565b60006020808301818452808551808352604092508286019150828160051b87010184880160005b83811015611d5857888303603f19018552815180518452878101516001600160a01b039081168986015287820151168785015260608082015160c09190611d2082880182611c3e565b50506080828101519086015260a091820151918501819052611d4481860183611c84565b968901969450505090860190600101611cd7565b509098975050505050505050565b6001600160a01b038681168252851660208201526000611d896040830186611c3e565b83606083015260a06080830152611da360a0830184611c84565b979650505050505050565b600080600060608486031215611dc357600080fd5b83359250611dd360208501611b65565b9150604084013567ffffffffffffffff811115611def57600080fd5b611dfb86828701611a5f565b9150509250925092565b60008060408385031215611e1857600080fd5b82359150602083013560078110611e2e57600080fd5b809150509250929050565b7f43616c6c6572206d757374206265206d616e756661637475726572206f72207281527f657461696c65722e20526f6c657320737461747573202d204d616e756661637460208201526503ab932b91d160d51b604082015260008351611ea6816046850160208801611c60565b6b016102932ba30b4b632b91d160a51b6046918401918201528351611ed2816052840160208801611c60565b01605201949350505050565b6020815260006119eb6020830184611c84565b600060208284031215611f0357600080fd5b5051919050565b600060208284031215611f1c57600080fd5b815180151581146119eb57600080fd5b7f537570706c79436861696e20636f6e7472616374206e65656473206d696e746981527f6e67207269676874732e2043757272656e74207374617475733a200000000000602082015260008251611f8a81603b850160208701611c60565b91909101603b0192915050565b6001600160a01b0385168152608060208201819052600090611fbb90830186611c84565b8281036040840152611fcd8186611c84565b90508281036060840152611da38185611c84565b600060033d1115611ffa5760046000803e5060005160e01c5b90565b600060443d101561200b5790565b6040516003193d81016004833e81513d67ffffffffffffffff816024840111818411171561203b57505050505090565b82850191508151818111156120535750505050505090565b843d870101602082850101111561206d5750505050505090565b61207c60208286010187611a32565b509095945050505050565b7f50726f647563744e4654206372656174696f6e206661696c65643a20000000008152600083516120bf81601c850160208801611c60565b690171021b0b63632b91d160b51b601c9184019182015283516120e9816026840160208801611c60565b01602601949350505050565b7f50726f647563744e4654206372656174696f6e206661696c656420776974682081527f756e6b6e6f776e206572726f722e2043616c6c65723a20000000000000000000602082015260008251612153816037850160208701611c60565b9190910160370192915050565b600181811c9082168061217457607f821691505b60208210810361219457634e487b7160e01b600052602260045260246000fd5b50919050565b601f8211156109b357600081815260208120601f850160051c810160208610156121c15750805b601f850160051c820191505b818110156121e0578281556001016121cd565b505050505050565b815167ffffffffffffffff81111561220257612202611a1c565b612216816122108454612160565b8461219a565b602080601f83116001811461224b57600084156122335750858301515b600019600386901b1c1916600185901b1785556121e0565b600085815260208120601f198616915b8281101561227a5788860151825594840194600190910190840161225b565b50858210156122985787850151600019600388901b60f8161c191681555b5050505050600190811b01905550565b6040815260006122bb6040830185611c84565b905060018060a01b03831660208301529392505050565b602081016103fa8284611c3e565b602080825260119082015270139bc81cda1a5c1b595b9d08199bdd5b99607a1b604082015260600190565b634e487b7160e01b600052601160045260246000fd5b818103818111156103fa576103fa61230b565b634e487b7160e01b600052603260045260246000fd5b808201808211156103fa576103fa61230b565b80820281158282048414176103fa576103fa61230b565b6000600182016123865761238661230b565b5060010190565b7f416363657373436f6e74726f6c3a206163636f756e74200000000000000000008152600083516123c5816017850160208801611c60565b7001034b99036b4b9b9b4b733903937b6329607d1b60179184019182015283516123f6816028840160208801611c60565b01602801949350505050565b6000816124115761241161230b565b50600019019056feeefb95e842a3287179d933b4460be539a1d5af11aa8b325bb45c5c8dc92de4edfbd454f36a7e1a388bd6fc3ab10d434aa4578f811acbbcf33afb1c697486313c2a5f906c256a5d799494fcd066e1f6c077689de1cdb65052a1624de4bace99bfa2646970667358221220b6f3a7e630b1e783e6737c4909848ce5da2ac95323164729483e7430bf42016f64736f6c63430008130033",
  "linkReferences": {},
  "deployedLinkReferences": {}
}